{
	"StakingContract.sol": {
		"KMUToken": {
			"abi": [
				{
					"inputs": [],
					"stateMutability": "nonpayable",
					"type": "constructor"
				},
				{
					"anonymous": false,
					"inputs": [
						{
							"indexed": true,
							"internalType": "address",
							"name": "owner",
							"type": "address"
						},
						{
							"indexed": true,
							"internalType": "address",
							"name": "spender",
							"type": "address"
						},
						{
							"indexed": false,
							"internalType": "uint256",
							"name": "value",
							"type": "uint256"
						}
					],
					"name": "Approval",
					"type": "event"
				},
				{
					"anonymous": false,
					"inputs": [
						{
							"indexed": true,
							"internalType": "address",
							"name": "from",
							"type": "address"
						},
						{
							"indexed": true,
							"internalType": "address",
							"name": "to",
							"type": "address"
						},
						{
							"indexed": false,
							"internalType": "uint256",
							"name": "value",
							"type": "uint256"
						}
					],
					"name": "Transfer",
					"type": "event"
				},
				{
					"inputs": [
						{
							"internalType": "address",
							"name": "owner",
							"type": "address"
						},
						{
							"internalType": "address",
							"name": "spender",
							"type": "address"
						}
					],
					"name": "allowance",
					"outputs": [
						{
							"internalType": "uint256",
							"name": "",
							"type": "uint256"
						}
					],
					"stateMutability": "view",
					"type": "function"
				},
				{
					"inputs": [
						{
							"internalType": "address",
							"name": "spender",
							"type": "address"
						},
						{
							"internalType": "uint256",
							"name": "amount",
							"type": "uint256"
						}
					],
					"name": "approve",
					"outputs": [
						{
							"internalType": "bool",
							"name": "",
							"type": "bool"
						}
					],
					"stateMutability": "nonpayable",
					"type": "function"
				},
				{
					"inputs": [
						{
							"internalType": "address",
							"name": "account",
							"type": "address"
						}
					],
					"name": "balanceOf",
					"outputs": [
						{
							"internalType": "uint256",
							"name": "",
							"type": "uint256"
						}
					],
					"stateMutability": "view",
					"type": "function"
				},
				{
					"inputs": [],
					"name": "decimals",
					"outputs": [
						{
							"internalType": "uint8",
							"name": "",
							"type": "uint8"
						}
					],
					"stateMutability": "view",
					"type": "function"
				},
				{
					"inputs": [],
					"name": "faucet",
					"outputs": [],
					"stateMutability": "nonpayable",
					"type": "function"
				},
				{
					"inputs": [],
					"name": "name",
					"outputs": [
						{
							"internalType": "string",
							"name": "",
							"type": "string"
						}
					],
					"stateMutability": "view",
					"type": "function"
				},
				{
					"inputs": [],
					"name": "symbol",
					"outputs": [
						{
							"internalType": "string",
							"name": "",
							"type": "string"
						}
					],
					"stateMutability": "view",
					"type": "function"
				},
				{
					"inputs": [],
					"name": "totalSupply",
					"outputs": [
						{
							"internalType": "uint256",
							"name": "",
							"type": "uint256"
						}
					],
					"stateMutability": "view",
					"type": "function"
				},
				{
					"inputs": [
						{
							"internalType": "address",
							"name": "to",
							"type": "address"
						},
						{
							"internalType": "uint256",
							"name": "amount",
							"type": "uint256"
						}
					],
					"name": "transfer",
					"outputs": [
						{
							"internalType": "bool",
							"name": "",
							"type": "bool"
						}
					],
					"stateMutability": "nonpayable",
					"type": "function"
				},
				{
					"inputs": [
						{
							"internalType": "address",
							"name": "from",
							"type": "address"
						},
						{
							"internalType": "address",
							"name": "to",
							"type": "address"
						},
						{
							"internalType": "uint256",
							"name": "amount",
							"type": "uint256"
						}
					],
					"name": "transferFrom",
					"outputs": [
						{
							"internalType": "bool",
							"name": "",
							"type": "bool"
						}
					],
					"stateMutability": "nonpayable",
					"type": "function"
				}
			],
			"devdoc": {
				"kind": "dev",
				"methods": {},
				"version": 1
			},
			"evm": {
				"assembly": "    /* \"StakingContract.sol\":1840:4804  contract KMUToken is IERC20 {... */\n  mstore(0x40, 0x80)\n    /* \"StakingContract.sol\":1874:1915  string  public name     = \"Kookmin Token\" */\n  mload(0x40)\n  dup1\n  0x40\n  add\n  0x40\n  mstore\n  dup1\n  0x0d\n  dup2\n  mstore\n  0x20\n  add\n  0x4b6f6f6b6d696e20546f6b656e00000000000000000000000000000000000000\n  dup2\n  mstore\n  pop\n  0x00\n  swap1\n  dup2\n  tag_1\n  swap2\n  swap1\n  tag_2\n  jump\t// in\ntag_1:\n  pop\n    /* \"StakingContract.sol\":1921:1952  string  public symbol   = \"KMU\" */\n  mload(0x40)\n  dup1\n  0x40\n  add\n  0x40\n  mstore\n  dup1\n  0x03\n  dup2\n  mstore\n  0x20\n  add\n  0x4b4d550000000000000000000000000000000000000000000000000000000000\n  dup2\n  mstore\n  pop\n  0x01\n  swap1\n  dup2\n  tag_3\n  swap2\n  swap1\n  tag_2\n  jump\t// in\ntag_3:\n  pop\n    /* \"StakingContract.sol\":1984:1986  18 */\n  0x12\n    /* \"StakingContract.sol\":1958:1986  uint8   public decimals = 18 */\n  0x02\n  exp(0x0100, 0x00)\n  dup2\n  sload\n  dup2\n  0xff\n  mul\n  not\n  and\n  swap1\n  dup4\n  0xff\n  and\n  mul\n  or\n  swap1\n  sstore\n  pop\n    /* \"StakingContract.sol\":2152:2380  constructor() {... */\n  callvalue\n  dup1\n  iszero\n  tag_4\n  jumpi\n  revert(0x00, 0x00)\ntag_4:\n  pop\n    /* \"StakingContract.sol\":2176:2197  uint256 initialSupply */\n  0x00\n    /* \"StakingContract.sol\":2218:2226  decimals */\n  0x02\n  0x00\n  swap1\n  sload\n  swap1\n  0x0100\n  exp\n  swap1\n  div\n  0xff\n  and\n    /* \"StakingContract.sol\":2212:2214  10 */\n  0x0a\n    /* \"StakingContract.sol\":2212:2226  10 ** decimals */\n  tag_7\n  swap2\n  swap1\n  tag_8\n  jump\t// in\ntag_7:\n    /* \"StakingContract.sol\":2200:2209  1_000_000 */\n  0x0f4240\n    /* \"StakingContract.sol\":2200:2226  1_000_000 * 10 ** decimals */\n  tag_9\n  swap2\n  swap1\n  tag_10\n  jump\t// in\ntag_9:\n    /* \"StakingContract.sol\":2176:2226  uint256 initialSupply = 1_000_000 * 10 ** decimals */\n  swap1\n  pop\n    /* \"StakingContract.sol\":2251:2264  initialSupply */\n  dup1\n    /* \"StakingContract.sol\":2236:2248  _totalSupply */\n  0x03\n    /* \"StakingContract.sol\":2236:2264  _totalSupply = initialSupply */\n  dup2\n  swap1\n  sstore\n  pop\n    /* \"StakingContract.sol\":2298:2311  initialSupply */\n  dup1\n    /* \"StakingContract.sol\":2274:2283  _balances */\n  0x04\n    /* \"StakingContract.sol\":2274:2295  _balances[msg.sender] */\n  0x00\n    /* \"StakingContract.sol\":2284:2294  msg.sender */\n  caller\n    /* \"StakingContract.sol\":2274:2295  _balances[msg.sender] */\n  0xffffffffffffffffffffffffffffffffffffffff\n  and\n  0xffffffffffffffffffffffffffffffffffffffff\n  and\n  dup2\n  mstore\n  0x20\n  add\n  swap1\n  dup2\n  mstore\n  0x20\n  add\n  0x00\n  keccak256\n    /* \"StakingContract.sol\":2274:2311  _balances[msg.sender] = initialSupply */\n  dup2\n  swap1\n  sstore\n  pop\n    /* \"StakingContract.sol\":2347:2357  msg.sender */\n  caller\n    /* \"StakingContract.sol\":2326:2373  Transfer(address(0), msg.sender, initialSupply) */\n  0xffffffffffffffffffffffffffffffffffffffff\n  and\n    /* \"StakingContract.sol\":2343:2344  0 */\n  0x00\n    /* \"StakingContract.sol\":2326:2373  Transfer(address(0), msg.sender, initialSupply) */\n  0xffffffffffffffffffffffffffffffffffffffff\n  and\n  0xddf252ad1be2c89b69c2b068fc378daa952ba7f163c4a11628f55a4df523b3ef\n    /* \"StakingContract.sol\":2359:2372  initialSupply */\n  dup4\n    /* \"StakingContract.sol\":2326:2373  Transfer(address(0), msg.sender, initialSupply) */\n  mload(0x40)\n  tag_11\n  swap2\n  swap1\n  tag_12\n  jump\t// in\ntag_11:\n  mload(0x40)\n  dup1\n  swap2\n  sub\n  swap1\n  log3\n    /* \"StakingContract.sol\":2166:2380  {... */\n  pop\n    /* \"StakingContract.sol\":1840:4804  contract KMUToken is IERC20 {... */\n  jump(tag_13)\n    /* \"#utility.yul\":7:106   */\ntag_14:\n    /* \"#utility.yul\":59:65   */\n  0x00\n    /* \"#utility.yul\":93:98   */\n  dup2\n    /* \"#utility.yul\":87:99   */\n  mload\n    /* \"#utility.yul\":77:99   */\n  swap1\n  pop\n    /* \"#utility.yul\":7:106   */\n  swap2\n  swap1\n  pop\n  jump\t// out\n    /* \"#utility.yul\":112:292   */\ntag_15:\n    /* \"#utility.yul\":160:237   */\n  0x4e487b7100000000000000000000000000000000000000000000000000000000\n    /* \"#utility.yul\":157:158   */\n  0x00\n    /* \"#utility.yul\":150:238   */\n  mstore\n    /* \"#utility.yul\":257:261   */\n  0x41\n    /* \"#utility.yul\":254:255   */\n  0x04\n    /* \"#utility.yul\":247:262   */\n  mstore\n    /* \"#utility.yul\":281:285   */\n  0x24\n    /* \"#utility.yul\":278:279   */\n  0x00\n    /* \"#utility.yul\":271:286   */\n  revert\n    /* \"#utility.yul\":298:478   */\ntag_16:\n    /* \"#utility.yul\":346:423   */\n  0x4e487b7100000000000000000000000000000000000000000000000000000000\n    /* \"#utility.yul\":343:344   */\n  0x00\n    /* \"#utility.yul\":336:424   */\n  mstore\n    /* \"#utility.yul\":443:447   */\n  0x22\n    /* \"#utility.yul\":440:441   */\n  0x04\n    /* \"#utility.yul\":433:448   */\n  mstore\n    /* \"#utility.yul\":467:471   */\n  0x24\n    /* \"#utility.yul\":464:465   */\n  0x00\n    /* \"#utility.yul\":457:472   */\n  revert\n    /* \"#utility.yul\":484:804   */\ntag_17:\n    /* \"#utility.yul\":528:534   */\n  0x00\n    /* \"#utility.yul\":565:566   */\n  0x02\n    /* \"#utility.yul\":559:563   */\n  dup3\n    /* \"#utility.yul\":555:567   */\n  div\n    /* \"#utility.yul\":545:567   */\n  swap1\n  pop\n    /* \"#utility.yul\":612:613   */\n  0x01\n    /* \"#utility.yul\":606:610   */\n  dup3\n    /* \"#utility.yul\":602:614   */\n  and\n    /* \"#utility.yul\":633:651   */\n  dup1\n    /* \"#utility.yul\":623:704   */\n  tag_45\n  jumpi\n    /* \"#utility.yul\":689:693   */\n  0x7f\n    /* \"#utility.yul\":681:687   */\n  dup3\n    /* \"#utility.yul\":677:694   */\n  and\n    /* \"#utility.yul\":667:694   */\n  swap2\n  pop\n    /* \"#utility.yul\":623:704   */\ntag_45:\n    /* \"#utility.yul\":751:753   */\n  0x20\n    /* \"#utility.yul\":743:749   */\n  dup3\n    /* \"#utility.yul\":740:754   */\n  lt\n    /* \"#utility.yul\":720:738   */\n  dup2\n    /* \"#utility.yul\":717:755   */\n  sub\n    /* \"#utility.yul\":714:798   */\n  tag_46\n  jumpi\n    /* \"#utility.yul\":770:788   */\n  tag_47\n  tag_16\n  jump\t// in\ntag_47:\n    /* \"#utility.yul\":714:798   */\ntag_46:\n    /* \"#utility.yul\":535:804   */\n  pop\n    /* \"#utility.yul\":484:804   */\n  swap2\n  swap1\n  pop\n  jump\t// out\n    /* \"#utility.yul\":810:951   */\ntag_18:\n    /* \"#utility.yul\":859:863   */\n  0x00\n    /* \"#utility.yul\":882:885   */\n  dup2\n    /* \"#utility.yul\":874:885   */\n  swap1\n  pop\n    /* \"#utility.yul\":905:908   */\n  dup2\n    /* \"#utility.yul\":902:903   */\n  0x00\n    /* \"#utility.yul\":895:909   */\n  mstore\n    /* \"#utility.yul\":939:943   */\n  0x20\n    /* \"#utility.yul\":936:937   */\n  0x00\n    /* \"#utility.yul\":926:944   */\n  keccak256\n    /* \"#utility.yul\":918:944   */\n  swap1\n  pop\n    /* \"#utility.yul\":810:951   */\n  swap2\n  swap1\n  pop\n  jump\t// out\n    /* \"#utility.yul\":957:1050   */\ntag_19:\n    /* \"#utility.yul\":994:1000   */\n  0x00\n    /* \"#utility.yul\":1041:1043   */\n  0x20\n    /* \"#utility.yul\":1036:1038   */\n  0x1f\n    /* \"#utility.yul\":1029:1034   */\n  dup4\n    /* \"#utility.yul\":1025:1039   */\n  add\n    /* \"#utility.yul\":1021:1044   */\n  div\n    /* \"#utility.yul\":1011:1044   */\n  swap1\n  pop\n    /* \"#utility.yul\":957:1050   */\n  swap2\n  swap1\n  pop\n  jump\t// out\n    /* \"#utility.yul\":1056:1163   */\ntag_20:\n    /* \"#utility.yul\":1100:1108   */\n  0x00\n    /* \"#utility.yul\":1150:1155   */\n  dup3\n    /* \"#utility.yul\":1144:1148   */\n  dup3\n    /* \"#utility.yul\":1140:1156   */\n  shl\n    /* \"#utility.yul\":1119:1156   */\n  swap1\n  pop\n    /* \"#utility.yul\":1056:1163   */\n  swap3\n  swap2\n  pop\n  pop\n  jump\t// out\n    /* \"#utility.yul\":1169:1562   */\ntag_21:\n    /* \"#utility.yul\":1238:1244   */\n  0x00\n    /* \"#utility.yul\":1288:1289   */\n  0x08\n    /* \"#utility.yul\":1276:1286   */\n  dup4\n    /* \"#utility.yul\":1272:1290   */\n  mul\n    /* \"#utility.yul\":1311:1408   */\n  tag_52\n    /* \"#utility.yul\":1341:1407   */\n  0xffffffffffffffffffffffffffffffffffffffffffffffffffffffffffffffff\n    /* \"#utility.yul\":1330:1339   */\n  dup3\n    /* \"#utility.yul\":1311:1408   */\n  tag_20\n  jump\t// in\ntag_52:\n    /* \"#utility.yul\":1429:1468   */\n  tag_53\n    /* \"#utility.yul\":1459:1467   */\n  dup7\n    /* \"#utility.yul\":1448:1457   */\n  dup4\n    /* \"#utility.yul\":1429:1468   */\n  tag_20\n  jump\t// in\ntag_53:\n    /* \"#utility.yul\":1417:1468   */\n  swap6\n  pop\n    /* \"#utility.yul\":1501:1505   */\n  dup1\n    /* \"#utility.yul\":1497:1506   */\n  not\n    /* \"#utility.yul\":1490:1495   */\n  dup5\n    /* \"#utility.yul\":1486:1507   */\n  and\n    /* \"#utility.yul\":1477:1507   */\n  swap4\n  pop\n    /* \"#utility.yul\":1550:1554   */\n  dup1\n    /* \"#utility.yul\":1540:1548   */\n  dup7\n    /* \"#utility.yul\":1536:1555   */\n  and\n    /* \"#utility.yul\":1529:1534   */\n  dup5\n    /* \"#utility.yul\":1526:1556   */\n  or\n    /* \"#utility.yul\":1516:1556   */\n  swap3\n  pop\n    /* \"#utility.yul\":1245:1562   */\n  pop\n  pop\n    /* \"#utility.yul\":1169:1562   */\n  swap4\n  swap3\n  pop\n  pop\n  pop\n  jump\t// out\n    /* \"#utility.yul\":1568:1645   */\ntag_22:\n    /* \"#utility.yul\":1605:1612   */\n  0x00\n    /* \"#utility.yul\":1634:1639   */\n  dup2\n    /* \"#utility.yul\":1623:1639   */\n  swap1\n  pop\n    /* \"#utility.yul\":1568:1645   */\n  swap2\n  swap1\n  pop\n  jump\t// out\n    /* \"#utility.yul\":1651:1711   */\ntag_23:\n    /* \"#utility.yul\":1679:1682   */\n  0x00\n    /* \"#utility.yul\":1700:1705   */\n  dup2\n    /* \"#utility.yul\":1693:1705   */\n  swap1\n  pop\n    /* \"#utility.yul\":1651:1711   */\n  swap2\n  swap1\n  pop\n  jump\t// out\n    /* \"#utility.yul\":1717:1859   */\ntag_24:\n    /* \"#utility.yul\":1767:1776   */\n  0x00\n    /* \"#utility.yul\":1800:1853   */\n  tag_57\n    /* \"#utility.yul\":1818:1852   */\n  tag_58\n    /* \"#utility.yul\":1827:1851   */\n  tag_59\n    /* \"#utility.yul\":1845:1850   */\n  dup5\n    /* \"#utility.yul\":1827:1851   */\n  tag_22\n  jump\t// in\ntag_59:\n    /* \"#utility.yul\":1818:1852   */\n  tag_23\n  jump\t// in\ntag_58:\n    /* \"#utility.yul\":1800:1853   */\n  tag_22\n  jump\t// in\ntag_57:\n    /* \"#utility.yul\":1787:1853   */\n  swap1\n  pop\n    /* \"#utility.yul\":1717:1859   */\n  swap2\n  swap1\n  pop\n  jump\t// out\n    /* \"#utility.yul\":1865:1940   */\ntag_25:\n    /* \"#utility.yul\":1908:1911   */\n  0x00\n    /* \"#utility.yul\":1929:1934   */\n  dup2\n    /* \"#utility.yul\":1922:1934   */\n  swap1\n  pop\n    /* \"#utility.yul\":1865:1940   */\n  swap2\n  swap1\n  pop\n  jump\t// out\n    /* \"#utility.yul\":1946:2215   */\ntag_26:\n    /* \"#utility.yul\":2056:2095   */\n  tag_62\n    /* \"#utility.yul\":2087:2094   */\n  dup4\n    /* \"#utility.yul\":2056:2095   */\n  tag_24\n  jump\t// in\ntag_62:\n    /* \"#utility.yul\":2117:2208   */\n  tag_63\n    /* \"#utility.yul\":2166:2207   */\n  tag_64\n    /* \"#utility.yul\":2190:2206   */\n  dup3\n    /* \"#utility.yul\":2166:2207   */\n  tag_25\n  jump\t// in\ntag_64:\n    /* \"#utility.yul\":2158:2164   */\n  dup5\n    /* \"#utility.yul\":2151:2155   */\n  dup5\n    /* \"#utility.yul\":2145:2156   */\n  sload\n    /* \"#utility.yul\":2117:2208   */\n  tag_21\n  jump\t// in\ntag_63:\n    /* \"#utility.yul\":2111:2115   */\n  dup3\n    /* \"#utility.yul\":2104:2209   */\n  sstore\n    /* \"#utility.yul\":2022:2215   */\n  pop\n    /* \"#utility.yul\":1946:2215   */\n  pop\n  pop\n  pop\n  jump\t// out\n    /* \"#utility.yul\":2221:2294   */\ntag_27:\n    /* \"#utility.yul\":2266:2269   */\n  0x00\n    /* \"#utility.yul\":2287:2288   */\n  0x00\n    /* \"#utility.yul\":2280:2288   */\n  swap1\n  pop\n    /* \"#utility.yul\":2221:2294   */\n  swap1\n  jump\t// out\n    /* \"#utility.yul\":2300:2489   */\ntag_28:\n    /* \"#utility.yul\":2377:2409   */\n  tag_67\n  tag_27\n  jump\t// in\ntag_67:\n    /* \"#utility.yul\":2418:2483   */\n  tag_68\n    /* \"#utility.yul\":2476:2482   */\n  dup2\n    /* \"#utility.yul\":2468:2474   */\n  dup5\n    /* \"#utility.yul\":2462:2466   */\n  dup5\n    /* \"#utility.yul\":2418:2483   */\n  tag_26\n  jump\t// in\ntag_68:\n    /* \"#utility.yul\":2353:2489   */\n  pop\n    /* \"#utility.yul\":2300:2489   */\n  pop\n  pop\n  jump\t// out\n    /* \"#utility.yul\":2495:2709   */\ntag_29:\n    /* \"#utility.yul\":2580:2581   */\n  0x00\n    /* \"#utility.yul\":2565:2703   */\ntag_70:\n    /* \"#utility.yul\":2590:2599   */\n  dup3\n    /* \"#utility.yul\":2587:2588   */\n  dup2\n    /* \"#utility.yul\":2584:2600   */\n  lt\n    /* \"#utility.yul\":2565:2703   */\n  iszero\n  tag_72\n  jumpi\n    /* \"#utility.yul\":2642:2693   */\n  tag_73\n    /* \"#utility.yul\":2691:2692   */\n  0x00\n    /* \"#utility.yul\":2687:2688   */\n  dup3\n    /* \"#utility.yul\":2676:2685   */\n  dup5\n    /* \"#utility.yul\":2672:2689   */\n  add\n    /* \"#utility.yul\":2642:2693   */\n  tag_28\n  jump\t// in\ntag_73:\n    /* \"#utility.yul\":2615:2616   */\n  0x01\n    /* \"#utility.yul\":2612:2613   */\n  dup2\n    /* \"#utility.yul\":2608:2617   */\n  add\n    /* \"#utility.yul\":2603:2617   */\n  swap1\n  pop\n    /* \"#utility.yul\":2565:2703   */\n  jump(tag_70)\ntag_72:\n    /* \"#utility.yul\":2569:2583   */\n  pop\n    /* \"#utility.yul\":2495:2709   */\n  pop\n  pop\n  jump\t// out\n    /* \"#utility.yul\":2715:3461   */\ntag_30:\n    /* \"#utility.yul\":2816:2818   */\n  0x1f\n    /* \"#utility.yul\":2811:2814   */\n  dup3\n    /* \"#utility.yul\":2808:2819   */\n  gt\n    /* \"#utility.yul\":2805:3454   */\n  iszero\n  tag_75\n  jumpi\n    /* \"#utility.yul\":2845:2855   */\n  dup3\n    /* \"#utility.yul\":2840:2843   */\n  dup3\n    /* \"#utility.yul\":2837:2856   */\n  gt\n    /* \"#utility.yul\":2834:3444   */\n  iszero\n  tag_76\n  jumpi\n    /* \"#utility.yul\":2891:2929   */\n  tag_77\n    /* \"#utility.yul\":2923:2928   */\n  dup2\n    /* \"#utility.yul\":2891:2929   */\n  tag_18\n  jump\t// in\ntag_77:\n    /* \"#utility.yul\":2966:2988   */\n  tag_78\n    /* \"#utility.yul\":2984:2987   */\n  dup4\n    /* \"#utility.yul\":2966:2988   */\n  tag_19\n  jump\t// in\ntag_78:\n    /* \"#utility.yul\":3025:3054   */\n  tag_79\n    /* \"#utility.yul\":3043:3053   */\n  dup6\n    /* \"#utility.yul\":3025:3054   */\n  tag_19\n  jump\t// in\ntag_79:\n    /* \"#utility.yul\":3215:3217   */\n  0x20\n    /* \"#utility.yul\":3203:3213   */\n  dup7\n    /* \"#utility.yul\":3200:3218   */\n  lt\n    /* \"#utility.yul\":3197:3276   */\n  iszero\n  tag_80\n  jumpi\n    /* \"#utility.yul\":3257:3258   */\n  0x00\n    /* \"#utility.yul\":3241:3258   */\n  swap1\n  pop\n    /* \"#utility.yul\":3197:3276   */\ntag_80:\n    /* \"#utility.yul\":3326:3338   */\n  dup1\n    /* \"#utility.yul\":3316:3324   */\n  dup4\n    /* \"#utility.yul\":3312:3339   */\n  add\n    /* \"#utility.yul\":3356:3430   */\n  tag_81\n    /* \"#utility.yul\":3416:3428   */\n  dup3\n    /* \"#utility.yul\":3402:3414   */\n  dup5\n    /* \"#utility.yul\":3398:3429   */\n  sub\n    /* \"#utility.yul\":3385:3396   */\n  dup3\n    /* \"#utility.yul\":3356:3430   */\n  tag_29\n  jump\t// in\ntag_81:\n    /* \"#utility.yul\":2857:3444   */\n  pop\n  pop\n  pop\n  pop\n    /* \"#utility.yul\":2834:3444   */\ntag_76:\n    /* \"#utility.yul\":2805:3454   */\ntag_75:\n    /* \"#utility.yul\":2715:3461   */\n  pop\n  pop\n  pop\n  jump\t// out\n    /* \"#utility.yul\":3467:3584   */\ntag_31:\n    /* \"#utility.yul\":3521:3529   */\n  0x00\n    /* \"#utility.yul\":3571:3576   */\n  dup3\n    /* \"#utility.yul\":3565:3569   */\n  dup3\n    /* \"#utility.yul\":3561:3577   */\n  shr\n    /* \"#utility.yul\":3540:3577   */\n  swap1\n  pop\n    /* \"#utility.yul\":3467:3584   */\n  swap3\n  swap2\n  pop\n  pop\n  jump\t// out\n    /* \"#utility.yul\":3590:3759   */\ntag_32:\n    /* \"#utility.yul\":3634:3640   */\n  0x00\n    /* \"#utility.yul\":3667:3718   */\n  tag_84\n    /* \"#utility.yul\":3715:3716   */\n  0x00\n    /* \"#utility.yul\":3711:3717   */\n  not\n    /* \"#utility.yul\":3703:3708   */\n  dup5\n    /* \"#utility.yul\":3700:3701   */\n  0x08\n    /* \"#utility.yul\":3696:3709   */\n  mul\n    /* \"#utility.yul\":3667:3718   */\n  tag_31\n  jump\t// in\ntag_84:\n    /* \"#utility.yul\":3663:3719   */\n  not\n    /* \"#utility.yul\":3748:3752   */\n  dup1\n    /* \"#utility.yul\":3742:3746   */\n  dup4\n    /* \"#utility.yul\":3738:3753   */\n  and\n    /* \"#utility.yul\":3728:3753   */\n  swap2\n  pop\n    /* \"#utility.yul\":3641:3759   */\n  pop\n    /* \"#utility.yul\":3590:3759   */\n  swap3\n  swap2\n  pop\n  pop\n  jump\t// out\n    /* \"#utility.yul\":3764:4059   */\ntag_33:\n    /* \"#utility.yul\":3840:3844   */\n  0x00\n    /* \"#utility.yul\":3986:4015   */\n  tag_86\n    /* \"#utility.yul\":4011:4014   */\n  dup4\n    /* \"#utility.yul\":4005:4009   */\n  dup4\n    /* \"#utility.yul\":3986:4015   */\n  tag_32\n  jump\t// in\ntag_86:\n    /* \"#utility.yul\":3978:4015   */\n  swap2\n  pop\n    /* \"#utility.yul\":4048:4051   */\n  dup3\n    /* \"#utility.yul\":4045:4046   */\n  0x02\n    /* \"#utility.yul\":4041:4052   */\n  mul\n    /* \"#utility.yul\":4035:4039   */\n  dup3\n    /* \"#utility.yul\":4032:4053   */\n  or\n    /* \"#utility.yul\":4024:4053   */\n  swap1\n  pop\n    /* \"#utility.yul\":3764:4059   */\n  swap3\n  swap2\n  pop\n  pop\n  jump\t// out\n    /* \"#utility.yul\":4064:5459   */\ntag_2:\n    /* \"#utility.yul\":4181:4218   */\n  tag_88\n    /* \"#utility.yul\":4214:4217   */\n  dup3\n    /* \"#utility.yul\":4181:4218   */\n  tag_14\n  jump\t// in\ntag_88:\n    /* \"#utility.yul\":4283:4301   */\n  0xffffffffffffffff\n    /* \"#utility.yul\":4275:4281   */\n  dup2\n    /* \"#utility.yul\":4272:4302   */\n  gt\n    /* \"#utility.yul\":4269:4325   */\n  iszero\n  tag_89\n  jumpi\n    /* \"#utility.yul\":4305:4323   */\n  tag_90\n  tag_15\n  jump\t// in\ntag_90:\n    /* \"#utility.yul\":4269:4325   */\ntag_89:\n    /* \"#utility.yul\":4349:4387   */\n  tag_91\n    /* \"#utility.yul\":4381:4385   */\n  dup3\n    /* \"#utility.yul\":4375:4386   */\n  sload\n    /* \"#utility.yul\":4349:4387   */\n  tag_17\n  jump\t// in\ntag_91:\n    /* \"#utility.yul\":4434:4501   */\n  tag_92\n    /* \"#utility.yul\":4494:4500   */\n  dup3\n    /* \"#utility.yul\":4486:4492   */\n  dup3\n    /* \"#utility.yul\":4480:4484   */\n  dup6\n    /* \"#utility.yul\":4434:4501   */\n  tag_30\n  jump\t// in\ntag_92:\n    /* \"#utility.yul\":4528:4529   */\n  0x00\n    /* \"#utility.yul\":4552:4556   */\n  0x20\n    /* \"#utility.yul\":4539:4556   */\n  swap1\n  pop\n    /* \"#utility.yul\":4584:4586   */\n  0x1f\n    /* \"#utility.yul\":4576:4582   */\n  dup4\n    /* \"#utility.yul\":4573:4587   */\n  gt\n    /* \"#utility.yul\":4601:4602   */\n  0x01\n    /* \"#utility.yul\":4596:5214   */\n  dup2\n  eq\n  tag_94\n  jumpi\n    /* \"#utility.yul\":5258:5259   */\n  0x00\n    /* \"#utility.yul\":5275:5281   */\n  dup5\n    /* \"#utility.yul\":5272:5349   */\n  iszero\n  tag_95\n  jumpi\n    /* \"#utility.yul\":5324:5333   */\n  dup3\n    /* \"#utility.yul\":5319:5322   */\n  dup8\n    /* \"#utility.yul\":5315:5334   */\n  add\n    /* \"#utility.yul\":5309:5335   */\n  mload\n    /* \"#utility.yul\":5300:5335   */\n  swap1\n  pop\n    /* \"#utility.yul\":5272:5349   */\ntag_95:\n    /* \"#utility.yul\":5375:5442   */\n  tag_96\n    /* \"#utility.yul\":5435:5441   */\n  dup6\n    /* \"#utility.yul\":5428:5433   */\n  dup3\n    /* \"#utility.yul\":5375:5442   */\n  tag_33\n  jump\t// in\ntag_96:\n    /* \"#utility.yul\":5369:5373   */\n  dup7\n    /* \"#utility.yul\":5362:5443   */\n  sstore\n    /* \"#utility.yul\":5231:5453   */\n  pop\n    /* \"#utility.yul\":4566:5453   */\n  jump(tag_93)\n    /* \"#utility.yul\":4596:5214   */\ntag_94:\n    /* \"#utility.yul\":4648:4652   */\n  0x1f\n    /* \"#utility.yul\":4644:4653   */\n  not\n    /* \"#utility.yul\":4636:4642   */\n  dup5\n    /* \"#utility.yul\":4632:4654   */\n  and\n    /* \"#utility.yul\":4682:4719   */\n  tag_97\n    /* \"#utility.yul\":4714:4718   */\n  dup7\n    /* \"#utility.yul\":4682:4719   */\n  tag_18\n  jump\t// in\ntag_97:\n    /* \"#utility.yul\":4741:4742   */\n  0x00\n    /* \"#utility.yul\":4755:4963   */\ntag_98:\n    /* \"#utility.yul\":4769:4776   */\n  dup3\n    /* \"#utility.yul\":4766:4767   */\n  dup2\n    /* \"#utility.yul\":4763:4777   */\n  lt\n    /* \"#utility.yul\":4755:4963   */\n  iszero\n  tag_100\n  jumpi\n    /* \"#utility.yul\":4848:4857   */\n  dup5\n    /* \"#utility.yul\":4843:4846   */\n  dup10\n    /* \"#utility.yul\":4839:4858   */\n  add\n    /* \"#utility.yul\":4833:4859   */\n  mload\n    /* \"#utility.yul\":4825:4831   */\n  dup3\n    /* \"#utility.yul\":4818:4860   */\n  sstore\n    /* \"#utility.yul\":4899:4900   */\n  0x01\n    /* \"#utility.yul\":4891:4897   */\n  dup3\n    /* \"#utility.yul\":4887:4901   */\n  add\n    /* \"#utility.yul\":4877:4901   */\n  swap2\n  pop\n    /* \"#utility.yul\":4946:4948   */\n  0x20\n    /* \"#utility.yul\":4935:4944   */\n  dup6\n    /* \"#utility.yul\":4931:4949   */\n  add\n    /* \"#utility.yul\":4918:4949   */\n  swap5\n  pop\n    /* \"#utility.yul\":4792:4796   */\n  0x20\n    /* \"#utility.yul\":4789:4790   */\n  dup2\n    /* \"#utility.yul\":4785:4797   */\n  add\n    /* \"#utility.yul\":4780:4797   */\n  swap1\n  pop\n    /* \"#utility.yul\":4755:4963   */\n  jump(tag_98)\ntag_100:\n    /* \"#utility.yul\":4991:4997   */\n  dup7\n    /* \"#utility.yul\":4982:4989   */\n  dup4\n    /* \"#utility.yul\":4979:4998   */\n  lt\n    /* \"#utility.yul\":4976:5155   */\n  iszero\n  tag_101\n  jumpi\n    /* \"#utility.yul\":5049:5058   */\n  dup5\n    /* \"#utility.yul\":5044:5047   */\n  dup10\n    /* \"#utility.yul\":5040:5059   */\n  add\n    /* \"#utility.yul\":5034:5060   */\n  mload\n    /* \"#utility.yul\":5092:5140   */\n  tag_102\n    /* \"#utility.yul\":5134:5138   */\n  0x1f\n    /* \"#utility.yul\":5126:5132   */\n  dup10\n    /* \"#utility.yul\":5122:5139   */\n  and\n    /* \"#utility.yul\":5111:5120   */\n  dup3\n    /* \"#utility.yul\":5092:5140   */\n  tag_32\n  jump\t// in\ntag_102:\n    /* \"#utility.yul\":5084:5090   */\n  dup4\n    /* \"#utility.yul\":5077:5141   */\n  sstore\n    /* \"#utility.yul\":4999:5155   */\n  pop\n    /* \"#utility.yul\":4976:5155   */\ntag_101:\n    /* \"#utility.yul\":5201:5202   */\n  0x01\n    /* \"#utility.yul\":5197:5198   */\n  0x02\n    /* \"#utility.yul\":5189:5195   */\n  dup9\n    /* \"#utility.yul\":5185:5199   */\n  mul\n    /* \"#utility.yul\":5181:5203   */\n  add\n    /* \"#utility.yul\":5175:5179   */\n  dup9\n    /* \"#utility.yul\":5168:5204   */\n  sstore\n    /* \"#utility.yul\":4603:5214   */\n  pop\n  pop\n  pop\n    /* \"#utility.yul\":4566:5453   */\ntag_93:\n  pop\n    /* \"#utility.yul\":4156:5459   */\n  pop\n  pop\n  pop\n    /* \"#utility.yul\":4064:5459   */\n  pop\n  pop\n  jump\t// out\n    /* \"#utility.yul\":5465:5645   */\ntag_34:\n    /* \"#utility.yul\":5513:5590   */\n  0x4e487b7100000000000000000000000000000000000000000000000000000000\n    /* \"#utility.yul\":5510:5511   */\n  0x00\n    /* \"#utility.yul\":5503:5591   */\n  mstore\n    /* \"#utility.yul\":5610:5614   */\n  0x11\n    /* \"#utility.yul\":5607:5608   */\n  0x04\n    /* \"#utility.yul\":5600:5615   */\n  mstore\n    /* \"#utility.yul\":5634:5638   */\n  0x24\n    /* \"#utility.yul\":5631:5632   */\n  0x00\n    /* \"#utility.yul\":5624:5639   */\n  revert\n    /* \"#utility.yul\":5651:5753   */\ntag_35:\n    /* \"#utility.yul\":5693:5701   */\n  0x00\n    /* \"#utility.yul\":5740:5745   */\n  dup2\n    /* \"#utility.yul\":5737:5738   */\n  0x01\n    /* \"#utility.yul\":5733:5746   */\n  shr\n    /* \"#utility.yul\":5712:5746   */\n  swap1\n  pop\n    /* \"#utility.yul\":5651:5753   */\n  swap2\n  swap1\n  pop\n  jump\t// out\n    /* \"#utility.yul\":5759:6607   */\ntag_36:\n    /* \"#utility.yul\":5820:5825   */\n  0x00\n    /* \"#utility.yul\":5827:5831   */\n  0x00\n    /* \"#utility.yul\":5851:5857   */\n  dup3\n    /* \"#utility.yul\":5842:5857   */\n  swap2\n  pop\n    /* \"#utility.yul\":5875:5880   */\n  dup4\n    /* \"#utility.yul\":5866:5880   */\n  swap1\n  pop\n    /* \"#utility.yul\":5889:6601   */\ntag_106:\n    /* \"#utility.yul\":5910:5911   */\n  0x01\n    /* \"#utility.yul\":5900:5908   */\n  dup6\n    /* \"#utility.yul\":5897:5912   */\n  gt\n    /* \"#utility.yul\":5889:6601   */\n  iszero\n  tag_108\n  jumpi\n    /* \"#utility.yul\":6005:6009   */\n  dup1\n    /* \"#utility.yul\":6000:6003   */\n  dup7\n    /* \"#utility.yul\":5996:6010   */\n  div\n    /* \"#utility.yul\":5990:5994   */\n  dup2\n    /* \"#utility.yul\":5987:6011   */\n  gt\n    /* \"#utility.yul\":5984:6034   */\n  iszero\n  tag_109\n  jumpi\n    /* \"#utility.yul\":6014:6032   */\n  tag_110\n  tag_34\n  jump\t// in\ntag_110:\n    /* \"#utility.yul\":5984:6034   */\ntag_109:\n    /* \"#utility.yul\":6064:6065   */\n  0x01\n    /* \"#utility.yul\":6054:6062   */\n  dup6\n    /* \"#utility.yul\":6050:6066   */\n  and\n    /* \"#utility.yul\":6047:6498   */\n  iszero\n  tag_111\n  jumpi\n    /* \"#utility.yul\":6479:6483   */\n  dup1\n    /* \"#utility.yul\":6472:6477   */\n  dup3\n    /* \"#utility.yul\":6468:6484   */\n  mul\n    /* \"#utility.yul\":6459:6484   */\n  swap2\n  pop\n    /* \"#utility.yul\":6047:6498   */\ntag_111:\n    /* \"#utility.yul\":6529:6533   */\n  dup1\n    /* \"#utility.yul\":6523:6527   */\n  dup2\n    /* \"#utility.yul\":6519:6534   */\n  mul\n    /* \"#utility.yul\":6511:6534   */\n  swap1\n  pop\n    /* \"#utility.yul\":6559:6591   */\n  tag_112\n    /* \"#utility.yul\":6582:6590   */\n  dup6\n    /* \"#utility.yul\":6559:6591   */\n  tag_35\n  jump\t// in\ntag_112:\n    /* \"#utility.yul\":6547:6591   */\n  swap5\n  pop\n    /* \"#utility.yul\":5889:6601   */\n  jump(tag_106)\ntag_108:\n    /* \"#utility.yul\":5759:6607   */\n  swap5\n  pop\n  swap5\n  swap3\n  pop\n  pop\n  pop\n  jump\t// out\n    /* \"#utility.yul\":6613:7686   */\ntag_37:\n    /* \"#utility.yul\":6667:6672   */\n  0x00\n    /* \"#utility.yul\":6858:6866   */\n  dup3\n    /* \"#utility.yul\":6848:6888   */\n  tag_114\n  jumpi\n    /* \"#utility.yul\":6879:6880   */\n  0x01\n    /* \"#utility.yul\":6870:6880   */\n  swap1\n  pop\n    /* \"#utility.yul\":6881:6886   */\n  jump(tag_113)\n    /* \"#utility.yul\":6848:6888   */\ntag_114:\n    /* \"#utility.yul\":6907:6911   */\n  dup2\n    /* \"#utility.yul\":6897:6933   */\n  tag_115\n  jumpi\n    /* \"#utility.yul\":6924:6925   */\n  0x00\n    /* \"#utility.yul\":6915:6925   */\n  swap1\n  pop\n    /* \"#utility.yul\":6926:6931   */\n  jump(tag_113)\n    /* \"#utility.yul\":6897:6933   */\ntag_115:\n    /* \"#utility.yul\":6993:6997   */\n  dup2\n    /* \"#utility.yul\":7041:7042   */\n  0x01\n    /* \"#utility.yul\":7036:7063   */\n  dup2\n  eq\n  tag_117\n  jumpi\n    /* \"#utility.yul\":7077:7078   */\n  0x02\n    /* \"#utility.yul\":7072:7263   */\n  dup2\n  eq\n  tag_118\n  jumpi\n    /* \"#utility.yul\":6986:7263   */\n  jump(tag_116)\n    /* \"#utility.yul\":7036:7063   */\ntag_117:\n    /* \"#utility.yul\":7054:7055   */\n  0x01\n    /* \"#utility.yul\":7045:7055   */\n  swap2\n  pop\n    /* \"#utility.yul\":7056:7061   */\n  pop\n  jump(tag_113)\n    /* \"#utility.yul\":7072:7263   */\ntag_118:\n    /* \"#utility.yul\":7117:7120   */\n  0xff\n    /* \"#utility.yul\":7107:7115   */\n  dup5\n    /* \"#utility.yul\":7104:7121   */\n  gt\n    /* \"#utility.yul\":7101:7144   */\n  iszero\n  tag_119\n  jumpi\n    /* \"#utility.yul\":7124:7142   */\n  tag_120\n  tag_34\n  jump\t// in\ntag_120:\n    /* \"#utility.yul\":7101:7144   */\ntag_119:\n    /* \"#utility.yul\":7173:7181   */\n  dup4\n    /* \"#utility.yul\":7170:7171   */\n  0x02\n    /* \"#utility.yul\":7166:7182   */\n  exp\n    /* \"#utility.yul\":7157:7182   */\n  swap2\n  pop\n    /* \"#utility.yul\":7208:7211   */\n  dup5\n    /* \"#utility.yul\":7201:7206   */\n  dup3\n    /* \"#utility.yul\":7198:7212   */\n  gt\n    /* \"#utility.yul\":7195:7235   */\n  iszero\n  tag_121\n  jumpi\n    /* \"#utility.yul\":7215:7233   */\n  tag_122\n  tag_34\n  jump\t// in\ntag_122:\n    /* \"#utility.yul\":7195:7235   */\ntag_121:\n    /* \"#utility.yul\":7248:7253   */\n  pop\n  jump(tag_113)\n    /* \"#utility.yul\":6986:7263   */\ntag_116:\n  pop\n    /* \"#utility.yul\":7372:7374   */\n  0x20\n    /* \"#utility.yul\":7362:7370   */\n  dup4\n    /* \"#utility.yul\":7359:7375   */\n  lt\n    /* \"#utility.yul\":7353:7356   */\n  0x0133\n    /* \"#utility.yul\":7347:7351   */\n  dup4\n    /* \"#utility.yul\":7344:7357   */\n  lt\n    /* \"#utility.yul\":7340:7376   */\n  and\n    /* \"#utility.yul\":7322:7324   */\n  0x4e\n    /* \"#utility.yul\":7312:7320   */\n  dup5\n    /* \"#utility.yul\":7309:7325   */\n  lt\n    /* \"#utility.yul\":7304:7306   */\n  0x0b\n    /* \"#utility.yul\":7298:7302   */\n  dup5\n    /* \"#utility.yul\":7295:7307   */\n  lt\n    /* \"#utility.yul\":7291:7326   */\n  and\n    /* \"#utility.yul\":7275:7386   */\n  or\n    /* \"#utility.yul\":7272:7518   */\n  iszero\n  tag_123\n  jumpi\n    /* \"#utility.yul\":7428:7436   */\n  dup3\n    /* \"#utility.yul\":7422:7426   */\n  dup3\n    /* \"#utility.yul\":7418:7437   */\n  exp\n    /* \"#utility.yul\":7409:7437   */\n  swap1\n  pop\n    /* \"#utility.yul\":7463:7466   */\n  dup4\n    /* \"#utility.yul\":7456:7461   */\n  dup2\n    /* \"#utility.yul\":7453:7467   */\n  gt\n    /* \"#utility.yul\":7450:7490   */\n  iszero\n  tag_124\n  jumpi\n    /* \"#utility.yul\":7470:7488   */\n  tag_125\n  tag_34\n  jump\t// in\ntag_125:\n    /* \"#utility.yul\":7450:7490   */\ntag_124:\n    /* \"#utility.yul\":7503:7508   */\n  jump(tag_113)\n    /* \"#utility.yul\":7272:7518   */\ntag_123:\n    /* \"#utility.yul\":7543:7585   */\n  tag_126\n    /* \"#utility.yul\":7581:7584   */\n  dup5\n    /* \"#utility.yul\":7571:7579   */\n  dup5\n    /* \"#utility.yul\":7565:7569   */\n  dup5\n    /* \"#utility.yul\":7562:7563   */\n  0x01\n    /* \"#utility.yul\":7543:7585   */\n  tag_36\n  jump\t// in\ntag_126:\n    /* \"#utility.yul\":7528:7585   */\n  swap3\n  pop\n  swap1\n  pop\n    /* \"#utility.yul\":7617:7621   */\n  dup2\n    /* \"#utility.yul\":7612:7615   */\n  dup5\n    /* \"#utility.yul\":7608:7622   */\n  div\n    /* \"#utility.yul\":7601:7606   */\n  dup2\n    /* \"#utility.yul\":7598:7623   */\n  gt\n    /* \"#utility.yul\":7595:7646   */\n  iszero\n  tag_127\n  jumpi\n    /* \"#utility.yul\":7626:7644   */\n  tag_128\n  tag_34\n  jump\t// in\ntag_128:\n    /* \"#utility.yul\":7595:7646   */\ntag_127:\n    /* \"#utility.yul\":7675:7679   */\n  dup2\n    /* \"#utility.yul\":7668:7673   */\n  dup2\n    /* \"#utility.yul\":7664:7680   */\n  mul\n    /* \"#utility.yul\":7655:7680   */\n  swap1\n  pop\n    /* \"#utility.yul\":6613:7686   */\ntag_113:\n  swap4\n  swap3\n  pop\n  pop\n  pop\n  jump\t// out\n    /* \"#utility.yul\":7692:7778   */\ntag_38:\n    /* \"#utility.yul\":7727:7734   */\n  0x00\n    /* \"#utility.yul\":7767:7771   */\n  0xff\n    /* \"#utility.yul\":7760:7765   */\n  dup3\n    /* \"#utility.yul\":7756:7772   */\n  and\n    /* \"#utility.yul\":7745:7772   */\n  swap1\n  pop\n    /* \"#utility.yul\":7692:7778   */\n  swap2\n  swap1\n  pop\n  jump\t// out\n    /* \"#utility.yul\":7784:8065   */\ntag_8:\n    /* \"#utility.yul\":7842:7847   */\n  0x00\n    /* \"#utility.yul\":7866:7889   */\n  tag_131\n    /* \"#utility.yul\":7884:7888   */\n  dup3\n    /* \"#utility.yul\":7866:7889   */\n  tag_22\n  jump\t// in\ntag_131:\n    /* \"#utility.yul\":7858:7889   */\n  swap2\n  pop\n    /* \"#utility.yul\":7910:7935   */\n  tag_132\n    /* \"#utility.yul\":7926:7934   */\n  dup4\n    /* \"#utility.yul\":7910:7935   */\n  tag_38\n  jump\t// in\ntag_132:\n    /* \"#utility.yul\":7898:7935   */\n  swap3\n  pop\n    /* \"#utility.yul\":7954:8058   */\n  tag_133\n    /* \"#utility.yul\":7991:8057   */\n  0xffffffffffffffffffffffffffffffffffffffffffffffffffffffffffffffff\n    /* \"#utility.yul\":7981:7989   */\n  dup5\n    /* \"#utility.yul\":7975:7979   */\n  dup5\n    /* \"#utility.yul\":7954:8058   */\n  tag_37\n  jump\t// in\ntag_133:\n    /* \"#utility.yul\":7945:8058   */\n  swap1\n  pop\n    /* \"#utility.yul\":7784:8065   */\n  swap3\n  swap2\n  pop\n  pop\n  jump\t// out\n    /* \"#utility.yul\":8071:8481   */\ntag_10:\n    /* \"#utility.yul\":8111:8118   */\n  0x00\n    /* \"#utility.yul\":8134:8154   */\n  tag_135\n    /* \"#utility.yul\":8152:8153   */\n  dup3\n    /* \"#utility.yul\":8134:8154   */\n  tag_22\n  jump\t// in\ntag_135:\n    /* \"#utility.yul\":8129:8154   */\n  swap2\n  pop\n    /* \"#utility.yul\":8168:8188   */\n  tag_136\n    /* \"#utility.yul\":8186:8187   */\n  dup4\n    /* \"#utility.yul\":8168:8188   */\n  tag_22\n  jump\t// in\ntag_136:\n    /* \"#utility.yul\":8163:8188   */\n  swap3\n  pop\n    /* \"#utility.yul\":8223:8224   */\n  dup3\n    /* \"#utility.yul\":8220:8221   */\n  dup3\n    /* \"#utility.yul\":8216:8225   */\n  mul\n    /* \"#utility.yul\":8245:8275   */\n  tag_137\n    /* \"#utility.yul\":8263:8274   */\n  dup2\n    /* \"#utility.yul\":8245:8275   */\n  tag_22\n  jump\t// in\ntag_137:\n    /* \"#utility.yul\":8234:8275   */\n  swap2\n  pop\n    /* \"#utility.yul\":8424:8425   */\n  dup3\n    /* \"#utility.yul\":8415:8422   */\n  dup3\n    /* \"#utility.yul\":8411:8426   */\n  div\n    /* \"#utility.yul\":8408:8409   */\n  dup5\n    /* \"#utility.yul\":8405:8427   */\n  eq\n    /* \"#utility.yul\":8385:8386   */\n  dup4\n    /* \"#utility.yul\":8378:8387   */\n  iszero\n    /* \"#utility.yul\":8358:8441   */\n  or\n    /* \"#utility.yul\":8335:8474   */\n  tag_138\n  jumpi\n    /* \"#utility.yul\":8454:8472   */\n  tag_139\n  tag_34\n  jump\t// in\ntag_139:\n    /* \"#utility.yul\":8335:8474   */\ntag_138:\n    /* \"#utility.yul\":8119:8481   */\n  pop\n    /* \"#utility.yul\":8071:8481   */\n  swap3\n  swap2\n  pop\n  pop\n  jump\t// out\n    /* \"#utility.yul\":8487:8605   */\ntag_39:\n    /* \"#utility.yul\":8574:8598   */\n  tag_141\n    /* \"#utility.yul\":8592:8597   */\n  dup2\n    /* \"#utility.yul\":8574:8598   */\n  tag_22\n  jump\t// in\ntag_141:\n    /* \"#utility.yul\":8569:8572   */\n  dup3\n    /* \"#utility.yul\":8562:8599   */\n  mstore\n    /* \"#utility.yul\":8487:8605   */\n  pop\n  pop\n  jump\t// out\n    /* \"#utility.yul\":8611:8833   */\ntag_12:\n    /* \"#utility.yul\":8704:8708   */\n  0x00\n    /* \"#utility.yul\":8742:8744   */\n  0x20\n    /* \"#utility.yul\":8731:8740   */\n  dup3\n    /* \"#utility.yul\":8727:8745   */\n  add\n    /* \"#utility.yul\":8719:8745   */\n  swap1\n  pop\n    /* \"#utility.yul\":8755:8826   */\n  tag_143\n    /* \"#utility.yul\":8823:8824   */\n  0x00\n    /* \"#utility.yul\":8812:8821   */\n  dup4\n    /* \"#utility.yul\":8808:8825   */\n  add\n    /* \"#utility.yul\":8799:8805   */\n  dup5\n    /* \"#utility.yul\":8755:8826   */\n  tag_39\n  jump\t// in\ntag_143:\n    /* \"#utility.yul\":8611:8833   */\n  swap3\n  swap2\n  pop\n  pop\n  jump\t// out\n    /* \"StakingContract.sol\":1840:4804  contract KMUToken is IERC20 {... */\ntag_13:\n  dataSize(sub_0)\n  dup1\n  dataOffset(sub_0)\n  0x00\n  codecopy\n  0x00\n  return\nstop\n\nsub_0: assembly {\n        /* \"StakingContract.sol\":1840:4804  contract KMUToken is IERC20 {... */\n      mstore(0x40, 0x80)\n      callvalue\n      dup1\n      iszero\n      tag_1\n      jumpi\n      revert(0x00, 0x00)\n    tag_1:\n      pop\n      jumpi(tag_2, lt(calldatasize, 0x04))\n      shr(0xe0, calldataload(0x00))\n      dup1\n      0x70a08231\n      gt\n      tag_13\n      jumpi\n      dup1\n      0x70a08231\n      eq\n      tag_8\n      jumpi\n      dup1\n      0x95d89b41\n      eq\n      tag_9\n      jumpi\n      dup1\n      0xa9059cbb\n      eq\n      tag_10\n      jumpi\n      dup1\n      0xdd62ed3e\n      eq\n      tag_11\n      jumpi\n      dup1\n      0xde5f72fd\n      eq\n      tag_12\n      jumpi\n      jump(tag_2)\n    tag_13:\n      dup1\n      0x06fdde03\n      eq\n      tag_3\n      jumpi\n      dup1\n      0x095ea7b3\n      eq\n      tag_4\n      jumpi\n      dup1\n      0x18160ddd\n      eq\n      tag_5\n      jumpi\n      dup1\n      0x23b872dd\n      eq\n      tag_6\n      jumpi\n      dup1\n      0x313ce567\n      eq\n      tag_7\n      jumpi\n    tag_2:\n      revert(0x00, 0x00)\n        /* \"StakingContract.sol\":1874:1915  string  public name     = \"Kookmin Token\" */\n    tag_3:\n      tag_14\n      tag_15\n      jump\t// in\n    tag_14:\n      mload(0x40)\n      tag_16\n      swap2\n      swap1\n      tag_17\n      jump\t// in\n    tag_16:\n      mload(0x40)\n      dup1\n      swap2\n      sub\n      swap1\n      return\n        /* \"StakingContract.sol\":3439:3727  function approve(address spender, uint256 amount) external override returns (bool) {... */\n    tag_4:\n      tag_18\n      0x04\n      dup1\n      calldatasize\n      sub\n      dup2\n      add\n      swap1\n      tag_19\n      swap2\n      swap1\n      tag_20\n      jump\t// in\n    tag_19:\n      tag_21\n      jump\t// in\n    tag_18:\n      mload(0x40)\n      tag_22\n      swap2\n      swap1\n      tag_23\n      jump\t// in\n    tag_22:\n      mload(0x40)\n      dup1\n      swap2\n      sub\n      swap1\n      return\n        /* \"StakingContract.sol\":2525:2625  function totalSupply() external view override returns (uint256) {... */\n    tag_5:\n      tag_24\n      tag_25\n      jump\t// in\n    tag_24:\n      mload(0x40)\n      tag_26\n      swap2\n      swap1\n      tag_27\n      jump\t// in\n    tag_26:\n      mload(0x40)\n      dup1\n      swap2\n      sub\n      swap1\n      return\n        /* \"StakingContract.sol\":3823:4373  function transferFrom(address from, address to, uint256 amount) external override returns (bool) {... */\n    tag_6:\n      tag_28\n      0x04\n      dup1\n      calldatasize\n      sub\n      dup2\n      add\n      swap1\n      tag_29\n      swap2\n      swap1\n      tag_30\n      jump\t// in\n    tag_29:\n      tag_31\n      jump\t// in\n    tag_28:\n      mload(0x40)\n      tag_32\n      swap2\n      swap1\n      tag_23\n      jump\t// in\n    tag_32:\n      mload(0x40)\n      dup1\n      swap2\n      sub\n      swap1\n      return\n        /* \"StakingContract.sol\":1958:1986  uint8   public decimals = 18 */\n    tag_7:\n      tag_33\n      tag_34\n      jump\t// in\n    tag_33:\n      mload(0x40)\n      tag_35\n      swap2\n      swap1\n      tag_36\n      jump\t// in\n    tag_35:\n      mload(0x40)\n      dup1\n      swap2\n      sub\n      swap1\n      return\n        /* \"StakingContract.sol\":2631:2750  function balanceOf(address account) external view override returns (uint256) {... */\n    tag_8:\n      tag_37\n      0x04\n      dup1\n      calldatasize\n      sub\n      dup2\n      add\n      swap1\n      tag_38\n      swap2\n      swap1\n      tag_39\n      jump\t// in\n    tag_38:\n      tag_40\n      jump\t// in\n    tag_37:\n      mload(0x40)\n      tag_41\n      swap2\n      swap1\n      tag_27\n      jump\t// in\n    tag_41:\n      mload(0x40)\n      dup1\n      swap2\n      sub\n      swap1\n      return\n        /* \"StakingContract.sol\":1921:1952  string  public symbol   = \"KMU\" */\n    tag_9:\n      tag_42\n      tag_43\n      jump\t// in\n    tag_42:\n      mload(0x40)\n      tag_44\n      swap2\n      swap1\n      tag_17\n      jump\t// in\n    tag_44:\n      mload(0x40)\n      dup1\n      swap2\n      sub\n      swap1\n      return\n        /* \"StakingContract.sol\":2822:3210  function transfer(address to, uint256 amount) external override returns (bool) {... */\n    tag_10:\n      tag_45\n      0x04\n      dup1\n      calldatasize\n      sub\n      dup2\n      add\n      swap1\n      tag_46\n      swap2\n      swap1\n      tag_20\n      jump\t// in\n    tag_46:\n      tag_47\n      jump\t// in\n    tag_45:\n      mload(0x40)\n      tag_48\n      swap2\n      swap1\n      tag_23\n      jump\t// in\n    tag_48:\n      mload(0x40)\n      dup1\n      swap2\n      sub\n      swap1\n      return\n        /* \"StakingContract.sol\":3216:3359  function allowance(address owner, address spender) external view override returns (uint256) {... */\n    tag_11:\n      tag_49\n      0x04\n      dup1\n      calldatasize\n      sub\n      dup2\n      add\n      swap1\n      tag_50\n      swap2\n      swap1\n      tag_51\n      jump\t// in\n    tag_50:\n      tag_52\n      jump\t// in\n    tag_49:\n      mload(0x40)\n      tag_53\n      swap2\n      swap1\n      tag_27\n      jump\t// in\n    tag_53:\n      mload(0x40)\n      dup1\n      swap2\n      sub\n      swap1\n      return\n        /* \"StakingContract.sol\":4580:4802  function faucet() external {... */\n    tag_12:\n      tag_54\n      tag_55\n      jump\t// in\n    tag_54:\n      stop\n        /* \"StakingContract.sol\":1874:1915  string  public name     = \"Kookmin Token\" */\n    tag_15:\n      0x00\n      dup1\n      sload\n      tag_56\n      swap1\n      tag_57\n      jump\t// in\n    tag_56:\n      dup1\n      0x1f\n      add\n      0x20\n      dup1\n      swap2\n      div\n      mul\n      0x20\n      add\n      mload(0x40)\n      swap1\n      dup2\n      add\n      0x40\n      mstore\n      dup1\n      swap3\n      swap2\n      swap1\n      dup2\n      dup2\n      mstore\n      0x20\n      add\n      dup3\n      dup1\n      sload\n      tag_58\n      swap1\n      tag_57\n      jump\t// in\n    tag_58:\n      dup1\n      iszero\n      tag_59\n      jumpi\n      dup1\n      0x1f\n      lt\n      tag_60\n      jumpi\n      0x0100\n      dup1\n      dup4\n      sload\n      div\n      mul\n      dup4\n      mstore\n      swap2\n      0x20\n      add\n      swap2\n      jump(tag_59)\n    tag_60:\n      dup3\n      add\n      swap2\n      swap1\n      0x00\n      mstore\n      keccak256(0x00, 0x20)\n      swap1\n    tag_61:\n      dup2\n      sload\n      dup2\n      mstore\n      swap1\n      0x01\n      add\n      swap1\n      0x20\n      add\n      dup1\n      dup4\n      gt\n      tag_61\n      jumpi\n      dup3\n      swap1\n      sub\n      0x1f\n      and\n      dup3\n      add\n      swap2\n    tag_59:\n      pop\n      pop\n      pop\n      pop\n      pop\n      dup2\n      jump\t// out\n        /* \"StakingContract.sol\":3439:3727  function approve(address spender, uint256 amount) external override returns (bool) {... */\n    tag_21:\n        /* \"StakingContract.sol\":3516:3520  bool */\n      0x00\n        /* \"StakingContract.sol\":3559:3560  0 */\n      0x00\n        /* \"StakingContract.sol\":3540:3561  spender != address(0) */\n      0xffffffffffffffffffffffffffffffffffffffff\n      and\n        /* \"StakingContract.sol\":3540:3547  spender */\n      dup4\n        /* \"StakingContract.sol\":3540:3561  spender != address(0) */\n      0xffffffffffffffffffffffffffffffffffffffff\n      and\n      sub\n        /* \"StakingContract.sol\":3532:3596  require(spender != address(0), \"ERC20: approve to zero address\") */\n      tag_63\n      jumpi\n      mload(0x40)\n      0x08c379a000000000000000000000000000000000000000000000000000000000\n      dup2\n      mstore\n      0x04\n      add\n      tag_64\n      swap1\n      tag_65\n      jump\t// in\n    tag_64:\n      mload(0x40)\n      dup1\n      swap2\n      sub\n      swap1\n      revert\n    tag_63:\n        /* \"StakingContract.sol\":3641:3647  amount */\n      dup2\n        /* \"StakingContract.sol\":3606:3617  _allowances */\n      0x05\n        /* \"StakingContract.sol\":3606:3629  _allowances[msg.sender] */\n      0x00\n        /* \"StakingContract.sol\":3618:3628  msg.sender */\n      caller\n        /* \"StakingContract.sol\":3606:3629  _allowances[msg.sender] */\n      0xffffffffffffffffffffffffffffffffffffffff\n      and\n      0xffffffffffffffffffffffffffffffffffffffff\n      and\n      dup2\n      mstore\n      0x20\n      add\n      swap1\n      dup2\n      mstore\n      0x20\n      add\n      0x00\n      keccak256\n        /* \"StakingContract.sol\":3606:3638  _allowances[msg.sender][spender] */\n      0x00\n        /* \"StakingContract.sol\":3630:3637  spender */\n      dup6\n        /* \"StakingContract.sol\":3606:3638  _allowances[msg.sender][spender] */\n      0xffffffffffffffffffffffffffffffffffffffff\n      and\n      0xffffffffffffffffffffffffffffffffffffffff\n      and\n      dup2\n      mstore\n      0x20\n      add\n      swap1\n      dup2\n      mstore\n      0x20\n      add\n      0x00\n      keccak256\n        /* \"StakingContract.sol\":3606:3647  _allowances[msg.sender][spender] = amount */\n      dup2\n      swap1\n      sstore\n      pop\n        /* \"StakingContract.sol\":3683:3690  spender */\n      dup3\n        /* \"StakingContract.sol\":3662:3699  Approval(msg.sender, spender, amount) */\n      0xffffffffffffffffffffffffffffffffffffffff\n      and\n        /* \"StakingContract.sol\":3671:3681  msg.sender */\n      caller\n        /* \"StakingContract.sol\":3662:3699  Approval(msg.sender, spender, amount) */\n      0xffffffffffffffffffffffffffffffffffffffff\n      and\n      0x8c5be1e5ebec7d5bd14f71427d1e84f3dd0314c0f7b2291e5b200ac8c7c3b925\n        /* \"StakingContract.sol\":3692:3698  amount */\n      dup5\n        /* \"StakingContract.sol\":3662:3699  Approval(msg.sender, spender, amount) */\n      mload(0x40)\n      tag_66\n      swap2\n      swap1\n      tag_27\n      jump\t// in\n    tag_66:\n      mload(0x40)\n      dup1\n      swap2\n      sub\n      swap1\n      log3\n        /* \"StakingContract.sol\":3716:3720  true */\n      0x01\n        /* \"StakingContract.sol\":3709:3720  return true */\n      swap1\n      pop\n        /* \"StakingContract.sol\":3439:3727  function approve(address spender, uint256 amount) external override returns (bool) {... */\n      swap3\n      swap2\n      pop\n      pop\n      jump\t// out\n        /* \"StakingContract.sol\":2525:2625  function totalSupply() external view override returns (uint256) {... */\n    tag_25:\n        /* \"StakingContract.sol\":2580:2587  uint256 */\n      0x00\n        /* \"StakingContract.sol\":2606:2618  _totalSupply */\n      sload(0x03)\n        /* \"StakingContract.sol\":2599:2618  return _totalSupply */\n      swap1\n      pop\n        /* \"StakingContract.sol\":2525:2625  function totalSupply() external view override returns (uint256) {... */\n      swap1\n      jump\t// out\n        /* \"StakingContract.sol\":3823:4373  function transferFrom(address from, address to, uint256 amount) external override returns (bool) {... */\n    tag_31:\n        /* \"StakingContract.sol\":3914:3918  bool */\n      0x00\n        /* \"StakingContract.sol\":3952:3953  0 */\n      0x00\n        /* \"StakingContract.sol\":3938:3954  to != address(0) */\n      0xffffffffffffffffffffffffffffffffffffffff\n      and\n        /* \"StakingContract.sol\":3938:3940  to */\n      dup4\n        /* \"StakingContract.sol\":3938:3954  to != address(0) */\n      0xffffffffffffffffffffffffffffffffffffffff\n      and\n      sub\n        /* \"StakingContract.sol\":3930:3990  require(to != address(0), \"ERC20: transfer to zero address\") */\n      tag_69\n      jumpi\n      mload(0x40)\n      0x08c379a000000000000000000000000000000000000000000000000000000000\n      dup2\n      mstore\n      0x04\n      add\n      tag_70\n      swap1\n      tag_71\n      jump\t// in\n    tag_70:\n      mload(0x40)\n      dup1\n      swap2\n      sub\n      swap1\n      revert\n    tag_69:\n        /* \"StakingContract.sol\":4027:4033  amount */\n      dup2\n        /* \"StakingContract.sol\":4008:4017  _balances */\n      0x04\n        /* \"StakingContract.sol\":4008:4023  _balances[from] */\n      0x00\n        /* \"StakingContract.sol\":4018:4022  from */\n      dup7\n        /* \"StakingContract.sol\":4008:4023  _balances[from] */\n      0xffffffffffffffffffffffffffffffffffffffff\n      and\n      0xffffffffffffffffffffffffffffffffffffffff\n      and\n      dup2\n      mstore\n      0x20\n      add\n      swap1\n      dup2\n      mstore\n      0x20\n      add\n      0x00\n      keccak256\n      sload\n        /* \"StakingContract.sol\":4008:4033  _balances[from] >= amount */\n      lt\n      iszero\n        /* \"StakingContract.sol\":4000:4065  require(_balances[from] >= amount, \"ERC20: insufficient balance\") */\n      tag_72\n      jumpi\n      mload(0x40)\n      0x08c379a000000000000000000000000000000000000000000000000000000000\n      dup2\n      mstore\n      0x04\n      add\n      tag_73\n      swap1\n      tag_74\n      jump\t// in\n    tag_73:\n      mload(0x40)\n      dup1\n      swap2\n      sub\n      swap1\n      revert\n    tag_72:\n        /* \"StakingContract.sol\":4116:4122  amount */\n      dup2\n        /* \"StakingContract.sol\":4083:4094  _allowances */\n      0x05\n        /* \"StakingContract.sol\":4083:4100  _allowances[from] */\n      0x00\n        /* \"StakingContract.sol\":4095:4099  from */\n      dup7\n        /* \"StakingContract.sol\":4083:4100  _allowances[from] */\n      0xffffffffffffffffffffffffffffffffffffffff\n      and\n      0xffffffffffffffffffffffffffffffffffffffff\n      and\n      dup2\n      mstore\n      0x20\n      add\n      swap1\n      dup2\n      mstore\n      0x20\n      add\n      0x00\n      keccak256\n        /* \"StakingContract.sol\":4083:4112  _allowances[from][msg.sender] */\n      0x00\n        /* \"StakingContract.sol\":4101:4111  msg.sender */\n      caller\n        /* \"StakingContract.sol\":4083:4112  _allowances[from][msg.sender] */\n      0xffffffffffffffffffffffffffffffffffffffff\n      and\n      0xffffffffffffffffffffffffffffffffffffffff\n      and\n      dup2\n      mstore\n      0x20\n      add\n      swap1\n      dup2\n      mstore\n      0x20\n      add\n      0x00\n      keccak256\n      sload\n        /* \"StakingContract.sol\":4083:4122  _allowances[from][msg.sender] >= amount */\n      lt\n      iszero\n        /* \"StakingContract.sol\":4075:4156  require(_allowances[from][msg.sender] >= amount, \"ERC20: insufficient allowance\") */\n      tag_75\n      jumpi\n      mload(0x40)\n      0x08c379a000000000000000000000000000000000000000000000000000000000\n      dup2\n      mstore\n      0x04\n      add\n      tag_76\n      swap1\n      tag_77\n      jump\t// in\n    tag_76:\n      mload(0x40)\n      dup1\n      swap2\n      sub\n      swap1\n      revert\n    tag_75:\n        /* \"StakingContract.sol\":4200:4206  amount */\n      dup2\n        /* \"StakingContract.sol\":4167:4178  _allowances */\n      0x05\n        /* \"StakingContract.sol\":4167:4184  _allowances[from] */\n      0x00\n        /* \"StakingContract.sol\":4179:4183  from */\n      dup7\n        /* \"StakingContract.sol\":4167:4184  _allowances[from] */\n      0xffffffffffffffffffffffffffffffffffffffff\n      and\n      0xffffffffffffffffffffffffffffffffffffffff\n      and\n      dup2\n      mstore\n      0x20\n      add\n      swap1\n      dup2\n      mstore\n      0x20\n      add\n      0x00\n      keccak256\n        /* \"StakingContract.sol\":4167:4196  _allowances[from][msg.sender] */\n      0x00\n        /* \"StakingContract.sol\":4185:4195  msg.sender */\n      caller\n        /* \"StakingContract.sol\":4167:4196  _allowances[from][msg.sender] */\n      0xffffffffffffffffffffffffffffffffffffffff\n      and\n      0xffffffffffffffffffffffffffffffffffffffff\n      and\n      dup2\n      mstore\n      0x20\n      add\n      swap1\n      dup2\n      mstore\n      0x20\n      add\n      0x00\n      keccak256\n      0x00\n        /* \"StakingContract.sol\":4167:4206  _allowances[from][msg.sender] -= amount */\n      dup3\n      dup3\n      sload\n      tag_78\n      swap2\n      swap1\n      tag_79\n      jump\t// in\n    tag_78:\n      swap3\n      pop\n      pop\n      dup2\n      swap1\n      sstore\n      pop\n        /* \"StakingContract.sol\":4249:4255  amount */\n      dup2\n        /* \"StakingContract.sol\":4216:4225  _balances */\n      0x04\n        /* \"StakingContract.sol\":4216:4231  _balances[from] */\n      0x00\n        /* \"StakingContract.sol\":4226:4230  from */\n      dup7\n        /* \"StakingContract.sol\":4216:4231  _balances[from] */\n      0xffffffffffffffffffffffffffffffffffffffff\n      and\n      0xffffffffffffffffffffffffffffffffffffffff\n      and\n      dup2\n      mstore\n      0x20\n      add\n      swap1\n      dup2\n      mstore\n      0x20\n      add\n      0x00\n      keccak256\n      0x00\n        /* \"StakingContract.sol\":4216:4255  _balances[from]               -= amount */\n      dup3\n      dup3\n      sload\n      tag_80\n      swap2\n      swap1\n      tag_79\n      jump\t// in\n    tag_80:\n      swap3\n      pop\n      pop\n      dup2\n      swap1\n      sstore\n      pop\n        /* \"StakingContract.sol\":4298:4304  amount */\n      dup2\n        /* \"StakingContract.sol\":4265:4274  _balances */\n      0x04\n        /* \"StakingContract.sol\":4265:4278  _balances[to] */\n      0x00\n        /* \"StakingContract.sol\":4275:4277  to */\n      dup6\n        /* \"StakingContract.sol\":4265:4278  _balances[to] */\n      0xffffffffffffffffffffffffffffffffffffffff\n      and\n      0xffffffffffffffffffffffffffffffffffffffff\n      and\n      dup2\n      mstore\n      0x20\n      add\n      swap1\n      dup2\n      mstore\n      0x20\n      add\n      0x00\n      keccak256\n      0x00\n        /* \"StakingContract.sol\":4265:4304  _balances[to]                 += amount */\n      dup3\n      dup3\n      sload\n      tag_81\n      swap2\n      swap1\n      tag_82\n      jump\t// in\n    tag_81:\n      swap3\n      pop\n      pop\n      dup2\n      swap1\n      sstore\n      pop\n        /* \"StakingContract.sol\":4334:4336  to */\n      dup3\n        /* \"StakingContract.sol\":4319:4345  Transfer(from, to, amount) */\n      0xffffffffffffffffffffffffffffffffffffffff\n      and\n        /* \"StakingContract.sol\":4328:4332  from */\n      dup5\n        /* \"StakingContract.sol\":4319:4345  Transfer(from, to, amount) */\n      0xffffffffffffffffffffffffffffffffffffffff\n      and\n      0xddf252ad1be2c89b69c2b068fc378daa952ba7f163c4a11628f55a4df523b3ef\n        /* \"StakingContract.sol\":4338:4344  amount */\n      dup5\n        /* \"StakingContract.sol\":4319:4345  Transfer(from, to, amount) */\n      mload(0x40)\n      tag_83\n      swap2\n      swap1\n      tag_27\n      jump\t// in\n    tag_83:\n      mload(0x40)\n      dup1\n      swap2\n      sub\n      swap1\n      log3\n        /* \"StakingContract.sol\":4362:4366  true */\n      0x01\n        /* \"StakingContract.sol\":4355:4366  return true */\n      swap1\n      pop\n        /* \"StakingContract.sol\":3823:4373  function transferFrom(address from, address to, uint256 amount) external override returns (bool) {... */\n      swap4\n      swap3\n      pop\n      pop\n      pop\n      jump\t// out\n        /* \"StakingContract.sol\":1958:1986  uint8   public decimals = 18 */\n    tag_34:\n      0x02\n      0x00\n      swap1\n      sload\n      swap1\n      0x0100\n      exp\n      swap1\n      div\n      0xff\n      and\n      dup2\n      jump\t// out\n        /* \"StakingContract.sol\":2631:2750  function balanceOf(address account) external view override returns (uint256) {... */\n    tag_40:\n        /* \"StakingContract.sol\":2699:2706  uint256 */\n      0x00\n        /* \"StakingContract.sol\":2725:2734  _balances */\n      0x04\n        /* \"StakingContract.sol\":2725:2743  _balances[account] */\n      0x00\n        /* \"StakingContract.sol\":2735:2742  account */\n      dup4\n        /* \"StakingContract.sol\":2725:2743  _balances[account] */\n      0xffffffffffffffffffffffffffffffffffffffff\n      and\n      0xffffffffffffffffffffffffffffffffffffffff\n      and\n      dup2\n      mstore\n      0x20\n      add\n      swap1\n      dup2\n      mstore\n      0x20\n      add\n      0x00\n      keccak256\n      sload\n        /* \"StakingContract.sol\":2718:2743  return _balances[account] */\n      swap1\n      pop\n        /* \"StakingContract.sol\":2631:2750  function balanceOf(address account) external view override returns (uint256) {... */\n      swap2\n      swap1\n      pop\n      jump\t// out\n        /* \"StakingContract.sol\":1921:1952  string  public symbol   = \"KMU\" */\n    tag_43:\n      0x01\n      dup1\n      sload\n      tag_85\n      swap1\n      tag_57\n      jump\t// in\n    tag_85:\n      dup1\n      0x1f\n      add\n      0x20\n      dup1\n      swap2\n      div\n      mul\n      0x20\n      add\n      mload(0x40)\n      swap1\n      dup2\n      add\n      0x40\n      mstore\n      dup1\n      swap3\n      swap2\n      swap1\n      dup2\n      dup2\n      mstore\n      0x20\n      add\n      dup3\n      dup1\n      sload\n      tag_86\n      swap1\n      tag_57\n      jump\t// in\n    tag_86:\n      dup1\n      iszero\n      tag_87\n      jumpi\n      dup1\n      0x1f\n      lt\n      tag_88\n      jumpi\n      0x0100\n      dup1\n      dup4\n      sload\n      div\n      mul\n      dup4\n      mstore\n      swap2\n      0x20\n      add\n      swap2\n      jump(tag_87)\n    tag_88:\n      dup3\n      add\n      swap2\n      swap1\n      0x00\n      mstore\n      keccak256(0x00, 0x20)\n      swap1\n    tag_89:\n      dup2\n      sload\n      dup2\n      mstore\n      swap1\n      0x01\n      add\n      swap1\n      0x20\n      add\n      dup1\n      dup4\n      gt\n      tag_89\n      jumpi\n      dup3\n      swap1\n      sub\n      0x1f\n      and\n      dup3\n      add\n      swap2\n    tag_87:\n      pop\n      pop\n      pop\n      pop\n      pop\n      dup2\n      jump\t// out\n        /* \"StakingContract.sol\":2822:3210  function transfer(address to, uint256 amount) external override returns (bool) {... */\n    tag_47:\n        /* \"StakingContract.sol\":2895:2899  bool */\n      0x00\n        /* \"StakingContract.sol\":2933:2934  0 */\n      0x00\n        /* \"StakingContract.sol\":2919:2935  to != address(0) */\n      0xffffffffffffffffffffffffffffffffffffffff\n      and\n        /* \"StakingContract.sol\":2919:2921  to */\n      dup4\n        /* \"StakingContract.sol\":2919:2935  to != address(0) */\n      0xffffffffffffffffffffffffffffffffffffffff\n      and\n      sub\n        /* \"StakingContract.sol\":2911:2971  require(to != address(0), \"ERC20: transfer to zero address\") */\n      tag_91\n      jumpi\n      mload(0x40)\n      0x08c379a000000000000000000000000000000000000000000000000000000000\n      dup2\n      mstore\n      0x04\n      add\n      tag_92\n      swap1\n      tag_71\n      jump\t// in\n    tag_92:\n      mload(0x40)\n      dup1\n      swap2\n      sub\n      swap1\n      revert\n    tag_91:\n        /* \"StakingContract.sol\":3014:3020  amount */\n      dup2\n        /* \"StakingContract.sol\":2989:2998  _balances */\n      0x04\n        /* \"StakingContract.sol\":2989:3010  _balances[msg.sender] */\n      0x00\n        /* \"StakingContract.sol\":2999:3009  msg.sender */\n      caller\n        /* \"StakingContract.sol\":2989:3010  _balances[msg.sender] */\n      0xffffffffffffffffffffffffffffffffffffffff\n      and\n      0xffffffffffffffffffffffffffffffffffffffff\n      and\n      dup2\n      mstore\n      0x20\n      add\n      swap1\n      dup2\n      mstore\n      0x20\n      add\n      0x00\n      keccak256\n      sload\n        /* \"StakingContract.sol\":2989:3020  _balances[msg.sender] >= amount */\n      lt\n      iszero\n        /* \"StakingContract.sol\":2981:3052  require(_balances[msg.sender] >= amount, \"ERC20: insufficient balance\") */\n      tag_93\n      jumpi\n      mload(0x40)\n      0x08c379a000000000000000000000000000000000000000000000000000000000\n      dup2\n      mstore\n      0x04\n      add\n      tag_94\n      swap1\n      tag_74\n      jump\t// in\n    tag_94:\n      mload(0x40)\n      dup1\n      swap2\n      sub\n      swap1\n      revert\n    tag_93:\n        /* \"StakingContract.sol\":3088:3094  amount */\n      dup2\n        /* \"StakingContract.sol\":3063:3072  _balances */\n      0x04\n        /* \"StakingContract.sol\":3063:3084  _balances[msg.sender] */\n      0x00\n        /* \"StakingContract.sol\":3073:3083  msg.sender */\n      caller\n        /* \"StakingContract.sol\":3063:3084  _balances[msg.sender] */\n      0xffffffffffffffffffffffffffffffffffffffff\n      and\n      0xffffffffffffffffffffffffffffffffffffffff\n      and\n      dup2\n      mstore\n      0x20\n      add\n      swap1\n      dup2\n      mstore\n      0x20\n      add\n      0x00\n      keccak256\n      0x00\n        /* \"StakingContract.sol\":3063:3094  _balances[msg.sender] -= amount */\n      dup3\n      dup3\n      sload\n      tag_95\n      swap2\n      swap1\n      tag_79\n      jump\t// in\n    tag_95:\n      swap3\n      pop\n      pop\n      dup2\n      swap1\n      sstore\n      pop\n        /* \"StakingContract.sol\":3129:3135  amount */\n      dup2\n        /* \"StakingContract.sol\":3104:3113  _balances */\n      0x04\n        /* \"StakingContract.sol\":3104:3117  _balances[to] */\n      0x00\n        /* \"StakingContract.sol\":3114:3116  to */\n      dup6\n        /* \"StakingContract.sol\":3104:3117  _balances[to] */\n      0xffffffffffffffffffffffffffffffffffffffff\n      and\n      0xffffffffffffffffffffffffffffffffffffffff\n      and\n      dup2\n      mstore\n      0x20\n      add\n      swap1\n      dup2\n      mstore\n      0x20\n      add\n      0x00\n      keccak256\n      0x00\n        /* \"StakingContract.sol\":3104:3135  _balances[to]         += amount */\n      dup3\n      dup3\n      sload\n      tag_96\n      swap2\n      swap1\n      tag_82\n      jump\t// in\n    tag_96:\n      swap3\n      pop\n      pop\n      dup2\n      swap1\n      sstore\n      pop\n        /* \"StakingContract.sol\":3171:3173  to */\n      dup3\n        /* \"StakingContract.sol\":3150:3182  Transfer(msg.sender, to, amount) */\n      0xffffffffffffffffffffffffffffffffffffffff\n      and\n        /* \"StakingContract.sol\":3159:3169  msg.sender */\n      caller\n        /* \"StakingContract.sol\":3150:3182  Transfer(msg.sender, to, amount) */\n      0xffffffffffffffffffffffffffffffffffffffff\n      and\n      0xddf252ad1be2c89b69c2b068fc378daa952ba7f163c4a11628f55a4df523b3ef\n        /* \"StakingContract.sol\":3175:3181  amount */\n      dup5\n        /* \"StakingContract.sol\":3150:3182  Transfer(msg.sender, to, amount) */\n      mload(0x40)\n      tag_97\n      swap2\n      swap1\n      tag_27\n      jump\t// in\n    tag_97:\n      mload(0x40)\n      dup1\n      swap2\n      sub\n      swap1\n      log3\n        /* \"StakingContract.sol\":3199:3203  true */\n      0x01\n        /* \"StakingContract.sol\":3192:3203  return true */\n      swap1\n      pop\n        /* \"StakingContract.sol\":2822:3210  function transfer(address to, uint256 amount) external override returns (bool) {... */\n      swap3\n      swap2\n      pop\n      pop\n      jump\t// out\n        /* \"StakingContract.sol\":3216:3359  function allowance(address owner, address spender) external view override returns (uint256) {... */\n    tag_52:\n        /* \"StakingContract.sol\":3299:3306  uint256 */\n      0x00\n        /* \"StakingContract.sol\":3325:3336  _allowances */\n      0x05\n        /* \"StakingContract.sol\":3325:3343  _allowances[owner] */\n      0x00\n        /* \"StakingContract.sol\":3337:3342  owner */\n      dup5\n        /* \"StakingContract.sol\":3325:3343  _allowances[owner] */\n      0xffffffffffffffffffffffffffffffffffffffff\n      and\n      0xffffffffffffffffffffffffffffffffffffffff\n      and\n      dup2\n      mstore\n      0x20\n      add\n      swap1\n      dup2\n      mstore\n      0x20\n      add\n      0x00\n      keccak256\n        /* \"StakingContract.sol\":3325:3352  _allowances[owner][spender] */\n      0x00\n        /* \"StakingContract.sol\":3344:3351  spender */\n      dup4\n        /* \"StakingContract.sol\":3325:3352  _allowances[owner][spender] */\n      0xffffffffffffffffffffffffffffffffffffffff\n      and\n      0xffffffffffffffffffffffffffffffffffffffff\n      and\n      dup2\n      mstore\n      0x20\n      add\n      swap1\n      dup2\n      mstore\n      0x20\n      add\n      0x00\n      keccak256\n      sload\n        /* \"StakingContract.sol\":3318:3352  return _allowances[owner][spender] */\n      swap1\n      pop\n        /* \"StakingContract.sol\":3216:3359  function allowance(address owner, address spender) external view override returns (uint256) {... */\n      swap3\n      swap2\n      pop\n      pop\n      jump\t// out\n        /* \"StakingContract.sol\":4580:4802  function faucet() external {... */\n    tag_55:\n        /* \"StakingContract.sol\":4617:4631  uint256 amount */\n      0x00\n        /* \"StakingContract.sol\":4648:4656  decimals */\n      0x02\n      0x00\n      swap1\n      sload\n      swap1\n      0x0100\n      exp\n      swap1\n      div\n      0xff\n      and\n        /* \"StakingContract.sol\":4642:4644  10 */\n      0x0a\n        /* \"StakingContract.sol\":4642:4656  10 ** decimals */\n      tag_100\n      swap2\n      swap1\n      tag_101\n      jump\t// in\n    tag_100:\n        /* \"StakingContract.sol\":4634:4639  1_000 */\n      0x03e8\n        /* \"StakingContract.sol\":4634:4656  1_000 * 10 ** decimals */\n      tag_102\n      swap2\n      swap1\n      tag_103\n      jump\t// in\n    tag_102:\n        /* \"StakingContract.sol\":4617:4656  uint256 amount = 1_000 * 10 ** decimals */\n      swap1\n      pop\n        /* \"StakingContract.sol\":4692:4698  amount */\n      dup1\n        /* \"StakingContract.sol\":4666:4678  _totalSupply */\n      0x03\n      0x00\n        /* \"StakingContract.sol\":4666:4698  _totalSupply           += amount */\n      dup3\n      dup3\n      sload\n      tag_104\n      swap2\n      swap1\n      tag_82\n      jump\t// in\n    tag_104:\n      swap3\n      pop\n      pop\n      dup2\n      swap1\n      sstore\n      pop\n        /* \"StakingContract.sol\":4734:4740  amount */\n      dup1\n        /* \"StakingContract.sol\":4708:4717  _balances */\n      0x04\n        /* \"StakingContract.sol\":4708:4729  _balances[msg.sender] */\n      0x00\n        /* \"StakingContract.sol\":4718:4728  msg.sender */\n      caller\n        /* \"StakingContract.sol\":4708:4729  _balances[msg.sender] */\n      0xffffffffffffffffffffffffffffffffffffffff\n      and\n      0xffffffffffffffffffffffffffffffffffffffff\n      and\n      dup2\n      mstore\n      0x20\n      add\n      swap1\n      dup2\n      mstore\n      0x20\n      add\n      0x00\n      keccak256\n      0x00\n        /* \"StakingContract.sol\":4708:4740  _balances[msg.sender]  += amount */\n      dup3\n      dup3\n      sload\n      tag_105\n      swap2\n      swap1\n      tag_82\n      jump\t// in\n    tag_105:\n      swap3\n      pop\n      pop\n      dup2\n      swap1\n      sstore\n      pop\n        /* \"StakingContract.sol\":4776:4786  msg.sender */\n      caller\n        /* \"StakingContract.sol\":4755:4795  Transfer(address(0), msg.sender, amount) */\n      0xffffffffffffffffffffffffffffffffffffffff\n      and\n        /* \"StakingContract.sol\":4772:4773  0 */\n      0x00\n        /* \"StakingContract.sol\":4755:4795  Transfer(address(0), msg.sender, amount) */\n      0xffffffffffffffffffffffffffffffffffffffff\n      and\n      0xddf252ad1be2c89b69c2b068fc378daa952ba7f163c4a11628f55a4df523b3ef\n        /* \"StakingContract.sol\":4788:4794  amount */\n      dup4\n        /* \"StakingContract.sol\":4755:4795  Transfer(address(0), msg.sender, amount) */\n      mload(0x40)\n      tag_106\n      swap2\n      swap1\n      tag_27\n      jump\t// in\n    tag_106:\n      mload(0x40)\n      dup1\n      swap2\n      sub\n      swap1\n      log3\n        /* \"StakingContract.sol\":4607:4802  {... */\n      pop\n        /* \"StakingContract.sol\":4580:4802  function faucet() external {... */\n      jump\t// out\n        /* \"#utility.yul\":7:106   */\n    tag_107:\n        /* \"#utility.yul\":59:65   */\n      0x00\n        /* \"#utility.yul\":93:98   */\n      dup2\n        /* \"#utility.yul\":87:99   */\n      mload\n        /* \"#utility.yul\":77:99   */\n      swap1\n      pop\n        /* \"#utility.yul\":7:106   */\n      swap2\n      swap1\n      pop\n      jump\t// out\n        /* \"#utility.yul\":112:281   */\n    tag_108:\n        /* \"#utility.yul\":196:207   */\n      0x00\n        /* \"#utility.yul\":230:236   */\n      dup3\n        /* \"#utility.yul\":225:228   */\n      dup3\n        /* \"#utility.yul\":218:237   */\n      mstore\n        /* \"#utility.yul\":270:274   */\n      0x20\n        /* \"#utility.yul\":265:268   */\n      dup3\n        /* \"#utility.yul\":261:275   */\n      add\n        /* \"#utility.yul\":246:275   */\n      swap1\n      pop\n        /* \"#utility.yul\":112:281   */\n      swap3\n      swap2\n      pop\n      pop\n      jump\t// out\n        /* \"#utility.yul\":287:426   */\n    tag_109:\n        /* \"#utility.yul\":376:382   */\n      dup3\n        /* \"#utility.yul\":371:374   */\n      dup2\n        /* \"#utility.yul\":366:369   */\n      dup4\n        /* \"#utility.yul\":360:383   */\n      mcopy\n        /* \"#utility.yul\":417:418   */\n      0x00\n        /* \"#utility.yul\":408:414   */\n      dup4\n        /* \"#utility.yul\":403:406   */\n      dup4\n        /* \"#utility.yul\":399:415   */\n      add\n        /* \"#utility.yul\":392:419   */\n      mstore\n        /* \"#utility.yul\":287:426   */\n      pop\n      pop\n      pop\n      jump\t// out\n        /* \"#utility.yul\":432:534   */\n    tag_110:\n        /* \"#utility.yul\":473:479   */\n      0x00\n        /* \"#utility.yul\":524:526   */\n      0x1f\n        /* \"#utility.yul\":520:527   */\n      not\n        /* \"#utility.yul\":515:517   */\n      0x1f\n        /* \"#utility.yul\":508:513   */\n      dup4\n        /* \"#utility.yul\":504:518   */\n      add\n        /* \"#utility.yul\":500:528   */\n      and\n        /* \"#utility.yul\":490:528   */\n      swap1\n      pop\n        /* \"#utility.yul\":432:534   */\n      swap2\n      swap1\n      pop\n      jump\t// out\n        /* \"#utility.yul\":540:917   */\n    tag_111:\n        /* \"#utility.yul\":628:631   */\n      0x00\n        /* \"#utility.yul\":656:695   */\n      tag_146\n        /* \"#utility.yul\":689:694   */\n      dup3\n        /* \"#utility.yul\":656:695   */\n      tag_107\n      jump\t// in\n    tag_146:\n        /* \"#utility.yul\":711:782   */\n      tag_147\n        /* \"#utility.yul\":775:781   */\n      dup2\n        /* \"#utility.yul\":770:773   */\n      dup6\n        /* \"#utility.yul\":711:782   */\n      tag_108\n      jump\t// in\n    tag_147:\n        /* \"#utility.yul\":704:782   */\n      swap4\n      pop\n        /* \"#utility.yul\":791:856   */\n      tag_148\n        /* \"#utility.yul\":849:855   */\n      dup2\n        /* \"#utility.yul\":844:847   */\n      dup6\n        /* \"#utility.yul\":837:841   */\n      0x20\n        /* \"#utility.yul\":830:835   */\n      dup7\n        /* \"#utility.yul\":826:842   */\n      add\n        /* \"#utility.yul\":791:856   */\n      tag_109\n      jump\t// in\n    tag_148:\n        /* \"#utility.yul\":881:910   */\n      tag_149\n        /* \"#utility.yul\":903:909   */\n      dup2\n        /* \"#utility.yul\":881:910   */\n      tag_110\n      jump\t// in\n    tag_149:\n        /* \"#utility.yul\":876:879   */\n      dup5\n        /* \"#utility.yul\":872:911   */\n      add\n        /* \"#utility.yul\":865:911   */\n      swap2\n      pop\n        /* \"#utility.yul\":632:917   */\n      pop\n        /* \"#utility.yul\":540:917   */\n      swap3\n      swap2\n      pop\n      pop\n      jump\t// out\n        /* \"#utility.yul\":923:1236   */\n    tag_17:\n        /* \"#utility.yul\":1036:1040   */\n      0x00\n        /* \"#utility.yul\":1074:1076   */\n      0x20\n        /* \"#utility.yul\":1063:1072   */\n      dup3\n        /* \"#utility.yul\":1059:1077   */\n      add\n        /* \"#utility.yul\":1051:1077   */\n      swap1\n      pop\n        /* \"#utility.yul\":1123:1132   */\n      dup2\n        /* \"#utility.yul\":1117:1121   */\n      dup2\n        /* \"#utility.yul\":1113:1133   */\n      sub\n        /* \"#utility.yul\":1109:1110   */\n      0x00\n        /* \"#utility.yul\":1098:1107   */\n      dup4\n        /* \"#utility.yul\":1094:1111   */\n      add\n        /* \"#utility.yul\":1087:1134   */\n      mstore\n        /* \"#utility.yul\":1151:1229   */\n      tag_151\n        /* \"#utility.yul\":1224:1228   */\n      dup2\n        /* \"#utility.yul\":1215:1221   */\n      dup5\n        /* \"#utility.yul\":1151:1229   */\n      tag_111\n      jump\t// in\n    tag_151:\n        /* \"#utility.yul\":1143:1229   */\n      swap1\n      pop\n        /* \"#utility.yul\":923:1236   */\n      swap3\n      swap2\n      pop\n      pop\n      jump\t// out\n        /* \"#utility.yul\":1323:1440   */\n    tag_113:\n        /* \"#utility.yul\":1432:1433   */\n      0x00\n        /* \"#utility.yul\":1429:1430   */\n      0x00\n        /* \"#utility.yul\":1422:1434   */\n      revert\n        /* \"#utility.yul\":1569:1695   */\n    tag_115:\n        /* \"#utility.yul\":1606:1613   */\n      0x00\n        /* \"#utility.yul\":1646:1688   */\n      0xffffffffffffffffffffffffffffffffffffffff\n        /* \"#utility.yul\":1639:1644   */\n      dup3\n        /* \"#utility.yul\":1635:1689   */\n      and\n        /* \"#utility.yul\":1624:1689   */\n      swap1\n      pop\n        /* \"#utility.yul\":1569:1695   */\n      swap2\n      swap1\n      pop\n      jump\t// out\n        /* \"#utility.yul\":1701:1797   */\n    tag_116:\n        /* \"#utility.yul\":1738:1745   */\n      0x00\n        /* \"#utility.yul\":1767:1791   */\n      tag_157\n        /* \"#utility.yul\":1785:1790   */\n      dup3\n        /* \"#utility.yul\":1767:1791   */\n      tag_115\n      jump\t// in\n    tag_157:\n        /* \"#utility.yul\":1756:1791   */\n      swap1\n      pop\n        /* \"#utility.yul\":1701:1797   */\n      swap2\n      swap1\n      pop\n      jump\t// out\n        /* \"#utility.yul\":1803:1925   */\n    tag_117:\n        /* \"#utility.yul\":1876:1900   */\n      tag_159\n        /* \"#utility.yul\":1894:1899   */\n      dup2\n        /* \"#utility.yul\":1876:1900   */\n      tag_116\n      jump\t// in\n    tag_159:\n        /* \"#utility.yul\":1869:1874   */\n      dup2\n        /* \"#utility.yul\":1866:1901   */\n      eq\n        /* \"#utility.yul\":1856:1919   */\n      tag_160\n      jumpi\n        /* \"#utility.yul\":1915:1916   */\n      0x00\n        /* \"#utility.yul\":1912:1913   */\n      0x00\n        /* \"#utility.yul\":1905:1917   */\n      revert\n        /* \"#utility.yul\":1856:1919   */\n    tag_160:\n        /* \"#utility.yul\":1803:1925   */\n      pop\n      jump\t// out\n        /* \"#utility.yul\":1931:2070   */\n    tag_118:\n        /* \"#utility.yul\":1977:1982   */\n      0x00\n        /* \"#utility.yul\":2015:2021   */\n      dup2\n        /* \"#utility.yul\":2002:2022   */\n      calldataload\n        /* \"#utility.yul\":1993:2022   */\n      swap1\n      pop\n        /* \"#utility.yul\":2031:2064   */\n      tag_162\n        /* \"#utility.yul\":2058:2063   */\n      dup2\n        /* \"#utility.yul\":2031:2064   */\n      tag_117\n      jump\t// in\n    tag_162:\n        /* \"#utility.yul\":1931:2070   */\n      swap3\n      swap2\n      pop\n      pop\n      jump\t// out\n        /* \"#utility.yul\":2076:2153   */\n    tag_119:\n        /* \"#utility.yul\":2113:2120   */\n      0x00\n        /* \"#utility.yul\":2142:2147   */\n      dup2\n        /* \"#utility.yul\":2131:2147   */\n      swap1\n      pop\n        /* \"#utility.yul\":2076:2153   */\n      swap2\n      swap1\n      pop\n      jump\t// out\n        /* \"#utility.yul\":2159:2281   */\n    tag_120:\n        /* \"#utility.yul\":2232:2256   */\n      tag_165\n        /* \"#utility.yul\":2250:2255   */\n      dup2\n        /* \"#utility.yul\":2232:2256   */\n      tag_119\n      jump\t// in\n    tag_165:\n        /* \"#utility.yul\":2225:2230   */\n      dup2\n        /* \"#utility.yul\":2222:2257   */\n      eq\n        /* \"#utility.yul\":2212:2275   */\n      tag_166\n      jumpi\n        /* \"#utility.yul\":2271:2272   */\n      0x00\n        /* \"#utility.yul\":2268:2269   */\n      0x00\n        /* \"#utility.yul\":2261:2273   */\n      revert\n        /* \"#utility.yul\":2212:2275   */\n    tag_166:\n        /* \"#utility.yul\":2159:2281   */\n      pop\n      jump\t// out\n        /* \"#utility.yul\":2287:2426   */\n    tag_121:\n        /* \"#utility.yul\":2333:2338   */\n      0x00\n        /* \"#utility.yul\":2371:2377   */\n      dup2\n        /* \"#utility.yul\":2358:2378   */\n      calldataload\n        /* \"#utility.yul\":2349:2378   */\n      swap1\n      pop\n        /* \"#utility.yul\":2387:2420   */\n      tag_168\n        /* \"#utility.yul\":2414:2419   */\n      dup2\n        /* \"#utility.yul\":2387:2420   */\n      tag_120\n      jump\t// in\n    tag_168:\n        /* \"#utility.yul\":2287:2426   */\n      swap3\n      swap2\n      pop\n      pop\n      jump\t// out\n        /* \"#utility.yul\":2432:2906   */\n    tag_20:\n        /* \"#utility.yul\":2500:2506   */\n      0x00\n        /* \"#utility.yul\":2508:2514   */\n      0x00\n        /* \"#utility.yul\":2557:2559   */\n      0x40\n        /* \"#utility.yul\":2545:2554   */\n      dup4\n        /* \"#utility.yul\":2536:2543   */\n      dup6\n        /* \"#utility.yul\":2532:2555   */\n      sub\n        /* \"#utility.yul\":2528:2560   */\n      slt\n        /* \"#utility.yul\":2525:2644   */\n      iszero\n      tag_170\n      jumpi\n        /* \"#utility.yul\":2563:2642   */\n      tag_171\n      tag_113\n      jump\t// in\n    tag_171:\n        /* \"#utility.yul\":2525:2644   */\n    tag_170:\n        /* \"#utility.yul\":2683:2684   */\n      0x00\n        /* \"#utility.yul\":2708:2761   */\n      tag_172\n        /* \"#utility.yul\":2753:2760   */\n      dup6\n        /* \"#utility.yul\":2744:2750   */\n      dup3\n        /* \"#utility.yul\":2733:2742   */\n      dup7\n        /* \"#utility.yul\":2729:2751   */\n      add\n        /* \"#utility.yul\":2708:2761   */\n      tag_118\n      jump\t// in\n    tag_172:\n        /* \"#utility.yul\":2698:2761   */\n      swap3\n      pop\n        /* \"#utility.yul\":2654:2771   */\n      pop\n        /* \"#utility.yul\":2810:2812   */\n      0x20\n        /* \"#utility.yul\":2836:2889   */\n      tag_173\n        /* \"#utility.yul\":2881:2888   */\n      dup6\n        /* \"#utility.yul\":2872:2878   */\n      dup3\n        /* \"#utility.yul\":2861:2870   */\n      dup7\n        /* \"#utility.yul\":2857:2879   */\n      add\n        /* \"#utility.yul\":2836:2889   */\n      tag_121\n      jump\t// in\n    tag_173:\n        /* \"#utility.yul\":2826:2889   */\n      swap2\n      pop\n        /* \"#utility.yul\":2781:2899   */\n      pop\n        /* \"#utility.yul\":2432:2906   */\n      swap3\n      pop\n      swap3\n      swap1\n      pop\n      jump\t// out\n        /* \"#utility.yul\":2912:3002   */\n    tag_122:\n        /* \"#utility.yul\":2946:2953   */\n      0x00\n        /* \"#utility.yul\":2989:2994   */\n      dup2\n        /* \"#utility.yul\":2982:2995   */\n      iszero\n        /* \"#utility.yul\":2975:2996   */\n      iszero\n        /* \"#utility.yul\":2964:2996   */\n      swap1\n      pop\n        /* \"#utility.yul\":2912:3002   */\n      swap2\n      swap1\n      pop\n      jump\t// out\n        /* \"#utility.yul\":3008:3117   */\n    tag_123:\n        /* \"#utility.yul\":3089:3110   */\n      tag_176\n        /* \"#utility.yul\":3104:3109   */\n      dup2\n        /* \"#utility.yul\":3089:3110   */\n      tag_122\n      jump\t// in\n    tag_176:\n        /* \"#utility.yul\":3084:3087   */\n      dup3\n        /* \"#utility.yul\":3077:3111   */\n      mstore\n        /* \"#utility.yul\":3008:3117   */\n      pop\n      pop\n      jump\t// out\n        /* \"#utility.yul\":3123:3333   */\n    tag_23:\n        /* \"#utility.yul\":3210:3214   */\n      0x00\n        /* \"#utility.yul\":3248:3250   */\n      0x20\n        /* \"#utility.yul\":3237:3246   */\n      dup3\n        /* \"#utility.yul\":3233:3251   */\n      add\n        /* \"#utility.yul\":3225:3251   */\n      swap1\n      pop\n        /* \"#utility.yul\":3261:3326   */\n      tag_178\n        /* \"#utility.yul\":3323:3324   */\n      0x00\n        /* \"#utility.yul\":3312:3321   */\n      dup4\n        /* \"#utility.yul\":3308:3325   */\n      add\n        /* \"#utility.yul\":3299:3305   */\n      dup5\n        /* \"#utility.yul\":3261:3326   */\n      tag_123\n      jump\t// in\n    tag_178:\n        /* \"#utility.yul\":3123:3333   */\n      swap3\n      swap2\n      pop\n      pop\n      jump\t// out\n        /* \"#utility.yul\":3339:3457   */\n    tag_124:\n        /* \"#utility.yul\":3426:3450   */\n      tag_180\n        /* \"#utility.yul\":3444:3449   */\n      dup2\n        /* \"#utility.yul\":3426:3450   */\n      tag_119\n      jump\t// in\n    tag_180:\n        /* \"#utility.yul\":3421:3424   */\n      dup3\n        /* \"#utility.yul\":3414:3451   */\n      mstore\n        /* \"#utility.yul\":3339:3457   */\n      pop\n      pop\n      jump\t// out\n        /* \"#utility.yul\":3463:3685   */\n    tag_27:\n        /* \"#utility.yul\":3556:3560   */\n      0x00\n        /* \"#utility.yul\":3594:3596   */\n      0x20\n        /* \"#utility.yul\":3583:3592   */\n      dup3\n        /* \"#utility.yul\":3579:3597   */\n      add\n        /* \"#utility.yul\":3571:3597   */\n      swap1\n      pop\n        /* \"#utility.yul\":3607:3678   */\n      tag_182\n        /* \"#utility.yul\":3675:3676   */\n      0x00\n        /* \"#utility.yul\":3664:3673   */\n      dup4\n        /* \"#utility.yul\":3660:3677   */\n      add\n        /* \"#utility.yul\":3651:3657   */\n      dup5\n        /* \"#utility.yul\":3607:3678   */\n      tag_124\n      jump\t// in\n    tag_182:\n        /* \"#utility.yul\":3463:3685   */\n      swap3\n      swap2\n      pop\n      pop\n      jump\t// out\n        /* \"#utility.yul\":3691:4310   */\n    tag_30:\n        /* \"#utility.yul\":3768:3774   */\n      0x00\n        /* \"#utility.yul\":3776:3782   */\n      0x00\n        /* \"#utility.yul\":3784:3790   */\n      0x00\n        /* \"#utility.yul\":3833:3835   */\n      0x60\n        /* \"#utility.yul\":3821:3830   */\n      dup5\n        /* \"#utility.yul\":3812:3819   */\n      dup7\n        /* \"#utility.yul\":3808:3831   */\n      sub\n        /* \"#utility.yul\":3804:3836   */\n      slt\n        /* \"#utility.yul\":3801:3920   */\n      iszero\n      tag_184\n      jumpi\n        /* \"#utility.yul\":3839:3918   */\n      tag_185\n      tag_113\n      jump\t// in\n    tag_185:\n        /* \"#utility.yul\":3801:3920   */\n    tag_184:\n        /* \"#utility.yul\":3959:3960   */\n      0x00\n        /* \"#utility.yul\":3984:4037   */\n      tag_186\n        /* \"#utility.yul\":4029:4036   */\n      dup7\n        /* \"#utility.yul\":4020:4026   */\n      dup3\n        /* \"#utility.yul\":4009:4018   */\n      dup8\n        /* \"#utility.yul\":4005:4027   */\n      add\n        /* \"#utility.yul\":3984:4037   */\n      tag_118\n      jump\t// in\n    tag_186:\n        /* \"#utility.yul\":3974:4037   */\n      swap4\n      pop\n        /* \"#utility.yul\":3930:4047   */\n      pop\n        /* \"#utility.yul\":4086:4088   */\n      0x20\n        /* \"#utility.yul\":4112:4165   */\n      tag_187\n        /* \"#utility.yul\":4157:4164   */\n      dup7\n        /* \"#utility.yul\":4148:4154   */\n      dup3\n        /* \"#utility.yul\":4137:4146   */\n      dup8\n        /* \"#utility.yul\":4133:4155   */\n      add\n        /* \"#utility.yul\":4112:4165   */\n      tag_118\n      jump\t// in\n    tag_187:\n        /* \"#utility.yul\":4102:4165   */\n      swap3\n      pop\n        /* \"#utility.yul\":4057:4175   */\n      pop\n        /* \"#utility.yul\":4214:4216   */\n      0x40\n        /* \"#utility.yul\":4240:4293   */\n      tag_188\n        /* \"#utility.yul\":4285:4292   */\n      dup7\n        /* \"#utility.yul\":4276:4282   */\n      dup3\n        /* \"#utility.yul\":4265:4274   */\n      dup8\n        /* \"#utility.yul\":4261:4283   */\n      add\n        /* \"#utility.yul\":4240:4293   */\n      tag_121\n      jump\t// in\n    tag_188:\n        /* \"#utility.yul\":4230:4293   */\n      swap2\n      pop\n        /* \"#utility.yul\":4185:4303   */\n      pop\n        /* \"#utility.yul\":3691:4310   */\n      swap3\n      pop\n      swap3\n      pop\n      swap3\n      jump\t// out\n        /* \"#utility.yul\":4316:4402   */\n    tag_125:\n        /* \"#utility.yul\":4351:4358   */\n      0x00\n        /* \"#utility.yul\":4391:4395   */\n      0xff\n        /* \"#utility.yul\":4384:4389   */\n      dup3\n        /* \"#utility.yul\":4380:4396   */\n      and\n        /* \"#utility.yul\":4369:4396   */\n      swap1\n      pop\n        /* \"#utility.yul\":4316:4402   */\n      swap2\n      swap1\n      pop\n      jump\t// out\n        /* \"#utility.yul\":4408:4520   */\n    tag_126:\n        /* \"#utility.yul\":4491:4513   */\n      tag_191\n        /* \"#utility.yul\":4507:4512   */\n      dup2\n        /* \"#utility.yul\":4491:4513   */\n      tag_125\n      jump\t// in\n    tag_191:\n        /* \"#utility.yul\":4486:4489   */\n      dup3\n        /* \"#utility.yul\":4479:4514   */\n      mstore\n        /* \"#utility.yul\":4408:4520   */\n      pop\n      pop\n      jump\t// out\n        /* \"#utility.yul\":4526:4740   */\n    tag_36:\n        /* \"#utility.yul\":4615:4619   */\n      0x00\n        /* \"#utility.yul\":4653:4655   */\n      0x20\n        /* \"#utility.yul\":4642:4651   */\n      dup3\n        /* \"#utility.yul\":4638:4656   */\n      add\n        /* \"#utility.yul\":4630:4656   */\n      swap1\n      pop\n        /* \"#utility.yul\":4666:4733   */\n      tag_193\n        /* \"#utility.yul\":4730:4731   */\n      0x00\n        /* \"#utility.yul\":4719:4728   */\n      dup4\n        /* \"#utility.yul\":4715:4732   */\n      add\n        /* \"#utility.yul\":4706:4712   */\n      dup5\n        /* \"#utility.yul\":4666:4733   */\n      tag_126\n      jump\t// in\n    tag_193:\n        /* \"#utility.yul\":4526:4740   */\n      swap3\n      swap2\n      pop\n      pop\n      jump\t// out\n        /* \"#utility.yul\":4746:5075   */\n    tag_39:\n        /* \"#utility.yul\":4805:4811   */\n      0x00\n        /* \"#utility.yul\":4854:4856   */\n      0x20\n        /* \"#utility.yul\":4842:4851   */\n      dup3\n        /* \"#utility.yul\":4833:4840   */\n      dup5\n        /* \"#utility.yul\":4829:4852   */\n      sub\n        /* \"#utility.yul\":4825:4857   */\n      slt\n        /* \"#utility.yul\":4822:4941   */\n      iszero\n      tag_195\n      jumpi\n        /* \"#utility.yul\":4860:4939   */\n      tag_196\n      tag_113\n      jump\t// in\n    tag_196:\n        /* \"#utility.yul\":4822:4941   */\n    tag_195:\n        /* \"#utility.yul\":4980:4981   */\n      0x00\n        /* \"#utility.yul\":5005:5058   */\n      tag_197\n        /* \"#utility.yul\":5050:5057   */\n      dup5\n        /* \"#utility.yul\":5041:5047   */\n      dup3\n        /* \"#utility.yul\":5030:5039   */\n      dup6\n        /* \"#utility.yul\":5026:5048   */\n      add\n        /* \"#utility.yul\":5005:5058   */\n      tag_118\n      jump\t// in\n    tag_197:\n        /* \"#utility.yul\":4995:5058   */\n      swap2\n      pop\n        /* \"#utility.yul\":4951:5068   */\n      pop\n        /* \"#utility.yul\":4746:5075   */\n      swap3\n      swap2\n      pop\n      pop\n      jump\t// out\n        /* \"#utility.yul\":5081:5555   */\n    tag_51:\n        /* \"#utility.yul\":5149:5155   */\n      0x00\n        /* \"#utility.yul\":5157:5163   */\n      0x00\n        /* \"#utility.yul\":5206:5208   */\n      0x40\n        /* \"#utility.yul\":5194:5203   */\n      dup4\n        /* \"#utility.yul\":5185:5192   */\n      dup6\n        /* \"#utility.yul\":5181:5204   */\n      sub\n        /* \"#utility.yul\":5177:5209   */\n      slt\n        /* \"#utility.yul\":5174:5293   */\n      iszero\n      tag_199\n      jumpi\n        /* \"#utility.yul\":5212:5291   */\n      tag_200\n      tag_113\n      jump\t// in\n    tag_200:\n        /* \"#utility.yul\":5174:5293   */\n    tag_199:\n        /* \"#utility.yul\":5332:5333   */\n      0x00\n        /* \"#utility.yul\":5357:5410   */\n      tag_201\n        /* \"#utility.yul\":5402:5409   */\n      dup6\n        /* \"#utility.yul\":5393:5399   */\n      dup3\n        /* \"#utility.yul\":5382:5391   */\n      dup7\n        /* \"#utility.yul\":5378:5400   */\n      add\n        /* \"#utility.yul\":5357:5410   */\n      tag_118\n      jump\t// in\n    tag_201:\n        /* \"#utility.yul\":5347:5410   */\n      swap3\n      pop\n        /* \"#utility.yul\":5303:5420   */\n      pop\n        /* \"#utility.yul\":5459:5461   */\n      0x20\n        /* \"#utility.yul\":5485:5538   */\n      tag_202\n        /* \"#utility.yul\":5530:5537   */\n      dup6\n        /* \"#utility.yul\":5521:5527   */\n      dup3\n        /* \"#utility.yul\":5510:5519   */\n      dup7\n        /* \"#utility.yul\":5506:5528   */\n      add\n        /* \"#utility.yul\":5485:5538   */\n      tag_118\n      jump\t// in\n    tag_202:\n        /* \"#utility.yul\":5475:5538   */\n      swap2\n      pop\n        /* \"#utility.yul\":5430:5548   */\n      pop\n        /* \"#utility.yul\":5081:5555   */\n      swap3\n      pop\n      swap3\n      swap1\n      pop\n      jump\t// out\n        /* \"#utility.yul\":5561:5741   */\n    tag_127:\n        /* \"#utility.yul\":5609:5686   */\n      0x4e487b7100000000000000000000000000000000000000000000000000000000\n        /* \"#utility.yul\":5606:5607   */\n      0x00\n        /* \"#utility.yul\":5599:5687   */\n      mstore\n        /* \"#utility.yul\":5706:5710   */\n      0x22\n        /* \"#utility.yul\":5703:5704   */\n      0x04\n        /* \"#utility.yul\":5696:5711   */\n      mstore\n        /* \"#utility.yul\":5730:5734   */\n      0x24\n        /* \"#utility.yul\":5727:5728   */\n      0x00\n        /* \"#utility.yul\":5720:5735   */\n      revert\n        /* \"#utility.yul\":5747:6067   */\n    tag_57:\n        /* \"#utility.yul\":5791:5797   */\n      0x00\n        /* \"#utility.yul\":5828:5829   */\n      0x02\n        /* \"#utility.yul\":5822:5826   */\n      dup3\n        /* \"#utility.yul\":5818:5830   */\n      div\n        /* \"#utility.yul\":5808:5830   */\n      swap1\n      pop\n        /* \"#utility.yul\":5875:5876   */\n      0x01\n        /* \"#utility.yul\":5869:5873   */\n      dup3\n        /* \"#utility.yul\":5865:5877   */\n      and\n        /* \"#utility.yul\":5896:5914   */\n      dup1\n        /* \"#utility.yul\":5886:5967   */\n      tag_205\n      jumpi\n        /* \"#utility.yul\":5952:5956   */\n      0x7f\n        /* \"#utility.yul\":5944:5950   */\n      dup3\n        /* \"#utility.yul\":5940:5957   */\n      and\n        /* \"#utility.yul\":5930:5957   */\n      swap2\n      pop\n        /* \"#utility.yul\":5886:5967   */\n    tag_205:\n        /* \"#utility.yul\":6014:6016   */\n      0x20\n        /* \"#utility.yul\":6006:6012   */\n      dup3\n        /* \"#utility.yul\":6003:6017   */\n      lt\n        /* \"#utility.yul\":5983:6001   */\n      dup2\n        /* \"#utility.yul\":5980:6018   */\n      sub\n        /* \"#utility.yul\":5977:6061   */\n      tag_206\n      jumpi\n        /* \"#utility.yul\":6033:6051   */\n      tag_207\n      tag_127\n      jump\t// in\n    tag_207:\n        /* \"#utility.yul\":5977:6061   */\n    tag_206:\n        /* \"#utility.yul\":5798:6067   */\n      pop\n        /* \"#utility.yul\":5747:6067   */\n      swap2\n      swap1\n      pop\n      jump\t// out\n        /* \"#utility.yul\":6073:6253   */\n    tag_128:\n        /* \"#utility.yul\":6213:6245   */\n      0x45524332303a20617070726f766520746f207a65726f20616464726573730000\n        /* \"#utility.yul\":6209:6210   */\n      0x00\n        /* \"#utility.yul\":6201:6207   */\n      dup3\n        /* \"#utility.yul\":6197:6211   */\n      add\n        /* \"#utility.yul\":6190:6246   */\n      mstore\n        /* \"#utility.yul\":6073:6253   */\n      pop\n      jump\t// out\n        /* \"#utility.yul\":6259:6625   */\n    tag_129:\n        /* \"#utility.yul\":6401:6404   */\n      0x00\n        /* \"#utility.yul\":6422:6489   */\n      tag_210\n        /* \"#utility.yul\":6486:6488   */\n      0x1e\n        /* \"#utility.yul\":6481:6484   */\n      dup4\n        /* \"#utility.yul\":6422:6489   */\n      tag_108\n      jump\t// in\n    tag_210:\n        /* \"#utility.yul\":6415:6489   */\n      swap2\n      pop\n        /* \"#utility.yul\":6498:6591   */\n      tag_211\n        /* \"#utility.yul\":6587:6590   */\n      dup3\n        /* \"#utility.yul\":6498:6591   */\n      tag_128\n      jump\t// in\n    tag_211:\n        /* \"#utility.yul\":6616:6618   */\n      0x20\n        /* \"#utility.yul\":6611:6614   */\n      dup3\n        /* \"#utility.yul\":6607:6619   */\n      add\n        /* \"#utility.yul\":6600:6619   */\n      swap1\n      pop\n        /* \"#utility.yul\":6259:6625   */\n      swap2\n      swap1\n      pop\n      jump\t// out\n        /* \"#utility.yul\":6631:7050   */\n    tag_65:\n        /* \"#utility.yul\":6797:6801   */\n      0x00\n        /* \"#utility.yul\":6835:6837   */\n      0x20\n        /* \"#utility.yul\":6824:6833   */\n      dup3\n        /* \"#utility.yul\":6820:6838   */\n      add\n        /* \"#utility.yul\":6812:6838   */\n      swap1\n      pop\n        /* \"#utility.yul\":6884:6893   */\n      dup2\n        /* \"#utility.yul\":6878:6882   */\n      dup2\n        /* \"#utility.yul\":6874:6894   */\n      sub\n        /* \"#utility.yul\":6870:6871   */\n      0x00\n        /* \"#utility.yul\":6859:6868   */\n      dup4\n        /* \"#utility.yul\":6855:6872   */\n      add\n        /* \"#utility.yul\":6848:6895   */\n      mstore\n        /* \"#utility.yul\":6912:7043   */\n      tag_213\n        /* \"#utility.yul\":7038:7042   */\n      dup2\n        /* \"#utility.yul\":6912:7043   */\n      tag_129\n      jump\t// in\n    tag_213:\n        /* \"#utility.yul\":6904:7043   */\n      swap1\n      pop\n        /* \"#utility.yul\":6631:7050   */\n      swap2\n      swap1\n      pop\n      jump\t// out\n        /* \"#utility.yul\":7056:7237   */\n    tag_130:\n        /* \"#utility.yul\":7196:7229   */\n      0x45524332303a207472616e7366657220746f207a65726f206164647265737300\n        /* \"#utility.yul\":7192:7193   */\n      0x00\n        /* \"#utility.yul\":7184:7190   */\n      dup3\n        /* \"#utility.yul\":7180:7194   */\n      add\n        /* \"#utility.yul\":7173:7230   */\n      mstore\n        /* \"#utility.yul\":7056:7237   */\n      pop\n      jump\t// out\n        /* \"#utility.yul\":7243:7609   */\n    tag_131:\n        /* \"#utility.yul\":7385:7388   */\n      0x00\n        /* \"#utility.yul\":7406:7473   */\n      tag_216\n        /* \"#utility.yul\":7470:7472   */\n      0x1f\n        /* \"#utility.yul\":7465:7468   */\n      dup4\n        /* \"#utility.yul\":7406:7473   */\n      tag_108\n      jump\t// in\n    tag_216:\n        /* \"#utility.yul\":7399:7473   */\n      swap2\n      pop\n        /* \"#utility.yul\":7482:7575   */\n      tag_217\n        /* \"#utility.yul\":7571:7574   */\n      dup3\n        /* \"#utility.yul\":7482:7575   */\n      tag_130\n      jump\t// in\n    tag_217:\n        /* \"#utility.yul\":7600:7602   */\n      0x20\n        /* \"#utility.yul\":7595:7598   */\n      dup3\n        /* \"#utility.yul\":7591:7603   */\n      add\n        /* \"#utility.yul\":7584:7603   */\n      swap1\n      pop\n        /* \"#utility.yul\":7243:7609   */\n      swap2\n      swap1\n      pop\n      jump\t// out\n        /* \"#utility.yul\":7615:8034   */\n    tag_71:\n        /* \"#utility.yul\":7781:7785   */\n      0x00\n        /* \"#utility.yul\":7819:7821   */\n      0x20\n        /* \"#utility.yul\":7808:7817   */\n      dup3\n        /* \"#utility.yul\":7804:7822   */\n      add\n        /* \"#utility.yul\":7796:7822   */\n      swap1\n      pop\n        /* \"#utility.yul\":7868:7877   */\n      dup2\n        /* \"#utility.yul\":7862:7866   */\n      dup2\n        /* \"#utility.yul\":7858:7878   */\n      sub\n        /* \"#utility.yul\":7854:7855   */\n      0x00\n        /* \"#utility.yul\":7843:7852   */\n      dup4\n        /* \"#utility.yul\":7839:7856   */\n      add\n        /* \"#utility.yul\":7832:7879   */\n      mstore\n        /* \"#utility.yul\":7896:8027   */\n      tag_219\n        /* \"#utility.yul\":8022:8026   */\n      dup2\n        /* \"#utility.yul\":7896:8027   */\n      tag_131\n      jump\t// in\n    tag_219:\n        /* \"#utility.yul\":7888:8027   */\n      swap1\n      pop\n        /* \"#utility.yul\":7615:8034   */\n      swap2\n      swap1\n      pop\n      jump\t// out\n        /* \"#utility.yul\":8040:8217   */\n    tag_132:\n        /* \"#utility.yul\":8180:8209   */\n      0x45524332303a20696e73756666696369656e742062616c616e63650000000000\n        /* \"#utility.yul\":8176:8177   */\n      0x00\n        /* \"#utility.yul\":8168:8174   */\n      dup3\n        /* \"#utility.yul\":8164:8178   */\n      add\n        /* \"#utility.yul\":8157:8210   */\n      mstore\n        /* \"#utility.yul\":8040:8217   */\n      pop\n      jump\t// out\n        /* \"#utility.yul\":8223:8589   */\n    tag_133:\n        /* \"#utility.yul\":8365:8368   */\n      0x00\n        /* \"#utility.yul\":8386:8453   */\n      tag_222\n        /* \"#utility.yul\":8450:8452   */\n      0x1b\n        /* \"#utility.yul\":8445:8448   */\n      dup4\n        /* \"#utility.yul\":8386:8453   */\n      tag_108\n      jump\t// in\n    tag_222:\n        /* \"#utility.yul\":8379:8453   */\n      swap2\n      pop\n        /* \"#utility.yul\":8462:8555   */\n      tag_223\n        /* \"#utility.yul\":8551:8554   */\n      dup3\n        /* \"#utility.yul\":8462:8555   */\n      tag_132\n      jump\t// in\n    tag_223:\n        /* \"#utility.yul\":8580:8582   */\n      0x20\n        /* \"#utility.yul\":8575:8578   */\n      dup3\n        /* \"#utility.yul\":8571:8583   */\n      add\n        /* \"#utility.yul\":8564:8583   */\n      swap1\n      pop\n        /* \"#utility.yul\":8223:8589   */\n      swap2\n      swap1\n      pop\n      jump\t// out\n        /* \"#utility.yul\":8595:9014   */\n    tag_74:\n        /* \"#utility.yul\":8761:8765   */\n      0x00\n        /* \"#utility.yul\":8799:8801   */\n      0x20\n        /* \"#utility.yul\":8788:8797   */\n      dup3\n        /* \"#utility.yul\":8784:8802   */\n      add\n        /* \"#utility.yul\":8776:8802   */\n      swap1\n      pop\n        /* \"#utility.yul\":8848:8857   */\n      dup2\n        /* \"#utility.yul\":8842:8846   */\n      dup2\n        /* \"#utility.yul\":8838:8858   */\n      sub\n        /* \"#utility.yul\":8834:8835   */\n      0x00\n        /* \"#utility.yul\":8823:8832   */\n      dup4\n        /* \"#utility.yul\":8819:8836   */\n      add\n        /* \"#utility.yul\":8812:8859   */\n      mstore\n        /* \"#utility.yul\":8876:9007   */\n      tag_225\n        /* \"#utility.yul\":9002:9006   */\n      dup2\n        /* \"#utility.yul\":8876:9007   */\n      tag_133\n      jump\t// in\n    tag_225:\n        /* \"#utility.yul\":8868:9007   */\n      swap1\n      pop\n        /* \"#utility.yul\":8595:9014   */\n      swap2\n      swap1\n      pop\n      jump\t// out\n        /* \"#utility.yul\":9020:9199   */\n    tag_134:\n        /* \"#utility.yul\":9160:9191   */\n      0x45524332303a20696e73756666696369656e7420616c6c6f77616e6365000000\n        /* \"#utility.yul\":9156:9157   */\n      0x00\n        /* \"#utility.yul\":9148:9154   */\n      dup3\n        /* \"#utility.yul\":9144:9158   */\n      add\n        /* \"#utility.yul\":9137:9192   */\n      mstore\n        /* \"#utility.yul\":9020:9199   */\n      pop\n      jump\t// out\n        /* \"#utility.yul\":9205:9571   */\n    tag_135:\n        /* \"#utility.yul\":9347:9350   */\n      0x00\n        /* \"#utility.yul\":9368:9435   */\n      tag_228\n        /* \"#utility.yul\":9432:9434   */\n      0x1d\n        /* \"#utility.yul\":9427:9430   */\n      dup4\n        /* \"#utility.yul\":9368:9435   */\n      tag_108\n      jump\t// in\n    tag_228:\n        /* \"#utility.yul\":9361:9435   */\n      swap2\n      pop\n        /* \"#utility.yul\":9444:9537   */\n      tag_229\n        /* \"#utility.yul\":9533:9536   */\n      dup3\n        /* \"#utility.yul\":9444:9537   */\n      tag_134\n      jump\t// in\n    tag_229:\n        /* \"#utility.yul\":9562:9564   */\n      0x20\n        /* \"#utility.yul\":9557:9560   */\n      dup3\n        /* \"#utility.yul\":9553:9565   */\n      add\n        /* \"#utility.yul\":9546:9565   */\n      swap1\n      pop\n        /* \"#utility.yul\":9205:9571   */\n      swap2\n      swap1\n      pop\n      jump\t// out\n        /* \"#utility.yul\":9577:9996   */\n    tag_77:\n        /* \"#utility.yul\":9743:9747   */\n      0x00\n        /* \"#utility.yul\":9781:9783   */\n      0x20\n        /* \"#utility.yul\":9770:9779   */\n      dup3\n        /* \"#utility.yul\":9766:9784   */\n      add\n        /* \"#utility.yul\":9758:9784   */\n      swap1\n      pop\n        /* \"#utility.yul\":9830:9839   */\n      dup2\n        /* \"#utility.yul\":9824:9828   */\n      dup2\n        /* \"#utility.yul\":9820:9840   */\n      sub\n        /* \"#utility.yul\":9816:9817   */\n      0x00\n        /* \"#utility.yul\":9805:9814   */\n      dup4\n        /* \"#utility.yul\":9801:9818   */\n      add\n        /* \"#utility.yul\":9794:9841   */\n      mstore\n        /* \"#utility.yul\":9858:9989   */\n      tag_231\n        /* \"#utility.yul\":9984:9988   */\n      dup2\n        /* \"#utility.yul\":9858:9989   */\n      tag_135\n      jump\t// in\n    tag_231:\n        /* \"#utility.yul\":9850:9989   */\n      swap1\n      pop\n        /* \"#utility.yul\":9577:9996   */\n      swap2\n      swap1\n      pop\n      jump\t// out\n        /* \"#utility.yul\":10002:10182   */\n    tag_136:\n        /* \"#utility.yul\":10050:10127   */\n      0x4e487b7100000000000000000000000000000000000000000000000000000000\n        /* \"#utility.yul\":10047:10048   */\n      0x00\n        /* \"#utility.yul\":10040:10128   */\n      mstore\n        /* \"#utility.yul\":10147:10151   */\n      0x11\n        /* \"#utility.yul\":10144:10145   */\n      0x04\n        /* \"#utility.yul\":10137:10152   */\n      mstore\n        /* \"#utility.yul\":10171:10175   */\n      0x24\n        /* \"#utility.yul\":10168:10169   */\n      0x00\n        /* \"#utility.yul\":10161:10176   */\n      revert\n        /* \"#utility.yul\":10188:10382   */\n    tag_79:\n        /* \"#utility.yul\":10228:10232   */\n      0x00\n        /* \"#utility.yul\":10248:10268   */\n      tag_234\n        /* \"#utility.yul\":10266:10267   */\n      dup3\n        /* \"#utility.yul\":10248:10268   */\n      tag_119\n      jump\t// in\n    tag_234:\n        /* \"#utility.yul\":10243:10268   */\n      swap2\n      pop\n        /* \"#utility.yul\":10282:10302   */\n      tag_235\n        /* \"#utility.yul\":10300:10301   */\n      dup4\n        /* \"#utility.yul\":10282:10302   */\n      tag_119\n      jump\t// in\n    tag_235:\n        /* \"#utility.yul\":10277:10302   */\n      swap3\n      pop\n        /* \"#utility.yul\":10326:10327   */\n      dup3\n        /* \"#utility.yul\":10323:10324   */\n      dup3\n        /* \"#utility.yul\":10319:10328   */\n      sub\n        /* \"#utility.yul\":10311:10328   */\n      swap1\n      pop\n        /* \"#utility.yul\":10350:10351   */\n      dup2\n        /* \"#utility.yul\":10344:10348   */\n      dup2\n        /* \"#utility.yul\":10341:10352   */\n      gt\n        /* \"#utility.yul\":10338:10375   */\n      iszero\n      tag_236\n      jumpi\n        /* \"#utility.yul\":10355:10373   */\n      tag_237\n      tag_136\n      jump\t// in\n    tag_237:\n        /* \"#utility.yul\":10338:10375   */\n    tag_236:\n        /* \"#utility.yul\":10188:10382   */\n      swap3\n      swap2\n      pop\n      pop\n      jump\t// out\n        /* \"#utility.yul\":10388:10579   */\n    tag_82:\n        /* \"#utility.yul\":10428:10431   */\n      0x00\n        /* \"#utility.yul\":10447:10467   */\n      tag_239\n        /* \"#utility.yul\":10465:10466   */\n      dup3\n        /* \"#utility.yul\":10447:10467   */\n      tag_119\n      jump\t// in\n    tag_239:\n        /* \"#utility.yul\":10442:10467   */\n      swap2\n      pop\n        /* \"#utility.yul\":10481:10501   */\n      tag_240\n        /* \"#utility.yul\":10499:10500   */\n      dup4\n        /* \"#utility.yul\":10481:10501   */\n      tag_119\n      jump\t// in\n    tag_240:\n        /* \"#utility.yul\":10476:10501   */\n      swap3\n      pop\n        /* \"#utility.yul\":10524:10525   */\n      dup3\n        /* \"#utility.yul\":10521:10522   */\n      dup3\n        /* \"#utility.yul\":10517:10526   */\n      add\n        /* \"#utility.yul\":10510:10526   */\n      swap1\n      pop\n        /* \"#utility.yul\":10545:10548   */\n      dup1\n        /* \"#utility.yul\":10542:10543   */\n      dup3\n        /* \"#utility.yul\":10539:10549   */\n      gt\n        /* \"#utility.yul\":10536:10572   */\n      iszero\n      tag_241\n      jumpi\n        /* \"#utility.yul\":10552:10570   */\n      tag_242\n      tag_136\n      jump\t// in\n    tag_242:\n        /* \"#utility.yul\":10536:10572   */\n    tag_241:\n        /* \"#utility.yul\":10388:10579   */\n      swap3\n      swap2\n      pop\n      pop\n      jump\t// out\n        /* \"#utility.yul\":10585:10687   */\n    tag_137:\n        /* \"#utility.yul\":10627:10635   */\n      0x00\n        /* \"#utility.yul\":10674:10679   */\n      dup2\n        /* \"#utility.yul\":10671:10672   */\n      0x01\n        /* \"#utility.yul\":10667:10680   */\n      shr\n        /* \"#utility.yul\":10646:10680   */\n      swap1\n      pop\n        /* \"#utility.yul\":10585:10687   */\n      swap2\n      swap1\n      pop\n      jump\t// out\n        /* \"#utility.yul\":10693:11541   */\n    tag_138:\n        /* \"#utility.yul\":10754:10759   */\n      0x00\n        /* \"#utility.yul\":10761:10765   */\n      0x00\n        /* \"#utility.yul\":10785:10791   */\n      dup3\n        /* \"#utility.yul\":10776:10791   */\n      swap2\n      pop\n        /* \"#utility.yul\":10809:10814   */\n      dup4\n        /* \"#utility.yul\":10800:10814   */\n      swap1\n      pop\n        /* \"#utility.yul\":10823:11535   */\n    tag_245:\n        /* \"#utility.yul\":10844:10845   */\n      0x01\n        /* \"#utility.yul\":10834:10842   */\n      dup6\n        /* \"#utility.yul\":10831:10846   */\n      gt\n        /* \"#utility.yul\":10823:11535   */\n      iszero\n      tag_247\n      jumpi\n        /* \"#utility.yul\":10939:10943   */\n      dup1\n        /* \"#utility.yul\":10934:10937   */\n      dup7\n        /* \"#utility.yul\":10930:10944   */\n      div\n        /* \"#utility.yul\":10924:10928   */\n      dup2\n        /* \"#utility.yul\":10921:10945   */\n      gt\n        /* \"#utility.yul\":10918:10968   */\n      iszero\n      tag_248\n      jumpi\n        /* \"#utility.yul\":10948:10966   */\n      tag_249\n      tag_136\n      jump\t// in\n    tag_249:\n        /* \"#utility.yul\":10918:10968   */\n    tag_248:\n        /* \"#utility.yul\":10998:10999   */\n      0x01\n        /* \"#utility.yul\":10988:10996   */\n      dup6\n        /* \"#utility.yul\":10984:11000   */\n      and\n        /* \"#utility.yul\":10981:11432   */\n      iszero\n      tag_250\n      jumpi\n        /* \"#utility.yul\":11413:11417   */\n      dup1\n        /* \"#utility.yul\":11406:11411   */\n      dup3\n        /* \"#utility.yul\":11402:11418   */\n      mul\n        /* \"#utility.yul\":11393:11418   */\n      swap2\n      pop\n        /* \"#utility.yul\":10981:11432   */\n    tag_250:\n        /* \"#utility.yul\":11463:11467   */\n      dup1\n        /* \"#utility.yul\":11457:11461   */\n      dup2\n        /* \"#utility.yul\":11453:11468   */\n      mul\n        /* \"#utility.yul\":11445:11468   */\n      swap1\n      pop\n        /* \"#utility.yul\":11493:11525   */\n      tag_251\n        /* \"#utility.yul\":11516:11524   */\n      dup6\n        /* \"#utility.yul\":11493:11525   */\n      tag_137\n      jump\t// in\n    tag_251:\n        /* \"#utility.yul\":11481:11525   */\n      swap5\n      pop\n        /* \"#utility.yul\":10823:11535   */\n      jump(tag_245)\n    tag_247:\n        /* \"#utility.yul\":10693:11541   */\n      swap5\n      pop\n      swap5\n      swap3\n      pop\n      pop\n      pop\n      jump\t// out\n        /* \"#utility.yul\":11547:12620   */\n    tag_139:\n        /* \"#utility.yul\":11601:11606   */\n      0x00\n        /* \"#utility.yul\":11792:11800   */\n      dup3\n        /* \"#utility.yul\":11782:11822   */\n      tag_253\n      jumpi\n        /* \"#utility.yul\":11813:11814   */\n      0x01\n        /* \"#utility.yul\":11804:11814   */\n      swap1\n      pop\n        /* \"#utility.yul\":11815:11820   */\n      jump(tag_252)\n        /* \"#utility.yul\":11782:11822   */\n    tag_253:\n        /* \"#utility.yul\":11841:11845   */\n      dup2\n        /* \"#utility.yul\":11831:11867   */\n      tag_254\n      jumpi\n        /* \"#utility.yul\":11858:11859   */\n      0x00\n        /* \"#utility.yul\":11849:11859   */\n      swap1\n      pop\n        /* \"#utility.yul\":11860:11865   */\n      jump(tag_252)\n        /* \"#utility.yul\":11831:11867   */\n    tag_254:\n        /* \"#utility.yul\":11927:11931   */\n      dup2\n        /* \"#utility.yul\":11975:11976   */\n      0x01\n        /* \"#utility.yul\":11970:11997   */\n      dup2\n      eq\n      tag_256\n      jumpi\n        /* \"#utility.yul\":12011:12012   */\n      0x02\n        /* \"#utility.yul\":12006:12197   */\n      dup2\n      eq\n      tag_257\n      jumpi\n        /* \"#utility.yul\":11920:12197   */\n      jump(tag_255)\n        /* \"#utility.yul\":11970:11997   */\n    tag_256:\n        /* \"#utility.yul\":11988:11989   */\n      0x01\n        /* \"#utility.yul\":11979:11989   */\n      swap2\n      pop\n        /* \"#utility.yul\":11990:11995   */\n      pop\n      jump(tag_252)\n        /* \"#utility.yul\":12006:12197   */\n    tag_257:\n        /* \"#utility.yul\":12051:12054   */\n      0xff\n        /* \"#utility.yul\":12041:12049   */\n      dup5\n        /* \"#utility.yul\":12038:12055   */\n      gt\n        /* \"#utility.yul\":12035:12078   */\n      iszero\n      tag_258\n      jumpi\n        /* \"#utility.yul\":12058:12076   */\n      tag_259\n      tag_136\n      jump\t// in\n    tag_259:\n        /* \"#utility.yul\":12035:12078   */\n    tag_258:\n        /* \"#utility.yul\":12107:12115   */\n      dup4\n        /* \"#utility.yul\":12104:12105   */\n      0x02\n        /* \"#utility.yul\":12100:12116   */\n      exp\n        /* \"#utility.yul\":12091:12116   */\n      swap2\n      pop\n        /* \"#utility.yul\":12142:12145   */\n      dup5\n        /* \"#utility.yul\":12135:12140   */\n      dup3\n        /* \"#utility.yul\":12132:12146   */\n      gt\n        /* \"#utility.yul\":12129:12169   */\n      iszero\n      tag_260\n      jumpi\n        /* \"#utility.yul\":12149:12167   */\n      tag_261\n      tag_136\n      jump\t// in\n    tag_261:\n        /* \"#utility.yul\":12129:12169   */\n    tag_260:\n        /* \"#utility.yul\":12182:12187   */\n      pop\n      jump(tag_252)\n        /* \"#utility.yul\":11920:12197   */\n    tag_255:\n      pop\n        /* \"#utility.yul\":12306:12308   */\n      0x20\n        /* \"#utility.yul\":12296:12304   */\n      dup4\n        /* \"#utility.yul\":12293:12309   */\n      lt\n        /* \"#utility.yul\":12287:12290   */\n      0x0133\n        /* \"#utility.yul\":12281:12285   */\n      dup4\n        /* \"#utility.yul\":12278:12291   */\n      lt\n        /* \"#utility.yul\":12274:12310   */\n      and\n        /* \"#utility.yul\":12256:12258   */\n      0x4e\n        /* \"#utility.yul\":12246:12254   */\n      dup5\n        /* \"#utility.yul\":12243:12259   */\n      lt\n        /* \"#utility.yul\":12238:12240   */\n      0x0b\n        /* \"#utility.yul\":12232:12236   */\n      dup5\n        /* \"#utility.yul\":12229:12241   */\n      lt\n        /* \"#utility.yul\":12225:12260   */\n      and\n        /* \"#utility.yul\":12209:12320   */\n      or\n        /* \"#utility.yul\":12206:12452   */\n      iszero\n      tag_262\n      jumpi\n        /* \"#utility.yul\":12362:12370   */\n      dup3\n        /* \"#utility.yul\":12356:12360   */\n      dup3\n        /* \"#utility.yul\":12352:12371   */\n      exp\n        /* \"#utility.yul\":12343:12371   */\n      swap1\n      pop\n        /* \"#utility.yul\":12397:12400   */\n      dup4\n        /* \"#utility.yul\":12390:12395   */\n      dup2\n        /* \"#utility.yul\":12387:12401   */\n      gt\n        /* \"#utility.yul\":12384:12424   */\n      iszero\n      tag_263\n      jumpi\n        /* \"#utility.yul\":12404:12422   */\n      tag_264\n      tag_136\n      jump\t// in\n    tag_264:\n        /* \"#utility.yul\":12384:12424   */\n    tag_263:\n        /* \"#utility.yul\":12437:12442   */\n      jump(tag_252)\n        /* \"#utility.yul\":12206:12452   */\n    tag_262:\n        /* \"#utility.yul\":12477:12519   */\n      tag_265\n        /* \"#utility.yul\":12515:12518   */\n      dup5\n        /* \"#utility.yul\":12505:12513   */\n      dup5\n        /* \"#utility.yul\":12499:12503   */\n      dup5\n        /* \"#utility.yul\":12496:12497   */\n      0x01\n        /* \"#utility.yul\":12477:12519   */\n      tag_138\n      jump\t// in\n    tag_265:\n        /* \"#utility.yul\":12462:12519   */\n      swap3\n      pop\n      swap1\n      pop\n        /* \"#utility.yul\":12551:12555   */\n      dup2\n        /* \"#utility.yul\":12546:12549   */\n      dup5\n        /* \"#utility.yul\":12542:12556   */\n      div\n        /* \"#utility.yul\":12535:12540   */\n      dup2\n        /* \"#utility.yul\":12532:12557   */\n      gt\n        /* \"#utility.yul\":12529:12580   */\n      iszero\n      tag_266\n      jumpi\n        /* \"#utility.yul\":12560:12578   */\n      tag_267\n      tag_136\n      jump\t// in\n    tag_267:\n        /* \"#utility.yul\":12529:12580   */\n    tag_266:\n        /* \"#utility.yul\":12609:12613   */\n      dup2\n        /* \"#utility.yul\":12602:12607   */\n      dup2\n        /* \"#utility.yul\":12598:12614   */\n      mul\n        /* \"#utility.yul\":12589:12614   */\n      swap1\n      pop\n        /* \"#utility.yul\":11547:12620   */\n    tag_252:\n      swap4\n      swap3\n      pop\n      pop\n      pop\n      jump\t// out\n        /* \"#utility.yul\":12626:12907   */\n    tag_101:\n        /* \"#utility.yul\":12684:12689   */\n      0x00\n        /* \"#utility.yul\":12708:12731   */\n      tag_269\n        /* \"#utility.yul\":12726:12730   */\n      dup3\n        /* \"#utility.yul\":12708:12731   */\n      tag_119\n      jump\t// in\n    tag_269:\n        /* \"#utility.yul\":12700:12731   */\n      swap2\n      pop\n        /* \"#utility.yul\":12752:12777   */\n      tag_270\n        /* \"#utility.yul\":12768:12776   */\n      dup4\n        /* \"#utility.yul\":12752:12777   */\n      tag_125\n      jump\t// in\n    tag_270:\n        /* \"#utility.yul\":12740:12777   */\n      swap3\n      pop\n        /* \"#utility.yul\":12796:12900   */\n      tag_271\n        /* \"#utility.yul\":12833:12899   */\n      0xffffffffffffffffffffffffffffffffffffffffffffffffffffffffffffffff\n        /* \"#utility.yul\":12823:12831   */\n      dup5\n        /* \"#utility.yul\":12817:12821   */\n      dup5\n        /* \"#utility.yul\":12796:12900   */\n      tag_139\n      jump\t// in\n    tag_271:\n        /* \"#utility.yul\":12787:12900   */\n      swap1\n      pop\n        /* \"#utility.yul\":12626:12907   */\n      swap3\n      swap2\n      pop\n      pop\n      jump\t// out\n        /* \"#utility.yul\":12913:13323   */\n    tag_103:\n        /* \"#utility.yul\":12953:12960   */\n      0x00\n        /* \"#utility.yul\":12976:12996   */\n      tag_273\n        /* \"#utility.yul\":12994:12995   */\n      dup3\n        /* \"#utility.yul\":12976:12996   */\n      tag_119\n      jump\t// in\n    tag_273:\n        /* \"#utility.yul\":12971:12996   */\n      swap2\n      pop\n        /* \"#utility.yul\":13010:13030   */\n      tag_274\n        /* \"#utility.yul\":13028:13029   */\n      dup4\n        /* \"#utility.yul\":13010:13030   */\n      tag_119\n      jump\t// in\n    tag_274:\n        /* \"#utility.yul\":13005:13030   */\n      swap3\n      pop\n        /* \"#utility.yul\":13065:13066   */\n      dup3\n        /* \"#utility.yul\":13062:13063   */\n      dup3\n        /* \"#utility.yul\":13058:13067   */\n      mul\n        /* \"#utility.yul\":13087:13117   */\n      tag_275\n        /* \"#utility.yul\":13105:13116   */\n      dup2\n        /* \"#utility.yul\":13087:13117   */\n      tag_119\n      jump\t// in\n    tag_275:\n        /* \"#utility.yul\":13076:13117   */\n      swap2\n      pop\n        /* \"#utility.yul\":13266:13267   */\n      dup3\n        /* \"#utility.yul\":13257:13264   */\n      dup3\n        /* \"#utility.yul\":13253:13268   */\n      div\n        /* \"#utility.yul\":13250:13251   */\n      dup5\n        /* \"#utility.yul\":13247:13269   */\n      eq\n        /* \"#utility.yul\":13227:13228   */\n      dup4\n        /* \"#utility.yul\":13220:13229   */\n      iszero\n        /* \"#utility.yul\":13200:13283   */\n      or\n        /* \"#utility.yul\":13177:13316   */\n      tag_276\n      jumpi\n        /* \"#utility.yul\":13296:13314   */\n      tag_277\n      tag_136\n      jump\t// in\n    tag_277:\n        /* \"#utility.yul\":13177:13316   */\n    tag_276:\n        /* \"#utility.yul\":12961:13323   */\n      pop\n        /* \"#utility.yul\":12913:13323   */\n      swap3\n      swap2\n      pop\n      pop\n      jump\t// out\n\n    auxdata: 0xa26469706673582212202aabe6efc734699c254f12fc4b49154b6353cc43f767d8525849a70939666cfa64736f6c63430008220033\n}\n",
				"bytecode": {
					"linkReferences": {},
					"object": "60806040526040518060400160405280600d81526020017f4b6f6f6b6d696e20546f6b656e000000000000000000000000000000000000008152505f908161004791906103e2565b506040518060400160405280600381526020017f4b4d5500000000000000000000000000000000000000000000000000000000008152506001908161008c91906103e2565b50601260025f6101000a81548160ff021916908360ff1602179055503480156100b3575f5ffd5b505f60025f9054906101000a900460ff16600a6100d09190610619565b620f42406100de9190610663565b9050806003819055508060045f3373ffffffffffffffffffffffffffffffffffffffff1673ffffffffffffffffffffffffffffffffffffffff1681526020019081526020015f20819055503373ffffffffffffffffffffffffffffffffffffffff165f73ffffffffffffffffffffffffffffffffffffffff167fddf252ad1be2c89b69c2b068fc378daa952ba7f163c4a11628f55a4df523b3ef8360405161018691906106b3565b60405180910390a3506106cc565b5f81519050919050565b7f4e487b71000000000000000000000000000000000000000000000000000000005f52604160045260245ffd5b7f4e487b71000000000000000000000000000000000000000000000000000000005f52602260045260245ffd5b5f600282049050600182168061020f57607f821691505b602082108103610222576102216101cb565b5b50919050565b5f819050815f5260205f209050919050565b5f6020601f8301049050919050565b5f82821b905092915050565b5f600883026102847fffffffffffffffffffffffffffffffffffffffffffffffffffffffffffffffff82610249565b61028e8683610249565b95508019841693508086168417925050509392505050565b5f819050919050565b5f819050919050565b5f6102d26102cd6102c8846102a6565b6102af565b6102a6565b9050919050565b5f819050919050565b6102eb836102b8565b6102ff6102f7826102d9565b848454610255565b825550505050565b5f5f905090565b610316610307565b6103218184846102e2565b505050565b5f5b828110156103475761033c5f82840161030e565b600181019050610328565b505050565b601f82111561039a57828211156103995761036681610228565b61036f8361023a565b6103788561023a565b6020861015610385575f90505b80830161039482840382610326565b505050505b5b505050565b5f82821c905092915050565b5f6103ba5f198460080261039f565b1980831691505092915050565b5f6103d283836103ab565b9150826002028217905092915050565b6103eb82610194565b67ffffffffffffffff8111156104045761040361019e565b5b61040e82546101f8565b61041982828561034c565b5f60209050601f83116001811461044a575f8415610438578287015190505b61044285826103c7565b8655506104a9565b601f19841661045886610228565b5f5b8281101561047f5784890151825560018201915060208501945060208101905061045a565b8683101561049c5784890151610498601f8916826103ab565b8355505b6001600288020188555050505b505050505050565b7f4e487b71000000000000000000000000000000000000000000000000000000005f52601160045260245ffd5b5f8160011c9050919050565b5f5f8291508390505b60018511156105335780860481111561050f5761050e6104b1565b5b600185161561051e5780820291505b808102905061052c856104de565b94506104f3565b94509492505050565b5f8261054b5760019050610606565b81610558575f9050610606565b816001811461056e5760028114610578576105a7565b6001915050610606565b60ff84111561058a576105896104b1565b5b8360020a9150848211156105a1576105a06104b1565b5b50610606565b5060208310610133831016604e8410600b84101617156105dc5782820a9050838111156105d7576105d66104b1565b5b610606565b6105e984848460016104ea565b92509050818404811115610600576105ff6104b1565b5b81810290505b9392505050565b5f60ff82169050919050565b5f610623826102a6565b915061062e8361060d565b925061065b7fffffffffffffffffffffffffffffffffffffffffffffffffffffffffffffffff848461053c565b905092915050565b5f61066d826102a6565b9150610678836102a6565b9250828202610686816102a6565b9150828204841483151761069d5761069c6104b1565b5b5092915050565b6106ad816102a6565b82525050565b5f6020820190506106c65f8301846106a4565b92915050565b6112de806106d95f395ff3fe608060405234801561000f575f5ffd5b506004361061009c575f3560e01c806370a082311161006457806370a082311461015a57806395d89b411461018a578063a9059cbb146101a8578063dd62ed3e146101d8578063de5f72fd146102085761009c565b806306fdde03146100a0578063095ea7b3146100be57806318160ddd146100ee57806323b872dd1461010c578063313ce5671461013c575b5f5ffd5b6100a8610212565b6040516100b59190610c27565b60405180910390f35b6100d860048036038101906100d39190610cd8565b61029d565b6040516100e59190610d30565b60405180910390f35b6100f66103f8565b6040516101039190610d58565b60405180910390f35b61012660048036038101906101219190610d71565b610401565b6040516101339190610d30565b60405180910390f35b61014461074f565b6040516101519190610ddc565b60405180910390f35b610174600480360381019061016f9190610df5565b610761565b6040516101819190610d58565b60405180910390f35b6101926107a7565b60405161019f9190610c27565b60405180910390f35b6101c260048036038101906101bd9190610cd8565b610833565b6040516101cf9190610d30565b60405180910390f35b6101f260048036038101906101ed9190610e20565b610a37565b6040516101ff9190610d58565b60405180910390f35b610210610ab9565b005b5f805461021e90610e8b565b80601f016020809104026020016040519081016040528092919081815260200182805461024a90610e8b565b80156102955780601f1061026c57610100808354040283529160200191610295565b820191905f5260205f20905b81548152906001019060200180831161027857829003601f168201915b505050505081565b5f5f73ffffffffffffffffffffffffffffffffffffffff168373ffffffffffffffffffffffffffffffffffffffff160361030c576040517f08c379a000000000000000000000000000000000000000000000000000000000815260040161030390610f05565b60405180910390fd5b8160055f3373ffffffffffffffffffffffffffffffffffffffff1673ffffffffffffffffffffffffffffffffffffffff1681526020019081526020015f205f8573ffffffffffffffffffffffffffffffffffffffff1673ffffffffffffffffffffffffffffffffffffffff1681526020019081526020015f20819055508273ffffffffffffffffffffffffffffffffffffffff163373ffffffffffffffffffffffffffffffffffffffff167f8c5be1e5ebec7d5bd14f71427d1e84f3dd0314c0f7b2291e5b200ac8c7c3b925846040516103e69190610d58565b60405180910390a36001905092915050565b5f600354905090565b5f5f73ffffffffffffffffffffffffffffffffffffffff168373ffffffffffffffffffffffffffffffffffffffff1603610470576040517f08c379a000000000000000000000000000000000000000000000000000000000815260040161046790610f6d565b60405180910390fd5b8160045f8673ffffffffffffffffffffffffffffffffffffffff1673ffffffffffffffffffffffffffffffffffffffff1681526020019081526020015f205410156104f0576040517f08c379a00000000000000000000000000000000000000000000000000000000081526004016104e790610fd5565b60405180910390fd5b8160055f8673ffffffffffffffffffffffffffffffffffffffff1673ffffffffffffffffffffffffffffffffffffffff1681526020019081526020015f205f3373ffffffffffffffffffffffffffffffffffffffff1673ffffffffffffffffffffffffffffffffffffffff1681526020019081526020015f205410156105ab576040517f08c379a00000000000000000000000000000000000000000000000000000000081526004016105a29061103d565b60405180910390fd5b8160055f8673ffffffffffffffffffffffffffffffffffffffff1673ffffffffffffffffffffffffffffffffffffffff1681526020019081526020015f205f3373ffffffffffffffffffffffffffffffffffffffff1673ffffffffffffffffffffffffffffffffffffffff1681526020019081526020015f205f8282546106329190611088565b925050819055508160045f8673ffffffffffffffffffffffffffffffffffffffff1673ffffffffffffffffffffffffffffffffffffffff1681526020019081526020015f205f8282546106859190611088565b925050819055508160045f8573ffffffffffffffffffffffffffffffffffffffff1673ffffffffffffffffffffffffffffffffffffffff1681526020019081526020015f205f8282546106d891906110bb565b925050819055508273ffffffffffffffffffffffffffffffffffffffff168473ffffffffffffffffffffffffffffffffffffffff167fddf252ad1be2c89b69c2b068fc378daa952ba7f163c4a11628f55a4df523b3ef8460405161073c9190610d58565b60405180910390a3600190509392505050565b60025f9054906101000a900460ff1681565b5f60045f8373ffffffffffffffffffffffffffffffffffffffff1673ffffffffffffffffffffffffffffffffffffffff1681526020019081526020015f20549050919050565b600180546107b490610e8b565b80601f01602080910402602001604051908101604052809291908181526020018280546107e090610e8b565b801561082b5780601f106108025761010080835404028352916020019161082b565b820191905f5260205f20905b81548152906001019060200180831161080e57829003601f168201915b505050505081565b5f5f73ffffffffffffffffffffffffffffffffffffffff168373ffffffffffffffffffffffffffffffffffffffff16036108a2576040517f08c379a000000000000000000000000000000000000000000000000000000000815260040161089990610f6d565b60405180910390fd5b8160045f3373ffffffffffffffffffffffffffffffffffffffff1673ffffffffffffffffffffffffffffffffffffffff1681526020019081526020015f20541015610922576040517f08c379a000000000000000000000000000000000000000000000000000000000815260040161091990610fd5565b60405180910390fd5b8160045f3373ffffffffffffffffffffffffffffffffffffffff1673ffffffffffffffffffffffffffffffffffffffff1681526020019081526020015f205f82825461096e9190611088565b925050819055508160045f8573ffffffffffffffffffffffffffffffffffffffff1673ffffffffffffffffffffffffffffffffffffffff1681526020019081526020015f205f8282546109c191906110bb565b925050819055508273ffffffffffffffffffffffffffffffffffffffff163373ffffffffffffffffffffffffffffffffffffffff167fddf252ad1be2c89b69c2b068fc378daa952ba7f163c4a11628f55a4df523b3ef84604051610a259190610d58565b60405180910390a36001905092915050565b5f60055f8473ffffffffffffffffffffffffffffffffffffffff1673ffffffffffffffffffffffffffffffffffffffff1681526020019081526020015f205f8373ffffffffffffffffffffffffffffffffffffffff1673ffffffffffffffffffffffffffffffffffffffff1681526020019081526020015f2054905092915050565b5f60025f9054906101000a900460ff16600a610ad5919061121d565b6103e8610ae29190611267565b90508060035f828254610af591906110bb565b925050819055508060045f3373ffffffffffffffffffffffffffffffffffffffff1673ffffffffffffffffffffffffffffffffffffffff1681526020019081526020015f205f828254610b4891906110bb565b925050819055503373ffffffffffffffffffffffffffffffffffffffff165f73ffffffffffffffffffffffffffffffffffffffff167fddf252ad1be2c89b69c2b068fc378daa952ba7f163c4a11628f55a4df523b3ef83604051610bac9190610d58565b60405180910390a350565b5f81519050919050565b5f82825260208201905092915050565b8281835e5f83830152505050565b5f601f19601f8301169050919050565b5f610bf982610bb7565b610c038185610bc1565b9350610c13818560208601610bd1565b610c1c81610bdf565b840191505092915050565b5f6020820190508181035f830152610c3f8184610bef565b905092915050565b5f5ffd5b5f73ffffffffffffffffffffffffffffffffffffffff82169050919050565b5f610c7482610c4b565b9050919050565b610c8481610c6a565b8114610c8e575f5ffd5b50565b5f81359050610c9f81610c7b565b92915050565b5f819050919050565b610cb781610ca5565b8114610cc1575f5ffd5b50565b5f81359050610cd281610cae565b92915050565b5f5f60408385031215610cee57610ced610c47565b5b5f610cfb85828601610c91565b9250506020610d0c85828601610cc4565b9150509250929050565b5f8115159050919050565b610d2a81610d16565b82525050565b5f602082019050610d435f830184610d21565b92915050565b610d5281610ca5565b82525050565b5f602082019050610d6b5f830184610d49565b92915050565b5f5f5f60608486031215610d8857610d87610c47565b5b5f610d9586828701610c91565b9350506020610da686828701610c91565b9250506040610db786828701610cc4565b9150509250925092565b5f60ff82169050919050565b610dd681610dc1565b82525050565b5f602082019050610def5f830184610dcd565b92915050565b5f60208284031215610e0a57610e09610c47565b5b5f610e1784828501610c91565b91505092915050565b5f5f60408385031215610e3657610e35610c47565b5b5f610e4385828601610c91565b9250506020610e5485828601610c91565b9150509250929050565b7f4e487b71000000000000000000000000000000000000000000000000000000005f52602260045260245ffd5b5f6002820490506001821680610ea257607f821691505b602082108103610eb557610eb4610e5e565b5b50919050565b7f45524332303a20617070726f766520746f207a65726f206164647265737300005f82015250565b5f610eef601e83610bc1565b9150610efa82610ebb565b602082019050919050565b5f6020820190508181035f830152610f1c81610ee3565b9050919050565b7f45524332303a207472616e7366657220746f207a65726f2061646472657373005f82015250565b5f610f57601f83610bc1565b9150610f6282610f23565b602082019050919050565b5f6020820190508181035f830152610f8481610f4b565b9050919050565b7f45524332303a20696e73756666696369656e742062616c616e636500000000005f82015250565b5f610fbf601b83610bc1565b9150610fca82610f8b565b602082019050919050565b5f6020820190508181035f830152610fec81610fb3565b9050919050565b7f45524332303a20696e73756666696369656e7420616c6c6f77616e63650000005f82015250565b5f611027601d83610bc1565b915061103282610ff3565b602082019050919050565b5f6020820190508181035f8301526110548161101b565b9050919050565b7f4e487b71000000000000000000000000000000000000000000000000000000005f52601160045260245ffd5b5f61109282610ca5565b915061109d83610ca5565b92508282039050818111156110b5576110b461105b565b5b92915050565b5f6110c582610ca5565b91506110d083610ca5565b92508282019050808211156110e8576110e761105b565b5b92915050565b5f8160011c9050919050565b5f5f8291508390505b60018511156111435780860481111561111f5761111e61105b565b5b600185161561112e5780820291505b808102905061113c856110ee565b9450611103565b94509492505050565b5f8261115b5760019050611216565b81611168575f9050611216565b816001811461117e5760028114611188576111b7565b6001915050611216565b60ff84111561119a5761119961105b565b5b8360020a9150848211156111b1576111b061105b565b5b50611216565b5060208310610133831016604e8410600b84101617156111ec5782820a9050838111156111e7576111e661105b565b5b611216565b6111f984848460016110fa565b925090508184048111156112105761120f61105b565b5b81810290505b9392505050565b5f61122782610ca5565b915061123283610dc1565b925061125f7fffffffffffffffffffffffffffffffffffffffffffffffffffffffffffffffff848461114c565b905092915050565b5f61127182610ca5565b915061127c83610ca5565b925082820261128a81610ca5565b915082820484148315176112a1576112a061105b565b5b509291505056fea26469706673582212202aabe6efc734699c254f12fc4b49154b6353cc43f767d8525849a70939666cfa64736f6c63430008220033",
					"opcodes": "PUSH1 0x80 PUSH1 0x40 MSTORE PUSH1 0x40 MLOAD DUP1 PUSH1 0x40 ADD PUSH1 0x40 MSTORE DUP1 PUSH1 0xD DUP2 MSTORE PUSH1 0x20 ADD PUSH32 0x4B6F6F6B6D696E20546F6B656E00000000000000000000000000000000000000 DUP2 MSTORE POP PUSH0 SWAP1 DUP2 PUSH2 0x47 SWAP2 SWAP1 PUSH2 0x3E2 JUMP JUMPDEST POP PUSH1 0x40 MLOAD DUP1 PUSH1 0x40 ADD PUSH1 0x40 MSTORE DUP1 PUSH1 0x3 DUP2 MSTORE PUSH1 0x20 ADD PUSH32 0x4B4D550000000000000000000000000000000000000000000000000000000000 DUP2 MSTORE POP PUSH1 0x1 SWAP1 DUP2 PUSH2 0x8C SWAP2 SWAP1 PUSH2 0x3E2 JUMP JUMPDEST POP PUSH1 0x12 PUSH1 0x2 PUSH0 PUSH2 0x100 EXP DUP2 SLOAD DUP2 PUSH1 0xFF MUL NOT AND SWAP1 DUP4 PUSH1 0xFF AND MUL OR SWAP1 SSTORE POP CALLVALUE DUP1 ISZERO PUSH2 0xB3 JUMPI PUSH0 PUSH0 REVERT JUMPDEST POP PUSH0 PUSH1 0x2 PUSH0 SWAP1 SLOAD SWAP1 PUSH2 0x100 EXP SWAP1 DIV PUSH1 0xFF AND PUSH1 0xA PUSH2 0xD0 SWAP2 SWAP1 PUSH2 0x619 JUMP JUMPDEST PUSH3 0xF4240 PUSH2 0xDE SWAP2 SWAP1 PUSH2 0x663 JUMP JUMPDEST SWAP1 POP DUP1 PUSH1 0x3 DUP2 SWAP1 SSTORE POP DUP1 PUSH1 0x4 PUSH0 CALLER PUSH20 0xFFFFFFFFFFFFFFFFFFFFFFFFFFFFFFFFFFFFFFFF AND PUSH20 0xFFFFFFFFFFFFFFFFFFFFFFFFFFFFFFFFFFFFFFFF AND DUP2 MSTORE PUSH1 0x20 ADD SWAP1 DUP2 MSTORE PUSH1 0x20 ADD PUSH0 KECCAK256 DUP2 SWAP1 SSTORE POP CALLER PUSH20 0xFFFFFFFFFFFFFFFFFFFFFFFFFFFFFFFFFFFFFFFF AND PUSH0 PUSH20 0xFFFFFFFFFFFFFFFFFFFFFFFFFFFFFFFFFFFFFFFF AND PUSH32 0xDDF252AD1BE2C89B69C2B068FC378DAA952BA7F163C4A11628F55A4DF523B3EF DUP4 PUSH1 0x40 MLOAD PUSH2 0x186 SWAP2 SWAP1 PUSH2 0x6B3 JUMP JUMPDEST PUSH1 0x40 MLOAD DUP1 SWAP2 SUB SWAP1 LOG3 POP PUSH2 0x6CC JUMP JUMPDEST PUSH0 DUP2 MLOAD SWAP1 POP SWAP2 SWAP1 POP JUMP JUMPDEST PUSH32 0x4E487B7100000000000000000000000000000000000000000000000000000000 PUSH0 MSTORE PUSH1 0x41 PUSH1 0x4 MSTORE PUSH1 0x24 PUSH0 REVERT JUMPDEST PUSH32 0x4E487B7100000000000000000000000000000000000000000000000000000000 PUSH0 MSTORE PUSH1 0x22 PUSH1 0x4 MSTORE PUSH1 0x24 PUSH0 REVERT JUMPDEST PUSH0 PUSH1 0x2 DUP3 DIV SWAP1 POP PUSH1 0x1 DUP3 AND DUP1 PUSH2 0x20F JUMPI PUSH1 0x7F DUP3 AND SWAP2 POP JUMPDEST PUSH1 0x20 DUP3 LT DUP2 SUB PUSH2 0x222 JUMPI PUSH2 0x221 PUSH2 0x1CB JUMP JUMPDEST JUMPDEST POP SWAP2 SWAP1 POP JUMP JUMPDEST PUSH0 DUP2 SWAP1 POP DUP2 PUSH0 MSTORE PUSH1 0x20 PUSH0 KECCAK256 SWAP1 POP SWAP2 SWAP1 POP JUMP JUMPDEST PUSH0 PUSH1 0x20 PUSH1 0x1F DUP4 ADD DIV SWAP1 POP SWAP2 SWAP1 POP JUMP JUMPDEST PUSH0 DUP3 DUP3 SHL SWAP1 POP SWAP3 SWAP2 POP POP JUMP JUMPDEST PUSH0 PUSH1 0x8 DUP4 MUL PUSH2 0x284 PUSH32 0xFFFFFFFFFFFFFFFFFFFFFFFFFFFFFFFFFFFFFFFFFFFFFFFFFFFFFFFFFFFFFFFF DUP3 PUSH2 0x249 JUMP JUMPDEST PUSH2 0x28E DUP7 DUP4 PUSH2 0x249 JUMP JUMPDEST SWAP6 POP DUP1 NOT DUP5 AND SWAP4 POP DUP1 DUP7 AND DUP5 OR SWAP3 POP POP POP SWAP4 SWAP3 POP POP POP JUMP JUMPDEST PUSH0 DUP2 SWAP1 POP SWAP2 SWAP1 POP JUMP JUMPDEST PUSH0 DUP2 SWAP1 POP SWAP2 SWAP1 POP JUMP JUMPDEST PUSH0 PUSH2 0x2D2 PUSH2 0x2CD PUSH2 0x2C8 DUP5 PUSH2 0x2A6 JUMP JUMPDEST PUSH2 0x2AF JUMP JUMPDEST PUSH2 0x2A6 JUMP JUMPDEST SWAP1 POP SWAP2 SWAP1 POP JUMP JUMPDEST PUSH0 DUP2 SWAP1 POP SWAP2 SWAP1 POP JUMP JUMPDEST PUSH2 0x2EB DUP4 PUSH2 0x2B8 JUMP JUMPDEST PUSH2 0x2FF PUSH2 0x2F7 DUP3 PUSH2 0x2D9 JUMP JUMPDEST DUP5 DUP5 SLOAD PUSH2 0x255 JUMP JUMPDEST DUP3 SSTORE POP POP POP POP JUMP JUMPDEST PUSH0 PUSH0 SWAP1 POP SWAP1 JUMP JUMPDEST PUSH2 0x316 PUSH2 0x307 JUMP JUMPDEST PUSH2 0x321 DUP2 DUP5 DUP5 PUSH2 0x2E2 JUMP JUMPDEST POP POP POP JUMP JUMPDEST PUSH0 JUMPDEST DUP3 DUP2 LT ISZERO PUSH2 0x347 JUMPI PUSH2 0x33C PUSH0 DUP3 DUP5 ADD PUSH2 0x30E JUMP JUMPDEST PUSH1 0x1 DUP2 ADD SWAP1 POP PUSH2 0x328 JUMP JUMPDEST POP POP POP JUMP JUMPDEST PUSH1 0x1F DUP3 GT ISZERO PUSH2 0x39A JUMPI DUP3 DUP3 GT ISZERO PUSH2 0x399 JUMPI PUSH2 0x366 DUP2 PUSH2 0x228 JUMP JUMPDEST PUSH2 0x36F DUP4 PUSH2 0x23A JUMP JUMPDEST PUSH2 0x378 DUP6 PUSH2 0x23A JUMP JUMPDEST PUSH1 0x20 DUP7 LT ISZERO PUSH2 0x385 JUMPI PUSH0 SWAP1 POP JUMPDEST DUP1 DUP4 ADD PUSH2 0x394 DUP3 DUP5 SUB DUP3 PUSH2 0x326 JUMP JUMPDEST POP POP POP POP JUMPDEST JUMPDEST POP POP POP JUMP JUMPDEST PUSH0 DUP3 DUP3 SHR SWAP1 POP SWAP3 SWAP2 POP POP JUMP JUMPDEST PUSH0 PUSH2 0x3BA PUSH0 NOT DUP5 PUSH1 0x8 MUL PUSH2 0x39F JUMP JUMPDEST NOT DUP1 DUP4 AND SWAP2 POP POP SWAP3 SWAP2 POP POP JUMP JUMPDEST PUSH0 PUSH2 0x3D2 DUP4 DUP4 PUSH2 0x3AB JUMP JUMPDEST SWAP2 POP DUP3 PUSH1 0x2 MUL DUP3 OR SWAP1 POP SWAP3 SWAP2 POP POP JUMP JUMPDEST PUSH2 0x3EB DUP3 PUSH2 0x194 JUMP JUMPDEST PUSH8 0xFFFFFFFFFFFFFFFF DUP2 GT ISZERO PUSH2 0x404 JUMPI PUSH2 0x403 PUSH2 0x19E JUMP JUMPDEST JUMPDEST PUSH2 0x40E DUP3 SLOAD PUSH2 0x1F8 JUMP JUMPDEST PUSH2 0x419 DUP3 DUP3 DUP6 PUSH2 0x34C JUMP JUMPDEST PUSH0 PUSH1 0x20 SWAP1 POP PUSH1 0x1F DUP4 GT PUSH1 0x1 DUP2 EQ PUSH2 0x44A JUMPI PUSH0 DUP5 ISZERO PUSH2 0x438 JUMPI DUP3 DUP8 ADD MLOAD SWAP1 POP JUMPDEST PUSH2 0x442 DUP6 DUP3 PUSH2 0x3C7 JUMP JUMPDEST DUP7 SSTORE POP PUSH2 0x4A9 JUMP JUMPDEST PUSH1 0x1F NOT DUP5 AND PUSH2 0x458 DUP7 PUSH2 0x228 JUMP JUMPDEST PUSH0 JUMPDEST DUP3 DUP2 LT ISZERO PUSH2 0x47F JUMPI DUP5 DUP10 ADD MLOAD DUP3 SSTORE PUSH1 0x1 DUP3 ADD SWAP2 POP PUSH1 0x20 DUP6 ADD SWAP5 POP PUSH1 0x20 DUP2 ADD SWAP1 POP PUSH2 0x45A JUMP JUMPDEST DUP7 DUP4 LT ISZERO PUSH2 0x49C JUMPI DUP5 DUP10 ADD MLOAD PUSH2 0x498 PUSH1 0x1F DUP10 AND DUP3 PUSH2 0x3AB JUMP JUMPDEST DUP4 SSTORE POP JUMPDEST PUSH1 0x1 PUSH1 0x2 DUP9 MUL ADD DUP9 SSTORE POP POP POP JUMPDEST POP POP POP POP POP POP JUMP JUMPDEST PUSH32 0x4E487B7100000000000000000000000000000000000000000000000000000000 PUSH0 MSTORE PUSH1 0x11 PUSH1 0x4 MSTORE PUSH1 0x24 PUSH0 REVERT JUMPDEST PUSH0 DUP2 PUSH1 0x1 SHR SWAP1 POP SWAP2 SWAP1 POP JUMP JUMPDEST PUSH0 PUSH0 DUP3 SWAP2 POP DUP4 SWAP1 POP JUMPDEST PUSH1 0x1 DUP6 GT ISZERO PUSH2 0x533 JUMPI DUP1 DUP7 DIV DUP2 GT ISZERO PUSH2 0x50F JUMPI PUSH2 0x50E PUSH2 0x4B1 JUMP JUMPDEST JUMPDEST PUSH1 0x1 DUP6 AND ISZERO PUSH2 0x51E JUMPI DUP1 DUP3 MUL SWAP2 POP JUMPDEST DUP1 DUP2 MUL SWAP1 POP PUSH2 0x52C DUP6 PUSH2 0x4DE JUMP JUMPDEST SWAP5 POP PUSH2 0x4F3 JUMP JUMPDEST SWAP5 POP SWAP5 SWAP3 POP POP POP JUMP JUMPDEST PUSH0 DUP3 PUSH2 0x54B JUMPI PUSH1 0x1 SWAP1 POP PUSH2 0x606 JUMP JUMPDEST DUP2 PUSH2 0x558 JUMPI PUSH0 SWAP1 POP PUSH2 0x606 JUMP JUMPDEST DUP2 PUSH1 0x1 DUP2 EQ PUSH2 0x56E JUMPI PUSH1 0x2 DUP2 EQ PUSH2 0x578 JUMPI PUSH2 0x5A7 JUMP JUMPDEST PUSH1 0x1 SWAP2 POP POP PUSH2 0x606 JUMP JUMPDEST PUSH1 0xFF DUP5 GT ISZERO PUSH2 0x58A JUMPI PUSH2 0x589 PUSH2 0x4B1 JUMP JUMPDEST JUMPDEST DUP4 PUSH1 0x2 EXP SWAP2 POP DUP5 DUP3 GT ISZERO PUSH2 0x5A1 JUMPI PUSH2 0x5A0 PUSH2 0x4B1 JUMP JUMPDEST JUMPDEST POP PUSH2 0x606 JUMP JUMPDEST POP PUSH1 0x20 DUP4 LT PUSH2 0x133 DUP4 LT AND PUSH1 0x4E DUP5 LT PUSH1 0xB DUP5 LT AND OR ISZERO PUSH2 0x5DC JUMPI DUP3 DUP3 EXP SWAP1 POP DUP4 DUP2 GT ISZERO PUSH2 0x5D7 JUMPI PUSH2 0x5D6 PUSH2 0x4B1 JUMP JUMPDEST JUMPDEST PUSH2 0x606 JUMP JUMPDEST PUSH2 0x5E9 DUP5 DUP5 DUP5 PUSH1 0x1 PUSH2 0x4EA JUMP JUMPDEST SWAP3 POP SWAP1 POP DUP2 DUP5 DIV DUP2 GT ISZERO PUSH2 0x600 JUMPI PUSH2 0x5FF PUSH2 0x4B1 JUMP JUMPDEST JUMPDEST DUP2 DUP2 MUL SWAP1 POP JUMPDEST SWAP4 SWAP3 POP POP POP JUMP JUMPDEST PUSH0 PUSH1 0xFF DUP3 AND SWAP1 POP SWAP2 SWAP1 POP JUMP JUMPDEST PUSH0 PUSH2 0x623 DUP3 PUSH2 0x2A6 JUMP JUMPDEST SWAP2 POP PUSH2 0x62E DUP4 PUSH2 0x60D JUMP JUMPDEST SWAP3 POP PUSH2 0x65B PUSH32 0xFFFFFFFFFFFFFFFFFFFFFFFFFFFFFFFFFFFFFFFFFFFFFFFFFFFFFFFFFFFFFFFF DUP5 DUP5 PUSH2 0x53C JUMP JUMPDEST SWAP1 POP SWAP3 SWAP2 POP POP JUMP JUMPDEST PUSH0 PUSH2 0x66D DUP3 PUSH2 0x2A6 JUMP JUMPDEST SWAP2 POP PUSH2 0x678 DUP4 PUSH2 0x2A6 JUMP JUMPDEST SWAP3 POP DUP3 DUP3 MUL PUSH2 0x686 DUP2 PUSH2 0x2A6 JUMP JUMPDEST SWAP2 POP DUP3 DUP3 DIV DUP5 EQ DUP4 ISZERO OR PUSH2 0x69D JUMPI PUSH2 0x69C PUSH2 0x4B1 JUMP JUMPDEST JUMPDEST POP SWAP3 SWAP2 POP POP JUMP JUMPDEST PUSH2 0x6AD DUP2 PUSH2 0x2A6 JUMP JUMPDEST DUP3 MSTORE POP POP JUMP JUMPDEST PUSH0 PUSH1 0x20 DUP3 ADD SWAP1 POP PUSH2 0x6C6 PUSH0 DUP4 ADD DUP5 PUSH2 0x6A4 JUMP JUMPDEST SWAP3 SWAP2 POP POP JUMP JUMPDEST PUSH2 0x12DE DUP1 PUSH2 0x6D9 PUSH0 CODECOPY PUSH0 RETURN INVALID PUSH1 0x80 PUSH1 0x40 MSTORE CALLVALUE DUP1 ISZERO PUSH2 0xF JUMPI PUSH0 PUSH0 REVERT JUMPDEST POP PUSH1 0x4 CALLDATASIZE LT PUSH2 0x9C JUMPI PUSH0 CALLDATALOAD PUSH1 0xE0 SHR DUP1 PUSH4 0x70A08231 GT PUSH2 0x64 JUMPI DUP1 PUSH4 0x70A08231 EQ PUSH2 0x15A JUMPI DUP1 PUSH4 0x95D89B41 EQ PUSH2 0x18A JUMPI DUP1 PUSH4 0xA9059CBB EQ PUSH2 0x1A8 JUMPI DUP1 PUSH4 0xDD62ED3E EQ PUSH2 0x1D8 JUMPI DUP1 PUSH4 0xDE5F72FD EQ PUSH2 0x208 JUMPI PUSH2 0x9C JUMP JUMPDEST DUP1 PUSH4 0x6FDDE03 EQ PUSH2 0xA0 JUMPI DUP1 PUSH4 0x95EA7B3 EQ PUSH2 0xBE JUMPI DUP1 PUSH4 0x18160DDD EQ PUSH2 0xEE JUMPI DUP1 PUSH4 0x23B872DD EQ PUSH2 0x10C JUMPI DUP1 PUSH4 0x313CE567 EQ PUSH2 0x13C JUMPI JUMPDEST PUSH0 PUSH0 REVERT JUMPDEST PUSH2 0xA8 PUSH2 0x212 JUMP JUMPDEST PUSH1 0x40 MLOAD PUSH2 0xB5 SWAP2 SWAP1 PUSH2 0xC27 JUMP JUMPDEST PUSH1 0x40 MLOAD DUP1 SWAP2 SUB SWAP1 RETURN JUMPDEST PUSH2 0xD8 PUSH1 0x4 DUP1 CALLDATASIZE SUB DUP2 ADD SWAP1 PUSH2 0xD3 SWAP2 SWAP1 PUSH2 0xCD8 JUMP JUMPDEST PUSH2 0x29D JUMP JUMPDEST PUSH1 0x40 MLOAD PUSH2 0xE5 SWAP2 SWAP1 PUSH2 0xD30 JUMP JUMPDEST PUSH1 0x40 MLOAD DUP1 SWAP2 SUB SWAP1 RETURN JUMPDEST PUSH2 0xF6 PUSH2 0x3F8 JUMP JUMPDEST PUSH1 0x40 MLOAD PUSH2 0x103 SWAP2 SWAP1 PUSH2 0xD58 JUMP JUMPDEST PUSH1 0x40 MLOAD DUP1 SWAP2 SUB SWAP1 RETURN JUMPDEST PUSH2 0x126 PUSH1 0x4 DUP1 CALLDATASIZE SUB DUP2 ADD SWAP1 PUSH2 0x121 SWAP2 SWAP1 PUSH2 0xD71 JUMP JUMPDEST PUSH2 0x401 JUMP JUMPDEST PUSH1 0x40 MLOAD PUSH2 0x133 SWAP2 SWAP1 PUSH2 0xD30 JUMP JUMPDEST PUSH1 0x40 MLOAD DUP1 SWAP2 SUB SWAP1 RETURN JUMPDEST PUSH2 0x144 PUSH2 0x74F JUMP JUMPDEST PUSH1 0x40 MLOAD PUSH2 0x151 SWAP2 SWAP1 PUSH2 0xDDC JUMP JUMPDEST PUSH1 0x40 MLOAD DUP1 SWAP2 SUB SWAP1 RETURN JUMPDEST PUSH2 0x174 PUSH1 0x4 DUP1 CALLDATASIZE SUB DUP2 ADD SWAP1 PUSH2 0x16F SWAP2 SWAP1 PUSH2 0xDF5 JUMP JUMPDEST PUSH2 0x761 JUMP JUMPDEST PUSH1 0x40 MLOAD PUSH2 0x181 SWAP2 SWAP1 PUSH2 0xD58 JUMP JUMPDEST PUSH1 0x40 MLOAD DUP1 SWAP2 SUB SWAP1 RETURN JUMPDEST PUSH2 0x192 PUSH2 0x7A7 JUMP JUMPDEST PUSH1 0x40 MLOAD PUSH2 0x19F SWAP2 SWAP1 PUSH2 0xC27 JUMP JUMPDEST PUSH1 0x40 MLOAD DUP1 SWAP2 SUB SWAP1 RETURN JUMPDEST PUSH2 0x1C2 PUSH1 0x4 DUP1 CALLDATASIZE SUB DUP2 ADD SWAP1 PUSH2 0x1BD SWAP2 SWAP1 PUSH2 0xCD8 JUMP JUMPDEST PUSH2 0x833 JUMP JUMPDEST PUSH1 0x40 MLOAD PUSH2 0x1CF SWAP2 SWAP1 PUSH2 0xD30 JUMP JUMPDEST PUSH1 0x40 MLOAD DUP1 SWAP2 SUB SWAP1 RETURN JUMPDEST PUSH2 0x1F2 PUSH1 0x4 DUP1 CALLDATASIZE SUB DUP2 ADD SWAP1 PUSH2 0x1ED SWAP2 SWAP1 PUSH2 0xE20 JUMP JUMPDEST PUSH2 0xA37 JUMP JUMPDEST PUSH1 0x40 MLOAD PUSH2 0x1FF SWAP2 SWAP1 PUSH2 0xD58 JUMP JUMPDEST PUSH1 0x40 MLOAD DUP1 SWAP2 SUB SWAP1 RETURN JUMPDEST PUSH2 0x210 PUSH2 0xAB9 JUMP JUMPDEST STOP JUMPDEST PUSH0 DUP1 SLOAD PUSH2 0x21E SWAP1 PUSH2 0xE8B JUMP JUMPDEST DUP1 PUSH1 0x1F ADD PUSH1 0x20 DUP1 SWAP2 DIV MUL PUSH1 0x20 ADD PUSH1 0x40 MLOAD SWAP1 DUP2 ADD PUSH1 0x40 MSTORE DUP1 SWAP3 SWAP2 SWAP1 DUP2 DUP2 MSTORE PUSH1 0x20 ADD DUP3 DUP1 SLOAD PUSH2 0x24A SWAP1 PUSH2 0xE8B JUMP JUMPDEST DUP1 ISZERO PUSH2 0x295 JUMPI DUP1 PUSH1 0x1F LT PUSH2 0x26C JUMPI PUSH2 0x100 DUP1 DUP4 SLOAD DIV MUL DUP4 MSTORE SWAP2 PUSH1 0x20 ADD SWAP2 PUSH2 0x295 JUMP JUMPDEST DUP3 ADD SWAP2 SWAP1 PUSH0 MSTORE PUSH1 0x20 PUSH0 KECCAK256 SWAP1 JUMPDEST DUP2 SLOAD DUP2 MSTORE SWAP1 PUSH1 0x1 ADD SWAP1 PUSH1 0x20 ADD DUP1 DUP4 GT PUSH2 0x278 JUMPI DUP3 SWAP1 SUB PUSH1 0x1F AND DUP3 ADD SWAP2 JUMPDEST POP POP POP POP POP DUP2 JUMP JUMPDEST PUSH0 PUSH0 PUSH20 0xFFFFFFFFFFFFFFFFFFFFFFFFFFFFFFFFFFFFFFFF AND DUP4 PUSH20 0xFFFFFFFFFFFFFFFFFFFFFFFFFFFFFFFFFFFFFFFF AND SUB PUSH2 0x30C JUMPI PUSH1 0x40 MLOAD PUSH32 0x8C379A000000000000000000000000000000000000000000000000000000000 DUP2 MSTORE PUSH1 0x4 ADD PUSH2 0x303 SWAP1 PUSH2 0xF05 JUMP JUMPDEST PUSH1 0x40 MLOAD DUP1 SWAP2 SUB SWAP1 REVERT JUMPDEST DUP2 PUSH1 0x5 PUSH0 CALLER PUSH20 0xFFFFFFFFFFFFFFFFFFFFFFFFFFFFFFFFFFFFFFFF AND PUSH20 0xFFFFFFFFFFFFFFFFFFFFFFFFFFFFFFFFFFFFFFFF AND DUP2 MSTORE PUSH1 0x20 ADD SWAP1 DUP2 MSTORE PUSH1 0x20 ADD PUSH0 KECCAK256 PUSH0 DUP6 PUSH20 0xFFFFFFFFFFFFFFFFFFFFFFFFFFFFFFFFFFFFFFFF AND PUSH20 0xFFFFFFFFFFFFFFFFFFFFFFFFFFFFFFFFFFFFFFFF AND DUP2 MSTORE PUSH1 0x20 ADD SWAP1 DUP2 MSTORE PUSH1 0x20 ADD PUSH0 KECCAK256 DUP2 SWAP1 SSTORE POP DUP3 PUSH20 0xFFFFFFFFFFFFFFFFFFFFFFFFFFFFFFFFFFFFFFFF AND CALLER PUSH20 0xFFFFFFFFFFFFFFFFFFFFFFFFFFFFFFFFFFFFFFFF AND PUSH32 0x8C5BE1E5EBEC7D5BD14F71427D1E84F3DD0314C0F7B2291E5B200AC8C7C3B925 DUP5 PUSH1 0x40 MLOAD PUSH2 0x3E6 SWAP2 SWAP1 PUSH2 0xD58 JUMP JUMPDEST PUSH1 0x40 MLOAD DUP1 SWAP2 SUB SWAP1 LOG3 PUSH1 0x1 SWAP1 POP SWAP3 SWAP2 POP POP JUMP JUMPDEST PUSH0 PUSH1 0x3 SLOAD SWAP1 POP SWAP1 JUMP JUMPDEST PUSH0 PUSH0 PUSH20 0xFFFFFFFFFFFFFFFFFFFFFFFFFFFFFFFFFFFFFFFF AND DUP4 PUSH20 0xFFFFFFFFFFFFFFFFFFFFFFFFFFFFFFFFFFFFFFFF AND SUB PUSH2 0x470 JUMPI PUSH1 0x40 MLOAD PUSH32 0x8C379A000000000000000000000000000000000000000000000000000000000 DUP2 MSTORE PUSH1 0x4 ADD PUSH2 0x467 SWAP1 PUSH2 0xF6D JUMP JUMPDEST PUSH1 0x40 MLOAD DUP1 SWAP2 SUB SWAP1 REVERT JUMPDEST DUP2 PUSH1 0x4 PUSH0 DUP7 PUSH20 0xFFFFFFFFFFFFFFFFFFFFFFFFFFFFFFFFFFFFFFFF AND PUSH20 0xFFFFFFFFFFFFFFFFFFFFFFFFFFFFFFFFFFFFFFFF AND DUP2 MSTORE PUSH1 0x20 ADD SWAP1 DUP2 MSTORE PUSH1 0x20 ADD PUSH0 KECCAK256 SLOAD LT ISZERO PUSH2 0x4F0 JUMPI PUSH1 0x40 MLOAD PUSH32 0x8C379A000000000000000000000000000000000000000000000000000000000 DUP2 MSTORE PUSH1 0x4 ADD PUSH2 0x4E7 SWAP1 PUSH2 0xFD5 JUMP JUMPDEST PUSH1 0x40 MLOAD DUP1 SWAP2 SUB SWAP1 REVERT JUMPDEST DUP2 PUSH1 0x5 PUSH0 DUP7 PUSH20 0xFFFFFFFFFFFFFFFFFFFFFFFFFFFFFFFFFFFFFFFF AND PUSH20 0xFFFFFFFFFFFFFFFFFFFFFFFFFFFFFFFFFFFFFFFF AND DUP2 MSTORE PUSH1 0x20 ADD SWAP1 DUP2 MSTORE PUSH1 0x20 ADD PUSH0 KECCAK256 PUSH0 CALLER PUSH20 0xFFFFFFFFFFFFFFFFFFFFFFFFFFFFFFFFFFFFFFFF AND PUSH20 0xFFFFFFFFFFFFFFFFFFFFFFFFFFFFFFFFFFFFFFFF AND DUP2 MSTORE PUSH1 0x20 ADD SWAP1 DUP2 MSTORE PUSH1 0x20 ADD PUSH0 KECCAK256 SLOAD LT ISZERO PUSH2 0x5AB JUMPI PUSH1 0x40 MLOAD PUSH32 0x8C379A000000000000000000000000000000000000000000000000000000000 DUP2 MSTORE PUSH1 0x4 ADD PUSH2 0x5A2 SWAP1 PUSH2 0x103D JUMP JUMPDEST PUSH1 0x40 MLOAD DUP1 SWAP2 SUB SWAP1 REVERT JUMPDEST DUP2 PUSH1 0x5 PUSH0 DUP7 PUSH20 0xFFFFFFFFFFFFFFFFFFFFFFFFFFFFFFFFFFFFFFFF AND PUSH20 0xFFFFFFFFFFFFFFFFFFFFFFFFFFFFFFFFFFFFFFFF AND DUP2 MSTORE PUSH1 0x20 ADD SWAP1 DUP2 MSTORE PUSH1 0x20 ADD PUSH0 KECCAK256 PUSH0 CALLER PUSH20 0xFFFFFFFFFFFFFFFFFFFFFFFFFFFFFFFFFFFFFFFF AND PUSH20 0xFFFFFFFFFFFFFFFFFFFFFFFFFFFFFFFFFFFFFFFF AND DUP2 MSTORE PUSH1 0x20 ADD SWAP1 DUP2 MSTORE PUSH1 0x20 ADD PUSH0 KECCAK256 PUSH0 DUP3 DUP3 SLOAD PUSH2 0x632 SWAP2 SWAP1 PUSH2 0x1088 JUMP JUMPDEST SWAP3 POP POP DUP2 SWAP1 SSTORE POP DUP2 PUSH1 0x4 PUSH0 DUP7 PUSH20 0xFFFFFFFFFFFFFFFFFFFFFFFFFFFFFFFFFFFFFFFF AND PUSH20 0xFFFFFFFFFFFFFFFFFFFFFFFFFFFFFFFFFFFFFFFF AND DUP2 MSTORE PUSH1 0x20 ADD SWAP1 DUP2 MSTORE PUSH1 0x20 ADD PUSH0 KECCAK256 PUSH0 DUP3 DUP3 SLOAD PUSH2 0x685 SWAP2 SWAP1 PUSH2 0x1088 JUMP JUMPDEST SWAP3 POP POP DUP2 SWAP1 SSTORE POP DUP2 PUSH1 0x4 PUSH0 DUP6 PUSH20 0xFFFFFFFFFFFFFFFFFFFFFFFFFFFFFFFFFFFFFFFF AND PUSH20 0xFFFFFFFFFFFFFFFFFFFFFFFFFFFFFFFFFFFFFFFF AND DUP2 MSTORE PUSH1 0x20 ADD SWAP1 DUP2 MSTORE PUSH1 0x20 ADD PUSH0 KECCAK256 PUSH0 DUP3 DUP3 SLOAD PUSH2 0x6D8 SWAP2 SWAP1 PUSH2 0x10BB JUMP JUMPDEST SWAP3 POP POP DUP2 SWAP1 SSTORE POP DUP3 PUSH20 0xFFFFFFFFFFFFFFFFFFFFFFFFFFFFFFFFFFFFFFFF AND DUP5 PUSH20 0xFFFFFFFFFFFFFFFFFFFFFFFFFFFFFFFFFFFFFFFF AND PUSH32 0xDDF252AD1BE2C89B69C2B068FC378DAA952BA7F163C4A11628F55A4DF523B3EF DUP5 PUSH1 0x40 MLOAD PUSH2 0x73C SWAP2 SWAP1 PUSH2 0xD58 JUMP JUMPDEST PUSH1 0x40 MLOAD DUP1 SWAP2 SUB SWAP1 LOG3 PUSH1 0x1 SWAP1 POP SWAP4 SWAP3 POP POP POP JUMP JUMPDEST PUSH1 0x2 PUSH0 SWAP1 SLOAD SWAP1 PUSH2 0x100 EXP SWAP1 DIV PUSH1 0xFF AND DUP2 JUMP JUMPDEST PUSH0 PUSH1 0x4 PUSH0 DUP4 PUSH20 0xFFFFFFFFFFFFFFFFFFFFFFFFFFFFFFFFFFFFFFFF AND PUSH20 0xFFFFFFFFFFFFFFFFFFFFFFFFFFFFFFFFFFFFFFFF AND DUP2 MSTORE PUSH1 0x20 ADD SWAP1 DUP2 MSTORE PUSH1 0x20 ADD PUSH0 KECCAK256 SLOAD SWAP1 POP SWAP2 SWAP1 POP JUMP JUMPDEST PUSH1 0x1 DUP1 SLOAD PUSH2 0x7B4 SWAP1 PUSH2 0xE8B JUMP JUMPDEST DUP1 PUSH1 0x1F ADD PUSH1 0x20 DUP1 SWAP2 DIV MUL PUSH1 0x20 ADD PUSH1 0x40 MLOAD SWAP1 DUP2 ADD PUSH1 0x40 MSTORE DUP1 SWAP3 SWAP2 SWAP1 DUP2 DUP2 MSTORE PUSH1 0x20 ADD DUP3 DUP1 SLOAD PUSH2 0x7E0 SWAP1 PUSH2 0xE8B JUMP JUMPDEST DUP1 ISZERO PUSH2 0x82B JUMPI DUP1 PUSH1 0x1F LT PUSH2 0x802 JUMPI PUSH2 0x100 DUP1 DUP4 SLOAD DIV MUL DUP4 MSTORE SWAP2 PUSH1 0x20 ADD SWAP2 PUSH2 0x82B JUMP JUMPDEST DUP3 ADD SWAP2 SWAP1 PUSH0 MSTORE PUSH1 0x20 PUSH0 KECCAK256 SWAP1 JUMPDEST DUP2 SLOAD DUP2 MSTORE SWAP1 PUSH1 0x1 ADD SWAP1 PUSH1 0x20 ADD DUP1 DUP4 GT PUSH2 0x80E JUMPI DUP3 SWAP1 SUB PUSH1 0x1F AND DUP3 ADD SWAP2 JUMPDEST POP POP POP POP POP DUP2 JUMP JUMPDEST PUSH0 PUSH0 PUSH20 0xFFFFFFFFFFFFFFFFFFFFFFFFFFFFFFFFFFFFFFFF AND DUP4 PUSH20 0xFFFFFFFFFFFFFFFFFFFFFFFFFFFFFFFFFFFFFFFF AND SUB PUSH2 0x8A2 JUMPI PUSH1 0x40 MLOAD PUSH32 0x8C379A000000000000000000000000000000000000000000000000000000000 DUP2 MSTORE PUSH1 0x4 ADD PUSH2 0x899 SWAP1 PUSH2 0xF6D JUMP JUMPDEST PUSH1 0x40 MLOAD DUP1 SWAP2 SUB SWAP1 REVERT JUMPDEST DUP2 PUSH1 0x4 PUSH0 CALLER PUSH20 0xFFFFFFFFFFFFFFFFFFFFFFFFFFFFFFFFFFFFFFFF AND PUSH20 0xFFFFFFFFFFFFFFFFFFFFFFFFFFFFFFFFFFFFFFFF AND DUP2 MSTORE PUSH1 0x20 ADD SWAP1 DUP2 MSTORE PUSH1 0x20 ADD PUSH0 KECCAK256 SLOAD LT ISZERO PUSH2 0x922 JUMPI PUSH1 0x40 MLOAD PUSH32 0x8C379A000000000000000000000000000000000000000000000000000000000 DUP2 MSTORE PUSH1 0x4 ADD PUSH2 0x919 SWAP1 PUSH2 0xFD5 JUMP JUMPDEST PUSH1 0x40 MLOAD DUP1 SWAP2 SUB SWAP1 REVERT JUMPDEST DUP2 PUSH1 0x4 PUSH0 CALLER PUSH20 0xFFFFFFFFFFFFFFFFFFFFFFFFFFFFFFFFFFFFFFFF AND PUSH20 0xFFFFFFFFFFFFFFFFFFFFFFFFFFFFFFFFFFFFFFFF AND DUP2 MSTORE PUSH1 0x20 ADD SWAP1 DUP2 MSTORE PUSH1 0x20 ADD PUSH0 KECCAK256 PUSH0 DUP3 DUP3 SLOAD PUSH2 0x96E SWAP2 SWAP1 PUSH2 0x1088 JUMP JUMPDEST SWAP3 POP POP DUP2 SWAP1 SSTORE POP DUP2 PUSH1 0x4 PUSH0 DUP6 PUSH20 0xFFFFFFFFFFFFFFFFFFFFFFFFFFFFFFFFFFFFFFFF AND PUSH20 0xFFFFFFFFFFFFFFFFFFFFFFFFFFFFFFFFFFFFFFFF AND DUP2 MSTORE PUSH1 0x20 ADD SWAP1 DUP2 MSTORE PUSH1 0x20 ADD PUSH0 KECCAK256 PUSH0 DUP3 DUP3 SLOAD PUSH2 0x9C1 SWAP2 SWAP1 PUSH2 0x10BB JUMP JUMPDEST SWAP3 POP POP DUP2 SWAP1 SSTORE POP DUP3 PUSH20 0xFFFFFFFFFFFFFFFFFFFFFFFFFFFFFFFFFFFFFFFF AND CALLER PUSH20 0xFFFFFFFFFFFFFFFFFFFFFFFFFFFFFFFFFFFFFFFF AND PUSH32 0xDDF252AD1BE2C89B69C2B068FC378DAA952BA7F163C4A11628F55A4DF523B3EF DUP5 PUSH1 0x40 MLOAD PUSH2 0xA25 SWAP2 SWAP1 PUSH2 0xD58 JUMP JUMPDEST PUSH1 0x40 MLOAD DUP1 SWAP2 SUB SWAP1 LOG3 PUSH1 0x1 SWAP1 POP SWAP3 SWAP2 POP POP JUMP JUMPDEST PUSH0 PUSH1 0x5 PUSH0 DUP5 PUSH20 0xFFFFFFFFFFFFFFFFFFFFFFFFFFFFFFFFFFFFFFFF AND PUSH20 0xFFFFFFFFFFFFFFFFFFFFFFFFFFFFFFFFFFFFFFFF AND DUP2 MSTORE PUSH1 0x20 ADD SWAP1 DUP2 MSTORE PUSH1 0x20 ADD PUSH0 KECCAK256 PUSH0 DUP4 PUSH20 0xFFFFFFFFFFFFFFFFFFFFFFFFFFFFFFFFFFFFFFFF AND PUSH20 0xFFFFFFFFFFFFFFFFFFFFFFFFFFFFFFFFFFFFFFFF AND DUP2 MSTORE PUSH1 0x20 ADD SWAP1 DUP2 MSTORE PUSH1 0x20 ADD PUSH0 KECCAK256 SLOAD SWAP1 POP SWAP3 SWAP2 POP POP JUMP JUMPDEST PUSH0 PUSH1 0x2 PUSH0 SWAP1 SLOAD SWAP1 PUSH2 0x100 EXP SWAP1 DIV PUSH1 0xFF AND PUSH1 0xA PUSH2 0xAD5 SWAP2 SWAP1 PUSH2 0x121D JUMP JUMPDEST PUSH2 0x3E8 PUSH2 0xAE2 SWAP2 SWAP1 PUSH2 0x1267 JUMP JUMPDEST SWAP1 POP DUP1 PUSH1 0x3 PUSH0 DUP3 DUP3 SLOAD PUSH2 0xAF5 SWAP2 SWAP1 PUSH2 0x10BB JUMP JUMPDEST SWAP3 POP POP DUP2 SWAP1 SSTORE POP DUP1 PUSH1 0x4 PUSH0 CALLER PUSH20 0xFFFFFFFFFFFFFFFFFFFFFFFFFFFFFFFFFFFFFFFF AND PUSH20 0xFFFFFFFFFFFFFFFFFFFFFFFFFFFFFFFFFFFFFFFF AND DUP2 MSTORE PUSH1 0x20 ADD SWAP1 DUP2 MSTORE PUSH1 0x20 ADD PUSH0 KECCAK256 PUSH0 DUP3 DUP3 SLOAD PUSH2 0xB48 SWAP2 SWAP1 PUSH2 0x10BB JUMP JUMPDEST SWAP3 POP POP DUP2 SWAP1 SSTORE POP CALLER PUSH20 0xFFFFFFFFFFFFFFFFFFFFFFFFFFFFFFFFFFFFFFFF AND PUSH0 PUSH20 0xFFFFFFFFFFFFFFFFFFFFFFFFFFFFFFFFFFFFFFFF AND PUSH32 0xDDF252AD1BE2C89B69C2B068FC378DAA952BA7F163C4A11628F55A4DF523B3EF DUP4 PUSH1 0x40 MLOAD PUSH2 0xBAC SWAP2 SWAP1 PUSH2 0xD58 JUMP JUMPDEST PUSH1 0x40 MLOAD DUP1 SWAP2 SUB SWAP1 LOG3 POP JUMP JUMPDEST PUSH0 DUP2 MLOAD SWAP1 POP SWAP2 SWAP1 POP JUMP JUMPDEST PUSH0 DUP3 DUP3 MSTORE PUSH1 0x20 DUP3 ADD SWAP1 POP SWAP3 SWAP2 POP POP JUMP JUMPDEST DUP3 DUP2 DUP4 MCOPY PUSH0 DUP4 DUP4 ADD MSTORE POP POP POP JUMP JUMPDEST PUSH0 PUSH1 0x1F NOT PUSH1 0x1F DUP4 ADD AND SWAP1 POP SWAP2 SWAP1 POP JUMP JUMPDEST PUSH0 PUSH2 0xBF9 DUP3 PUSH2 0xBB7 JUMP JUMPDEST PUSH2 0xC03 DUP2 DUP6 PUSH2 0xBC1 JUMP JUMPDEST SWAP4 POP PUSH2 0xC13 DUP2 DUP6 PUSH1 0x20 DUP7 ADD PUSH2 0xBD1 JUMP JUMPDEST PUSH2 0xC1C DUP2 PUSH2 0xBDF JUMP JUMPDEST DUP5 ADD SWAP2 POP POP SWAP3 SWAP2 POP POP JUMP JUMPDEST PUSH0 PUSH1 0x20 DUP3 ADD SWAP1 POP DUP2 DUP2 SUB PUSH0 DUP4 ADD MSTORE PUSH2 0xC3F DUP2 DUP5 PUSH2 0xBEF JUMP JUMPDEST SWAP1 POP SWAP3 SWAP2 POP POP JUMP JUMPDEST PUSH0 PUSH0 REVERT JUMPDEST PUSH0 PUSH20 0xFFFFFFFFFFFFFFFFFFFFFFFFFFFFFFFFFFFFFFFF DUP3 AND SWAP1 POP SWAP2 SWAP1 POP JUMP JUMPDEST PUSH0 PUSH2 0xC74 DUP3 PUSH2 0xC4B JUMP JUMPDEST SWAP1 POP SWAP2 SWAP1 POP JUMP JUMPDEST PUSH2 0xC84 DUP2 PUSH2 0xC6A JUMP JUMPDEST DUP2 EQ PUSH2 0xC8E JUMPI PUSH0 PUSH0 REVERT JUMPDEST POP JUMP JUMPDEST PUSH0 DUP2 CALLDATALOAD SWAP1 POP PUSH2 0xC9F DUP2 PUSH2 0xC7B JUMP JUMPDEST SWAP3 SWAP2 POP POP JUMP JUMPDEST PUSH0 DUP2 SWAP1 POP SWAP2 SWAP1 POP JUMP JUMPDEST PUSH2 0xCB7 DUP2 PUSH2 0xCA5 JUMP JUMPDEST DUP2 EQ PUSH2 0xCC1 JUMPI PUSH0 PUSH0 REVERT JUMPDEST POP JUMP JUMPDEST PUSH0 DUP2 CALLDATALOAD SWAP1 POP PUSH2 0xCD2 DUP2 PUSH2 0xCAE JUMP JUMPDEST SWAP3 SWAP2 POP POP JUMP JUMPDEST PUSH0 PUSH0 PUSH1 0x40 DUP4 DUP6 SUB SLT ISZERO PUSH2 0xCEE JUMPI PUSH2 0xCED PUSH2 0xC47 JUMP JUMPDEST JUMPDEST PUSH0 PUSH2 0xCFB DUP6 DUP3 DUP7 ADD PUSH2 0xC91 JUMP JUMPDEST SWAP3 POP POP PUSH1 0x20 PUSH2 0xD0C DUP6 DUP3 DUP7 ADD PUSH2 0xCC4 JUMP JUMPDEST SWAP2 POP POP SWAP3 POP SWAP3 SWAP1 POP JUMP JUMPDEST PUSH0 DUP2 ISZERO ISZERO SWAP1 POP SWAP2 SWAP1 POP JUMP JUMPDEST PUSH2 0xD2A DUP2 PUSH2 0xD16 JUMP JUMPDEST DUP3 MSTORE POP POP JUMP JUMPDEST PUSH0 PUSH1 0x20 DUP3 ADD SWAP1 POP PUSH2 0xD43 PUSH0 DUP4 ADD DUP5 PUSH2 0xD21 JUMP JUMPDEST SWAP3 SWAP2 POP POP JUMP JUMPDEST PUSH2 0xD52 DUP2 PUSH2 0xCA5 JUMP JUMPDEST DUP3 MSTORE POP POP JUMP JUMPDEST PUSH0 PUSH1 0x20 DUP3 ADD SWAP1 POP PUSH2 0xD6B PUSH0 DUP4 ADD DUP5 PUSH2 0xD49 JUMP JUMPDEST SWAP3 SWAP2 POP POP JUMP JUMPDEST PUSH0 PUSH0 PUSH0 PUSH1 0x60 DUP5 DUP7 SUB SLT ISZERO PUSH2 0xD88 JUMPI PUSH2 0xD87 PUSH2 0xC47 JUMP JUMPDEST JUMPDEST PUSH0 PUSH2 0xD95 DUP7 DUP3 DUP8 ADD PUSH2 0xC91 JUMP JUMPDEST SWAP4 POP POP PUSH1 0x20 PUSH2 0xDA6 DUP7 DUP3 DUP8 ADD PUSH2 0xC91 JUMP JUMPDEST SWAP3 POP POP PUSH1 0x40 PUSH2 0xDB7 DUP7 DUP3 DUP8 ADD PUSH2 0xCC4 JUMP JUMPDEST SWAP2 POP POP SWAP3 POP SWAP3 POP SWAP3 JUMP JUMPDEST PUSH0 PUSH1 0xFF DUP3 AND SWAP1 POP SWAP2 SWAP1 POP JUMP JUMPDEST PUSH2 0xDD6 DUP2 PUSH2 0xDC1 JUMP JUMPDEST DUP3 MSTORE POP POP JUMP JUMPDEST PUSH0 PUSH1 0x20 DUP3 ADD SWAP1 POP PUSH2 0xDEF PUSH0 DUP4 ADD DUP5 PUSH2 0xDCD JUMP JUMPDEST SWAP3 SWAP2 POP POP JUMP JUMPDEST PUSH0 PUSH1 0x20 DUP3 DUP5 SUB SLT ISZERO PUSH2 0xE0A JUMPI PUSH2 0xE09 PUSH2 0xC47 JUMP JUMPDEST JUMPDEST PUSH0 PUSH2 0xE17 DUP5 DUP3 DUP6 ADD PUSH2 0xC91 JUMP JUMPDEST SWAP2 POP POP SWAP3 SWAP2 POP POP JUMP JUMPDEST PUSH0 PUSH0 PUSH1 0x40 DUP4 DUP6 SUB SLT ISZERO PUSH2 0xE36 JUMPI PUSH2 0xE35 PUSH2 0xC47 JUMP JUMPDEST JUMPDEST PUSH0 PUSH2 0xE43 DUP6 DUP3 DUP7 ADD PUSH2 0xC91 JUMP JUMPDEST SWAP3 POP POP PUSH1 0x20 PUSH2 0xE54 DUP6 DUP3 DUP7 ADD PUSH2 0xC91 JUMP JUMPDEST SWAP2 POP POP SWAP3 POP SWAP3 SWAP1 POP JUMP JUMPDEST PUSH32 0x4E487B7100000000000000000000000000000000000000000000000000000000 PUSH0 MSTORE PUSH1 0x22 PUSH1 0x4 MSTORE PUSH1 0x24 PUSH0 REVERT JUMPDEST PUSH0 PUSH1 0x2 DUP3 DIV SWAP1 POP PUSH1 0x1 DUP3 AND DUP1 PUSH2 0xEA2 JUMPI PUSH1 0x7F DUP3 AND SWAP2 POP JUMPDEST PUSH1 0x20 DUP3 LT DUP2 SUB PUSH2 0xEB5 JUMPI PUSH2 0xEB4 PUSH2 0xE5E JUMP JUMPDEST JUMPDEST POP SWAP2 SWAP1 POP JUMP JUMPDEST PUSH32 0x45524332303A20617070726F766520746F207A65726F20616464726573730000 PUSH0 DUP3 ADD MSTORE POP JUMP JUMPDEST PUSH0 PUSH2 0xEEF PUSH1 0x1E DUP4 PUSH2 0xBC1 JUMP JUMPDEST SWAP2 POP PUSH2 0xEFA DUP3 PUSH2 0xEBB JUMP JUMPDEST PUSH1 0x20 DUP3 ADD SWAP1 POP SWAP2 SWAP1 POP JUMP JUMPDEST PUSH0 PUSH1 0x20 DUP3 ADD SWAP1 POP DUP2 DUP2 SUB PUSH0 DUP4 ADD MSTORE PUSH2 0xF1C DUP2 PUSH2 0xEE3 JUMP JUMPDEST SWAP1 POP SWAP2 SWAP1 POP JUMP JUMPDEST PUSH32 0x45524332303A207472616E7366657220746F207A65726F206164647265737300 PUSH0 DUP3 ADD MSTORE POP JUMP JUMPDEST PUSH0 PUSH2 0xF57 PUSH1 0x1F DUP4 PUSH2 0xBC1 JUMP JUMPDEST SWAP2 POP PUSH2 0xF62 DUP3 PUSH2 0xF23 JUMP JUMPDEST PUSH1 0x20 DUP3 ADD SWAP1 POP SWAP2 SWAP1 POP JUMP JUMPDEST PUSH0 PUSH1 0x20 DUP3 ADD SWAP1 POP DUP2 DUP2 SUB PUSH0 DUP4 ADD MSTORE PUSH2 0xF84 DUP2 PUSH2 0xF4B JUMP JUMPDEST SWAP1 POP SWAP2 SWAP1 POP JUMP JUMPDEST PUSH32 0x45524332303A20696E73756666696369656E742062616C616E63650000000000 PUSH0 DUP3 ADD MSTORE POP JUMP JUMPDEST PUSH0 PUSH2 0xFBF PUSH1 0x1B DUP4 PUSH2 0xBC1 JUMP JUMPDEST SWAP2 POP PUSH2 0xFCA DUP3 PUSH2 0xF8B JUMP JUMPDEST PUSH1 0x20 DUP3 ADD SWAP1 POP SWAP2 SWAP1 POP JUMP JUMPDEST PUSH0 PUSH1 0x20 DUP3 ADD SWAP1 POP DUP2 DUP2 SUB PUSH0 DUP4 ADD MSTORE PUSH2 0xFEC DUP2 PUSH2 0xFB3 JUMP JUMPDEST SWAP1 POP SWAP2 SWAP1 POP JUMP JUMPDEST PUSH32 0x45524332303A20696E73756666696369656E7420616C6C6F77616E6365000000 PUSH0 DUP3 ADD MSTORE POP JUMP JUMPDEST PUSH0 PUSH2 0x1027 PUSH1 0x1D DUP4 PUSH2 0xBC1 JUMP JUMPDEST SWAP2 POP PUSH2 0x1032 DUP3 PUSH2 0xFF3 JUMP JUMPDEST PUSH1 0x20 DUP3 ADD SWAP1 POP SWAP2 SWAP1 POP JUMP JUMPDEST PUSH0 PUSH1 0x20 DUP3 ADD SWAP1 POP DUP2 DUP2 SUB PUSH0 DUP4 ADD MSTORE PUSH2 0x1054 DUP2 PUSH2 0x101B JUMP JUMPDEST SWAP1 POP SWAP2 SWAP1 POP JUMP JUMPDEST PUSH32 0x4E487B7100000000000000000000000000000000000000000000000000000000 PUSH0 MSTORE PUSH1 0x11 PUSH1 0x4 MSTORE PUSH1 0x24 PUSH0 REVERT JUMPDEST PUSH0 PUSH2 0x1092 DUP3 PUSH2 0xCA5 JUMP JUMPDEST SWAP2 POP PUSH2 0x109D DUP4 PUSH2 0xCA5 JUMP JUMPDEST SWAP3 POP DUP3 DUP3 SUB SWAP1 POP DUP2 DUP2 GT ISZERO PUSH2 0x10B5 JUMPI PUSH2 0x10B4 PUSH2 0x105B JUMP JUMPDEST JUMPDEST SWAP3 SWAP2 POP POP JUMP JUMPDEST PUSH0 PUSH2 0x10C5 DUP3 PUSH2 0xCA5 JUMP JUMPDEST SWAP2 POP PUSH2 0x10D0 DUP4 PUSH2 0xCA5 JUMP JUMPDEST SWAP3 POP DUP3 DUP3 ADD SWAP1 POP DUP1 DUP3 GT ISZERO PUSH2 0x10E8 JUMPI PUSH2 0x10E7 PUSH2 0x105B JUMP JUMPDEST JUMPDEST SWAP3 SWAP2 POP POP JUMP JUMPDEST PUSH0 DUP2 PUSH1 0x1 SHR SWAP1 POP SWAP2 SWAP1 POP JUMP JUMPDEST PUSH0 PUSH0 DUP3 SWAP2 POP DUP4 SWAP1 POP JUMPDEST PUSH1 0x1 DUP6 GT ISZERO PUSH2 0x1143 JUMPI DUP1 DUP7 DIV DUP2 GT ISZERO PUSH2 0x111F JUMPI PUSH2 0x111E PUSH2 0x105B JUMP JUMPDEST JUMPDEST PUSH1 0x1 DUP6 AND ISZERO PUSH2 0x112E JUMPI DUP1 DUP3 MUL SWAP2 POP JUMPDEST DUP1 DUP2 MUL SWAP1 POP PUSH2 0x113C DUP6 PUSH2 0x10EE JUMP JUMPDEST SWAP5 POP PUSH2 0x1103 JUMP JUMPDEST SWAP5 POP SWAP5 SWAP3 POP POP POP JUMP JUMPDEST PUSH0 DUP3 PUSH2 0x115B JUMPI PUSH1 0x1 SWAP1 POP PUSH2 0x1216 JUMP JUMPDEST DUP2 PUSH2 0x1168 JUMPI PUSH0 SWAP1 POP PUSH2 0x1216 JUMP JUMPDEST DUP2 PUSH1 0x1 DUP2 EQ PUSH2 0x117E JUMPI PUSH1 0x2 DUP2 EQ PUSH2 0x1188 JUMPI PUSH2 0x11B7 JUMP JUMPDEST PUSH1 0x1 SWAP2 POP POP PUSH2 0x1216 JUMP JUMPDEST PUSH1 0xFF DUP5 GT ISZERO PUSH2 0x119A JUMPI PUSH2 0x1199 PUSH2 0x105B JUMP JUMPDEST JUMPDEST DUP4 PUSH1 0x2 EXP SWAP2 POP DUP5 DUP3 GT ISZERO PUSH2 0x11B1 JUMPI PUSH2 0x11B0 PUSH2 0x105B JUMP JUMPDEST JUMPDEST POP PUSH2 0x1216 JUMP JUMPDEST POP PUSH1 0x20 DUP4 LT PUSH2 0x133 DUP4 LT AND PUSH1 0x4E DUP5 LT PUSH1 0xB DUP5 LT AND OR ISZERO PUSH2 0x11EC JUMPI DUP3 DUP3 EXP SWAP1 POP DUP4 DUP2 GT ISZERO PUSH2 0x11E7 JUMPI PUSH2 0x11E6 PUSH2 0x105B JUMP JUMPDEST JUMPDEST PUSH2 0x1216 JUMP JUMPDEST PUSH2 0x11F9 DUP5 DUP5 DUP5 PUSH1 0x1 PUSH2 0x10FA JUMP JUMPDEST SWAP3 POP SWAP1 POP DUP2 DUP5 DIV DUP2 GT ISZERO PUSH2 0x1210 JUMPI PUSH2 0x120F PUSH2 0x105B JUMP JUMPDEST JUMPDEST DUP2 DUP2 MUL SWAP1 POP JUMPDEST SWAP4 SWAP3 POP POP POP JUMP JUMPDEST PUSH0 PUSH2 0x1227 DUP3 PUSH2 0xCA5 JUMP JUMPDEST SWAP2 POP PUSH2 0x1232 DUP4 PUSH2 0xDC1 JUMP JUMPDEST SWAP3 POP PUSH2 0x125F PUSH32 0xFFFFFFFFFFFFFFFFFFFFFFFFFFFFFFFFFFFFFFFFFFFFFFFFFFFFFFFFFFFFFFFF DUP5 DUP5 PUSH2 0x114C JUMP JUMPDEST SWAP1 POP SWAP3 SWAP2 POP POP JUMP JUMPDEST PUSH0 PUSH2 0x1271 DUP3 PUSH2 0xCA5 JUMP JUMPDEST SWAP2 POP PUSH2 0x127C DUP4 PUSH2 0xCA5 JUMP JUMPDEST SWAP3 POP DUP3 DUP3 MUL PUSH2 0x128A DUP2 PUSH2 0xCA5 JUMP JUMPDEST SWAP2 POP DUP3 DUP3 DIV DUP5 EQ DUP4 ISZERO OR PUSH2 0x12A1 JUMPI PUSH2 0x12A0 PUSH2 0x105B JUMP JUMPDEST JUMPDEST POP SWAP3 SWAP2 POP POP JUMP INVALID LOG2 PUSH5 0x6970667358 0x22 SLT KECCAK256 0x2A 0xAB DUPN 0xEF 0xC7 CALLVALUE PUSH10 0x9C254F12FC4B49154B63 MSTORE8 0xCC NUMBER 0xF7 PUSH8 0xD8525849A7093966 PUSH13 0xFA64736F6C6343000822003300 "
				},
				"gasEstimates": {
					"creation": {
						"codeDepositCost": "966000",
						"executionCost": "infinite",
						"totalCost": "infinite"
					},
					"external": {
						"allowance(address,address)": "infinite",
						"approve(address,uint256)": "infinite",
						"balanceOf(address)": "2829",
						"decimals()": "2555",
						"faucet()": "infinite",
						"name()": "infinite",
						"symbol()": "infinite",
						"totalSupply()": "2477",
						"transfer(address,uint256)": "infinite",
						"transferFrom(address,address,uint256)": "infinite"
					}
				},
				"methodIdentifiers": {
					"allowance(address,address)": "dd62ed3e",
					"approve(address,uint256)": "095ea7b3",
					"balanceOf(address)": "70a08231",
					"decimals()": "313ce567",
					"faucet()": "de5f72fd",
					"name()": "06fdde03",
					"symbol()": "95d89b41",
					"totalSupply()": "18160ddd",
					"transfer(address,uint256)": "a9059cbb",
					"transferFrom(address,address,uint256)": "23b872dd"
				}
			},
			"storageLayout": {
				"storage": [
					{
						"astId": 73,
						"contract": "StakingContract.sol:KMUToken",
						"label": "name",
						"offset": 0,
						"slot": "0",
						"type": "t_string_storage"
					},
					{
						"astId": 76,
						"contract": "StakingContract.sol:KMUToken",
						"label": "symbol",
						"offset": 0,
						"slot": "1",
						"type": "t_string_storage"
					},
					{
						"astId": 79,
						"contract": "StakingContract.sol:KMUToken",
						"label": "decimals",
						"offset": 0,
						"slot": "2",
						"type": "t_uint8"
					},
					{
						"astId": 81,
						"contract": "StakingContract.sol:KMUToken",
						"label": "_totalSupply",
						"offset": 0,
						"slot": "3",
						"type": "t_uint256"
					},
					{
						"astId": 85,
						"contract": "StakingContract.sol:KMUToken",
						"label": "_balances",
						"offset": 0,
						"slot": "4",
						"type": "t_mapping(t_address,t_uint256)"
					},
					{
						"astId": 91,
						"contract": "StakingContract.sol:KMUToken",
						"label": "_allowances",
						"offset": 0,
						"slot": "5",
						"type": "t_mapping(t_address,t_mapping(t_address,t_uint256))"
					}
				],
				"types": {
					"t_address": {
						"encoding": "inplace",
						"label": "address",
						"numberOfBytes": "20"
					},
					"t_mapping(t_address,t_mapping(t_address,t_uint256))": {
						"encoding": "mapping",
						"key": "t_address",
						"label": "mapping(address => mapping(address => uint256))",
						"numberOfBytes": "32",
						"value": "t_mapping(t_address,t_uint256)"
					},
					"t_mapping(t_address,t_uint256)": {
						"encoding": "mapping",
						"key": "t_address",
						"label": "mapping(address => uint256)",
						"numberOfBytes": "32",
						"value": "t_uint256"
					},
					"t_string_storage": {
						"encoding": "bytes",
						"label": "string",
						"numberOfBytes": "32"
					},
					"t_uint256": {
						"encoding": "inplace",
						"label": "uint256",
						"numberOfBytes": "32"
					},
					"t_uint8": {
						"encoding": "inplace",
						"label": "uint8",
						"numberOfBytes": "1"
					}
				}
			},
			"userdoc": {
				"kind": "user",
				"methods": {
					"approve(address,uint256)": {
						"notice": "msg.sender 가 spender 에게 amount 만큼 사용 허가"
					},
					"faucet()": {
						"notice": "테스트넷용 - 누구나 1000 KMU 를 받을 수 있음"
					},
					"transfer(address,uint256)": {
						"notice": "msg.sender → to 로 amount 만큼 토큰 전송"
					},
					"transferFrom(address,address,uint256)": {
						"notice": "msg.sender(= 스테이킹 컨트랙트) 가 from → to 로 amount 전송"
					}
				},
				"version": 1
			}
		}
	}
}