{
	"StakingContract.sol": {
		"StakingContract": {
			"abi": [
				{
					"inputs": [
						{
							"internalType": "address",
							"name": "_stakingToken",
							"type": "address"
						}
					],
					"stateMutability": "nonpayable",
					"type": "constructor"
				},
				{
					"anonymous": false,
					"inputs": [
						{
							"indexed": true,
							"internalType": "address",
							"name": "user",
							"type": "address"
						},
						{
							"indexed": false,
							"internalType": "uint256",
							"name": "amount",
							"type": "uint256"
						},
						{
							"indexed": false,
							"internalType": "uint256",
							"name": "timestamp",
							"type": "uint256"
						}
					],
					"name": "EmergencyWithdraw",
					"type": "event"
				},
				{
					"anonymous": false,
					"inputs": [
						{
							"indexed": true,
							"internalType": "address",
							"name": "user",
							"type": "address"
						},
						{
							"indexed": false,
							"internalType": "uint256",
							"name": "reward",
							"type": "uint256"
						},
						{
							"indexed": false,
							"internalType": "uint256",
							"name": "timestamp",
							"type": "uint256"
						}
					],
					"name": "RewardClaimed",
					"type": "event"
				},
				{
					"anonymous": false,
					"inputs": [
						{
							"indexed": true,
							"internalType": "address",
							"name": "user",
							"type": "address"
						},
						{
							"indexed": false,
							"internalType": "uint256",
							"name": "amount",
							"type": "uint256"
						},
						{
							"indexed": false,
							"internalType": "uint256",
							"name": "timestamp",
							"type": "uint256"
						}
					],
					"name": "Staked",
					"type": "event"
				},
				{
					"anonymous": false,
					"inputs": [
						{
							"indexed": true,
							"internalType": "address",
							"name": "user",
							"type": "address"
						},
						{
							"indexed": false,
							"internalType": "uint256",
							"name": "amount",
							"type": "uint256"
						},
						{
							"indexed": false,
							"internalType": "uint256",
							"name": "timestamp",
							"type": "uint256"
						}
					],
					"name": "Unstaked",
					"type": "event"
				},
				{
					"inputs": [],
					"name": "REWARD_RATE_PER_SECOND",
					"outputs": [
						{
							"internalType": "uint256",
							"name": "",
							"type": "uint256"
						}
					],
					"stateMutability": "view",
					"type": "function"
				},
				{
					"inputs": [],
					"name": "claimReward",
					"outputs": [],
					"stateMutability": "nonpayable",
					"type": "function"
				},
				{
					"inputs": [],
					"name": "contractBalance",
					"outputs": [
						{
							"internalType": "uint256",
							"name": "",
							"type": "uint256"
						}
					],
					"stateMutability": "view",
					"type": "function"
				},
				{
					"inputs": [],
					"name": "emergencyWithdraw",
					"outputs": [],
					"stateMutability": "nonpayable",
					"type": "function"
				},
				{
					"inputs": [
						{
							"internalType": "uint256",
							"name": "amount",
							"type": "uint256"
						}
					],
					"name": "fundRewards",
					"outputs": [],
					"stateMutability": "nonpayable",
					"type": "function"
				},
				{
					"inputs": [
						{
							"internalType": "address",
							"name": "user",
							"type": "address"
						}
					],
					"name": "getStakeInfo",
					"outputs": [
						{
							"internalType": "uint256",
							"name": "stakedAmount",
							"type": "uint256"
						},
						{
							"internalType": "uint256",
							"name": "pendingReward",
							"type": "uint256"
						},
						{
							"internalType": "uint256",
							"name": "stakedSince",
							"type": "uint256"
						},
						{
							"internalType": "uint256",
							"name": "totalRewardEarned",
							"type": "uint256"
						}
					],
					"stateMutability": "view",
					"type": "function"
				},
				{
					"inputs": [],
					"name": "owner",
					"outputs": [
						{
							"internalType": "address",
							"name": "",
							"type": "address"
						}
					],
					"stateMutability": "view",
					"type": "function"
				},
				{
					"inputs": [
						{
							"internalType": "uint256",
							"name": "amount",
							"type": "uint256"
						}
					],
					"name": "stake",
					"outputs": [],
					"stateMutability": "nonpayable",
					"type": "function"
				},
				{
					"inputs": [
						{
							"internalType": "address",
							"name": "",
							"type": "address"
						}
					],
					"name": "stakes",
					"outputs": [
						{
							"internalType": "uint256",
							"name": "amount",
							"type": "uint256"
						},
						{
							"internalType": "uint256",
							"name": "stakedAt",
							"type": "uint256"
						},
						{
							"internalType": "uint256",
							"name": "rewardDebt",
							"type": "uint256"
						},
						{
							"internalType": "uint256",
							"name": "pendingReward",
							"type": "uint256"
						}
					],
					"stateMutability": "view",
					"type": "function"
				},
				{
					"inputs": [],
					"name": "stakingToken",
					"outputs": [
						{
							"internalType": "contract IERC20",
							"name": "",
							"type": "address"
						}
					],
					"stateMutability": "view",
					"type": "function"
				},
				{
					"inputs": [],
					"name": "totalStaked",
					"outputs": [
						{
							"internalType": "uint256",
							"name": "",
							"type": "uint256"
						}
					],
					"stateMutability": "view",
					"type": "function"
				},
				{
					"inputs": [
						{
							"internalType": "uint256",
							"name": "amount",
							"type": "uint256"
						}
					],
					"name": "unstake",
					"outputs": [],
					"stateMutability": "nonpayable",
					"type": "function"
				}
			],
			"devdoc": {
				"kind": "dev",
				"methods": {},
				"version": 1
			},
			"evm": {
				"assembly": "    /* \"StakingContract.sol\":5686:11778  contract StakingContract {... */\n  mstore(0x40, 0xa0)\n    /* \"StakingContract.sol\":7114:7237  constructor(address _stakingToken) {... */\n  callvalue\n  dup1\n  iszero\n  tag_1\n  jumpi\n  revert(0x00, 0x00)\ntag_1:\n  pop\n  mload(0x40)\n  sub(codesize, bytecodeSize)\n  dup1\n  bytecodeSize\n  dup4\n  codecopy\n  dup2\n  dup2\n  add\n  0x40\n  mstore\n  dup2\n  add\n  swap1\n  tag_2\n  swap2\n  swap1\n  tag_3\n  jump\t// in\ntag_2:\n    /* \"StakingContract.sol\":7181:7194  _stakingToken */\n  dup1\n    /* \"StakingContract.sol\":7159:7195  stakingToken = IERC20(_stakingToken) */\n  0xffffffffffffffffffffffffffffffffffffffff\n  and\n  0x80\n  dup2\n  0xffffffffffffffffffffffffffffffffffffffff\n  and\n  dup2\n  mstore\n  pop\n  pop\n    /* \"StakingContract.sol\":7220:7230  msg.sender */\n  caller\n    /* \"StakingContract.sol\":7205:7210  owner */\n  0x00\n  0x00\n    /* \"StakingContract.sol\":7205:7230  owner        = msg.sender */\n  0x0100\n  exp\n  dup2\n  sload\n  dup2\n  0xffffffffffffffffffffffffffffffffffffffff\n  mul\n  not\n  and\n  swap1\n  dup4\n  0xffffffffffffffffffffffffffffffffffffffff\n  and\n  mul\n  or\n  swap1\n  sstore\n  pop\n    /* \"StakingContract.sol\":7114:7237  constructor(address _stakingToken) {... */\n  pop\n    /* \"StakingContract.sol\":5686:11778  contract StakingContract {... */\n  jump(tag_6)\n    /* \"#utility.yul\":88:205   */\ntag_8:\n    /* \"#utility.yul\":197:198   */\n  0x00\n    /* \"#utility.yul\":194:195   */\n  0x00\n    /* \"#utility.yul\":187:199   */\n  revert\n    /* \"#utility.yul\":334:460   */\ntag_10:\n    /* \"#utility.yul\":371:378   */\n  0x00\n    /* \"#utility.yul\":411:453   */\n  0xffffffffffffffffffffffffffffffffffffffff\n    /* \"#utility.yul\":404:409   */\n  dup3\n    /* \"#utility.yul\":400:454   */\n  and\n    /* \"#utility.yul\":389:454   */\n  swap1\n  pop\n    /* \"#utility.yul\":334:460   */\n  swap2\n  swap1\n  pop\n  jump\t// out\n    /* \"#utility.yul\":466:562   */\ntag_11:\n    /* \"#utility.yul\":503:510   */\n  0x00\n    /* \"#utility.yul\":532:556   */\n  tag_20\n    /* \"#utility.yul\":550:555   */\n  dup3\n    /* \"#utility.yul\":532:556   */\n  tag_10\n  jump\t// in\ntag_20:\n    /* \"#utility.yul\":521:556   */\n  swap1\n  pop\n    /* \"#utility.yul\":466:562   */\n  swap2\n  swap1\n  pop\n  jump\t// out\n    /* \"#utility.yul\":568:690   */\ntag_12:\n    /* \"#utility.yul\":641:665   */\n  tag_22\n    /* \"#utility.yul\":659:664   */\n  dup2\n    /* \"#utility.yul\":641:665   */\n  tag_11\n  jump\t// in\ntag_22:\n    /* \"#utility.yul\":634:639   */\n  dup2\n    /* \"#utility.yul\":631:666   */\n  eq\n    /* \"#utility.yul\":621:684   */\n  tag_23\n  jumpi\n    /* \"#utility.yul\":680:681   */\n  0x00\n    /* \"#utility.yul\":677:678   */\n  0x00\n    /* \"#utility.yul\":670:682   */\n  revert\n    /* \"#utility.yul\":621:684   */\ntag_23:\n    /* \"#utility.yul\":568:690   */\n  pop\n  jump\t// out\n    /* \"#utility.yul\":696:839   */\ntag_13:\n    /* \"#utility.yul\":753:758   */\n  0x00\n    /* \"#utility.yul\":784:790   */\n  dup2\n    /* \"#utility.yul\":778:791   */\n  mload\n    /* \"#utility.yul\":769:791   */\n  swap1\n  pop\n    /* \"#utility.yul\":800:833   */\n  tag_25\n    /* \"#utility.yul\":827:832   */\n  dup2\n    /* \"#utility.yul\":800:833   */\n  tag_12\n  jump\t// in\ntag_25:\n    /* \"#utility.yul\":696:839   */\n  swap3\n  swap2\n  pop\n  pop\n  jump\t// out\n    /* \"#utility.yul\":845:1196   */\ntag_3:\n    /* \"#utility.yul\":915:921   */\n  0x00\n    /* \"#utility.yul\":964:966   */\n  0x20\n    /* \"#utility.yul\":952:961   */\n  dup3\n    /* \"#utility.yul\":943:950   */\n  dup5\n    /* \"#utility.yul\":939:962   */\n  sub\n    /* \"#utility.yul\":935:967   */\n  slt\n    /* \"#utility.yul\":932:1051   */\n  iszero\n  tag_27\n  jumpi\n    /* \"#utility.yul\":970:1049   */\n  tag_28\n  tag_8\n  jump\t// in\ntag_28:\n    /* \"#utility.yul\":932:1051   */\ntag_27:\n    /* \"#utility.yul\":1090:1091   */\n  0x00\n    /* \"#utility.yul\":1115:1179   */\n  tag_29\n    /* \"#utility.yul\":1171:1178   */\n  dup5\n    /* \"#utility.yul\":1162:1168   */\n  dup3\n    /* \"#utility.yul\":1151:1160   */\n  dup6\n    /* \"#utility.yul\":1147:1169   */\n  add\n    /* \"#utility.yul\":1115:1179   */\n  tag_13\n  jump\t// in\ntag_29:\n    /* \"#utility.yul\":1105:1179   */\n  swap2\n  pop\n    /* \"#utility.yul\":1061:1189   */\n  pop\n    /* \"#utility.yul\":845:1196   */\n  swap3\n  swap2\n  pop\n  pop\n  jump\t// out\n    /* \"StakingContract.sol\":5686:11778  contract StakingContract {... */\ntag_6:\n  mload(0x80)\n  codecopy(0x00, dataOffset(sub_0), dataSize(sub_0))\n  0x00\n  assignImmutable(\"0x747491254fc29a61c3f0f8ca603d468b83f8d0af60d3a86e8b935f39643493bc\")\n  return(0x00, dataSize(sub_0))\nstop\n\nsub_0: assembly {\n        /* \"StakingContract.sol\":5686:11778  contract StakingContract {... */\n      mstore(0x40, 0x80)\n      callvalue\n      dup1\n      iszero\n      tag_1\n      jumpi\n      revert(0x00, 0x00)\n    tag_1:\n      pop\n      jumpi(tag_2, lt(calldatasize, 0x04))\n      shr(0xe0, calldataload(0x00))\n      dup1\n      0x93707a19\n      gt\n      tag_15\n      jumpi\n      dup1\n      0x93707a19\n      eq\n      tag_9\n      jumpi\n      dup1\n      0xa694fc3a\n      eq\n      tag_10\n      jumpi\n      dup1\n      0xb88a802f\n      eq\n      tag_11\n      jumpi\n      dup1\n      0xc3453153\n      eq\n      tag_12\n      jumpi\n      dup1\n      0xda534353\n      eq\n      tag_13\n      jumpi\n      dup1\n      0xdb2e21bc\n      eq\n      tag_14\n      jumpi\n      jump(tag_2)\n    tag_15:\n      dup1\n      0x16934fc4\n      eq\n      tag_3\n      jumpi\n      dup1\n      0x2e17de78\n      eq\n      tag_4\n      jumpi\n      dup1\n      0x72f702f3\n      eq\n      tag_5\n      jumpi\n      dup1\n      0x817b1cd2\n      eq\n      tag_6\n      jumpi\n      dup1\n      0x8b7afe2e\n      eq\n      tag_7\n      jumpi\n      dup1\n      0x8da5cb5b\n      eq\n      tag_8\n      jumpi\n    tag_2:\n      revert(0x00, 0x00)\n        /* \"StakingContract.sol\":6429:6472  mapping(address => StakeInfo) public stakes */\n    tag_3:\n      tag_16\n      0x04\n      dup1\n      calldatasize\n      sub\n      dup2\n      add\n      swap1\n      tag_17\n      swap2\n      swap1\n      tag_18\n      jump\t// in\n    tag_17:\n      tag_19\n      jump\t// in\n    tag_16:\n      mload(0x40)\n      tag_20\n      swap5\n      swap4\n      swap3\n      swap2\n      swap1\n      tag_21\n      jump\t// in\n    tag_20:\n      mload(0x40)\n      dup1\n      swap2\n      sub\n      swap1\n      return\n        /* \"StakingContract.sol\":8795:9364  function unstake(uint256 amount) external {... */\n    tag_4:\n      tag_22\n      0x04\n      dup1\n      calldatasize\n      sub\n      dup2\n      add\n      swap1\n      tag_23\n      swap2\n      swap1\n      tag_24\n      jump\t// in\n    tag_23:\n      tag_25\n      jump\t// in\n    tag_22:\n      stop\n        /* \"StakingContract.sol\":5870:5907  IERC20  public immutable stakingToken */\n    tag_5:\n      tag_26\n      tag_27\n      jump\t// in\n    tag_26:\n      mload(0x40)\n      tag_28\n      swap2\n      swap1\n      tag_29\n      jump\t// in\n    tag_28:\n      mload(0x40)\n      dup1\n      swap2\n      sub\n      swap1\n      return\n        /* \"StakingContract.sol\":6088:6114  uint256 public totalStaked */\n    tag_6:\n      tag_30\n      tag_31\n      jump\t// in\n    tag_30:\n      mload(0x40)\n      tag_32\n      swap2\n      swap1\n      tag_33\n      jump\t// in\n    tag_32:\n      mload(0x40)\n      dup1\n      swap2\n      sub\n      swap1\n      return\n        /* \"StakingContract.sol\":11269:11389  function contractBalance() external view returns (uint256) {... */\n    tag_7:\n      tag_34\n      tag_35\n      jump\t// in\n    tag_34:\n      mload(0x40)\n      tag_36\n      swap2\n      swap1\n      tag_33\n      jump\t// in\n    tag_36:\n      mload(0x40)\n      dup1\n      swap2\n      sub\n      swap1\n      return\n        /* \"StakingContract.sol\":5963:5993  address public           owner */\n    tag_8:\n      tag_37\n      tag_38\n      jump\t// in\n    tag_37:\n      mload(0x40)\n      tag_39\n      swap2\n      swap1\n      tag_40\n      jump\t// in\n    tag_39:\n      mload(0x40)\n      dup1\n      swap2\n      sub\n      swap1\n      return\n        /* \"StakingContract.sol\":11588:11776  function fundRewards(uint256 amount) external onlyOwner {... */\n    tag_9:\n      tag_41\n      0x04\n      dup1\n      calldatasize\n      sub\n      dup2\n      add\n      swap1\n      tag_42\n      swap2\n      swap1\n      tag_24\n      jump\t// in\n    tag_42:\n      tag_43\n      jump\t// in\n    tag_41:\n      stop\n        /* \"StakingContract.sol\":8029:8659  function stake(uint256 amount) external {... */\n    tag_10:\n      tag_44\n      0x04\n      dup1\n      calldatasize\n      sub\n      dup2\n      add\n      swap1\n      tag_45\n      swap2\n      swap1\n      tag_24\n      jump\t// in\n    tag_45:\n      tag_46\n      jump\t// in\n    tag_44:\n      stop\n        /* \"StakingContract.sol\":9492:10057  function claimReward() external {... */\n    tag_11:\n      tag_47\n      tag_48\n      jump\t// in\n    tag_47:\n      stop\n        /* \"StakingContract.sol\":10827:11198  function getStakeInfo(address user) external view returns (... */\n    tag_12:\n      tag_49\n      0x04\n      dup1\n      calldatasize\n      sub\n      dup2\n      add\n      swap1\n      tag_50\n      swap2\n      swap1\n      tag_18\n      jump\t// in\n    tag_50:\n      tag_51\n      jump\t// in\n    tag_49:\n      mload(0x40)\n      tag_52\n      swap5\n      swap4\n      swap3\n      swap2\n      swap1\n      tag_21\n      jump\t// in\n    tag_52:\n      mload(0x40)\n      dup1\n      swap2\n      sub\n      swap1\n      return\n        /* \"StakingContract.sol\":6000:6053  uint256 public constant REWARD_RATE_PER_SECOND = 1e12 */\n    tag_13:\n      tag_53\n      tag_54\n      jump\t// in\n    tag_53:\n      mload(0x40)\n      tag_55\n      swap2\n      swap1\n      tag_33\n      jump\t// in\n    tag_55:\n      mload(0x40)\n      dup1\n      swap2\n      sub\n      swap1\n      return\n        /* \"StakingContract.sol\":10142:10613  function emergencyWithdraw() external {... */\n    tag_14:\n      tag_56\n      tag_57\n      jump\t// in\n    tag_56:\n      stop\n        /* \"StakingContract.sol\":6429:6472  mapping(address => StakeInfo) public stakes */\n    tag_19:\n      mstore(0x20, 0x02)\n      dup1\n      0x00\n      mstore\n      keccak256(0x00, 0x40)\n      0x00\n      swap2\n      pop\n      swap1\n      pop\n      dup1\n      0x00\n      add\n      sload\n      swap1\n      dup1\n      0x01\n      add\n      sload\n      swap1\n      dup1\n      0x02\n      add\n      sload\n      swap1\n      dup1\n      0x03\n      add\n      sload\n      swap1\n      pop\n      dup5\n      jump\t// out\n        /* \"StakingContract.sol\":8795:9364  function unstake(uint256 amount) external {... */\n    tag_25:\n        /* \"StakingContract.sol\":8847:8866  StakeInfo storage s */\n      0x00\n        /* \"StakingContract.sol\":8869:8875  stakes */\n      0x02\n        /* \"StakingContract.sol\":8869:8887  stakes[msg.sender] */\n      0x00\n        /* \"StakingContract.sol\":8876:8886  msg.sender */\n      caller\n        /* \"StakingContract.sol\":8869:8887  stakes[msg.sender] */\n      0xffffffffffffffffffffffffffffffffffffffff\n      and\n      0xffffffffffffffffffffffffffffffffffffffff\n      and\n      dup2\n      mstore\n      0x20\n      add\n      swap1\n      dup2\n      mstore\n      0x20\n      add\n      0x00\n      keccak256\n        /* \"StakingContract.sol\":8847:8887  StakeInfo storage s = stakes[msg.sender] */\n      swap1\n      pop\n        /* \"StakingContract.sol\":8917:8923  amount */\n      dup2\n        /* \"StakingContract.sol\":8905:8906  s */\n      dup2\n        /* \"StakingContract.sol\":8905:8913  s.amount */\n      0x00\n      add\n      sload\n        /* \"StakingContract.sol\":8905:8923  s.amount >= amount */\n      lt\n      iszero\n        /* \"StakingContract.sol\":8897:8954  require(s.amount >= amount, \"Insufficient staked amount\") */\n      tag_59\n      jumpi\n      mload(0x40)\n      0x08c379a000000000000000000000000000000000000000000000000000000000\n      dup2\n      mstore\n      0x04\n      add\n      tag_60\n      swap1\n      tag_61\n      jump\t// in\n    tag_60:\n      mload(0x40)\n      dup1\n      swap2\n      sub\n      swap1\n      revert\n    tag_59:\n        /* \"StakingContract.sol\":8981:8982  0 */\n      0x00\n        /* \"StakingContract.sol\":8972:8978  amount */\n      dup3\n        /* \"StakingContract.sol\":8972:8982  amount > 0 */\n      gt\n        /* \"StakingContract.sol\":8964:9003  require(amount > 0, \"Cannot unstake 0\") */\n      tag_62\n      jumpi\n      mload(0x40)\n      0x08c379a000000000000000000000000000000000000000000000000000000000\n      dup2\n      mstore\n      0x04\n      add\n      tag_63\n      swap1\n      tag_64\n      jump\t// in\n    tag_63:\n      mload(0x40)\n      dup1\n      swap2\n      sub\n      swap1\n      revert\n    tag_62:\n        /* \"StakingContract.sol\":9067:9091  _calcPending(msg.sender) */\n      tag_65\n        /* \"StakingContract.sol\":9080:9090  msg.sender */\n      caller\n        /* \"StakingContract.sol\":9067:9079  _calcPending */\n      tag_66\n        /* \"StakingContract.sol\":9067:9091  _calcPending(msg.sender) */\n      jump\t// in\n    tag_65:\n        /* \"StakingContract.sol\":9049:9050  s */\n      dup2\n        /* \"StakingContract.sol\":9049:9064  s.pendingReward */\n      0x03\n      add\n        /* \"StakingContract.sol\":9049:9091  s.pendingReward = _calcPending(msg.sender) */\n      dup2\n      swap1\n      sstore\n      pop\n        /* \"StakingContract.sol\":9117:9123  amount */\n      dup2\n        /* \"StakingContract.sol\":9102:9103  s */\n      dup2\n        /* \"StakingContract.sol\":9102:9110  s.amount */\n      0x00\n      add\n      0x00\n        /* \"StakingContract.sol\":9102:9123  s.amount    -= amount */\n      dup3\n      dup3\n      sload\n      tag_67\n      swap2\n      swap1\n      tag_68\n      jump\t// in\n    tag_67:\n      swap3\n      pop\n      pop\n      dup2\n      swap1\n      sstore\n      pop\n        /* \"StakingContract.sol\":9148:9163  block.timestamp */\n      timestamp\n        /* \"StakingContract.sol\":9133:9134  s */\n      dup2\n        /* \"StakingContract.sol\":9133:9143  s.stakedAt */\n      0x01\n      add\n        /* \"StakingContract.sol\":9133:9163  s.stakedAt   = block.timestamp */\n      dup2\n      swap1\n      sstore\n      pop\n        /* \"StakingContract.sol\":9188:9194  amount */\n      dup2\n        /* \"StakingContract.sol\":9173:9184  totalStaked */\n      0x01\n      0x00\n        /* \"StakingContract.sol\":9173:9194  totalStaked -= amount */\n      dup3\n      dup3\n      sload\n      tag_69\n      swap2\n      swap1\n      tag_68\n      jump\t// in\n    tag_69:\n      swap3\n      pop\n      pop\n      dup2\n      swap1\n      sstore\n      pop\n        /* \"StakingContract.sol\":9205:9212  bool ok */\n      0x00\n        /* \"StakingContract.sol\":9215:9227  stakingToken */\n      immutable(\"0x747491254fc29a61c3f0f8ca603d468b83f8d0af60d3a86e8b935f39643493bc\")\n        /* \"StakingContract.sol\":9215:9236  stakingToken.transfer */\n      0xffffffffffffffffffffffffffffffffffffffff\n      and\n      0xa9059cbb\n        /* \"StakingContract.sol\":9237:9247  msg.sender */\n      caller\n        /* \"StakingContract.sol\":9249:9255  amount */\n      dup6\n        /* \"StakingContract.sol\":9215:9256  stakingToken.transfer(msg.sender, amount) */\n      mload(0x40)\n      dup4\n      0xffffffff\n      and\n      0xe0\n      shl\n      dup2\n      mstore\n      0x04\n      add\n      tag_70\n      swap3\n      swap2\n      swap1\n      tag_71\n      jump\t// in\n    tag_70:\n      0x20\n      mload(0x40)\n      dup1\n      dup4\n      sub\n      dup2\n      0x00\n      dup8\n      gas\n      call\n      iszero\n      dup1\n      iszero\n      tag_73\n      jumpi\n      returndatacopy(0x00, 0x00, returndatasize)\n      revert(0x00, returndatasize)\n    tag_73:\n      pop\n      pop\n      pop\n      pop\n      mload(0x40)\n      returndatasize\n      not(0x1f)\n      0x1f\n      dup3\n      add\n      and\n      dup3\n      add\n      dup1\n      0x40\n      mstore\n      pop\n      dup2\n      add\n      swap1\n      tag_74\n      swap2\n      swap1\n      tag_75\n      jump\t// in\n    tag_74:\n        /* \"StakingContract.sol\":9205:9256  bool ok = stakingToken.transfer(msg.sender, amount) */\n      swap1\n      pop\n        /* \"StakingContract.sol\":9274:9276  ok */\n      dup1\n        /* \"StakingContract.sol\":9266:9296  require(ok, \"Transfer failed\") */\n      tag_76\n      jumpi\n      mload(0x40)\n      0x08c379a000000000000000000000000000000000000000000000000000000000\n      dup2\n      mstore\n      0x04\n      add\n      tag_77\n      swap1\n      tag_78\n      jump\t// in\n    tag_77:\n      mload(0x40)\n      dup1\n      swap2\n      sub\n      swap1\n      revert\n    tag_76:\n        /* \"StakingContract.sol\":9321:9331  msg.sender */\n      caller\n        /* \"StakingContract.sol\":9312:9357  Unstaked(msg.sender, amount, block.timestamp) */\n      0xffffffffffffffffffffffffffffffffffffffff\n      and\n      0x7fc4727e062e336010f2c282598ef5f14facb3de68cf8195c2f23e1454b2b74e\n        /* \"StakingContract.sol\":9333:9339  amount */\n      dup5\n        /* \"StakingContract.sol\":9341:9356  block.timestamp */\n      timestamp\n        /* \"StakingContract.sol\":9312:9357  Unstaked(msg.sender, amount, block.timestamp) */\n      mload(0x40)\n      tag_79\n      swap3\n      swap2\n      swap1\n      tag_80\n      jump\t// in\n    tag_79:\n      mload(0x40)\n      dup1\n      swap2\n      sub\n      swap1\n      log2\n        /* \"StakingContract.sol\":8837:9364  {... */\n      pop\n      pop\n        /* \"StakingContract.sol\":8795:9364  function unstake(uint256 amount) external {... */\n      pop\n      jump\t// out\n        /* \"StakingContract.sol\":5870:5907  IERC20  public immutable stakingToken */\n    tag_27:\n      immutable(\"0x747491254fc29a61c3f0f8ca603d468b83f8d0af60d3a86e8b935f39643493bc\")\n      dup2\n      jump\t// out\n        /* \"StakingContract.sol\":6088:6114  uint256 public totalStaked */\n    tag_31:\n      sload(0x01)\n      dup2\n      jump\t// out\n        /* \"StakingContract.sol\":11269:11389  function contractBalance() external view returns (uint256) {... */\n    tag_35:\n        /* \"StakingContract.sol\":11319:11326  uint256 */\n      0x00\n        /* \"StakingContract.sol\":11345:11357  stakingToken */\n      immutable(\"0x747491254fc29a61c3f0f8ca603d468b83f8d0af60d3a86e8b935f39643493bc\")\n        /* \"StakingContract.sol\":11345:11367  stakingToken.balanceOf */\n      0xffffffffffffffffffffffffffffffffffffffff\n      and\n      0x70a08231\n        /* \"StakingContract.sol\":11376:11380  this */\n      address\n        /* \"StakingContract.sol\":11345:11382  stakingToken.balanceOf(address(this)) */\n      mload(0x40)\n      dup3\n      0xffffffff\n      and\n      0xe0\n      shl\n      dup2\n      mstore\n      0x04\n      add\n      tag_82\n      swap2\n      swap1\n      tag_40\n      jump\t// in\n    tag_82:\n      0x20\n      mload(0x40)\n      dup1\n      dup4\n      sub\n      dup2\n      dup7\n      gas\n      staticcall\n      iszero\n      dup1\n      iszero\n      tag_84\n      jumpi\n      returndatacopy(0x00, 0x00, returndatasize)\n      revert(0x00, returndatasize)\n    tag_84:\n      pop\n      pop\n      pop\n      pop\n      mload(0x40)\n      returndatasize\n      not(0x1f)\n      0x1f\n      dup3\n      add\n      and\n      dup3\n      add\n      dup1\n      0x40\n      mstore\n      pop\n      dup2\n      add\n      swap1\n      tag_85\n      swap2\n      swap1\n      tag_86\n      jump\t// in\n    tag_85:\n        /* \"StakingContract.sol\":11338:11382  return stakingToken.balanceOf(address(this)) */\n      swap1\n      pop\n        /* \"StakingContract.sol\":11269:11389  function contractBalance() external view returns (uint256) {... */\n      swap1\n      jump\t// out\n        /* \"StakingContract.sol\":5963:5993  address public           owner */\n    tag_38:\n      0x00\n      0x00\n      swap1\n      sload\n      swap1\n      0x0100\n      exp\n      swap1\n      div\n      0xffffffffffffffffffffffffffffffffffffffff\n      and\n      dup2\n      jump\t// out\n        /* \"StakingContract.sol\":11588:11776  function fundRewards(uint256 amount) external onlyOwner {... */\n    tag_43:\n        /* \"StakingContract.sol\":7296:7301  owner */\n      0x00\n      0x00\n      swap1\n      sload\n      swap1\n      0x0100\n      exp\n      swap1\n      div\n      0xffffffffffffffffffffffffffffffffffffffff\n      and\n        /* \"StakingContract.sol\":7282:7301  msg.sender == owner */\n      0xffffffffffffffffffffffffffffffffffffffff\n      and\n        /* \"StakingContract.sol\":7282:7292  msg.sender */\n      caller\n        /* \"StakingContract.sol\":7282:7301  msg.sender == owner */\n      0xffffffffffffffffffffffffffffffffffffffff\n      and\n      eq\n        /* \"StakingContract.sol\":7274:7315  require(msg.sender == owner, \"Not owner\") */\n      tag_88\n      jumpi\n      mload(0x40)\n      0x08c379a000000000000000000000000000000000000000000000000000000000\n      dup2\n      mstore\n      0x04\n      add\n      tag_89\n      swap1\n      tag_90\n      jump\t// in\n    tag_89:\n      mload(0x40)\n      dup1\n      swap2\n      sub\n      swap1\n      revert\n    tag_88:\n        /* \"StakingContract.sol\":11654:11661  bool ok */\n      0x00\n        /* \"StakingContract.sol\":11664:11676  stakingToken */\n      immutable(\"0x747491254fc29a61c3f0f8ca603d468b83f8d0af60d3a86e8b935f39643493bc\")\n        /* \"StakingContract.sol\":11664:11689  stakingToken.transferFrom */\n      0xffffffffffffffffffffffffffffffffffffffff\n      and\n      0x23b872dd\n        /* \"StakingContract.sol\":11690:11700  msg.sender */\n      caller\n        /* \"StakingContract.sol\":11710:11714  this */\n      address\n        /* \"StakingContract.sol\":11717:11723  amount */\n      dup6\n        /* \"StakingContract.sol\":11664:11724  stakingToken.transferFrom(msg.sender, address(this), amount) */\n      mload(0x40)\n      dup5\n      0xffffffff\n      and\n      0xe0\n      shl\n      dup2\n      mstore\n      0x04\n      add\n      tag_92\n      swap4\n      swap3\n      swap2\n      swap1\n      tag_93\n      jump\t// in\n    tag_92:\n      0x20\n      mload(0x40)\n      dup1\n      dup4\n      sub\n      dup2\n      0x00\n      dup8\n      gas\n      call\n      iszero\n      dup1\n      iszero\n      tag_95\n      jumpi\n      returndatacopy(0x00, 0x00, returndatasize)\n      revert(0x00, returndatasize)\n    tag_95:\n      pop\n      pop\n      pop\n      pop\n      mload(0x40)\n      returndatasize\n      not(0x1f)\n      0x1f\n      dup3\n      add\n      and\n      dup3\n      add\n      dup1\n      0x40\n      mstore\n      pop\n      dup2\n      add\n      swap1\n      tag_96\n      swap2\n      swap1\n      tag_75\n      jump\t// in\n    tag_96:\n        /* \"StakingContract.sol\":11654:11724  bool ok = stakingToken.transferFrom(msg.sender, address(this), amount) */\n      swap1\n      pop\n        /* \"StakingContract.sol\":11742:11744  ok */\n      dup1\n        /* \"StakingContract.sol\":11734:11769  require(ok, \"Fund transfer failed\") */\n      tag_97\n      jumpi\n      mload(0x40)\n      0x08c379a000000000000000000000000000000000000000000000000000000000\n      dup2\n      mstore\n      0x04\n      add\n      tag_98\n      swap1\n      tag_99\n      jump\t// in\n    tag_98:\n      mload(0x40)\n      dup1\n      swap2\n      sub\n      swap1\n      revert\n    tag_97:\n        /* \"StakingContract.sol\":11644:11776  {... */\n      pop\n        /* \"StakingContract.sol\":11588:11776  function fundRewards(uint256 amount) external onlyOwner {... */\n      pop\n      jump\t// out\n        /* \"StakingContract.sol\":8029:8659  function stake(uint256 amount) external {... */\n    tag_46:\n        /* \"StakingContract.sol\":8096:8097  0 */\n      0x00\n        /* \"StakingContract.sol\":8087:8093  amount */\n      dup2\n        /* \"StakingContract.sol\":8087:8097  amount > 0 */\n      gt\n        /* \"StakingContract.sol\":8079:8116  require(amount > 0, \"Cannot stake 0\") */\n      tag_101\n      jumpi\n      mload(0x40)\n      0x08c379a000000000000000000000000000000000000000000000000000000000\n      dup2\n      mstore\n      0x04\n      add\n      tag_102\n      swap1\n      tag_103\n      jump\t// in\n    tag_102:\n      mload(0x40)\n      dup1\n      swap2\n      sub\n      swap1\n      revert\n    tag_101:\n        /* \"StakingContract.sol\":8127:8146  StakeInfo storage s */\n      0x00\n        /* \"StakingContract.sol\":8149:8155  stakes */\n      0x02\n        /* \"StakingContract.sol\":8149:8167  stakes[msg.sender] */\n      0x00\n        /* \"StakingContract.sol\":8156:8166  msg.sender */\n      caller\n        /* \"StakingContract.sol\":8149:8167  stakes[msg.sender] */\n      0xffffffffffffffffffffffffffffffffffffffff\n      and\n      0xffffffffffffffffffffffffffffffffffffffff\n      and\n      dup2\n      mstore\n      0x20\n      add\n      swap1\n      dup2\n      mstore\n      0x20\n      add\n      0x00\n      keccak256\n        /* \"StakingContract.sol\":8127:8167  StakeInfo storage s = stakes[msg.sender] */\n      swap1\n      pop\n        /* \"StakingContract.sol\":8235:8236  0 */\n      0x00\n        /* \"StakingContract.sol\":8224:8225  s */\n      dup2\n        /* \"StakingContract.sol\":8224:8232  s.amount */\n      0x00\n      add\n      sload\n        /* \"StakingContract.sol\":8224:8236  s.amount > 0 */\n      gt\n        /* \"StakingContract.sol\":8220:8305  if (s.amount > 0) {... */\n      iszero\n      tag_104\n      jumpi\n        /* \"StakingContract.sol\":8270:8294  _calcPending(msg.sender) */\n      tag_105\n        /* \"StakingContract.sol\":8283:8293  msg.sender */\n      caller\n        /* \"StakingContract.sol\":8270:8282  _calcPending */\n      tag_66\n        /* \"StakingContract.sol\":8270:8294  _calcPending(msg.sender) */\n      jump\t// in\n    tag_105:\n        /* \"StakingContract.sol\":8252:8253  s */\n      dup2\n        /* \"StakingContract.sol\":8252:8267  s.pendingReward */\n      0x03\n      add\n        /* \"StakingContract.sol\":8252:8294  s.pendingReward = _calcPending(msg.sender) */\n      dup2\n      swap1\n      sstore\n      pop\n        /* \"StakingContract.sol\":8220:8305  if (s.amount > 0) {... */\n    tag_104:\n        /* \"StakingContract.sol\":8380:8387  bool ok */\n      0x00\n        /* \"StakingContract.sol\":8390:8402  stakingToken */\n      immutable(\"0x747491254fc29a61c3f0f8ca603d468b83f8d0af60d3a86e8b935f39643493bc\")\n        /* \"StakingContract.sol\":8390:8415  stakingToken.transferFrom */\n      0xffffffffffffffffffffffffffffffffffffffff\n      and\n      0x23b872dd\n        /* \"StakingContract.sol\":8416:8426  msg.sender */\n      caller\n        /* \"StakingContract.sol\":8436:8440  this */\n      address\n        /* \"StakingContract.sol\":8443:8449  amount */\n      dup7\n        /* \"StakingContract.sol\":8390:8450  stakingToken.transferFrom(msg.sender, address(this), amount) */\n      mload(0x40)\n      dup5\n      0xffffffff\n      and\n      0xe0\n      shl\n      dup2\n      mstore\n      0x04\n      add\n      tag_106\n      swap4\n      swap3\n      swap2\n      swap1\n      tag_93\n      jump\t// in\n    tag_106:\n      0x20\n      mload(0x40)\n      dup1\n      dup4\n      sub\n      dup2\n      0x00\n      dup8\n      gas\n      call\n      iszero\n      dup1\n      iszero\n      tag_108\n      jumpi\n      returndatacopy(0x00, 0x00, returndatasize)\n      revert(0x00, returndatasize)\n    tag_108:\n      pop\n      pop\n      pop\n      pop\n      mload(0x40)\n      returndatasize\n      not(0x1f)\n      0x1f\n      dup3\n      add\n      and\n      dup3\n      add\n      dup1\n      0x40\n      mstore\n      pop\n      dup2\n      add\n      swap1\n      tag_109\n      swap2\n      swap1\n      tag_75\n      jump\t// in\n    tag_109:\n        /* \"StakingContract.sol\":8380:8450  bool ok = stakingToken.transferFrom(msg.sender, address(this), amount) */\n      swap1\n      pop\n        /* \"StakingContract.sol\":8468:8470  ok */\n      dup1\n        /* \"StakingContract.sol\":8460:8490  require(ok, \"Transfer failed\") */\n      tag_110\n      jumpi\n      mload(0x40)\n      0x08c379a000000000000000000000000000000000000000000000000000000000\n      dup2\n      mstore\n      0x04\n      add\n      tag_111\n      swap1\n      tag_78\n      jump\t// in\n    tag_111:\n      mload(0x40)\n      dup1\n      swap2\n      sub\n      swap1\n      revert\n    tag_110:\n        /* \"StakingContract.sol\":8516:8522  amount */\n      dup3\n        /* \"StakingContract.sol\":8501:8502  s */\n      dup3\n        /* \"StakingContract.sol\":8501:8509  s.amount */\n      0x00\n      add\n      0x00\n        /* \"StakingContract.sol\":8501:8522  s.amount    += amount */\n      dup3\n      dup3\n      sload\n      tag_112\n      swap2\n      swap1\n      tag_113\n      jump\t// in\n    tag_112:\n      swap3\n      pop\n      pop\n      dup2\n      swap1\n      sstore\n      pop\n        /* \"StakingContract.sol\":8547:8562  block.timestamp */\n      timestamp\n        /* \"StakingContract.sol\":8532:8533  s */\n      dup3\n        /* \"StakingContract.sol\":8532:8542  s.stakedAt */\n      0x01\n      add\n        /* \"StakingContract.sol\":8532:8562  s.stakedAt   = block.timestamp */\n      dup2\n      swap1\n      sstore\n      pop\n        /* \"StakingContract.sol\":8587:8593  amount */\n      dup3\n        /* \"StakingContract.sol\":8572:8583  totalStaked */\n      0x01\n      0x00\n        /* \"StakingContract.sol\":8572:8593  totalStaked += amount */\n      dup3\n      dup3\n      sload\n      tag_114\n      swap2\n      swap1\n      tag_113\n      jump\t// in\n    tag_114:\n      swap3\n      pop\n      pop\n      dup2\n      swap1\n      sstore\n      pop\n        /* \"StakingContract.sol\":8616:8626  msg.sender */\n      caller\n        /* \"StakingContract.sol\":8609:8652  Staked(msg.sender, amount, block.timestamp) */\n      0xffffffffffffffffffffffffffffffffffffffff\n      and\n      0x1449c6dd7851abc30abf37f57715f492010519147cc2652fbc38202c18a6ee90\n        /* \"StakingContract.sol\":8628:8634  amount */\n      dup5\n        /* \"StakingContract.sol\":8636:8651  block.timestamp */\n      timestamp\n        /* \"StakingContract.sol\":8609:8652  Staked(msg.sender, amount, block.timestamp) */\n      mload(0x40)\n      tag_115\n      swap3\n      swap2\n      swap1\n      tag_80\n      jump\t// in\n    tag_115:\n      mload(0x40)\n      dup1\n      swap2\n      sub\n      swap1\n      log2\n        /* \"StakingContract.sol\":8069:8659  {... */\n      pop\n      pop\n        /* \"StakingContract.sol\":8029:8659  function stake(uint256 amount) external {... */\n      pop\n      jump\t// out\n        /* \"StakingContract.sol\":9492:10057  function claimReward() external {... */\n    tag_48:\n        /* \"StakingContract.sol\":9534:9553  StakeInfo storage s */\n      0x00\n        /* \"StakingContract.sol\":9556:9562  stakes */\n      0x02\n        /* \"StakingContract.sol\":9556:9574  stakes[msg.sender] */\n      0x00\n        /* \"StakingContract.sol\":9563:9573  msg.sender */\n      caller\n        /* \"StakingContract.sol\":9556:9574  stakes[msg.sender] */\n      0xffffffffffffffffffffffffffffffffffffffff\n      and\n      0xffffffffffffffffffffffffffffffffffffffff\n      and\n      dup2\n      mstore\n      0x20\n      add\n      swap1\n      dup2\n      mstore\n      0x20\n      add\n      0x00\n      keccak256\n        /* \"StakingContract.sol\":9534:9574  StakeInfo storage s = stakes[msg.sender] */\n      swap1\n      pop\n        /* \"StakingContract.sol\":9584:9598  uint256 reward */\n      0x00\n        /* \"StakingContract.sol\":9601:9625  _calcPending(msg.sender) */\n      tag_117\n        /* \"StakingContract.sol\":9614:9624  msg.sender */\n      caller\n        /* \"StakingContract.sol\":9601:9613  _calcPending */\n      tag_66\n        /* \"StakingContract.sol\":9601:9625  _calcPending(msg.sender) */\n      jump\t// in\n    tag_117:\n        /* \"StakingContract.sol\":9584:9625  uint256 reward = _calcPending(msg.sender) */\n      swap1\n      pop\n        /* \"StakingContract.sol\":9652:9653  0 */\n      0x00\n        /* \"StakingContract.sol\":9643:9649  reward */\n      dup2\n        /* \"StakingContract.sol\":9643:9653  reward > 0 */\n      gt\n        /* \"StakingContract.sol\":9635:9676  require(reward > 0, \"No reward to claim\") */\n      tag_118\n      jumpi\n      mload(0x40)\n      0x08c379a000000000000000000000000000000000000000000000000000000000\n      dup2\n      mstore\n      0x04\n      add\n      tag_119\n      swap1\n      tag_120\n      jump\t// in\n    tag_119:\n      mload(0x40)\n      dup1\n      swap2\n      sub\n      swap1\n      revert\n    tag_118:\n        /* \"StakingContract.sol\":9705:9706  0 */\n      0x00\n        /* \"StakingContract.sol\":9687:9688  s */\n      dup3\n        /* \"StakingContract.sol\":9687:9702  s.pendingReward */\n      0x03\n      add\n        /* \"StakingContract.sol\":9687:9706  s.pendingReward = 0 */\n      dup2\n      swap1\n      sstore\n      pop\n        /* \"StakingContract.sol\":9734:9749  block.timestamp */\n      timestamp\n        /* \"StakingContract.sol\":9716:9717  s */\n      dup3\n        /* \"StakingContract.sol\":9716:9726  s.stakedAt */\n      0x01\n      add\n        /* \"StakingContract.sol\":9716:9749  s.stakedAt      = block.timestamp */\n      dup2\n      swap1\n      sstore\n      pop\n        /* \"StakingContract.sol\":9798:9804  reward */\n      dup1\n        /* \"StakingContract.sol\":9780:9781  s */\n      dup3\n        /* \"StakingContract.sol\":9780:9792  s.rewardDebt */\n      0x02\n      add\n      0x00\n        /* \"StakingContract.sol\":9780:9804  s.rewardDebt   += reward */\n      dup3\n      dup3\n      sload\n      tag_121\n      swap2\n      swap1\n      tag_113\n      jump\t// in\n    tag_121:\n      swap3\n      pop\n      pop\n      dup2\n      swap1\n      sstore\n      pop\n        /* \"StakingContract.sol\":9886:9893  bool ok */\n      0x00\n        /* \"StakingContract.sol\":9896:9908  stakingToken */\n      immutable(\"0x747491254fc29a61c3f0f8ca603d468b83f8d0af60d3a86e8b935f39643493bc\")\n        /* \"StakingContract.sol\":9896:9917  stakingToken.transfer */\n      0xffffffffffffffffffffffffffffffffffffffff\n      and\n      0xa9059cbb\n        /* \"StakingContract.sol\":9918:9928  msg.sender */\n      caller\n        /* \"StakingContract.sol\":9930:9936  reward */\n      dup5\n        /* \"StakingContract.sol\":9896:9937  stakingToken.transfer(msg.sender, reward) */\n      mload(0x40)\n      dup4\n      0xffffffff\n      and\n      0xe0\n      shl\n      dup2\n      mstore\n      0x04\n      add\n      tag_122\n      swap3\n      swap2\n      swap1\n      tag_71\n      jump\t// in\n    tag_122:\n      0x20\n      mload(0x40)\n      dup1\n      dup4\n      sub\n      dup2\n      0x00\n      dup8\n      gas\n      call\n      iszero\n      dup1\n      iszero\n      tag_124\n      jumpi\n      returndatacopy(0x00, 0x00, returndatasize)\n      revert(0x00, returndatasize)\n    tag_124:\n      pop\n      pop\n      pop\n      pop\n      mload(0x40)\n      returndatasize\n      not(0x1f)\n      0x1f\n      dup3\n      add\n      and\n      dup3\n      add\n      dup1\n      0x40\n      mstore\n      pop\n      dup2\n      add\n      swap1\n      tag_125\n      swap2\n      swap1\n      tag_75\n      jump\t// in\n    tag_125:\n        /* \"StakingContract.sol\":9886:9937  bool ok = stakingToken.transfer(msg.sender, reward) */\n      swap1\n      pop\n        /* \"StakingContract.sol\":9955:9957  ok */\n      dup1\n        /* \"StakingContract.sol\":9947:9984  require(ok, \"Reward transfer failed\") */\n      tag_126\n      jumpi\n      mload(0x40)\n      0x08c379a000000000000000000000000000000000000000000000000000000000\n      dup2\n      mstore\n      0x04\n      add\n      tag_127\n      swap1\n      tag_128\n      jump\t// in\n    tag_127:\n      mload(0x40)\n      dup1\n      swap2\n      sub\n      swap1\n      revert\n    tag_126:\n        /* \"StakingContract.sol\":10014:10024  msg.sender */\n      caller\n        /* \"StakingContract.sol\":10000:10050  RewardClaimed(msg.sender, reward, block.timestamp) */\n      0xffffffffffffffffffffffffffffffffffffffff\n      and\n      0xf01da32686223933d8a18a391060918c7f11a3648639edd87ae013e2e2731743\n        /* \"StakingContract.sol\":10026:10032  reward */\n      dup4\n        /* \"StakingContract.sol\":10034:10049  block.timestamp */\n      timestamp\n        /* \"StakingContract.sol\":10000:10050  RewardClaimed(msg.sender, reward, block.timestamp) */\n      mload(0x40)\n      tag_129\n      swap3\n      swap2\n      swap1\n      tag_80\n      jump\t// in\n    tag_129:\n      mload(0x40)\n      dup1\n      swap2\n      sub\n      swap1\n      log2\n        /* \"StakingContract.sol\":9524:10057  {... */\n      pop\n      pop\n      pop\n        /* \"StakingContract.sol\":9492:10057  function claimReward() external {... */\n      jump\t// out\n        /* \"StakingContract.sol\":10827:11198  function getStakeInfo(address user) external view returns (... */\n    tag_51:\n        /* \"StakingContract.sol\":10895:10915  uint256 stakedAmount */\n      0x00\n        /* \"StakingContract.sol\":10925:10946  uint256 pendingReward */\n      0x00\n        /* \"StakingContract.sol\":10956:10975  uint256 stakedSince */\n      0x00\n        /* \"StakingContract.sol\":10985:11010  uint256 totalRewardEarned */\n      0x00\n        /* \"StakingContract.sol\":11027:11045  StakeInfo memory s */\n      0x00\n        /* \"StakingContract.sol\":11048:11054  stakes */\n      0x02\n        /* \"StakingContract.sol\":11048:11060  stakes[user] */\n      0x00\n        /* \"StakingContract.sol\":11055:11059  user */\n      dup8\n        /* \"StakingContract.sol\":11048:11060  stakes[user] */\n      0xffffffffffffffffffffffffffffffffffffffff\n      and\n      0xffffffffffffffffffffffffffffffffffffffff\n      and\n      dup2\n      mstore\n      0x20\n      add\n      swap1\n      dup2\n      mstore\n      0x20\n      add\n      0x00\n      keccak256\n        /* \"StakingContract.sol\":11027:11060  StakeInfo memory s = stakes[user] */\n      mload(0x40)\n      dup1\n      0x80\n      add\n      0x40\n      mstore\n      swap1\n      dup2\n      0x00\n      dup3\n      add\n      sload\n      dup2\n      mstore\n      0x20\n      add\n      0x01\n      dup3\n      add\n      sload\n      dup2\n      mstore\n      0x20\n      add\n      0x02\n      dup3\n      add\n      sload\n      dup2\n      mstore\n      0x20\n      add\n      0x03\n      dup3\n      add\n      sload\n      dup2\n      mstore\n      pop\n      pop\n      swap1\n      pop\n        /* \"StakingContract.sol\":11091:11092  s */\n      dup1\n        /* \"StakingContract.sol\":11091:11099  s.amount */\n      0x00\n      add\n      mload\n        /* \"StakingContract.sol\":11113:11131  _calcPending(user) */\n      tag_131\n        /* \"StakingContract.sol\":11126:11130  user */\n      dup8\n        /* \"StakingContract.sol\":11113:11125  _calcPending */\n      tag_66\n        /* \"StakingContract.sol\":11113:11131  _calcPending(user) */\n      jump\t// in\n    tag_131:\n        /* \"StakingContract.sol\":11145:11146  s */\n      dup3\n        /* \"StakingContract.sol\":11145:11155  s.stakedAt */\n      0x20\n      add\n      mload\n        /* \"StakingContract.sol\":11169:11170  s */\n      dup4\n        /* \"StakingContract.sol\":11169:11181  s.rewardDebt */\n      0x40\n      add\n      mload\n        /* \"StakingContract.sol\":11070:11191  return (... */\n      swap5\n      pop\n      swap5\n      pop\n      swap5\n      pop\n      swap5\n      pop\n      pop\n        /* \"StakingContract.sol\":10827:11198  function getStakeInfo(address user) external view returns (... */\n      swap2\n      swap4\n      pop\n      swap2\n      swap4\n      jump\t// out\n        /* \"StakingContract.sol\":6000:6053  uint256 public constant REWARD_RATE_PER_SECOND = 1e12 */\n    tag_54:\n        /* \"StakingContract.sol\":6049:6053  1e12 */\n      0xe8d4a51000\n        /* \"StakingContract.sol\":6000:6053  uint256 public constant REWARD_RATE_PER_SECOND = 1e12 */\n      dup2\n      jump\t// out\n        /* \"StakingContract.sol\":10142:10613  function emergencyWithdraw() external {... */\n    tag_57:\n        /* \"StakingContract.sol\":10190:10209  StakeInfo storage s */\n      0x00\n        /* \"StakingContract.sol\":10212:10218  stakes */\n      0x02\n        /* \"StakingContract.sol\":10212:10230  stakes[msg.sender] */\n      0x00\n        /* \"StakingContract.sol\":10219:10229  msg.sender */\n      caller\n        /* \"StakingContract.sol\":10212:10230  stakes[msg.sender] */\n      0xffffffffffffffffffffffffffffffffffffffff\n      and\n      0xffffffffffffffffffffffffffffffffffffffff\n      and\n      dup2\n      mstore\n      0x20\n      add\n      swap1\n      dup2\n      mstore\n      0x20\n      add\n      0x00\n      keccak256\n        /* \"StakingContract.sol\":10190:10230  StakeInfo storage s = stakes[msg.sender] */\n      swap1\n      pop\n        /* \"StakingContract.sol\":10240:10254  uint256 amount */\n      0x00\n        /* \"StakingContract.sol\":10257:10258  s */\n      dup2\n        /* \"StakingContract.sol\":10257:10265  s.amount */\n      0x00\n      add\n      sload\n        /* \"StakingContract.sol\":10240:10265  uint256 amount = s.amount */\n      swap1\n      pop\n        /* \"StakingContract.sol\":10292:10293  0 */\n      0x00\n        /* \"StakingContract.sol\":10283:10289  amount */\n      dup2\n        /* \"StakingContract.sol\":10283:10293  amount > 0 */\n      gt\n        /* \"StakingContract.sol\":10275:10312  require(amount > 0, \"Nothing staked\") */\n      tag_133\n      jumpi\n      mload(0x40)\n      0x08c379a000000000000000000000000000000000000000000000000000000000\n      dup2\n      mstore\n      0x04\n      add\n      tag_134\n      swap1\n      tag_135\n      jump\t// in\n    tag_134:\n      mload(0x40)\n      dup1\n      swap2\n      sub\n      swap1\n      revert\n    tag_133:\n        /* \"StakingContract.sol\":10341:10347  amount */\n      dup1\n        /* \"StakingContract.sol\":10323:10334  totalStaked */\n      0x01\n      0x00\n        /* \"StakingContract.sol\":10323:10347  totalStaked    -= amount */\n      dup3\n      dup3\n      sload\n      tag_136\n      swap2\n      swap1\n      tag_68\n      jump\t// in\n    tag_136:\n      swap3\n      pop\n      pop\n      dup2\n      swap1\n      sstore\n      pop\n        /* \"StakingContract.sol\":10375:10376  0 */\n      0x00\n        /* \"StakingContract.sol\":10357:10358  s */\n      dup3\n        /* \"StakingContract.sol\":10357:10365  s.amount */\n      0x00\n      add\n        /* \"StakingContract.sol\":10357:10376  s.amount        = 0 */\n      dup2\n      swap1\n      sstore\n      pop\n        /* \"StakingContract.sol\":10404:10405  0 */\n      0x00\n        /* \"StakingContract.sol\":10386:10387  s */\n      dup3\n        /* \"StakingContract.sol\":10386:10401  s.pendingReward */\n      0x03\n      add\n        /* \"StakingContract.sol\":10386:10405  s.pendingReward = 0 */\n      dup2\n      swap1\n      sstore\n      pop\n        /* \"StakingContract.sol\":10433:10434  0 */\n      0x00\n        /* \"StakingContract.sol\":10415:10416  s */\n      dup3\n        /* \"StakingContract.sol\":10415:10425  s.stakedAt */\n      0x01\n      add\n        /* \"StakingContract.sol\":10415:10434  s.stakedAt      = 0 */\n      dup2\n      swap1\n      sstore\n      pop\n        /* \"StakingContract.sol\":10445:10452  bool ok */\n      0x00\n        /* \"StakingContract.sol\":10455:10467  stakingToken */\n      immutable(\"0x747491254fc29a61c3f0f8ca603d468b83f8d0af60d3a86e8b935f39643493bc\")\n        /* \"StakingContract.sol\":10455:10476  stakingToken.transfer */\n      0xffffffffffffffffffffffffffffffffffffffff\n      and\n      0xa9059cbb\n        /* \"StakingContract.sol\":10477:10487  msg.sender */\n      caller\n        /* \"StakingContract.sol\":10489:10495  amount */\n      dup5\n        /* \"StakingContract.sol\":10455:10496  stakingToken.transfer(msg.sender, amount) */\n      mload(0x40)\n      dup4\n      0xffffffff\n      and\n      0xe0\n      shl\n      dup2\n      mstore\n      0x04\n      add\n      tag_137\n      swap3\n      swap2\n      swap1\n      tag_71\n      jump\t// in\n    tag_137:\n      0x20\n      mload(0x40)\n      dup1\n      dup4\n      sub\n      dup2\n      0x00\n      dup8\n      gas\n      call\n      iszero\n      dup1\n      iszero\n      tag_139\n      jumpi\n      returndatacopy(0x00, 0x00, returndatasize)\n      revert(0x00, returndatasize)\n    tag_139:\n      pop\n      pop\n      pop\n      pop\n      mload(0x40)\n      returndatasize\n      not(0x1f)\n      0x1f\n      dup3\n      add\n      and\n      dup3\n      add\n      dup1\n      0x40\n      mstore\n      pop\n      dup2\n      add\n      swap1\n      tag_140\n      swap2\n      swap1\n      tag_75\n      jump\t// in\n    tag_140:\n        /* \"StakingContract.sol\":10445:10496  bool ok = stakingToken.transfer(msg.sender, amount) */\n      swap1\n      pop\n        /* \"StakingContract.sol\":10514:10516  ok */\n      dup1\n        /* \"StakingContract.sol\":10506:10536  require(ok, \"Transfer failed\") */\n      tag_141\n      jumpi\n      mload(0x40)\n      0x08c379a000000000000000000000000000000000000000000000000000000000\n      dup2\n      mstore\n      0x04\n      add\n      tag_142\n      swap1\n      tag_78\n      jump\t// in\n    tag_142:\n      mload(0x40)\n      dup1\n      swap2\n      sub\n      swap1\n      revert\n    tag_141:\n        /* \"StakingContract.sol\":10570:10580  msg.sender */\n      caller\n        /* \"StakingContract.sol\":10552:10606  EmergencyWithdraw(msg.sender, amount, block.timestamp) */\n      0xffffffffffffffffffffffffffffffffffffffff\n      and\n      0xbb757047c2b5f3974fe26b7c10f732e7bce710b0952a71082702781e62ae0595\n        /* \"StakingContract.sol\":10582:10588  amount */\n      dup4\n        /* \"StakingContract.sol\":10590:10605  block.timestamp */\n      timestamp\n        /* \"StakingContract.sol\":10552:10606  EmergencyWithdraw(msg.sender, amount, block.timestamp) */\n      mload(0x40)\n      tag_143\n      swap3\n      swap2\n      swap1\n      tag_80\n      jump\t// in\n    tag_143:\n      mload(0x40)\n      dup1\n      swap2\n      sub\n      swap1\n      log2\n        /* \"StakingContract.sol\":10180:10613  {... */\n      pop\n      pop\n      pop\n        /* \"StakingContract.sol\":10142:10613  function emergencyWithdraw() external {... */\n      jump\t// out\n        /* \"StakingContract.sol\":7462:7809  function _calcPending(address user) internal view returns (uint256) {... */\n    tag_66:\n        /* \"StakingContract.sol\":7521:7528  uint256 */\n      0x00\n        /* \"StakingContract.sol\":7540:7558  StakeInfo memory s */\n      0x00\n        /* \"StakingContract.sol\":7561:7567  stakes */\n      0x02\n        /* \"StakingContract.sol\":7561:7573  stakes[user] */\n      0x00\n        /* \"StakingContract.sol\":7568:7572  user */\n      dup5\n        /* \"StakingContract.sol\":7561:7573  stakes[user] */\n      0xffffffffffffffffffffffffffffffffffffffff\n      and\n      0xffffffffffffffffffffffffffffffffffffffff\n      and\n      dup2\n      mstore\n      0x20\n      add\n      swap1\n      dup2\n      mstore\n      0x20\n      add\n      0x00\n      keccak256\n        /* \"StakingContract.sol\":7540:7573  StakeInfo memory s = stakes[user] */\n      mload(0x40)\n      dup1\n      0x80\n      add\n      0x40\n      mstore\n      swap1\n      dup2\n      0x00\n      dup3\n      add\n      sload\n      dup2\n      mstore\n      0x20\n      add\n      0x01\n      dup3\n      add\n      sload\n      dup2\n      mstore\n      0x20\n      add\n      0x02\n      dup3\n      add\n      sload\n      dup2\n      mstore\n      0x20\n      add\n      0x03\n      dup3\n      add\n      sload\n      dup2\n      mstore\n      pop\n      pop\n      swap1\n      pop\n        /* \"StakingContract.sol\":7599:7600  0 */\n      0x00\n        /* \"StakingContract.sol\":7587:7588  s */\n      dup2\n        /* \"StakingContract.sol\":7587:7595  s.amount */\n      0x00\n      add\n      mload\n        /* \"StakingContract.sol\":7587:7600  s.amount == 0 */\n      sub\n        /* \"StakingContract.sol\":7583:7624  if (s.amount == 0) return s.pendingReward */\n      tag_145\n      jumpi\n        /* \"StakingContract.sol\":7609:7610  s */\n      dup1\n        /* \"StakingContract.sol\":7609:7624  s.pendingReward */\n      0x60\n      add\n      mload\n        /* \"StakingContract.sol\":7602:7624  return s.pendingReward */\n      swap2\n      pop\n      pop\n      jump(tag_144)\n        /* \"StakingContract.sol\":7583:7624  if (s.amount == 0) return s.pendingReward */\n    tag_145:\n        /* \"StakingContract.sol\":7635:7650  uint256 elapsed */\n      0x00\n        /* \"StakingContract.sol\":7671:7672  s */\n      dup2\n        /* \"StakingContract.sol\":7671:7681  s.stakedAt */\n      0x20\n      add\n      mload\n        /* \"StakingContract.sol\":7653:7668  block.timestamp */\n      timestamp\n        /* \"StakingContract.sol\":7653:7681  block.timestamp - s.stakedAt */\n      tag_146\n      swap2\n      swap1\n      tag_68\n      jump\t// in\n    tag_146:\n        /* \"StakingContract.sol\":7635:7681  uint256 elapsed = block.timestamp - s.stakedAt */\n      swap1\n      pop\n        /* \"StakingContract.sol\":7691:7705  uint256 earned */\n      0x00\n        /* \"StakingContract.sol\":7757:7761  1e18 */\n      0x0de0b6b3a7640000\n        /* \"StakingContract.sol\":6049:6053  1e12 */\n      0xe8d4a51000\n        /* \"StakingContract.sol\":7721:7728  elapsed */\n      dup4\n        /* \"StakingContract.sol\":7710:7711  s */\n      dup6\n        /* \"StakingContract.sol\":7710:7718  s.amount */\n      0x00\n      add\n      mload\n        /* \"StakingContract.sol\":7710:7728  s.amount * elapsed */\n      tag_147\n      swap2\n      swap1\n      tag_148\n      jump\t// in\n    tag_147:\n        /* \"StakingContract.sol\":7710:7753  s.amount * elapsed * REWARD_RATE_PER_SECOND */\n      tag_149\n      swap2\n      swap1\n      tag_148\n      jump\t// in\n    tag_149:\n        /* \"StakingContract.sol\":7709:7761  (s.amount * elapsed * REWARD_RATE_PER_SECOND) / 1e18 */\n      tag_150\n      swap2\n      swap1\n      tag_151\n      jump\t// in\n    tag_150:\n        /* \"StakingContract.sol\":7691:7761  uint256 earned  = (s.amount * elapsed * REWARD_RATE_PER_SECOND) / 1e18 */\n      swap1\n      pop\n        /* \"StakingContract.sol\":7796:7802  earned */\n      dup1\n        /* \"StakingContract.sol\":7778:7779  s */\n      dup4\n        /* \"StakingContract.sol\":7778:7793  s.pendingReward */\n      0x60\n      add\n      mload\n        /* \"StakingContract.sol\":7778:7802  s.pendingReward + earned */\n      tag_152\n      swap2\n      swap1\n      tag_113\n      jump\t// in\n    tag_152:\n        /* \"StakingContract.sol\":7771:7802  return s.pendingReward + earned */\n      swap4\n      pop\n      pop\n      pop\n      pop\n        /* \"StakingContract.sol\":7462:7809  function _calcPending(address user) internal view returns (uint256) {... */\n    tag_144:\n      swap2\n      swap1\n      pop\n      jump\t// out\n        /* \"#utility.yul\":88:205   */\n    tag_154:\n        /* \"#utility.yul\":197:198   */\n      0x00\n        /* \"#utility.yul\":194:195   */\n      0x00\n        /* \"#utility.yul\":187:199   */\n      revert\n        /* \"#utility.yul\":334:460   */\n    tag_156:\n        /* \"#utility.yul\":371:378   */\n      0x00\n        /* \"#utility.yul\":411:453   */\n      0xffffffffffffffffffffffffffffffffffffffff\n        /* \"#utility.yul\":404:409   */\n      dup3\n        /* \"#utility.yul\":400:454   */\n      and\n        /* \"#utility.yul\":389:454   */\n      swap1\n      pop\n        /* \"#utility.yul\":334:460   */\n      swap2\n      swap1\n      pop\n      jump\t// out\n        /* \"#utility.yul\":466:562   */\n    tag_157:\n        /* \"#utility.yul\":503:510   */\n      0x00\n        /* \"#utility.yul\":532:556   */\n      tag_201\n        /* \"#utility.yul\":550:555   */\n      dup3\n        /* \"#utility.yul\":532:556   */\n      tag_156\n      jump\t// in\n    tag_201:\n        /* \"#utility.yul\":521:556   */\n      swap1\n      pop\n        /* \"#utility.yul\":466:562   */\n      swap2\n      swap1\n      pop\n      jump\t// out\n        /* \"#utility.yul\":568:690   */\n    tag_158:\n        /* \"#utility.yul\":641:665   */\n      tag_203\n        /* \"#utility.yul\":659:664   */\n      dup2\n        /* \"#utility.yul\":641:665   */\n      tag_157\n      jump\t// in\n    tag_203:\n        /* \"#utility.yul\":634:639   */\n      dup2\n        /* \"#utility.yul\":631:666   */\n      eq\n        /* \"#utility.yul\":621:684   */\n      tag_204\n      jumpi\n        /* \"#utility.yul\":680:681   */\n      0x00\n        /* \"#utility.yul\":677:678   */\n      0x00\n        /* \"#utility.yul\":670:682   */\n      revert\n        /* \"#utility.yul\":621:684   */\n    tag_204:\n        /* \"#utility.yul\":568:690   */\n      pop\n      jump\t// out\n        /* \"#utility.yul\":696:835   */\n    tag_159:\n        /* \"#utility.yul\":742:747   */\n      0x00\n        /* \"#utility.yul\":780:786   */\n      dup2\n        /* \"#utility.yul\":767:787   */\n      calldataload\n        /* \"#utility.yul\":758:787   */\n      swap1\n      pop\n        /* \"#utility.yul\":796:829   */\n      tag_206\n        /* \"#utility.yul\":823:828   */\n      dup2\n        /* \"#utility.yul\":796:829   */\n      tag_158\n      jump\t// in\n    tag_206:\n        /* \"#utility.yul\":696:835   */\n      swap3\n      swap2\n      pop\n      pop\n      jump\t// out\n        /* \"#utility.yul\":841:1170   */\n    tag_18:\n        /* \"#utility.yul\":900:906   */\n      0x00\n        /* \"#utility.yul\":949:951   */\n      0x20\n        /* \"#utility.yul\":937:946   */\n      dup3\n        /* \"#utility.yul\":928:935   */\n      dup5\n        /* \"#utility.yul\":924:947   */\n      sub\n        /* \"#utility.yul\":920:952   */\n      slt\n        /* \"#utility.yul\":917:1036   */\n      iszero\n      tag_208\n      jumpi\n        /* \"#utility.yul\":955:1034   */\n      tag_209\n      tag_154\n      jump\t// in\n    tag_209:\n        /* \"#utility.yul\":917:1036   */\n    tag_208:\n        /* \"#utility.yul\":1075:1076   */\n      0x00\n        /* \"#utility.yul\":1100:1153   */\n      tag_210\n        /* \"#utility.yul\":1145:1152   */\n      dup5\n        /* \"#utility.yul\":1136:1142   */\n      dup3\n        /* \"#utility.yul\":1125:1134   */\n      dup6\n        /* \"#utility.yul\":1121:1143   */\n      add\n        /* \"#utility.yul\":1100:1153   */\n      tag_159\n      jump\t// in\n    tag_210:\n        /* \"#utility.yul\":1090:1153   */\n      swap2\n      pop\n        /* \"#utility.yul\":1046:1163   */\n      pop\n        /* \"#utility.yul\":841:1170   */\n      swap3\n      swap2\n      pop\n      pop\n      jump\t// out\n        /* \"#utility.yul\":1176:1253   */\n    tag_160:\n        /* \"#utility.yul\":1213:1220   */\n      0x00\n        /* \"#utility.yul\":1242:1247   */\n      dup2\n        /* \"#utility.yul\":1231:1247   */\n      swap1\n      pop\n        /* \"#utility.yul\":1176:1253   */\n      swap2\n      swap1\n      pop\n      jump\t// out\n        /* \"#utility.yul\":1259:1377   */\n    tag_161:\n        /* \"#utility.yul\":1346:1370   */\n      tag_213\n        /* \"#utility.yul\":1364:1369   */\n      dup2\n        /* \"#utility.yul\":1346:1370   */\n      tag_160\n      jump\t// in\n    tag_213:\n        /* \"#utility.yul\":1341:1344   */\n      dup3\n        /* \"#utility.yul\":1334:1371   */\n      mstore\n        /* \"#utility.yul\":1259:1377   */\n      pop\n      pop\n      jump\t// out\n        /* \"#utility.yul\":1383:1936   */\n    tag_21:\n        /* \"#utility.yul\":1560:1564   */\n      0x00\n        /* \"#utility.yul\":1598:1601   */\n      0x80\n        /* \"#utility.yul\":1587:1596   */\n      dup3\n        /* \"#utility.yul\":1583:1602   */\n      add\n        /* \"#utility.yul\":1575:1602   */\n      swap1\n      pop\n        /* \"#utility.yul\":1612:1683   */\n      tag_215\n        /* \"#utility.yul\":1680:1681   */\n      0x00\n        /* \"#utility.yul\":1669:1678   */\n      dup4\n        /* \"#utility.yul\":1665:1682   */\n      add\n        /* \"#utility.yul\":1656:1662   */\n      dup8\n        /* \"#utility.yul\":1612:1683   */\n      tag_161\n      jump\t// in\n    tag_215:\n        /* \"#utility.yul\":1693:1765   */\n      tag_216\n        /* \"#utility.yul\":1761:1763   */\n      0x20\n        /* \"#utility.yul\":1750:1759   */\n      dup4\n        /* \"#utility.yul\":1746:1764   */\n      add\n        /* \"#utility.yul\":1737:1743   */\n      dup7\n        /* \"#utility.yul\":1693:1765   */\n      tag_161\n      jump\t// in\n    tag_216:\n        /* \"#utility.yul\":1775:1847   */\n      tag_217\n        /* \"#utility.yul\":1843:1845   */\n      0x40\n        /* \"#utility.yul\":1832:1841   */\n      dup4\n        /* \"#utility.yul\":1828:1846   */\n      add\n        /* \"#utility.yul\":1819:1825   */\n      dup6\n        /* \"#utility.yul\":1775:1847   */\n      tag_161\n      jump\t// in\n    tag_217:\n        /* \"#utility.yul\":1857:1929   */\n      tag_218\n        /* \"#utility.yul\":1925:1927   */\n      0x60\n        /* \"#utility.yul\":1914:1923   */\n      dup4\n        /* \"#utility.yul\":1910:1928   */\n      add\n        /* \"#utility.yul\":1901:1907   */\n      dup5\n        /* \"#utility.yul\":1857:1929   */\n      tag_161\n      jump\t// in\n    tag_218:\n        /* \"#utility.yul\":1383:1936   */\n      swap6\n      swap5\n      pop\n      pop\n      pop\n      pop\n      pop\n      jump\t// out\n        /* \"#utility.yul\":1942:2064   */\n    tag_162:\n        /* \"#utility.yul\":2015:2039   */\n      tag_220\n        /* \"#utility.yul\":2033:2038   */\n      dup2\n        /* \"#utility.yul\":2015:2039   */\n      tag_160\n      jump\t// in\n    tag_220:\n        /* \"#utility.yul\":2008:2013   */\n      dup2\n        /* \"#utility.yul\":2005:2040   */\n      eq\n        /* \"#utility.yul\":1995:2058   */\n      tag_221\n      jumpi\n        /* \"#utility.yul\":2054:2055   */\n      0x00\n        /* \"#utility.yul\":2051:2052   */\n      0x00\n        /* \"#utility.yul\":2044:2056   */\n      revert\n        /* \"#utility.yul\":1995:2058   */\n    tag_221:\n        /* \"#utility.yul\":1942:2064   */\n      pop\n      jump\t// out\n        /* \"#utility.yul\":2070:2209   */\n    tag_163:\n        /* \"#utility.yul\":2116:2121   */\n      0x00\n        /* \"#utility.yul\":2154:2160   */\n      dup2\n        /* \"#utility.yul\":2141:2161   */\n      calldataload\n        /* \"#utility.yul\":2132:2161   */\n      swap1\n      pop\n        /* \"#utility.yul\":2170:2203   */\n      tag_223\n        /* \"#utility.yul\":2197:2202   */\n      dup2\n        /* \"#utility.yul\":2170:2203   */\n      tag_162\n      jump\t// in\n    tag_223:\n        /* \"#utility.yul\":2070:2209   */\n      swap3\n      swap2\n      pop\n      pop\n      jump\t// out\n        /* \"#utility.yul\":2215:2544   */\n    tag_24:\n        /* \"#utility.yul\":2274:2280   */\n      0x00\n        /* \"#utility.yul\":2323:2325   */\n      0x20\n        /* \"#utility.yul\":2311:2320   */\n      dup3\n        /* \"#utility.yul\":2302:2309   */\n      dup5\n        /* \"#utility.yul\":2298:2321   */\n      sub\n        /* \"#utility.yul\":2294:2326   */\n      slt\n        /* \"#utility.yul\":2291:2410   */\n      iszero\n      tag_225\n      jumpi\n        /* \"#utility.yul\":2329:2408   */\n      tag_226\n      tag_154\n      jump\t// in\n    tag_226:\n        /* \"#utility.yul\":2291:2410   */\n    tag_225:\n        /* \"#utility.yul\":2449:2450   */\n      0x00\n        /* \"#utility.yul\":2474:2527   */\n      tag_227\n        /* \"#utility.yul\":2519:2526   */\n      dup5\n        /* \"#utility.yul\":2510:2516   */\n      dup3\n        /* \"#utility.yul\":2499:2508   */\n      dup6\n        /* \"#utility.yul\":2495:2517   */\n      add\n        /* \"#utility.yul\":2474:2527   */\n      tag_163\n      jump\t// in\n    tag_227:\n        /* \"#utility.yul\":2464:2527   */\n      swap2\n      pop\n        /* \"#utility.yul\":2420:2537   */\n      pop\n        /* \"#utility.yul\":2215:2544   */\n      swap3\n      swap2\n      pop\n      pop\n      jump\t// out\n        /* \"#utility.yul\":2550:2610   */\n    tag_164:\n        /* \"#utility.yul\":2578:2581   */\n      0x00\n        /* \"#utility.yul\":2599:2604   */\n      dup2\n        /* \"#utility.yul\":2592:2604   */\n      swap1\n      pop\n        /* \"#utility.yul\":2550:2610   */\n      swap2\n      swap1\n      pop\n      jump\t// out\n        /* \"#utility.yul\":2616:2758   */\n    tag_165:\n        /* \"#utility.yul\":2666:2675   */\n      0x00\n        /* \"#utility.yul\":2699:2752   */\n      tag_230\n        /* \"#utility.yul\":2717:2751   */\n      tag_231\n        /* \"#utility.yul\":2726:2750   */\n      tag_232\n        /* \"#utility.yul\":2744:2749   */\n      dup5\n        /* \"#utility.yul\":2726:2750   */\n      tag_156\n      jump\t// in\n    tag_232:\n        /* \"#utility.yul\":2717:2751   */\n      tag_164\n      jump\t// in\n    tag_231:\n        /* \"#utility.yul\":2699:2752   */\n      tag_156\n      jump\t// in\n    tag_230:\n        /* \"#utility.yul\":2686:2752   */\n      swap1\n      pop\n        /* \"#utility.yul\":2616:2758   */\n      swap2\n      swap1\n      pop\n      jump\t// out\n        /* \"#utility.yul\":2764:2890   */\n    tag_166:\n        /* \"#utility.yul\":2814:2823   */\n      0x00\n        /* \"#utility.yul\":2847:2884   */\n      tag_234\n        /* \"#utility.yul\":2878:2883   */\n      dup3\n        /* \"#utility.yul\":2847:2884   */\n      tag_165\n      jump\t// in\n    tag_234:\n        /* \"#utility.yul\":2834:2884   */\n      swap1\n      pop\n        /* \"#utility.yul\":2764:2890   */\n      swap2\n      swap1\n      pop\n      jump\t// out\n        /* \"#utility.yul\":2896:3035   */\n    tag_167:\n        /* \"#utility.yul\":2959:2968   */\n      0x00\n        /* \"#utility.yul\":2992:3029   */\n      tag_236\n        /* \"#utility.yul\":3023:3028   */\n      dup3\n        /* \"#utility.yul\":2992:3029   */\n      tag_166\n      jump\t// in\n    tag_236:\n        /* \"#utility.yul\":2979:3029   */\n      swap1\n      pop\n        /* \"#utility.yul\":2896:3035   */\n      swap2\n      swap1\n      pop\n      jump\t// out\n        /* \"#utility.yul\":3041:3198   */\n    tag_168:\n        /* \"#utility.yul\":3141:3191   */\n      tag_238\n        /* \"#utility.yul\":3185:3190   */\n      dup2\n        /* \"#utility.yul\":3141:3191   */\n      tag_167\n      jump\t// in\n    tag_238:\n        /* \"#utility.yul\":3136:3139   */\n      dup3\n        /* \"#utility.yul\":3129:3192   */\n      mstore\n        /* \"#utility.yul\":3041:3198   */\n      pop\n      pop\n      jump\t// out\n        /* \"#utility.yul\":3204:3452   */\n    tag_29:\n        /* \"#utility.yul\":3310:3314   */\n      0x00\n        /* \"#utility.yul\":3348:3350   */\n      0x20\n        /* \"#utility.yul\":3337:3346   */\n      dup3\n        /* \"#utility.yul\":3333:3351   */\n      add\n        /* \"#utility.yul\":3325:3351   */\n      swap1\n      pop\n        /* \"#utility.yul\":3361:3445   */\n      tag_240\n        /* \"#utility.yul\":3442:3443   */\n      0x00\n        /* \"#utility.yul\":3431:3440   */\n      dup4\n        /* \"#utility.yul\":3427:3444   */\n      add\n        /* \"#utility.yul\":3418:3424   */\n      dup5\n        /* \"#utility.yul\":3361:3445   */\n      tag_168\n      jump\t// in\n    tag_240:\n        /* \"#utility.yul\":3204:3452   */\n      swap3\n      swap2\n      pop\n      pop\n      jump\t// out\n        /* \"#utility.yul\":3458:3680   */\n    tag_33:\n        /* \"#utility.yul\":3551:3555   */\n      0x00\n        /* \"#utility.yul\":3589:3591   */\n      0x20\n        /* \"#utility.yul\":3578:3587   */\n      dup3\n        /* \"#utility.yul\":3574:3592   */\n      add\n        /* \"#utility.yul\":3566:3592   */\n      swap1\n      pop\n        /* \"#utility.yul\":3602:3673   */\n      tag_242\n        /* \"#utility.yul\":3670:3671   */\n      0x00\n        /* \"#utility.yul\":3659:3668   */\n      dup4\n        /* \"#utility.yul\":3655:3672   */\n      add\n        /* \"#utility.yul\":3646:3652   */\n      dup5\n        /* \"#utility.yul\":3602:3673   */\n      tag_161\n      jump\t// in\n    tag_242:\n        /* \"#utility.yul\":3458:3680   */\n      swap3\n      swap2\n      pop\n      pop\n      jump\t// out\n        /* \"#utility.yul\":3686:3804   */\n    tag_169:\n        /* \"#utility.yul\":3773:3797   */\n      tag_244\n        /* \"#utility.yul\":3791:3796   */\n      dup2\n        /* \"#utility.yul\":3773:3797   */\n      tag_157\n      jump\t// in\n    tag_244:\n        /* \"#utility.yul\":3768:3771   */\n      dup3\n        /* \"#utility.yul\":3761:3798   */\n      mstore\n        /* \"#utility.yul\":3686:3804   */\n      pop\n      pop\n      jump\t// out\n        /* \"#utility.yul\":3810:4032   */\n    tag_40:\n        /* \"#utility.yul\":3903:3907   */\n      0x00\n        /* \"#utility.yul\":3941:3943   */\n      0x20\n        /* \"#utility.yul\":3930:3939   */\n      dup3\n        /* \"#utility.yul\":3926:3944   */\n      add\n        /* \"#utility.yul\":3918:3944   */\n      swap1\n      pop\n        /* \"#utility.yul\":3954:4025   */\n      tag_246\n        /* \"#utility.yul\":4022:4023   */\n      0x00\n        /* \"#utility.yul\":4011:4020   */\n      dup4\n        /* \"#utility.yul\":4007:4024   */\n      add\n        /* \"#utility.yul\":3998:4004   */\n      dup5\n        /* \"#utility.yul\":3954:4025   */\n      tag_169\n      jump\t// in\n    tag_246:\n        /* \"#utility.yul\":3810:4032   */\n      swap3\n      swap2\n      pop\n      pop\n      jump\t// out\n        /* \"#utility.yul\":4038:4207   */\n    tag_170:\n        /* \"#utility.yul\":4122:4133   */\n      0x00\n        /* \"#utility.yul\":4156:4162   */\n      dup3\n        /* \"#utility.yul\":4151:4154   */\n      dup3\n        /* \"#utility.yul\":4144:4163   */\n      mstore\n        /* \"#utility.yul\":4196:4200   */\n      0x20\n        /* \"#utility.yul\":4191:4194   */\n      dup3\n        /* \"#utility.yul\":4187:4201   */\n      add\n        /* \"#utility.yul\":4172:4201   */\n      swap1\n      pop\n        /* \"#utility.yul\":4038:4207   */\n      swap3\n      swap2\n      pop\n      pop\n      jump\t// out\n        /* \"#utility.yul\":4213:4389   */\n    tag_171:\n        /* \"#utility.yul\":4353:4381   */\n      0x496e73756666696369656e74207374616b656420616d6f756e74000000000000\n        /* \"#utility.yul\":4349:4350   */\n      0x00\n        /* \"#utility.yul\":4341:4347   */\n      dup3\n        /* \"#utility.yul\":4337:4351   */\n      add\n        /* \"#utility.yul\":4330:4382   */\n      mstore\n        /* \"#utility.yul\":4213:4389   */\n      pop\n      jump\t// out\n        /* \"#utility.yul\":4395:4761   */\n    tag_172:\n        /* \"#utility.yul\":4537:4540   */\n      0x00\n        /* \"#utility.yul\":4558:4625   */\n      tag_250\n        /* \"#utility.yul\":4622:4624   */\n      0x1a\n        /* \"#utility.yul\":4617:4620   */\n      dup4\n        /* \"#utility.yul\":4558:4625   */\n      tag_170\n      jump\t// in\n    tag_250:\n        /* \"#utility.yul\":4551:4625   */\n      swap2\n      pop\n        /* \"#utility.yul\":4634:4727   */\n      tag_251\n        /* \"#utility.yul\":4723:4726   */\n      dup3\n        /* \"#utility.yul\":4634:4727   */\n      tag_171\n      jump\t// in\n    tag_251:\n        /* \"#utility.yul\":4752:4754   */\n      0x20\n        /* \"#utility.yul\":4747:4750   */\n      dup3\n        /* \"#utility.yul\":4743:4755   */\n      add\n        /* \"#utility.yul\":4736:4755   */\n      swap1\n      pop\n        /* \"#utility.yul\":4395:4761   */\n      swap2\n      swap1\n      pop\n      jump\t// out\n        /* \"#utility.yul\":4767:5186   */\n    tag_61:\n        /* \"#utility.yul\":4933:4937   */\n      0x00\n        /* \"#utility.yul\":4971:4973   */\n      0x20\n        /* \"#utility.yul\":4960:4969   */\n      dup3\n        /* \"#utility.yul\":4956:4974   */\n      add\n        /* \"#utility.yul\":4948:4974   */\n      swap1\n      pop\n        /* \"#utility.yul\":5020:5029   */\n      dup2\n        /* \"#utility.yul\":5014:5018   */\n      dup2\n        /* \"#utility.yul\":5010:5030   */\n      sub\n        /* \"#utility.yul\":5006:5007   */\n      0x00\n        /* \"#utility.yul\":4995:5004   */\n      dup4\n        /* \"#utility.yul\":4991:5008   */\n      add\n        /* \"#utility.yul\":4984:5031   */\n      mstore\n        /* \"#utility.yul\":5048:5179   */\n      tag_253\n        /* \"#utility.yul\":5174:5178   */\n      dup2\n        /* \"#utility.yul\":5048:5179   */\n      tag_172\n      jump\t// in\n    tag_253:\n        /* \"#utility.yul\":5040:5179   */\n      swap1\n      pop\n        /* \"#utility.yul\":4767:5186   */\n      swap2\n      swap1\n      pop\n      jump\t// out\n        /* \"#utility.yul\":5192:5358   */\n    tag_173:\n        /* \"#utility.yul\":5332:5350   */\n      0x43616e6e6f7420756e7374616b65203000000000000000000000000000000000\n        /* \"#utility.yul\":5328:5329   */\n      0x00\n        /* \"#utility.yul\":5320:5326   */\n      dup3\n        /* \"#utility.yul\":5316:5330   */\n      add\n        /* \"#utility.yul\":5309:5351   */\n      mstore\n        /* \"#utility.yul\":5192:5358   */\n      pop\n      jump\t// out\n        /* \"#utility.yul\":5364:5730   */\n    tag_174:\n        /* \"#utility.yul\":5506:5509   */\n      0x00\n        /* \"#utility.yul\":5527:5594   */\n      tag_256\n        /* \"#utility.yul\":5591:5593   */\n      0x10\n        /* \"#utility.yul\":5586:5589   */\n      dup4\n        /* \"#utility.yul\":5527:5594   */\n      tag_170\n      jump\t// in\n    tag_256:\n        /* \"#utility.yul\":5520:5594   */\n      swap2\n      pop\n        /* \"#utility.yul\":5603:5696   */\n      tag_257\n        /* \"#utility.yul\":5692:5695   */\n      dup3\n        /* \"#utility.yul\":5603:5696   */\n      tag_173\n      jump\t// in\n    tag_257:\n        /* \"#utility.yul\":5721:5723   */\n      0x20\n        /* \"#utility.yul\":5716:5719   */\n      dup3\n        /* \"#utility.yul\":5712:5724   */\n      add\n        /* \"#utility.yul\":5705:5724   */\n      swap1\n      pop\n        /* \"#utility.yul\":5364:5730   */\n      swap2\n      swap1\n      pop\n      jump\t// out\n        /* \"#utility.yul\":5736:6155   */\n    tag_64:\n        /* \"#utility.yul\":5902:5906   */\n      0x00\n        /* \"#utility.yul\":5940:5942   */\n      0x20\n        /* \"#utility.yul\":5929:5938   */\n      dup3\n        /* \"#utility.yul\":5925:5943   */\n      add\n        /* \"#utility.yul\":5917:5943   */\n      swap1\n      pop\n        /* \"#utility.yul\":5989:5998   */\n      dup2\n        /* \"#utility.yul\":5983:5987   */\n      dup2\n        /* \"#utility.yul\":5979:5999   */\n      sub\n        /* \"#utility.yul\":5975:5976   */\n      0x00\n        /* \"#utility.yul\":5964:5973   */\n      dup4\n        /* \"#utility.yul\":5960:5977   */\n      add\n        /* \"#utility.yul\":5953:6000   */\n      mstore\n        /* \"#utility.yul\":6017:6148   */\n      tag_259\n        /* \"#utility.yul\":6143:6147   */\n      dup2\n        /* \"#utility.yul\":6017:6148   */\n      tag_174\n      jump\t// in\n    tag_259:\n        /* \"#utility.yul\":6009:6148   */\n      swap1\n      pop\n        /* \"#utility.yul\":5736:6155   */\n      swap2\n      swap1\n      pop\n      jump\t// out\n        /* \"#utility.yul\":6161:6341   */\n    tag_175:\n        /* \"#utility.yul\":6209:6286   */\n      0x4e487b7100000000000000000000000000000000000000000000000000000000\n        /* \"#utility.yul\":6206:6207   */\n      0x00\n        /* \"#utility.yul\":6199:6287   */\n      mstore\n        /* \"#utility.yul\":6306:6310   */\n      0x11\n        /* \"#utility.yul\":6303:6304   */\n      0x04\n        /* \"#utility.yul\":6296:6311   */\n      mstore\n        /* \"#utility.yul\":6330:6334   */\n      0x24\n        /* \"#utility.yul\":6327:6328   */\n      0x00\n        /* \"#utility.yul\":6320:6335   */\n      revert\n        /* \"#utility.yul\":6347:6541   */\n    tag_68:\n        /* \"#utility.yul\":6387:6391   */\n      0x00\n        /* \"#utility.yul\":6407:6427   */\n      tag_262\n        /* \"#utility.yul\":6425:6426   */\n      dup3\n        /* \"#utility.yul\":6407:6427   */\n      tag_160\n      jump\t// in\n    tag_262:\n        /* \"#utility.yul\":6402:6427   */\n      swap2\n      pop\n        /* \"#utility.yul\":6441:6461   */\n      tag_263\n        /* \"#utility.yul\":6459:6460   */\n      dup4\n        /* \"#utility.yul\":6441:6461   */\n      tag_160\n      jump\t// in\n    tag_263:\n        /* \"#utility.yul\":6436:6461   */\n      swap3\n      pop\n        /* \"#utility.yul\":6485:6486   */\n      dup3\n        /* \"#utility.yul\":6482:6483   */\n      dup3\n        /* \"#utility.yul\":6478:6487   */\n      sub\n        /* \"#utility.yul\":6470:6487   */\n      swap1\n      pop\n        /* \"#utility.yul\":6509:6510   */\n      dup2\n        /* \"#utility.yul\":6503:6507   */\n      dup2\n        /* \"#utility.yul\":6500:6511   */\n      gt\n        /* \"#utility.yul\":6497:6534   */\n      iszero\n      tag_264\n      jumpi\n        /* \"#utility.yul\":6514:6532   */\n      tag_265\n      tag_175\n      jump\t// in\n    tag_265:\n        /* \"#utility.yul\":6497:6534   */\n    tag_264:\n        /* \"#utility.yul\":6347:6541   */\n      swap3\n      swap2\n      pop\n      pop\n      jump\t// out\n        /* \"#utility.yul\":6547:6879   */\n    tag_71:\n        /* \"#utility.yul\":6668:6672   */\n      0x00\n        /* \"#utility.yul\":6706:6708   */\n      0x40\n        /* \"#utility.yul\":6695:6704   */\n      dup3\n        /* \"#utility.yul\":6691:6709   */\n      add\n        /* \"#utility.yul\":6683:6709   */\n      swap1\n      pop\n        /* \"#utility.yul\":6719:6790   */\n      tag_267\n        /* \"#utility.yul\":6787:6788   */\n      0x00\n        /* \"#utility.yul\":6776:6785   */\n      dup4\n        /* \"#utility.yul\":6772:6789   */\n      add\n        /* \"#utility.yul\":6763:6769   */\n      dup6\n        /* \"#utility.yul\":6719:6790   */\n      tag_169\n      jump\t// in\n    tag_267:\n        /* \"#utility.yul\":6800:6872   */\n      tag_268\n        /* \"#utility.yul\":6868:6870   */\n      0x20\n        /* \"#utility.yul\":6857:6866   */\n      dup4\n        /* \"#utility.yul\":6853:6871   */\n      add\n        /* \"#utility.yul\":6844:6850   */\n      dup5\n        /* \"#utility.yul\":6800:6872   */\n      tag_161\n      jump\t// in\n    tag_268:\n        /* \"#utility.yul\":6547:6879   */\n      swap4\n      swap3\n      pop\n      pop\n      pop\n      jump\t// out\n        /* \"#utility.yul\":6885:6975   */\n    tag_176:\n        /* \"#utility.yul\":6919:6926   */\n      0x00\n        /* \"#utility.yul\":6962:6967   */\n      dup2\n        /* \"#utility.yul\":6955:6968   */\n      iszero\n        /* \"#utility.yul\":6948:6969   */\n      iszero\n        /* \"#utility.yul\":6937:6969   */\n      swap1\n      pop\n        /* \"#utility.yul\":6885:6975   */\n      swap2\n      swap1\n      pop\n      jump\t// out\n        /* \"#utility.yul\":6981:7097   */\n    tag_177:\n        /* \"#utility.yul\":7051:7072   */\n      tag_271\n        /* \"#utility.yul\":7066:7071   */\n      dup2\n        /* \"#utility.yul\":7051:7072   */\n      tag_176\n      jump\t// in\n    tag_271:\n        /* \"#utility.yul\":7044:7049   */\n      dup2\n        /* \"#utility.yul\":7041:7073   */\n      eq\n        /* \"#utility.yul\":7031:7091   */\n      tag_272\n      jumpi\n        /* \"#utility.yul\":7087:7088   */\n      0x00\n        /* \"#utility.yul\":7084:7085   */\n      0x00\n        /* \"#utility.yul\":7077:7089   */\n      revert\n        /* \"#utility.yul\":7031:7091   */\n    tag_272:\n        /* \"#utility.yul\":6981:7097   */\n      pop\n      jump\t// out\n        /* \"#utility.yul\":7103:7240   */\n    tag_178:\n        /* \"#utility.yul\":7157:7162   */\n      0x00\n        /* \"#utility.yul\":7188:7194   */\n      dup2\n        /* \"#utility.yul\":7182:7195   */\n      mload\n        /* \"#utility.yul\":7173:7195   */\n      swap1\n      pop\n        /* \"#utility.yul\":7204:7234   */\n      tag_274\n        /* \"#utility.yul\":7228:7233   */\n      dup2\n        /* \"#utility.yul\":7204:7234   */\n      tag_177\n      jump\t// in\n    tag_274:\n        /* \"#utility.yul\":7103:7240   */\n      swap3\n      swap2\n      pop\n      pop\n      jump\t// out\n        /* \"#utility.yul\":7246:7591   */\n    tag_75:\n        /* \"#utility.yul\":7313:7319   */\n      0x00\n        /* \"#utility.yul\":7362:7364   */\n      0x20\n        /* \"#utility.yul\":7350:7359   */\n      dup3\n        /* \"#utility.yul\":7341:7348   */\n      dup5\n        /* \"#utility.yul\":7337:7360   */\n      sub\n        /* \"#utility.yul\":7333:7365   */\n      slt\n        /* \"#utility.yul\":7330:7449   */\n      iszero\n      tag_276\n      jumpi\n        /* \"#utility.yul\":7368:7447   */\n      tag_277\n      tag_154\n      jump\t// in\n    tag_277:\n        /* \"#utility.yul\":7330:7449   */\n    tag_276:\n        /* \"#utility.yul\":7488:7489   */\n      0x00\n        /* \"#utility.yul\":7513:7574   */\n      tag_278\n        /* \"#utility.yul\":7566:7573   */\n      dup5\n        /* \"#utility.yul\":7557:7563   */\n      dup3\n        /* \"#utility.yul\":7546:7555   */\n      dup6\n        /* \"#utility.yul\":7542:7564   */\n      add\n        /* \"#utility.yul\":7513:7574   */\n      tag_178\n      jump\t// in\n    tag_278:\n        /* \"#utility.yul\":7503:7574   */\n      swap2\n      pop\n        /* \"#utility.yul\":7459:7584   */\n      pop\n        /* \"#utility.yul\":7246:7591   */\n      swap3\n      swap2\n      pop\n      pop\n      jump\t// out\n        /* \"#utility.yul\":7597:7762   */\n    tag_179:\n        /* \"#utility.yul\":7737:7754   */\n      0x5472616e73666572206661696c65640000000000000000000000000000000000\n        /* \"#utility.yul\":7733:7734   */\n      0x00\n        /* \"#utility.yul\":7725:7731   */\n      dup3\n        /* \"#utility.yul\":7721:7735   */\n      add\n        /* \"#utility.yul\":7714:7755   */\n      mstore\n        /* \"#utility.yul\":7597:7762   */\n      pop\n      jump\t// out\n        /* \"#utility.yul\":7768:8134   */\n    tag_180:\n        /* \"#utility.yul\":7910:7913   */\n      0x00\n        /* \"#utility.yul\":7931:7998   */\n      tag_281\n        /* \"#utility.yul\":7995:7997   */\n      0x0f\n        /* \"#utility.yul\":7990:7993   */\n      dup4\n        /* \"#utility.yul\":7931:7998   */\n      tag_170\n      jump\t// in\n    tag_281:\n        /* \"#utility.yul\":7924:7998   */\n      swap2\n      pop\n        /* \"#utility.yul\":8007:8100   */\n      tag_282\n        /* \"#utility.yul\":8096:8099   */\n      dup3\n        /* \"#utility.yul\":8007:8100   */\n      tag_179\n      jump\t// in\n    tag_282:\n        /* \"#utility.yul\":8125:8127   */\n      0x20\n        /* \"#utility.yul\":8120:8123   */\n      dup3\n        /* \"#utility.yul\":8116:8128   */\n      add\n        /* \"#utility.yul\":8109:8128   */\n      swap1\n      pop\n        /* \"#utility.yul\":7768:8134   */\n      swap2\n      swap1\n      pop\n      jump\t// out\n        /* \"#utility.yul\":8140:8559   */\n    tag_78:\n        /* \"#utility.yul\":8306:8310   */\n      0x00\n        /* \"#utility.yul\":8344:8346   */\n      0x20\n        /* \"#utility.yul\":8333:8342   */\n      dup3\n        /* \"#utility.yul\":8329:8347   */\n      add\n        /* \"#utility.yul\":8321:8347   */\n      swap1\n      pop\n        /* \"#utility.yul\":8393:8402   */\n      dup2\n        /* \"#utility.yul\":8387:8391   */\n      dup2\n        /* \"#utility.yul\":8383:8403   */\n      sub\n        /* \"#utility.yul\":8379:8380   */\n      0x00\n        /* \"#utility.yul\":8368:8377   */\n      dup4\n        /* \"#utility.yul\":8364:8381   */\n      add\n        /* \"#utility.yul\":8357:8404   */\n      mstore\n        /* \"#utility.yul\":8421:8552   */\n      tag_284\n        /* \"#utility.yul\":8547:8551   */\n      dup2\n        /* \"#utility.yul\":8421:8552   */\n      tag_180\n      jump\t// in\n    tag_284:\n        /* \"#utility.yul\":8413:8552   */\n      swap1\n      pop\n        /* \"#utility.yul\":8140:8559   */\n      swap2\n      swap1\n      pop\n      jump\t// out\n        /* \"#utility.yul\":8565:8897   */\n    tag_80:\n        /* \"#utility.yul\":8686:8690   */\n      0x00\n        /* \"#utility.yul\":8724:8726   */\n      0x40\n        /* \"#utility.yul\":8713:8722   */\n      dup3\n        /* \"#utility.yul\":8709:8727   */\n      add\n        /* \"#utility.yul\":8701:8727   */\n      swap1\n      pop\n        /* \"#utility.yul\":8737:8808   */\n      tag_286\n        /* \"#utility.yul\":8805:8806   */\n      0x00\n        /* \"#utility.yul\":8794:8803   */\n      dup4\n        /* \"#utility.yul\":8790:8807   */\n      add\n        /* \"#utility.yul\":8781:8787   */\n      dup6\n        /* \"#utility.yul\":8737:8808   */\n      tag_161\n      jump\t// in\n    tag_286:\n        /* \"#utility.yul\":8818:8890   */\n      tag_287\n        /* \"#utility.yul\":8886:8888   */\n      0x20\n        /* \"#utility.yul\":8875:8884   */\n      dup4\n        /* \"#utility.yul\":8871:8889   */\n      add\n        /* \"#utility.yul\":8862:8868   */\n      dup5\n        /* \"#utility.yul\":8818:8890   */\n      tag_161\n      jump\t// in\n    tag_287:\n        /* \"#utility.yul\":8565:8897   */\n      swap4\n      swap3\n      pop\n      pop\n      pop\n      jump\t// out\n        /* \"#utility.yul\":8903:9046   */\n    tag_181:\n        /* \"#utility.yul\":8960:8965   */\n      0x00\n        /* \"#utility.yul\":8991:8997   */\n      dup2\n        /* \"#utility.yul\":8985:8998   */\n      mload\n        /* \"#utility.yul\":8976:8998   */\n      swap1\n      pop\n        /* \"#utility.yul\":9007:9040   */\n      tag_289\n        /* \"#utility.yul\":9034:9039   */\n      dup2\n        /* \"#utility.yul\":9007:9040   */\n      tag_162\n      jump\t// in\n    tag_289:\n        /* \"#utility.yul\":8903:9046   */\n      swap3\n      swap2\n      pop\n      pop\n      jump\t// out\n        /* \"#utility.yul\":9052:9403   */\n    tag_86:\n        /* \"#utility.yul\":9122:9128   */\n      0x00\n        /* \"#utility.yul\":9171:9173   */\n      0x20\n        /* \"#utility.yul\":9159:9168   */\n      dup3\n        /* \"#utility.yul\":9150:9157   */\n      dup5\n        /* \"#utility.yul\":9146:9169   */\n      sub\n        /* \"#utility.yul\":9142:9174   */\n      slt\n        /* \"#utility.yul\":9139:9258   */\n      iszero\n      tag_291\n      jumpi\n        /* \"#utility.yul\":9177:9256   */\n      tag_292\n      tag_154\n      jump\t// in\n    tag_292:\n        /* \"#utility.yul\":9139:9258   */\n    tag_291:\n        /* \"#utility.yul\":9297:9298   */\n      0x00\n        /* \"#utility.yul\":9322:9386   */\n      tag_293\n        /* \"#utility.yul\":9378:9385   */\n      dup5\n        /* \"#utility.yul\":9369:9375   */\n      dup3\n        /* \"#utility.yul\":9358:9367   */\n      dup6\n        /* \"#utility.yul\":9354:9376   */\n      add\n        /* \"#utility.yul\":9322:9386   */\n      tag_181\n      jump\t// in\n    tag_293:\n        /* \"#utility.yul\":9312:9386   */\n      swap2\n      pop\n        /* \"#utility.yul\":9268:9396   */\n      pop\n        /* \"#utility.yul\":9052:9403   */\n      swap3\n      swap2\n      pop\n      pop\n      jump\t// out\n        /* \"#utility.yul\":9409:9568   */\n    tag_182:\n        /* \"#utility.yul\":9549:9560   */\n      0x4e6f74206f776e65720000000000000000000000000000000000000000000000\n        /* \"#utility.yul\":9545:9546   */\n      0x00\n        /* \"#utility.yul\":9537:9543   */\n      dup3\n        /* \"#utility.yul\":9533:9547   */\n      add\n        /* \"#utility.yul\":9526:9561   */\n      mstore\n        /* \"#utility.yul\":9409:9568   */\n      pop\n      jump\t// out\n        /* \"#utility.yul\":9574:9939   */\n    tag_183:\n        /* \"#utility.yul\":9716:9719   */\n      0x00\n        /* \"#utility.yul\":9737:9803   */\n      tag_296\n        /* \"#utility.yul\":9801:9802   */\n      0x09\n        /* \"#utility.yul\":9796:9799   */\n      dup4\n        /* \"#utility.yul\":9737:9803   */\n      tag_170\n      jump\t// in\n    tag_296:\n        /* \"#utility.yul\":9730:9803   */\n      swap2\n      pop\n        /* \"#utility.yul\":9812:9905   */\n      tag_297\n        /* \"#utility.yul\":9901:9904   */\n      dup3\n        /* \"#utility.yul\":9812:9905   */\n      tag_182\n      jump\t// in\n    tag_297:\n        /* \"#utility.yul\":9930:9932   */\n      0x20\n        /* \"#utility.yul\":9925:9928   */\n      dup3\n        /* \"#utility.yul\":9921:9933   */\n      add\n        /* \"#utility.yul\":9914:9933   */\n      swap1\n      pop\n        /* \"#utility.yul\":9574:9939   */\n      swap2\n      swap1\n      pop\n      jump\t// out\n        /* \"#utility.yul\":9945:10364   */\n    tag_90:\n        /* \"#utility.yul\":10111:10115   */\n      0x00\n        /* \"#utility.yul\":10149:10151   */\n      0x20\n        /* \"#utility.yul\":10138:10147   */\n      dup3\n        /* \"#utility.yul\":10134:10152   */\n      add\n        /* \"#utility.yul\":10126:10152   */\n      swap1\n      pop\n        /* \"#utility.yul\":10198:10207   */\n      dup2\n        /* \"#utility.yul\":10192:10196   */\n      dup2\n        /* \"#utility.yul\":10188:10208   */\n      sub\n        /* \"#utility.yul\":10184:10185   */\n      0x00\n        /* \"#utility.yul\":10173:10182   */\n      dup4\n        /* \"#utility.yul\":10169:10186   */\n      add\n        /* \"#utility.yul\":10162:10209   */\n      mstore\n        /* \"#utility.yul\":10226:10357   */\n      tag_299\n        /* \"#utility.yul\":10352:10356   */\n      dup2\n        /* \"#utility.yul\":10226:10357   */\n      tag_183\n      jump\t// in\n    tag_299:\n        /* \"#utility.yul\":10218:10357   */\n      swap1\n      pop\n        /* \"#utility.yul\":9945:10364   */\n      swap2\n      swap1\n      pop\n      jump\t// out\n        /* \"#utility.yul\":10370:10812   */\n    tag_93:\n        /* \"#utility.yul\":10519:10523   */\n      0x00\n        /* \"#utility.yul\":10557:10559   */\n      0x60\n        /* \"#utility.yul\":10546:10555   */\n      dup3\n        /* \"#utility.yul\":10542:10560   */\n      add\n        /* \"#utility.yul\":10534:10560   */\n      swap1\n      pop\n        /* \"#utility.yul\":10570:10641   */\n      tag_301\n        /* \"#utility.yul\":10638:10639   */\n      0x00\n        /* \"#utility.yul\":10627:10636   */\n      dup4\n        /* \"#utility.yul\":10623:10640   */\n      add\n        /* \"#utility.yul\":10614:10620   */\n      dup7\n        /* \"#utility.yul\":10570:10641   */\n      tag_169\n      jump\t// in\n    tag_301:\n        /* \"#utility.yul\":10651:10723   */\n      tag_302\n        /* \"#utility.yul\":10719:10721   */\n      0x20\n        /* \"#utility.yul\":10708:10717   */\n      dup4\n        /* \"#utility.yul\":10704:10722   */\n      add\n        /* \"#utility.yul\":10695:10701   */\n      dup6\n        /* \"#utility.yul\":10651:10723   */\n      tag_169\n      jump\t// in\n    tag_302:\n        /* \"#utility.yul\":10733:10805   */\n      tag_303\n        /* \"#utility.yul\":10801:10803   */\n      0x40\n        /* \"#utility.yul\":10790:10799   */\n      dup4\n        /* \"#utility.yul\":10786:10804   */\n      add\n        /* \"#utility.yul\":10777:10783   */\n      dup5\n        /* \"#utility.yul\":10733:10805   */\n      tag_161\n      jump\t// in\n    tag_303:\n        /* \"#utility.yul\":10370:10812   */\n      swap5\n      swap4\n      pop\n      pop\n      pop\n      pop\n      jump\t// out\n        /* \"#utility.yul\":10818:10988   */\n    tag_184:\n        /* \"#utility.yul\":10958:10980   */\n      0x46756e64207472616e73666572206661696c6564000000000000000000000000\n        /* \"#utility.yul\":10954:10955   */\n      0x00\n        /* \"#utility.yul\":10946:10952   */\n      dup3\n        /* \"#utility.yul\":10942:10956   */\n      add\n        /* \"#utility.yul\":10935:10981   */\n      mstore\n        /* \"#utility.yul\":10818:10988   */\n      pop\n      jump\t// out\n        /* \"#utility.yul\":10994:11360   */\n    tag_185:\n        /* \"#utility.yul\":11136:11139   */\n      0x00\n        /* \"#utility.yul\":11157:11224   */\n      tag_306\n        /* \"#utility.yul\":11221:11223   */\n      0x14\n        /* \"#utility.yul\":11216:11219   */\n      dup4\n        /* \"#utility.yul\":11157:11224   */\n      tag_170\n      jump\t// in\n    tag_306:\n        /* \"#utility.yul\":11150:11224   */\n      swap2\n      pop\n        /* \"#utility.yul\":11233:11326   */\n      tag_307\n        /* \"#utility.yul\":11322:11325   */\n      dup3\n        /* \"#utility.yul\":11233:11326   */\n      tag_184\n      jump\t// in\n    tag_307:\n        /* \"#utility.yul\":11351:11353   */\n      0x20\n        /* \"#utility.yul\":11346:11349   */\n      dup3\n        /* \"#utility.yul\":11342:11354   */\n      add\n        /* \"#utility.yul\":11335:11354   */\n      swap1\n      pop\n        /* \"#utility.yul\":10994:11360   */\n      swap2\n      swap1\n      pop\n      jump\t// out\n        /* \"#utility.yul\":11366:11785   */\n    tag_99:\n        /* \"#utility.yul\":11532:11536   */\n      0x00\n        /* \"#utility.yul\":11570:11572   */\n      0x20\n        /* \"#utility.yul\":11559:11568   */\n      dup3\n        /* \"#utility.yul\":11555:11573   */\n      add\n        /* \"#utility.yul\":11547:11573   */\n      swap1\n      pop\n        /* \"#utility.yul\":11619:11628   */\n      dup2\n        /* \"#utility.yul\":11613:11617   */\n      dup2\n        /* \"#utility.yul\":11609:11629   */\n      sub\n        /* \"#utility.yul\":11605:11606   */\n      0x00\n        /* \"#utility.yul\":11594:11603   */\n      dup4\n        /* \"#utility.yul\":11590:11607   */\n      add\n        /* \"#utility.yul\":11583:11630   */\n      mstore\n        /* \"#utility.yul\":11647:11778   */\n      tag_309\n        /* \"#utility.yul\":11773:11777   */\n      dup2\n        /* \"#utility.yul\":11647:11778   */\n      tag_185\n      jump\t// in\n    tag_309:\n        /* \"#utility.yul\":11639:11778   */\n      swap1\n      pop\n        /* \"#utility.yul\":11366:11785   */\n      swap2\n      swap1\n      pop\n      jump\t// out\n        /* \"#utility.yul\":11791:11955   */\n    tag_186:\n        /* \"#utility.yul\":11931:11947   */\n      0x43616e6e6f74207374616b652030000000000000000000000000000000000000\n        /* \"#utility.yul\":11927:11928   */\n      0x00\n        /* \"#utility.yul\":11919:11925   */\n      dup3\n        /* \"#utility.yul\":11915:11929   */\n      add\n        /* \"#utility.yul\":11908:11948   */\n      mstore\n        /* \"#utility.yul\":11791:11955   */\n      pop\n      jump\t// out\n        /* \"#utility.yul\":11961:12327   */\n    tag_187:\n        /* \"#utility.yul\":12103:12106   */\n      0x00\n        /* \"#utility.yul\":12124:12191   */\n      tag_312\n        /* \"#utility.yul\":12188:12190   */\n      0x0e\n        /* \"#utility.yul\":12183:12186   */\n      dup4\n        /* \"#utility.yul\":12124:12191   */\n      tag_170\n      jump\t// in\n    tag_312:\n        /* \"#utility.yul\":12117:12191   */\n      swap2\n      pop\n        /* \"#utility.yul\":12200:12293   */\n      tag_313\n        /* \"#utility.yul\":12289:12292   */\n      dup3\n        /* \"#utility.yul\":12200:12293   */\n      tag_186\n      jump\t// in\n    tag_313:\n        /* \"#utility.yul\":12318:12320   */\n      0x20\n        /* \"#utility.yul\":12313:12316   */\n      dup3\n        /* \"#utility.yul\":12309:12321   */\n      add\n        /* \"#utility.yul\":12302:12321   */\n      swap1\n      pop\n        /* \"#utility.yul\":11961:12327   */\n      swap2\n      swap1\n      pop\n      jump\t// out\n        /* \"#utility.yul\":12333:12752   */\n    tag_103:\n        /* \"#utility.yul\":12499:12503   */\n      0x00\n        /* \"#utility.yul\":12537:12539   */\n      0x20\n        /* \"#utility.yul\":12526:12535   */\n      dup3\n        /* \"#utility.yul\":12522:12540   */\n      add\n        /* \"#utility.yul\":12514:12540   */\n      swap1\n      pop\n        /* \"#utility.yul\":12586:12595   */\n      dup2\n        /* \"#utility.yul\":12580:12584   */\n      dup2\n        /* \"#utility.yul\":12576:12596   */\n      sub\n        /* \"#utility.yul\":12572:12573   */\n      0x00\n        /* \"#utility.yul\":12561:12570   */\n      dup4\n        /* \"#utility.yul\":12557:12574   */\n      add\n        /* \"#utility.yul\":12550:12597   */\n      mstore\n        /* \"#utility.yul\":12614:12745   */\n      tag_315\n        /* \"#utility.yul\":12740:12744   */\n      dup2\n        /* \"#utility.yul\":12614:12745   */\n      tag_187\n      jump\t// in\n    tag_315:\n        /* \"#utility.yul\":12606:12745   */\n      swap1\n      pop\n        /* \"#utility.yul\":12333:12752   */\n      swap2\n      swap1\n      pop\n      jump\t// out\n        /* \"#utility.yul\":12758:12949   */\n    tag_113:\n        /* \"#utility.yul\":12798:12801   */\n      0x00\n        /* \"#utility.yul\":12817:12837   */\n      tag_317\n        /* \"#utility.yul\":12835:12836   */\n      dup3\n        /* \"#utility.yul\":12817:12837   */\n      tag_160\n      jump\t// in\n    tag_317:\n        /* \"#utility.yul\":12812:12837   */\n      swap2\n      pop\n        /* \"#utility.yul\":12851:12871   */\n      tag_318\n        /* \"#utility.yul\":12869:12870   */\n      dup4\n        /* \"#utility.yul\":12851:12871   */\n      tag_160\n      jump\t// in\n    tag_318:\n        /* \"#utility.yul\":12846:12871   */\n      swap3\n      pop\n        /* \"#utility.yul\":12894:12895   */\n      dup3\n        /* \"#utility.yul\":12891:12892   */\n      dup3\n        /* \"#utility.yul\":12887:12896   */\n      add\n        /* \"#utility.yul\":12880:12896   */\n      swap1\n      pop\n        /* \"#utility.yul\":12915:12918   */\n      dup1\n        /* \"#utility.yul\":12912:12913   */\n      dup3\n        /* \"#utility.yul\":12909:12919   */\n      gt\n        /* \"#utility.yul\":12906:12942   */\n      iszero\n      tag_319\n      jumpi\n        /* \"#utility.yul\":12922:12940   */\n      tag_320\n      tag_175\n      jump\t// in\n    tag_320:\n        /* \"#utility.yul\":12906:12942   */\n    tag_319:\n        /* \"#utility.yul\":12758:12949   */\n      swap3\n      swap2\n      pop\n      pop\n      jump\t// out\n        /* \"#utility.yul\":12955:13123   */\n    tag_188:\n        /* \"#utility.yul\":13095:13115   */\n      0x4e6f2072657761726420746f20636c61696d0000000000000000000000000000\n        /* \"#utility.yul\":13091:13092   */\n      0x00\n        /* \"#utility.yul\":13083:13089   */\n      dup3\n        /* \"#utility.yul\":13079:13093   */\n      add\n        /* \"#utility.yul\":13072:13116   */\n      mstore\n        /* \"#utility.yul\":12955:13123   */\n      pop\n      jump\t// out\n        /* \"#utility.yul\":13129:13495   */\n    tag_189:\n        /* \"#utility.yul\":13271:13274   */\n      0x00\n        /* \"#utility.yul\":13292:13359   */\n      tag_323\n        /* \"#utility.yul\":13356:13358   */\n      0x12\n        /* \"#utility.yul\":13351:13354   */\n      dup4\n        /* \"#utility.yul\":13292:13359   */\n      tag_170\n      jump\t// in\n    tag_323:\n        /* \"#utility.yul\":13285:13359   */\n      swap2\n      pop\n        /* \"#utility.yul\":13368:13461   */\n      tag_324\n        /* \"#utility.yul\":13457:13460   */\n      dup3\n        /* \"#utility.yul\":13368:13461   */\n      tag_188\n      jump\t// in\n    tag_324:\n        /* \"#utility.yul\":13486:13488   */\n      0x20\n        /* \"#utility.yul\":13481:13484   */\n      dup3\n        /* \"#utility.yul\":13477:13489   */\n      add\n        /* \"#utility.yul\":13470:13489   */\n      swap1\n      pop\n        /* \"#utility.yul\":13129:13495   */\n      swap2\n      swap1\n      pop\n      jump\t// out\n        /* \"#utility.yul\":13501:13920   */\n    tag_120:\n        /* \"#utility.yul\":13667:13671   */\n      0x00\n        /* \"#utility.yul\":13705:13707   */\n      0x20\n        /* \"#utility.yul\":13694:13703   */\n      dup3\n        /* \"#utility.yul\":13690:13708   */\n      add\n        /* \"#utility.yul\":13682:13708   */\n      swap1\n      pop\n        /* \"#utility.yul\":13754:13763   */\n      dup2\n        /* \"#utility.yul\":13748:13752   */\n      dup2\n        /* \"#utility.yul\":13744:13764   */\n      sub\n        /* \"#utility.yul\":13740:13741   */\n      0x00\n        /* \"#utility.yul\":13729:13738   */\n      dup4\n        /* \"#utility.yul\":13725:13742   */\n      add\n        /* \"#utility.yul\":13718:13765   */\n      mstore\n        /* \"#utility.yul\":13782:13913   */\n      tag_326\n        /* \"#utility.yul\":13908:13912   */\n      dup2\n        /* \"#utility.yul\":13782:13913   */\n      tag_189\n      jump\t// in\n    tag_326:\n        /* \"#utility.yul\":13774:13913   */\n      swap1\n      pop\n        /* \"#utility.yul\":13501:13920   */\n      swap2\n      swap1\n      pop\n      jump\t// out\n        /* \"#utility.yul\":13926:14098   */\n    tag_190:\n        /* \"#utility.yul\":14066:14090   */\n      0x526577617264207472616e73666572206661696c656400000000000000000000\n        /* \"#utility.yul\":14062:14063   */\n      0x00\n        /* \"#utility.yul\":14054:14060   */\n      dup3\n        /* \"#utility.yul\":14050:14064   */\n      add\n        /* \"#utility.yul\":14043:14091   */\n      mstore\n        /* \"#utility.yul\":13926:14098   */\n      pop\n      jump\t// out\n        /* \"#utility.yul\":14104:14470   */\n    tag_191:\n        /* \"#utility.yul\":14246:14249   */\n      0x00\n        /* \"#utility.yul\":14267:14334   */\n      tag_329\n        /* \"#utility.yul\":14331:14333   */\n      0x16\n        /* \"#utility.yul\":14326:14329   */\n      dup4\n        /* \"#utility.yul\":14267:14334   */\n      tag_170\n      jump\t// in\n    tag_329:\n        /* \"#utility.yul\":14260:14334   */\n      swap2\n      pop\n        /* \"#utility.yul\":14343:14436   */\n      tag_330\n        /* \"#utility.yul\":14432:14435   */\n      dup3\n        /* \"#utility.yul\":14343:14436   */\n      tag_190\n      jump\t// in\n    tag_330:\n        /* \"#utility.yul\":14461:14463   */\n      0x20\n        /* \"#utility.yul\":14456:14459   */\n      dup3\n        /* \"#utility.yul\":14452:14464   */\n      add\n        /* \"#utility.yul\":14445:14464   */\n      swap1\n      pop\n        /* \"#utility.yul\":14104:14470   */\n      swap2\n      swap1\n      pop\n      jump\t// out\n        /* \"#utility.yul\":14476:14895   */\n    tag_128:\n        /* \"#utility.yul\":14642:14646   */\n      0x00\n        /* \"#utility.yul\":14680:14682   */\n      0x20\n        /* \"#utility.yul\":14669:14678   */\n      dup3\n        /* \"#utility.yul\":14665:14683   */\n      add\n        /* \"#utility.yul\":14657:14683   */\n      swap1\n      pop\n        /* \"#utility.yul\":14729:14738   */\n      dup2\n        /* \"#utility.yul\":14723:14727   */\n      dup2\n        /* \"#utility.yul\":14719:14739   */\n      sub\n        /* \"#utility.yul\":14715:14716   */\n      0x00\n        /* \"#utility.yul\":14704:14713   */\n      dup4\n        /* \"#utility.yul\":14700:14717   */\n      add\n        /* \"#utility.yul\":14693:14740   */\n      mstore\n        /* \"#utility.yul\":14757:14888   */\n      tag_332\n        /* \"#utility.yul\":14883:14887   */\n      dup2\n        /* \"#utility.yul\":14757:14888   */\n      tag_191\n      jump\t// in\n    tag_332:\n        /* \"#utility.yul\":14749:14888   */\n      swap1\n      pop\n        /* \"#utility.yul\":14476:14895   */\n      swap2\n      swap1\n      pop\n      jump\t// out\n        /* \"#utility.yul\":14901:15065   */\n    tag_192:\n        /* \"#utility.yul\":15041:15057   */\n      0x4e6f7468696e67207374616b6564000000000000000000000000000000000000\n        /* \"#utility.yul\":15037:15038   */\n      0x00\n        /* \"#utility.yul\":15029:15035   */\n      dup3\n        /* \"#utility.yul\":15025:15039   */\n      add\n        /* \"#utility.yul\":15018:15058   */\n      mstore\n        /* \"#utility.yul\":14901:15065   */\n      pop\n      jump\t// out\n        /* \"#utility.yul\":15071:15437   */\n    tag_193:\n        /* \"#utility.yul\":15213:15216   */\n      0x00\n        /* \"#utility.yul\":15234:15301   */\n      tag_335\n        /* \"#utility.yul\":15298:15300   */\n      0x0e\n        /* \"#utility.yul\":15293:15296   */\n      dup4\n        /* \"#utility.yul\":15234:15301   */\n      tag_170\n      jump\t// in\n    tag_335:\n        /* \"#utility.yul\":15227:15301   */\n      swap2\n      pop\n        /* \"#utility.yul\":15310:15403   */\n      tag_336\n        /* \"#utility.yul\":15399:15402   */\n      dup3\n        /* \"#utility.yul\":15310:15403   */\n      tag_192\n      jump\t// in\n    tag_336:\n        /* \"#utility.yul\":15428:15430   */\n      0x20\n        /* \"#utility.yul\":15423:15426   */\n      dup3\n        /* \"#utility.yul\":15419:15431   */\n      add\n        /* \"#utility.yul\":15412:15431   */\n      swap1\n      pop\n        /* \"#utility.yul\":15071:15437   */\n      swap2\n      swap1\n      pop\n      jump\t// out\n        /* \"#utility.yul\":15443:15862   */\n    tag_135:\n        /* \"#utility.yul\":15609:15613   */\n      0x00\n        /* \"#utility.yul\":15647:15649   */\n      0x20\n        /* \"#utility.yul\":15636:15645   */\n      dup3\n        /* \"#utility.yul\":15632:15650   */\n      add\n        /* \"#utility.yul\":15624:15650   */\n      swap1\n      pop\n        /* \"#utility.yul\":15696:15705   */\n      dup2\n        /* \"#utility.yul\":15690:15694   */\n      dup2\n        /* \"#utility.yul\":15686:15706   */\n      sub\n        /* \"#utility.yul\":15682:15683   */\n      0x00\n        /* \"#utility.yul\":15671:15680   */\n      dup4\n        /* \"#utility.yul\":15667:15684   */\n      add\n        /* \"#utility.yul\":15660:15707   */\n      mstore\n        /* \"#utility.yul\":15724:15855   */\n      tag_338\n        /* \"#utility.yul\":15850:15854   */\n      dup2\n        /* \"#utility.yul\":15724:15855   */\n      tag_193\n      jump\t// in\n    tag_338:\n        /* \"#utility.yul\":15716:15855   */\n      swap1\n      pop\n        /* \"#utility.yul\":15443:15862   */\n      swap2\n      swap1\n      pop\n      jump\t// out\n        /* \"#utility.yul\":15868:16278   */\n    tag_148:\n        /* \"#utility.yul\":15908:15915   */\n      0x00\n        /* \"#utility.yul\":15931:15951   */\n      tag_340\n        /* \"#utility.yul\":15949:15950   */\n      dup3\n        /* \"#utility.yul\":15931:15951   */\n      tag_160\n      jump\t// in\n    tag_340:\n        /* \"#utility.yul\":15926:15951   */\n      swap2\n      pop\n        /* \"#utility.yul\":15965:15985   */\n      tag_341\n        /* \"#utility.yul\":15983:15984   */\n      dup4\n        /* \"#utility.yul\":15965:15985   */\n      tag_160\n      jump\t// in\n    tag_341:\n        /* \"#utility.yul\":15960:15985   */\n      swap3\n      pop\n        /* \"#utility.yul\":16020:16021   */\n      dup3\n        /* \"#utility.yul\":16017:16018   */\n      dup3\n        /* \"#utility.yul\":16013:16022   */\n      mul\n        /* \"#utility.yul\":16042:16072   */\n      tag_342\n        /* \"#utility.yul\":16060:16071   */\n      dup2\n        /* \"#utility.yul\":16042:16072   */\n      tag_160\n      jump\t// in\n    tag_342:\n        /* \"#utility.yul\":16031:16072   */\n      swap2\n      pop\n        /* \"#utility.yul\":16221:16222   */\n      dup3\n        /* \"#utility.yul\":16212:16219   */\n      dup3\n        /* \"#utility.yul\":16208:16223   */\n      div\n        /* \"#utility.yul\":16205:16206   */\n      dup5\n        /* \"#utility.yul\":16202:16224   */\n      eq\n        /* \"#utility.yul\":16182:16183   */\n      dup4\n        /* \"#utility.yul\":16175:16184   */\n      iszero\n        /* \"#utility.yul\":16155:16238   */\n      or\n        /* \"#utility.yul\":16132:16271   */\n      tag_343\n      jumpi\n        /* \"#utility.yul\":16251:16269   */\n      tag_344\n      tag_175\n      jump\t// in\n    tag_344:\n        /* \"#utility.yul\":16132:16271   */\n    tag_343:\n        /* \"#utility.yul\":15916:16278   */\n      pop\n        /* \"#utility.yul\":15868:16278   */\n      swap3\n      swap2\n      pop\n      pop\n      jump\t// out\n        /* \"#utility.yul\":16284:16464   */\n    tag_194:\n        /* \"#utility.yul\":16332:16409   */\n      0x4e487b7100000000000000000000000000000000000000000000000000000000\n        /* \"#utility.yul\":16329:16330   */\n      0x00\n        /* \"#utility.yul\":16322:16410   */\n      mstore\n        /* \"#utility.yul\":16429:16433   */\n      0x12\n        /* \"#utility.yul\":16426:16427   */\n      0x04\n        /* \"#utility.yul\":16419:16434   */\n      mstore\n        /* \"#utility.yul\":16453:16457   */\n      0x24\n        /* \"#utility.yul\":16450:16451   */\n      0x00\n        /* \"#utility.yul\":16443:16458   */\n      revert\n        /* \"#utility.yul\":16470:16655   */\n    tag_151:\n        /* \"#utility.yul\":16510:16511   */\n      0x00\n        /* \"#utility.yul\":16527:16547   */\n      tag_347\n        /* \"#utility.yul\":16545:16546   */\n      dup3\n        /* \"#utility.yul\":16527:16547   */\n      tag_160\n      jump\t// in\n    tag_347:\n        /* \"#utility.yul\":16522:16547   */\n      swap2\n      pop\n        /* \"#utility.yul\":16561:16581   */\n      tag_348\n        /* \"#utility.yul\":16579:16580   */\n      dup4\n        /* \"#utility.yul\":16561:16581   */\n      tag_160\n      jump\t// in\n    tag_348:\n        /* \"#utility.yul\":16556:16581   */\n      swap3\n      pop\n        /* \"#utility.yul\":16600:16601   */\n      dup3\n        /* \"#utility.yul\":16590:16625   */\n      tag_349\n      jumpi\n        /* \"#utility.yul\":16605:16623   */\n      tag_350\n      tag_194\n      jump\t// in\n    tag_350:\n        /* \"#utility.yul\":16590:16625   */\n    tag_349:\n        /* \"#utility.yul\":16647:16648   */\n      dup3\n        /* \"#utility.yul\":16644:16645   */\n      dup3\n        /* \"#utility.yul\":16640:16649   */\n      div\n        /* \"#utility.yul\":16635:16649   */\n      swap1\n      pop\n        /* \"#utility.yul\":16470:16655   */\n      swap3\n      swap2\n      pop\n      pop\n      jump\t// out\n\n    auxdata: 0xa26469706673582212204c7d8823ce863d62b9178fdcced05f3c88ca0ef536f6c6f16abcd20caa06405c64736f6c63430008220033\n}\n",
				"bytecode": {
					"linkReferences": {},
					"object": "60a060405234801561000f575f5ffd5b5060405161180a38038061180a83398181016040528101906100319190610108565b8073ffffffffffffffffffffffffffffffffffffffff1660808173ffffffffffffffffffffffffffffffffffffffff1681525050335f5f6101000a81548173ffffffffffffffffffffffffffffffffffffffff021916908373ffffffffffffffffffffffffffffffffffffffff16021790555050610133565b5f5ffd5b5f73ffffffffffffffffffffffffffffffffffffffff82169050919050565b5f6100d7826100ae565b9050919050565b6100e7816100cd565b81146100f1575f5ffd5b50565b5f81519050610102816100de565b92915050565b5f6020828403121561011d5761011c6100aa565b5b5f61012a848285016100f4565b91505092915050565b6080516116956101755f395f818161035c0152818161048e015281816104b9015281816106090152818161078c015281816109b50152610c4901526116955ff3fe608060405234801561000f575f5ffd5b50600436106100b2575f3560e01c806393707a191161006f57806393707a191461017d578063a694fc3a14610199578063b88a802f146101b5578063c3453153146101bf578063da534353146101f2578063db2e21bc14610210576100b2565b806316934fc4146100b65780632e17de78146100e957806372f702f314610105578063817b1cd2146101235780638b7afe2e146101415780638da5cb5b1461015f575b5f5ffd5b6100d060048036038101906100cb9190610ec4565b61021a565b6040516100e09493929190610f07565b60405180910390f35b61010360048036038101906100fe9190610f74565b610246565b005b61010d61048c565b60405161011a9190610ffa565b60405180910390f35b61012b6104b0565b6040516101389190611013565b60405180910390f35b6101496104b6565b6040516101569190611013565b60405180910390f35b610167610554565b604051610174919061103b565b60405180910390f35b61019760048036038101906101929190610f74565b610578565b005b6101b360048036038101906101ae9190610f74565b6106ea565b005b6101bd6108f8565b005b6101d960048036038101906101d49190610ec4565b610ae5565b6040516101e99493929190610f07565b60405180910390f35b6101fa610b82565b6040516102079190611013565b60405180910390f35b610218610b8b565b005b6002602052805f5260405f205f91509050805f0154908060010154908060020154908060030154905084565b5f60025f3373ffffffffffffffffffffffffffffffffffffffff1673ffffffffffffffffffffffffffffffffffffffff1681526020019081526020015f20905081815f015410156102cc576040517f08c379a00000000000000000000000000000000000000000000000000000000081526004016102c3906110ae565b60405180910390fd5b5f821161030e576040517f08c379a000000000000000000000000000000000000000000000000000000000815260040161030590611116565b60405180910390fd5b61031733610d79565b816003018190555081815f015f8282546103319190611161565b925050819055504281600101819055508160015f8282546103529190611161565b925050819055505f7f000000000000000000000000000000000000000000000000000000000000000073ffffffffffffffffffffffffffffffffffffffff1663a9059cbb33856040518363ffffffff1660e01b81526004016103b5929190611194565b6020604051808303815f875af11580156103d1573d5f5f3e3d5ffd5b505050506040513d601f19601f820116820180604052508101906103f591906111f0565b905080610437576040517f08c379a000000000000000000000000000000000000000000000000000000000815260040161042e90611265565b60405180910390fd5b3373ffffffffffffffffffffffffffffffffffffffff167f7fc4727e062e336010f2c282598ef5f14facb3de68cf8195c2f23e1454b2b74e844260405161047f929190611283565b60405180910390a2505050565b7f000000000000000000000000000000000000000000000000000000000000000081565b60015481565b5f7f000000000000000000000000000000000000000000000000000000000000000073ffffffffffffffffffffffffffffffffffffffff166370a08231306040518263ffffffff1660e01b8152600401610510919061103b565b602060405180830381865afa15801561052b573d5f5f3e3d5ffd5b505050506040513d601f19601f8201168201806040525081019061054f91906112be565b905090565b5f5f9054906101000a900473ffffffffffffffffffffffffffffffffffffffff1681565b5f5f9054906101000a900473ffffffffffffffffffffffffffffffffffffffff1673ffffffffffffffffffffffffffffffffffffffff163373ffffffffffffffffffffffffffffffffffffffff1614610606576040517f08c379a00000000000000000000000000000000000000000000000000000000081526004016105fd90611333565b60405180910390fd5b5f7f000000000000000000000000000000000000000000000000000000000000000073ffffffffffffffffffffffffffffffffffffffff166323b872dd3330856040518463ffffffff1660e01b815260040161066493929190611351565b6020604051808303815f875af1158015610680573d5f5f3e3d5ffd5b505050506040513d601f19601f820116820180604052508101906106a491906111f0565b9050806106e6576040517f08c379a00000000000000000000000000000000000000000000000000000000081526004016106dd906113d0565b60405180910390fd5b5050565b5f811161072c576040517f08c379a000000000000000000000000000000000000000000000000000000000815260040161072390611438565b60405180910390fd5b5f60025f3373ffffffffffffffffffffffffffffffffffffffff1673ffffffffffffffffffffffffffffffffffffffff1681526020019081526020015f2090505f815f015411156107895761078033610d79565b81600301819055505b5f7f000000000000000000000000000000000000000000000000000000000000000073ffffffffffffffffffffffffffffffffffffffff166323b872dd3330866040518463ffffffff1660e01b81526004016107e793929190611351565b6020604051808303815f875af1158015610803573d5f5f3e3d5ffd5b505050506040513d601f19601f8201168201806040525081019061082791906111f0565b905080610869576040517f08c379a000000000000000000000000000000000000000000000000000000000815260040161086090611265565b60405180910390fd5b82825f015f82825461087b9190611456565b925050819055504282600101819055508260015f82825461089c9190611456565b925050819055503373ffffffffffffffffffffffffffffffffffffffff167f1449c6dd7851abc30abf37f57715f492010519147cc2652fbc38202c18a6ee9084426040516108eb929190611283565b60405180910390a2505050565b5f60025f3373ffffffffffffffffffffffffffffffffffffffff1673ffffffffffffffffffffffffffffffffffffffff1681526020019081526020015f2090505f61094233610d79565b90505f8111610986576040517f08c379a000000000000000000000000000000000000000000000000000000000815260040161097d906114d3565b60405180910390fd5b5f826003018190555042826001018190555080826002015f8282546109ab9190611456565b925050819055505f7f000000000000000000000000000000000000000000000000000000000000000073ffffffffffffffffffffffffffffffffffffffff1663a9059cbb33846040518363ffffffff1660e01b8152600401610a0e929190611194565b6020604051808303815f875af1158015610a2a573d5f5f3e3d5ffd5b505050506040513d601f19601f82011682018060405250810190610a4e91906111f0565b905080610a90576040517f08c379a0000000000000000000000000000000000000000000000000000000008152600401610a879061153b565b60405180910390fd5b3373ffffffffffffffffffffffffffffffffffffffff167ff01da32686223933d8a18a391060918c7f11a3648639edd87ae013e2e27317438342604051610ad8929190611283565b60405180910390a2505050565b5f5f5f5f5f60025f8773ffffffffffffffffffffffffffffffffffffffff1673ffffffffffffffffffffffffffffffffffffffff1681526020019081526020015f206040518060800160405290815f820154815260200160018201548152602001600282015481526020016003820154815250509050805f0151610b6887610d79565b826020015183604001519450945094509450509193509193565b64e8d4a5100081565b5f60025f3373ffffffffffffffffffffffffffffffffffffffff1673ffffffffffffffffffffffffffffffffffffffff1681526020019081526020015f2090505f815f015490505f8111610c14576040517f08c379a0000000000000000000000000000000000000000000000000000000008152600401610c0b906115a3565b60405180910390fd5b8060015f828254610c259190611161565b925050819055505f825f01819055505f82600301819055505f82600101819055505f7f000000000000000000000000000000000000000000000000000000000000000073ffffffffffffffffffffffffffffffffffffffff1663a9059cbb33846040518363ffffffff1660e01b8152600401610ca2929190611194565b6020604051808303815f875af1158015610cbe573d5f5f3e3d5ffd5b505050506040513d601f19601f82011682018060405250810190610ce291906111f0565b905080610d24576040517f08c379a0000000000000000000000000000000000000000000000000000000008152600401610d1b90611265565b60405180910390fd5b3373ffffffffffffffffffffffffffffffffffffffff167fbb757047c2b5f3974fe26b7c10f732e7bce710b0952a71082702781e62ae05958342604051610d6c929190611283565b60405180910390a2505050565b5f5f60025f8473ffffffffffffffffffffffffffffffffffffffff1673ffffffffffffffffffffffffffffffffffffffff1681526020019081526020015f206040518060800160405290815f8201548152602001600182015481526020016002820154815260200160038201548152505090505f815f015103610e03578060600151915050610e61565b5f816020015142610e149190611161565b90505f670de0b6b3a764000064e8d4a5100083855f0151610e3591906115c1565b610e3f91906115c1565b610e49919061162f565b9050808360600151610e5b9190611456565b93505050505b919050565b5f5ffd5b5f73ffffffffffffffffffffffffffffffffffffffff82169050919050565b5f610e9382610e6a565b9050919050565b610ea381610e89565b8114610ead575f5ffd5b50565b5f81359050610ebe81610e9a565b92915050565b5f60208284031215610ed957610ed8610e66565b5b5f610ee684828501610eb0565b91505092915050565b5f819050919050565b610f0181610eef565b82525050565b5f608082019050610f1a5f830187610ef8565b610f276020830186610ef8565b610f346040830185610ef8565b610f416060830184610ef8565b95945050505050565b610f5381610eef565b8114610f5d575f5ffd5b50565b5f81359050610f6e81610f4a565b92915050565b5f60208284031215610f8957610f88610e66565b5b5f610f9684828501610f60565b91505092915050565b5f819050919050565b5f610fc2610fbd610fb884610e6a565b610f9f565b610e6a565b9050919050565b5f610fd382610fa8565b9050919050565b5f610fe482610fc9565b9050919050565b610ff481610fda565b82525050565b5f60208201905061100d5f830184610feb565b92915050565b5f6020820190506110265f830184610ef8565b92915050565b61103581610e89565b82525050565b5f60208201905061104e5f83018461102c565b92915050565b5f82825260208201905092915050565b7f496e73756666696369656e74207374616b656420616d6f756e740000000000005f82015250565b5f611098601a83611054565b91506110a382611064565b602082019050919050565b5f6020820190508181035f8301526110c58161108c565b9050919050565b7f43616e6e6f7420756e7374616b652030000000000000000000000000000000005f82015250565b5f611100601083611054565b915061110b826110cc565b602082019050919050565b5f6020820190508181035f83015261112d816110f4565b9050919050565b7f4e487b71000000000000000000000000000000000000000000000000000000005f52601160045260245ffd5b5f61116b82610eef565b915061117683610eef565b925082820390508181111561118e5761118d611134565b5b92915050565b5f6040820190506111a75f83018561102c565b6111b46020830184610ef8565b9392505050565b5f8115159050919050565b6111cf816111bb565b81146111d9575f5ffd5b50565b5f815190506111ea816111c6565b92915050565b5f6020828403121561120557611204610e66565b5b5f611212848285016111dc565b91505092915050565b7f5472616e73666572206661696c656400000000000000000000000000000000005f82015250565b5f61124f600f83611054565b915061125a8261121b565b602082019050919050565b5f6020820190508181035f83015261127c81611243565b9050919050565b5f6040820190506112965f830185610ef8565b6112a36020830184610ef8565b9392505050565b5f815190506112b881610f4a565b92915050565b5f602082840312156112d3576112d2610e66565b5b5f6112e0848285016112aa565b91505092915050565b7f4e6f74206f776e657200000000000000000000000000000000000000000000005f82015250565b5f61131d600983611054565b9150611328826112e9565b602082019050919050565b5f6020820190508181035f83015261134a81611311565b9050919050565b5f6060820190506113645f83018661102c565b611371602083018561102c565b61137e6040830184610ef8565b949350505050565b7f46756e64207472616e73666572206661696c65640000000000000000000000005f82015250565b5f6113ba601483611054565b91506113c582611386565b602082019050919050565b5f6020820190508181035f8301526113e7816113ae565b9050919050565b7f43616e6e6f74207374616b6520300000000000000000000000000000000000005f82015250565b5f611422600e83611054565b915061142d826113ee565b602082019050919050565b5f6020820190508181035f83015261144f81611416565b9050919050565b5f61146082610eef565b915061146b83610eef565b925082820190508082111561148357611482611134565b5b92915050565b7f4e6f2072657761726420746f20636c61696d00000000000000000000000000005f82015250565b5f6114bd601283611054565b91506114c882611489565b602082019050919050565b5f6020820190508181035f8301526114ea816114b1565b9050919050565b7f526577617264207472616e73666572206661696c6564000000000000000000005f82015250565b5f611525601683611054565b9150611530826114f1565b602082019050919050565b5f6020820190508181035f83015261155281611519565b9050919050565b7f4e6f7468696e67207374616b65640000000000000000000000000000000000005f82015250565b5f61158d600e83611054565b915061159882611559565b602082019050919050565b5f6020820190508181035f8301526115ba81611581565b9050919050565b5f6115cb82610eef565b91506115d683610eef565b92508282026115e481610eef565b915082820484148315176115fb576115fa611134565b5b5092915050565b7f4e487b71000000000000000000000000000000000000000000000000000000005f52601260045260245ffd5b5f61163982610eef565b915061164483610eef565b92508261165457611653611602565b5b82820490509291505056fea26469706673582212204c7d8823ce863d62b9178fdcced05f3c88ca0ef536f6c6f16abcd20caa06405c64736f6c63430008220033",
					"opcodes": "PUSH1 0xA0 PUSH1 0x40 MSTORE CALLVALUE DUP1 ISZERO PUSH2 0xF JUMPI PUSH0 PUSH0 REVERT JUMPDEST POP PUSH1 0x40 MLOAD PUSH2 0x180A CODESIZE SUB DUP1 PUSH2 0x180A DUP4 CODECOPY DUP2 DUP2 ADD PUSH1 0x40 MSTORE DUP2 ADD SWAP1 PUSH2 0x31 SWAP2 SWAP1 PUSH2 0x108 JUMP JUMPDEST DUP1 PUSH20 0xFFFFFFFFFFFFFFFFFFFFFFFFFFFFFFFFFFFFFFFF AND PUSH1 0x80 DUP2 PUSH20 0xFFFFFFFFFFFFFFFFFFFFFFFFFFFFFFFFFFFFFFFF AND DUP2 MSTORE POP POP CALLER PUSH0 PUSH0 PUSH2 0x100 EXP DUP2 SLOAD DUP2 PUSH20 0xFFFFFFFFFFFFFFFFFFFFFFFFFFFFFFFFFFFFFFFF MUL NOT AND SWAP1 DUP4 PUSH20 0xFFFFFFFFFFFFFFFFFFFFFFFFFFFFFFFFFFFFFFFF AND MUL OR SWAP1 SSTORE POP POP PUSH2 0x133 JUMP JUMPDEST PUSH0 PUSH0 REVERT JUMPDEST PUSH0 PUSH20 0xFFFFFFFFFFFFFFFFFFFFFFFFFFFFFFFFFFFFFFFF DUP3 AND SWAP1 POP SWAP2 SWAP1 POP JUMP JUMPDEST PUSH0 PUSH2 0xD7 DUP3 PUSH2 0xAE JUMP JUMPDEST SWAP1 POP SWAP2 SWAP1 POP JUMP JUMPDEST PUSH2 0xE7 DUP2 PUSH2 0xCD JUMP JUMPDEST DUP2 EQ PUSH2 0xF1 JUMPI PUSH0 PUSH0 REVERT JUMPDEST POP JUMP JUMPDEST PUSH0 DUP2 MLOAD SWAP1 POP PUSH2 0x102 DUP2 PUSH2 0xDE JUMP JUMPDEST SWAP3 SWAP2 POP POP JUMP JUMPDEST PUSH0 PUSH1 0x20 DUP3 DUP5 SUB SLT ISZERO PUSH2 0x11D JUMPI PUSH2 0x11C PUSH2 0xAA JUMP JUMPDEST JUMPDEST PUSH0 PUSH2 0x12A DUP5 DUP3 DUP6 ADD PUSH2 0xF4 JUMP JUMPDEST SWAP2 POP POP SWAP3 SWAP2 POP POP JUMP JUMPDEST PUSH1 0x80 MLOAD PUSH2 0x1695 PUSH2 0x175 PUSH0 CODECOPY PUSH0 DUP2 DUP2 PUSH2 0x35C ADD MSTORE DUP2 DUP2 PUSH2 0x48E ADD MSTORE DUP2 DUP2 PUSH2 0x4B9 ADD MSTORE DUP2 DUP2 PUSH2 0x609 ADD MSTORE DUP2 DUP2 PUSH2 0x78C ADD MSTORE DUP2 DUP2 PUSH2 0x9B5 ADD MSTORE PUSH2 0xC49 ADD MSTORE PUSH2 0x1695 PUSH0 RETURN INVALID PUSH1 0x80 PUSH1 0x40 MSTORE CALLVALUE DUP1 ISZERO PUSH2 0xF JUMPI PUSH0 PUSH0 REVERT JUMPDEST POP PUSH1 0x4 CALLDATASIZE LT PUSH2 0xB2 JUMPI PUSH0 CALLDATALOAD PUSH1 0xE0 SHR DUP1 PUSH4 0x93707A19 GT PUSH2 0x6F JUMPI DUP1 PUSH4 0x93707A19 EQ PUSH2 0x17D JUMPI DUP1 PUSH4 0xA694FC3A EQ PUSH2 0x199 JUMPI DUP1 PUSH4 0xB88A802F EQ PUSH2 0x1B5 JUMPI DUP1 PUSH4 0xC3453153 EQ PUSH2 0x1BF JUMPI DUP1 PUSH4 0xDA534353 EQ PUSH2 0x1F2 JUMPI DUP1 PUSH4 0xDB2E21BC EQ PUSH2 0x210 JUMPI PUSH2 0xB2 JUMP JUMPDEST DUP1 PUSH4 0x16934FC4 EQ PUSH2 0xB6 JUMPI DUP1 PUSH4 0x2E17DE78 EQ PUSH2 0xE9 JUMPI DUP1 PUSH4 0x72F702F3 EQ PUSH2 0x105 JUMPI DUP1 PUSH4 0x817B1CD2 EQ PUSH2 0x123 JUMPI DUP1 PUSH4 0x8B7AFE2E EQ PUSH2 0x141 JUMPI DUP1 PUSH4 0x8DA5CB5B EQ PUSH2 0x15F JUMPI JUMPDEST PUSH0 PUSH0 REVERT JUMPDEST PUSH2 0xD0 PUSH1 0x4 DUP1 CALLDATASIZE SUB DUP2 ADD SWAP1 PUSH2 0xCB SWAP2 SWAP1 PUSH2 0xEC4 JUMP JUMPDEST PUSH2 0x21A JUMP JUMPDEST PUSH1 0x40 MLOAD PUSH2 0xE0 SWAP5 SWAP4 SWAP3 SWAP2 SWAP1 PUSH2 0xF07 JUMP JUMPDEST PUSH1 0x40 MLOAD DUP1 SWAP2 SUB SWAP1 RETURN JUMPDEST PUSH2 0x103 PUSH1 0x4 DUP1 CALLDATASIZE SUB DUP2 ADD SWAP1 PUSH2 0xFE SWAP2 SWAP1 PUSH2 0xF74 JUMP JUMPDEST PUSH2 0x246 JUMP JUMPDEST STOP JUMPDEST PUSH2 0x10D PUSH2 0x48C JUMP JUMPDEST PUSH1 0x40 MLOAD PUSH2 0x11A SWAP2 SWAP1 PUSH2 0xFFA JUMP JUMPDEST PUSH1 0x40 MLOAD DUP1 SWAP2 SUB SWAP1 RETURN JUMPDEST PUSH2 0x12B PUSH2 0x4B0 JUMP JUMPDEST PUSH1 0x40 MLOAD PUSH2 0x138 SWAP2 SWAP1 PUSH2 0x1013 JUMP JUMPDEST PUSH1 0x40 MLOAD DUP1 SWAP2 SUB SWAP1 RETURN JUMPDEST PUSH2 0x149 PUSH2 0x4B6 JUMP JUMPDEST PUSH1 0x40 MLOAD PUSH2 0x156 SWAP2 SWAP1 PUSH2 0x1013 JUMP JUMPDEST PUSH1 0x40 MLOAD DUP1 SWAP2 SUB SWAP1 RETURN JUMPDEST PUSH2 0x167 PUSH2 0x554 JUMP JUMPDEST PUSH1 0x40 MLOAD PUSH2 0x174 SWAP2 SWAP1 PUSH2 0x103B JUMP JUMPDEST PUSH1 0x40 MLOAD DUP1 SWAP2 SUB SWAP1 RETURN JUMPDEST PUSH2 0x197 PUSH1 0x4 DUP1 CALLDATASIZE SUB DUP2 ADD SWAP1 PUSH2 0x192 SWAP2 SWAP1 PUSH2 0xF74 JUMP JUMPDEST PUSH2 0x578 JUMP JUMPDEST STOP JUMPDEST PUSH2 0x1B3 PUSH1 0x4 DUP1 CALLDATASIZE SUB DUP2 ADD SWAP1 PUSH2 0x1AE SWAP2 SWAP1 PUSH2 0xF74 JUMP JUMPDEST PUSH2 0x6EA JUMP JUMPDEST STOP JUMPDEST PUSH2 0x1BD PUSH2 0x8F8 JUMP JUMPDEST STOP JUMPDEST PUSH2 0x1D9 PUSH1 0x4 DUP1 CALLDATASIZE SUB DUP2 ADD SWAP1 PUSH2 0x1D4 SWAP2 SWAP1 PUSH2 0xEC4 JUMP JUMPDEST PUSH2 0xAE5 JUMP JUMPDEST PUSH1 0x40 MLOAD PUSH2 0x1E9 SWAP5 SWAP4 SWAP3 SWAP2 SWAP1 PUSH2 0xF07 JUMP JUMPDEST PUSH1 0x40 MLOAD DUP1 SWAP2 SUB SWAP1 RETURN JUMPDEST PUSH2 0x1FA PUSH2 0xB82 JUMP JUMPDEST PUSH1 0x40 MLOAD PUSH2 0x207 SWAP2 SWAP1 PUSH2 0x1013 JUMP JUMPDEST PUSH1 0x40 MLOAD DUP1 SWAP2 SUB SWAP1 RETURN JUMPDEST PUSH2 0x218 PUSH2 0xB8B JUMP JUMPDEST STOP JUMPDEST PUSH1 0x2 PUSH1 0x20 MSTORE DUP1 PUSH0 MSTORE PUSH1 0x40 PUSH0 KECCAK256 PUSH0 SWAP2 POP SWAP1 POP DUP1 PUSH0 ADD SLOAD SWAP1 DUP1 PUSH1 0x1 ADD SLOAD SWAP1 DUP1 PUSH1 0x2 ADD SLOAD SWAP1 DUP1 PUSH1 0x3 ADD SLOAD SWAP1 POP DUP5 JUMP JUMPDEST PUSH0 PUSH1 0x2 PUSH0 CALLER PUSH20 0xFFFFFFFFFFFFFFFFFFFFFFFFFFFFFFFFFFFFFFFF AND PUSH20 0xFFFFFFFFFFFFFFFFFFFFFFFFFFFFFFFFFFFFFFFF AND DUP2 MSTORE PUSH1 0x20 ADD SWAP1 DUP2 MSTORE PUSH1 0x20 ADD PUSH0 KECCAK256 SWAP1 POP DUP2 DUP2 PUSH0 ADD SLOAD LT ISZERO PUSH2 0x2CC JUMPI PUSH1 0x40 MLOAD PUSH32 0x8C379A000000000000000000000000000000000000000000000000000000000 DUP2 MSTORE PUSH1 0x4 ADD PUSH2 0x2C3 SWAP1 PUSH2 0x10AE JUMP JUMPDEST PUSH1 0x40 MLOAD DUP1 SWAP2 SUB SWAP1 REVERT JUMPDEST PUSH0 DUP3 GT PUSH2 0x30E JUMPI PUSH1 0x40 MLOAD PUSH32 0x8C379A000000000000000000000000000000000000000000000000000000000 DUP2 MSTORE PUSH1 0x4 ADD PUSH2 0x305 SWAP1 PUSH2 0x1116 JUMP JUMPDEST PUSH1 0x40 MLOAD DUP1 SWAP2 SUB SWAP1 REVERT JUMPDEST PUSH2 0x317 CALLER PUSH2 0xD79 JUMP JUMPDEST DUP2 PUSH1 0x3 ADD DUP2 SWAP1 SSTORE POP DUP2 DUP2 PUSH0 ADD PUSH0 DUP3 DUP3 SLOAD PUSH2 0x331 SWAP2 SWAP1 PUSH2 0x1161 JUMP JUMPDEST SWAP3 POP POP DUP2 SWAP1 SSTORE POP TIMESTAMP DUP2 PUSH1 0x1 ADD DUP2 SWAP1 SSTORE POP DUP2 PUSH1 0x1 PUSH0 DUP3 DUP3 SLOAD PUSH2 0x352 SWAP2 SWAP1 PUSH2 0x1161 JUMP JUMPDEST SWAP3 POP POP DUP2 SWAP1 SSTORE POP PUSH0 PUSH32 0x0 PUSH20 0xFFFFFFFFFFFFFFFFFFFFFFFFFFFFFFFFFFFFFFFF AND PUSH4 0xA9059CBB CALLER DUP6 PUSH1 0x40 MLOAD DUP4 PUSH4 0xFFFFFFFF AND PUSH1 0xE0 SHL DUP2 MSTORE PUSH1 0x4 ADD PUSH2 0x3B5 SWAP3 SWAP2 SWAP1 PUSH2 0x1194 JUMP JUMPDEST PUSH1 0x20 PUSH1 0x40 MLOAD DUP1 DUP4 SUB DUP2 PUSH0 DUP8 GAS CALL ISZERO DUP1 ISZERO PUSH2 0x3D1 JUMPI RETURNDATASIZE PUSH0 PUSH0 RETURNDATACOPY RETURNDATASIZE PUSH0 REVERT JUMPDEST POP POP POP POP PUSH1 0x40 MLOAD RETURNDATASIZE PUSH1 0x1F NOT PUSH1 0x1F DUP3 ADD AND DUP3 ADD DUP1 PUSH1 0x40 MSTORE POP DUP2 ADD SWAP1 PUSH2 0x3F5 SWAP2 SWAP1 PUSH2 0x11F0 JUMP JUMPDEST SWAP1 POP DUP1 PUSH2 0x437 JUMPI PUSH1 0x40 MLOAD PUSH32 0x8C379A000000000000000000000000000000000000000000000000000000000 DUP2 MSTORE PUSH1 0x4 ADD PUSH2 0x42E SWAP1 PUSH2 0x1265 JUMP JUMPDEST PUSH1 0x40 MLOAD DUP1 SWAP2 SUB SWAP1 REVERT JUMPDEST CALLER PUSH20 0xFFFFFFFFFFFFFFFFFFFFFFFFFFFFFFFFFFFFFFFF AND PUSH32 0x7FC4727E062E336010F2C282598EF5F14FACB3DE68CF8195C2F23E1454B2B74E DUP5 TIMESTAMP PUSH1 0x40 MLOAD PUSH2 0x47F SWAP3 SWAP2 SWAP1 PUSH2 0x1283 JUMP JUMPDEST PUSH1 0x40 MLOAD DUP1 SWAP2 SUB SWAP1 LOG2 POP POP POP JUMP JUMPDEST PUSH32 0x0 DUP2 JUMP JUMPDEST PUSH1 0x1 SLOAD DUP2 JUMP JUMPDEST PUSH0 PUSH32 0x0 PUSH20 0xFFFFFFFFFFFFFFFFFFFFFFFFFFFFFFFFFFFFFFFF AND PUSH4 0x70A08231 ADDRESS PUSH1 0x40 MLOAD DUP3 PUSH4 0xFFFFFFFF AND PUSH1 0xE0 SHL DUP2 MSTORE PUSH1 0x4 ADD PUSH2 0x510 SWAP2 SWAP1 PUSH2 0x103B JUMP JUMPDEST PUSH1 0x20 PUSH1 0x40 MLOAD DUP1 DUP4 SUB DUP2 DUP7 GAS STATICCALL ISZERO DUP1 ISZERO PUSH2 0x52B JUMPI RETURNDATASIZE PUSH0 PUSH0 RETURNDATACOPY RETURNDATASIZE PUSH0 REVERT JUMPDEST POP POP POP POP PUSH1 0x40 MLOAD RETURNDATASIZE PUSH1 0x1F NOT PUSH1 0x1F DUP3 ADD AND DUP3 ADD DUP1 PUSH1 0x40 MSTORE POP DUP2 ADD SWAP1 PUSH2 0x54F SWAP2 SWAP1 PUSH2 0x12BE JUMP JUMPDEST SWAP1 POP SWAP1 JUMP JUMPDEST PUSH0 PUSH0 SWAP1 SLOAD SWAP1 PUSH2 0x100 EXP SWAP1 DIV PUSH20 0xFFFFFFFFFFFFFFFFFFFFFFFFFFFFFFFFFFFFFFFF AND DUP2 JUMP JUMPDEST PUSH0 PUSH0 SWAP1 SLOAD SWAP1 PUSH2 0x100 EXP SWAP1 DIV PUSH20 0xFFFFFFFFFFFFFFFFFFFFFFFFFFFFFFFFFFFFFFFF AND PUSH20 0xFFFFFFFFFFFFFFFFFFFFFFFFFFFFFFFFFFFFFFFF AND CALLER PUSH20 0xFFFFFFFFFFFFFFFFFFFFFFFFFFFFFFFFFFFFFFFF AND EQ PUSH2 0x606 JUMPI PUSH1 0x40 MLOAD PUSH32 0x8C379A000000000000000000000000000000000000000000000000000000000 DUP2 MSTORE PUSH1 0x4 ADD PUSH2 0x5FD SWAP1 PUSH2 0x1333 JUMP JUMPDEST PUSH1 0x40 MLOAD DUP1 SWAP2 SUB SWAP1 REVERT JUMPDEST PUSH0 PUSH32 0x0 PUSH20 0xFFFFFFFFFFFFFFFFFFFFFFFFFFFFFFFFFFFFFFFF AND PUSH4 0x23B872DD CALLER ADDRESS DUP6 PUSH1 0x40 MLOAD DUP5 PUSH4 0xFFFFFFFF AND PUSH1 0xE0 SHL DUP2 MSTORE PUSH1 0x4 ADD PUSH2 0x664 SWAP4 SWAP3 SWAP2 SWAP1 PUSH2 0x1351 JUMP JUMPDEST PUSH1 0x20 PUSH1 0x40 MLOAD DUP1 DUP4 SUB DUP2 PUSH0 DUP8 GAS CALL ISZERO DUP1 ISZERO PUSH2 0x680 JUMPI RETURNDATASIZE PUSH0 PUSH0 RETURNDATACOPY RETURNDATASIZE PUSH0 REVERT JUMPDEST POP POP POP POP PUSH1 0x40 MLOAD RETURNDATASIZE PUSH1 0x1F NOT PUSH1 0x1F DUP3 ADD AND DUP3 ADD DUP1 PUSH1 0x40 MSTORE POP DUP2 ADD SWAP1 PUSH2 0x6A4 SWAP2 SWAP1 PUSH2 0x11F0 JUMP JUMPDEST SWAP1 POP DUP1 PUSH2 0x6E6 JUMPI PUSH1 0x40 MLOAD PUSH32 0x8C379A000000000000000000000000000000000000000000000000000000000 DUP2 MSTORE PUSH1 0x4 ADD PUSH2 0x6DD SWAP1 PUSH2 0x13D0 JUMP JUMPDEST PUSH1 0x40 MLOAD DUP1 SWAP2 SUB SWAP1 REVERT JUMPDEST POP POP JUMP JUMPDEST PUSH0 DUP2 GT PUSH2 0x72C JUMPI PUSH1 0x40 MLOAD PUSH32 0x8C379A000000000000000000000000000000000000000000000000000000000 DUP2 MSTORE PUSH1 0x4 ADD PUSH2 0x723 SWAP1 PUSH2 0x1438 JUMP JUMPDEST PUSH1 0x40 MLOAD DUP1 SWAP2 SUB SWAP1 REVERT JUMPDEST PUSH0 PUSH1 0x2 PUSH0 CALLER PUSH20 0xFFFFFFFFFFFFFFFFFFFFFFFFFFFFFFFFFFFFFFFF AND PUSH20 0xFFFFFFFFFFFFFFFFFFFFFFFFFFFFFFFFFFFFFFFF AND DUP2 MSTORE PUSH1 0x20 ADD SWAP1 DUP2 MSTORE PUSH1 0x20 ADD PUSH0 KECCAK256 SWAP1 POP PUSH0 DUP2 PUSH0 ADD SLOAD GT ISZERO PUSH2 0x789 JUMPI PUSH2 0x780 CALLER PUSH2 0xD79 JUMP JUMPDEST DUP2 PUSH1 0x3 ADD DUP2 SWAP1 SSTORE POP JUMPDEST PUSH0 PUSH32 0x0 PUSH20 0xFFFFFFFFFFFFFFFFFFFFFFFFFFFFFFFFFFFFFFFF AND PUSH4 0x23B872DD CALLER ADDRESS DUP7 PUSH1 0x40 MLOAD DUP5 PUSH4 0xFFFFFFFF AND PUSH1 0xE0 SHL DUP2 MSTORE PUSH1 0x4 ADD PUSH2 0x7E7 SWAP4 SWAP3 SWAP2 SWAP1 PUSH2 0x1351 JUMP JUMPDEST PUSH1 0x20 PUSH1 0x40 MLOAD DUP1 DUP4 SUB DUP2 PUSH0 DUP8 GAS CALL ISZERO DUP1 ISZERO PUSH2 0x803 JUMPI RETURNDATASIZE PUSH0 PUSH0 RETURNDATACOPY RETURNDATASIZE PUSH0 REVERT JUMPDEST POP POP POP POP PUSH1 0x40 MLOAD RETURNDATASIZE PUSH1 0x1F NOT PUSH1 0x1F DUP3 ADD AND DUP3 ADD DUP1 PUSH1 0x40 MSTORE POP DUP2 ADD SWAP1 PUSH2 0x827 SWAP2 SWAP1 PUSH2 0x11F0 JUMP JUMPDEST SWAP1 POP DUP1 PUSH2 0x869 JUMPI PUSH1 0x40 MLOAD PUSH32 0x8C379A000000000000000000000000000000000000000000000000000000000 DUP2 MSTORE PUSH1 0x4 ADD PUSH2 0x860 SWAP1 PUSH2 0x1265 JUMP JUMPDEST PUSH1 0x40 MLOAD DUP1 SWAP2 SUB SWAP1 REVERT JUMPDEST DUP3 DUP3 PUSH0 ADD PUSH0 DUP3 DUP3 SLOAD PUSH2 0x87B SWAP2 SWAP1 PUSH2 0x1456 JUMP JUMPDEST SWAP3 POP POP DUP2 SWAP1 SSTORE POP TIMESTAMP DUP3 PUSH1 0x1 ADD DUP2 SWAP1 SSTORE POP DUP3 PUSH1 0x1 PUSH0 DUP3 DUP3 SLOAD PUSH2 0x89C SWAP2 SWAP1 PUSH2 0x1456 JUMP JUMPDEST SWAP3 POP POP DUP2 SWAP1 SSTORE POP CALLER PUSH20 0xFFFFFFFFFFFFFFFFFFFFFFFFFFFFFFFFFFFFFFFF AND PUSH32 0x1449C6DD7851ABC30ABF37F57715F492010519147CC2652FBC38202C18A6EE90 DUP5 TIMESTAMP PUSH1 0x40 MLOAD PUSH2 0x8EB SWAP3 SWAP2 SWAP1 PUSH2 0x1283 JUMP JUMPDEST PUSH1 0x40 MLOAD DUP1 SWAP2 SUB SWAP1 LOG2 POP POP POP JUMP JUMPDEST PUSH0 PUSH1 0x2 PUSH0 CALLER PUSH20 0xFFFFFFFFFFFFFFFFFFFFFFFFFFFFFFFFFFFFFFFF AND PUSH20 0xFFFFFFFFFFFFFFFFFFFFFFFFFFFFFFFFFFFFFFFF AND DUP2 MSTORE PUSH1 0x20 ADD SWAP1 DUP2 MSTORE PUSH1 0x20 ADD PUSH0 KECCAK256 SWAP1 POP PUSH0 PUSH2 0x942 CALLER PUSH2 0xD79 JUMP JUMPDEST SWAP1 POP PUSH0 DUP2 GT PUSH2 0x986 JUMPI PUSH1 0x40 MLOAD PUSH32 0x8C379A000000000000000000000000000000000000000000000000000000000 DUP2 MSTORE PUSH1 0x4 ADD PUSH2 0x97D SWAP1 PUSH2 0x14D3 JUMP JUMPDEST PUSH1 0x40 MLOAD DUP1 SWAP2 SUB SWAP1 REVERT JUMPDEST PUSH0 DUP3 PUSH1 0x3 ADD DUP2 SWAP1 SSTORE POP TIMESTAMP DUP3 PUSH1 0x1 ADD DUP2 SWAP1 SSTORE POP DUP1 DUP3 PUSH1 0x2 ADD PUSH0 DUP3 DUP3 SLOAD PUSH2 0x9AB SWAP2 SWAP1 PUSH2 0x1456 JUMP JUMPDEST SWAP3 POP POP DUP2 SWAP1 SSTORE POP PUSH0 PUSH32 0x0 PUSH20 0xFFFFFFFFFFFFFFFFFFFFFFFFFFFFFFFFFFFFFFFF AND PUSH4 0xA9059CBB CALLER DUP5 PUSH1 0x40 MLOAD DUP4 PUSH4 0xFFFFFFFF AND PUSH1 0xE0 SHL DUP2 MSTORE PUSH1 0x4 ADD PUSH2 0xA0E SWAP3 SWAP2 SWAP1 PUSH2 0x1194 JUMP JUMPDEST PUSH1 0x20 PUSH1 0x40 MLOAD DUP1 DUP4 SUB DUP2 PUSH0 DUP8 GAS CALL ISZERO DUP1 ISZERO PUSH2 0xA2A JUMPI RETURNDATASIZE PUSH0 PUSH0 RETURNDATACOPY RETURNDATASIZE PUSH0 REVERT JUMPDEST POP POP POP POP PUSH1 0x40 MLOAD RETURNDATASIZE PUSH1 0x1F NOT PUSH1 0x1F DUP3 ADD AND DUP3 ADD DUP1 PUSH1 0x40 MSTORE POP DUP2 ADD SWAP1 PUSH2 0xA4E SWAP2 SWAP1 PUSH2 0x11F0 JUMP JUMPDEST SWAP1 POP DUP1 PUSH2 0xA90 JUMPI PUSH1 0x40 MLOAD PUSH32 0x8C379A000000000000000000000000000000000000000000000000000000000 DUP2 MSTORE PUSH1 0x4 ADD PUSH2 0xA87 SWAP1 PUSH2 0x153B JUMP JUMPDEST PUSH1 0x40 MLOAD DUP1 SWAP2 SUB SWAP1 REVERT JUMPDEST CALLER PUSH20 0xFFFFFFFFFFFFFFFFFFFFFFFFFFFFFFFFFFFFFFFF AND PUSH32 0xF01DA32686223933D8A18A391060918C7F11A3648639EDD87AE013E2E2731743 DUP4 TIMESTAMP PUSH1 0x40 MLOAD PUSH2 0xAD8 SWAP3 SWAP2 SWAP1 PUSH2 0x1283 JUMP JUMPDEST PUSH1 0x40 MLOAD DUP1 SWAP2 SUB SWAP1 LOG2 POP POP POP JUMP JUMPDEST PUSH0 PUSH0 PUSH0 PUSH0 PUSH0 PUSH1 0x2 PUSH0 DUP8 PUSH20 0xFFFFFFFFFFFFFFFFFFFFFFFFFFFFFFFFFFFFFFFF AND PUSH20 0xFFFFFFFFFFFFFFFFFFFFFFFFFFFFFFFFFFFFFFFF AND DUP2 MSTORE PUSH1 0x20 ADD SWAP1 DUP2 MSTORE PUSH1 0x20 ADD PUSH0 KECCAK256 PUSH1 0x40 MLOAD DUP1 PUSH1 0x80 ADD PUSH1 0x40 MSTORE SWAP1 DUP2 PUSH0 DUP3 ADD SLOAD DUP2 MSTORE PUSH1 0x20 ADD PUSH1 0x1 DUP3 ADD SLOAD DUP2 MSTORE PUSH1 0x20 ADD PUSH1 0x2 DUP3 ADD SLOAD DUP2 MSTORE PUSH1 0x20 ADD PUSH1 0x3 DUP3 ADD SLOAD DUP2 MSTORE POP POP SWAP1 POP DUP1 PUSH0 ADD MLOAD PUSH2 0xB68 DUP8 PUSH2 0xD79 JUMP JUMPDEST DUP3 PUSH1 0x20 ADD MLOAD DUP4 PUSH1 0x40 ADD MLOAD SWAP5 POP SWAP5 POP SWAP5 POP SWAP5 POP POP SWAP2 SWAP4 POP SWAP2 SWAP4 JUMP JUMPDEST PUSH5 0xE8D4A51000 DUP2 JUMP JUMPDEST PUSH0 PUSH1 0x2 PUSH0 CALLER PUSH20 0xFFFFFFFFFFFFFFFFFFFFFFFFFFFFFFFFFFFFFFFF AND PUSH20 0xFFFFFFFFFFFFFFFFFFFFFFFFFFFFFFFFFFFFFFFF AND DUP2 MSTORE PUSH1 0x20 ADD SWAP1 DUP2 MSTORE PUSH1 0x20 ADD PUSH0 KECCAK256 SWAP1 POP PUSH0 DUP2 PUSH0 ADD SLOAD SWAP1 POP PUSH0 DUP2 GT PUSH2 0xC14 JUMPI PUSH1 0x40 MLOAD PUSH32 0x8C379A000000000000000000000000000000000000000000000000000000000 DUP2 MSTORE PUSH1 0x4 ADD PUSH2 0xC0B SWAP1 PUSH2 0x15A3 JUMP JUMPDEST PUSH1 0x40 MLOAD DUP1 SWAP2 SUB SWAP1 REVERT JUMPDEST DUP1 PUSH1 0x1 PUSH0 DUP3 DUP3 SLOAD PUSH2 0xC25 SWAP2 SWAP1 PUSH2 0x1161 JUMP JUMPDEST SWAP3 POP POP DUP2 SWAP1 SSTORE POP PUSH0 DUP3 PUSH0 ADD DUP2 SWAP1 SSTORE POP PUSH0 DUP3 PUSH1 0x3 ADD DUP2 SWAP1 SSTORE POP PUSH0 DUP3 PUSH1 0x1 ADD DUP2 SWAP1 SSTORE POP PUSH0 PUSH32 0x0 PUSH20 0xFFFFFFFFFFFFFFFFFFFFFFFFFFFFFFFFFFFFFFFF AND PUSH4 0xA9059CBB CALLER DUP5 PUSH1 0x40 MLOAD DUP4 PUSH4 0xFFFFFFFF AND PUSH1 0xE0 SHL DUP2 MSTORE PUSH1 0x4 ADD PUSH2 0xCA2 SWAP3 SWAP2 SWAP1 PUSH2 0x1194 JUMP JUMPDEST PUSH1 0x20 PUSH1 0x40 MLOAD DUP1 DUP4 SUB DUP2 PUSH0 DUP8 GAS CALL ISZERO DUP1 ISZERO PUSH2 0xCBE JUMPI RETURNDATASIZE PUSH0 PUSH0 RETURNDATACOPY RETURNDATASIZE PUSH0 REVERT JUMPDEST POP POP POP POP PUSH1 0x40 MLOAD RETURNDATASIZE PUSH1 0x1F NOT PUSH1 0x1F DUP3 ADD AND DUP3 ADD DUP1 PUSH1 0x40 MSTORE POP DUP2 ADD SWAP1 PUSH2 0xCE2 SWAP2 SWAP1 PUSH2 0x11F0 JUMP JUMPDEST SWAP1 POP DUP1 PUSH2 0xD24 JUMPI PUSH1 0x40 MLOAD PUSH32 0x8C379A000000000000000000000000000000000000000000000000000000000 DUP2 MSTORE PUSH1 0x4 ADD PUSH2 0xD1B SWAP1 PUSH2 0x1265 JUMP JUMPDEST PUSH1 0x40 MLOAD DUP1 SWAP2 SUB SWAP1 REVERT JUMPDEST CALLER PUSH20 0xFFFFFFFFFFFFFFFFFFFFFFFFFFFFFFFFFFFFFFFF AND PUSH32 0xBB757047C2B5F3974FE26B7C10F732E7BCE710B0952A71082702781E62AE0595 DUP4 TIMESTAMP PUSH1 0x40 MLOAD PUSH2 0xD6C SWAP3 SWAP2 SWAP1 PUSH2 0x1283 JUMP JUMPDEST PUSH1 0x40 MLOAD DUP1 SWAP2 SUB SWAP1 LOG2 POP POP POP JUMP JUMPDEST PUSH0 PUSH0 PUSH1 0x2 PUSH0 DUP5 PUSH20 0xFFFFFFFFFFFFFFFFFFFFFFFFFFFFFFFFFFFFFFFF AND PUSH20 0xFFFFFFFFFFFFFFFFFFFFFFFFFFFFFFFFFFFFFFFF AND DUP2 MSTORE PUSH1 0x20 ADD SWAP1 DUP2 MSTORE PUSH1 0x20 ADD PUSH0 KECCAK256 PUSH1 0x40 MLOAD DUP1 PUSH1 0x80 ADD PUSH1 0x40 MSTORE SWAP1 DUP2 PUSH0 DUP3 ADD SLOAD DUP2 MSTORE PUSH1 0x20 ADD PUSH1 0x1 DUP3 ADD SLOAD DUP2 MSTORE PUSH1 0x20 ADD PUSH1 0x2 DUP3 ADD SLOAD DUP2 MSTORE PUSH1 0x20 ADD PUSH1 0x3 DUP3 ADD SLOAD DUP2 MSTORE POP POP SWAP1 POP PUSH0 DUP2 PUSH0 ADD MLOAD SUB PUSH2 0xE03 JUMPI DUP1 PUSH1 0x60 ADD MLOAD SWAP2 POP POP PUSH2 0xE61 JUMP JUMPDEST PUSH0 DUP2 PUSH1 0x20 ADD MLOAD TIMESTAMP PUSH2 0xE14 SWAP2 SWAP1 PUSH2 0x1161 JUMP JUMPDEST SWAP1 POP PUSH0 PUSH8 0xDE0B6B3A7640000 PUSH5 0xE8D4A51000 DUP4 DUP6 PUSH0 ADD MLOAD PUSH2 0xE35 SWAP2 SWAP1 PUSH2 0x15C1 JUMP JUMPDEST PUSH2 0xE3F SWAP2 SWAP1 PUSH2 0x15C1 JUMP JUMPDEST PUSH2 0xE49 SWAP2 SWAP1 PUSH2 0x162F JUMP JUMPDEST SWAP1 POP DUP1 DUP4 PUSH1 0x60 ADD MLOAD PUSH2 0xE5B SWAP2 SWAP1 PUSH2 0x1456 JUMP JUMPDEST SWAP4 POP POP POP POP JUMPDEST SWAP2 SWAP1 POP JUMP JUMPDEST PUSH0 PUSH0 REVERT JUMPDEST PUSH0 PUSH20 0xFFFFFFFFFFFFFFFFFFFFFFFFFFFFFFFFFFFFFFFF DUP3 AND SWAP1 POP SWAP2 SWAP1 POP JUMP JUMPDEST PUSH0 PUSH2 0xE93 DUP3 PUSH2 0xE6A JUMP JUMPDEST SWAP1 POP SWAP2 SWAP1 POP JUMP JUMPDEST PUSH2 0xEA3 DUP2 PUSH2 0xE89 JUMP JUMPDEST DUP2 EQ PUSH2 0xEAD JUMPI PUSH0 PUSH0 REVERT JUMPDEST POP JUMP JUMPDEST PUSH0 DUP2 CALLDATALOAD SWAP1 POP PUSH2 0xEBE DUP2 PUSH2 0xE9A JUMP JUMPDEST SWAP3 SWAP2 POP POP JUMP JUMPDEST PUSH0 PUSH1 0x20 DUP3 DUP5 SUB SLT ISZERO PUSH2 0xED9 JUMPI PUSH2 0xED8 PUSH2 0xE66 JUMP JUMPDEST JUMPDEST PUSH0 PUSH2 0xEE6 DUP5 DUP3 DUP6 ADD PUSH2 0xEB0 JUMP JUMPDEST SWAP2 POP POP SWAP3 SWAP2 POP POP JUMP JUMPDEST PUSH0 DUP2 SWAP1 POP SWAP2 SWAP1 POP JUMP JUMPDEST PUSH2 0xF01 DUP2 PUSH2 0xEEF JUMP JUMPDEST DUP3 MSTORE POP POP JUMP JUMPDEST PUSH0 PUSH1 0x80 DUP3 ADD SWAP1 POP PUSH2 0xF1A PUSH0 DUP4 ADD DUP8 PUSH2 0xEF8 JUMP JUMPDEST PUSH2 0xF27 PUSH1 0x20 DUP4 ADD DUP7 PUSH2 0xEF8 JUMP JUMPDEST PUSH2 0xF34 PUSH1 0x40 DUP4 ADD DUP6 PUSH2 0xEF8 JUMP JUMPDEST PUSH2 0xF41 PUSH1 0x60 DUP4 ADD DUP5 PUSH2 0xEF8 JUMP JUMPDEST SWAP6 SWAP5 POP POP POP POP POP JUMP JUMPDEST PUSH2 0xF53 DUP2 PUSH2 0xEEF JUMP JUMPDEST DUP2 EQ PUSH2 0xF5D JUMPI PUSH0 PUSH0 REVERT JUMPDEST POP JUMP JUMPDEST PUSH0 DUP2 CALLDATALOAD SWAP1 POP PUSH2 0xF6E DUP2 PUSH2 0xF4A JUMP JUMPDEST SWAP3 SWAP2 POP POP JUMP JUMPDEST PUSH0 PUSH1 0x20 DUP3 DUP5 SUB SLT ISZERO PUSH2 0xF89 JUMPI PUSH2 0xF88 PUSH2 0xE66 JUMP JUMPDEST JUMPDEST PUSH0 PUSH2 0xF96 DUP5 DUP3 DUP6 ADD PUSH2 0xF60 JUMP JUMPDEST SWAP2 POP POP SWAP3 SWAP2 POP POP JUMP JUMPDEST PUSH0 DUP2 SWAP1 POP SWAP2 SWAP1 POP JUMP JUMPDEST PUSH0 PUSH2 0xFC2 PUSH2 0xFBD PUSH2 0xFB8 DUP5 PUSH2 0xE6A JUMP JUMPDEST PUSH2 0xF9F JUMP JUMPDEST PUSH2 0xE6A JUMP JUMPDEST SWAP1 POP SWAP2 SWAP1 POP JUMP JUMPDEST PUSH0 PUSH2 0xFD3 DUP3 PUSH2 0xFA8 JUMP JUMPDEST SWAP1 POP SWAP2 SWAP1 POP JUMP JUMPDEST PUSH0 PUSH2 0xFE4 DUP3 PUSH2 0xFC9 JUMP JUMPDEST SWAP1 POP SWAP2 SWAP1 POP JUMP JUMPDEST PUSH2 0xFF4 DUP2 PUSH2 0xFDA JUMP JUMPDEST DUP3 MSTORE POP POP JUMP JUMPDEST PUSH0 PUSH1 0x20 DUP3 ADD SWAP1 POP PUSH2 0x100D PUSH0 DUP4 ADD DUP5 PUSH2 0xFEB JUMP JUMPDEST SWAP3 SWAP2 POP POP JUMP JUMPDEST PUSH0 PUSH1 0x20 DUP3 ADD SWAP1 POP PUSH2 0x1026 PUSH0 DUP4 ADD DUP5 PUSH2 0xEF8 JUMP JUMPDEST SWAP3 SWAP2 POP POP JUMP JUMPDEST PUSH2 0x1035 DUP2 PUSH2 0xE89 JUMP JUMPDEST DUP3 MSTORE POP POP JUMP JUMPDEST PUSH0 PUSH1 0x20 DUP3 ADD SWAP1 POP PUSH2 0x104E PUSH0 DUP4 ADD DUP5 PUSH2 0x102C JUMP JUMPDEST SWAP3 SWAP2 POP POP JUMP JUMPDEST PUSH0 DUP3 DUP3 MSTORE PUSH1 0x20 DUP3 ADD SWAP1 POP SWAP3 SWAP2 POP POP JUMP JUMPDEST PUSH32 0x496E73756666696369656E74207374616B656420616D6F756E74000000000000 PUSH0 DUP3 ADD MSTORE POP JUMP JUMPDEST PUSH0 PUSH2 0x1098 PUSH1 0x1A DUP4 PUSH2 0x1054 JUMP JUMPDEST SWAP2 POP PUSH2 0x10A3 DUP3 PUSH2 0x1064 JUMP JUMPDEST PUSH1 0x20 DUP3 ADD SWAP1 POP SWAP2 SWAP1 POP JUMP JUMPDEST PUSH0 PUSH1 0x20 DUP3 ADD SWAP1 POP DUP2 DUP2 SUB PUSH0 DUP4 ADD MSTORE PUSH2 0x10C5 DUP2 PUSH2 0x108C JUMP JUMPDEST SWAP1 POP SWAP2 SWAP1 POP JUMP JUMPDEST PUSH32 0x43616E6E6F7420756E7374616B65203000000000000000000000000000000000 PUSH0 DUP3 ADD MSTORE POP JUMP JUMPDEST PUSH0 PUSH2 0x1100 PUSH1 0x10 DUP4 PUSH2 0x1054 JUMP JUMPDEST SWAP2 POP PUSH2 0x110B DUP3 PUSH2 0x10CC JUMP JUMPDEST PUSH1 0x20 DUP3 ADD SWAP1 POP SWAP2 SWAP1 POP JUMP JUMPDEST PUSH0 PUSH1 0x20 DUP3 ADD SWAP1 POP DUP2 DUP2 SUB PUSH0 DUP4 ADD MSTORE PUSH2 0x112D DUP2 PUSH2 0x10F4 JUMP JUMPDEST SWAP1 POP SWAP2 SWAP1 POP JUMP JUMPDEST PUSH32 0x4E487B7100000000000000000000000000000000000000000000000000000000 PUSH0 MSTORE PUSH1 0x11 PUSH1 0x4 MSTORE PUSH1 0x24 PUSH0 REVERT JUMPDEST PUSH0 PUSH2 0x116B DUP3 PUSH2 0xEEF JUMP JUMPDEST SWAP2 POP PUSH2 0x1176 DUP4 PUSH2 0xEEF JUMP JUMPDEST SWAP3 POP DUP3 DUP3 SUB SWAP1 POP DUP2 DUP2 GT ISZERO PUSH2 0x118E JUMPI PUSH2 0x118D PUSH2 0x1134 JUMP JUMPDEST JUMPDEST SWAP3 SWAP2 POP POP JUMP JUMPDEST PUSH0 PUSH1 0x40 DUP3 ADD SWAP1 POP PUSH2 0x11A7 PUSH0 DUP4 ADD DUP6 PUSH2 0x102C JUMP JUMPDEST PUSH2 0x11B4 PUSH1 0x20 DUP4 ADD DUP5 PUSH2 0xEF8 JUMP JUMPDEST SWAP4 SWAP3 POP POP POP JUMP JUMPDEST PUSH0 DUP2 ISZERO ISZERO SWAP1 POP SWAP2 SWAP1 POP JUMP JUMPDEST PUSH2 0x11CF DUP2 PUSH2 0x11BB JUMP JUMPDEST DUP2 EQ PUSH2 0x11D9 JUMPI PUSH0 PUSH0 REVERT JUMPDEST POP JUMP JUMPDEST PUSH0 DUP2 MLOAD SWAP1 POP PUSH2 0x11EA DUP2 PUSH2 0x11C6 JUMP JUMPDEST SWAP3 SWAP2 POP POP JUMP JUMPDEST PUSH0 PUSH1 0x20 DUP3 DUP5 SUB SLT ISZERO PUSH2 0x1205 JUMPI PUSH2 0x1204 PUSH2 0xE66 JUMP JUMPDEST JUMPDEST PUSH0 PUSH2 0x1212 DUP5 DUP3 DUP6 ADD PUSH2 0x11DC JUMP JUMPDEST SWAP2 POP POP SWAP3 SWAP2 POP POP JUMP JUMPDEST PUSH32 0x5472616E73666572206661696C65640000000000000000000000000000000000 PUSH0 DUP3 ADD MSTORE POP JUMP JUMPDEST PUSH0 PUSH2 0x124F PUSH1 0xF DUP4 PUSH2 0x1054 JUMP JUMPDEST SWAP2 POP PUSH2 0x125A DUP3 PUSH2 0x121B JUMP JUMPDEST PUSH1 0x20 DUP3 ADD SWAP1 POP SWAP2 SWAP1 POP JUMP JUMPDEST PUSH0 PUSH1 0x20 DUP3 ADD SWAP1 POP DUP2 DUP2 SUB PUSH0 DUP4 ADD MSTORE PUSH2 0x127C DUP2 PUSH2 0x1243 JUMP JUMPDEST SWAP1 POP SWAP2 SWAP1 POP JUMP JUMPDEST PUSH0 PUSH1 0x40 DUP3 ADD SWAP1 POP PUSH2 0x1296 PUSH0 DUP4 ADD DUP6 PUSH2 0xEF8 JUMP JUMPDEST PUSH2 0x12A3 PUSH1 0x20 DUP4 ADD DUP5 PUSH2 0xEF8 JUMP JUMPDEST SWAP4 SWAP3 POP POP POP JUMP JUMPDEST PUSH0 DUP2 MLOAD SWAP1 POP PUSH2 0x12B8 DUP2 PUSH2 0xF4A JUMP JUMPDEST SWAP3 SWAP2 POP POP JUMP JUMPDEST PUSH0 PUSH1 0x20 DUP3 DUP5 SUB SLT ISZERO PUSH2 0x12D3 JUMPI PUSH2 0x12D2 PUSH2 0xE66 JUMP JUMPDEST JUMPDEST PUSH0 PUSH2 0x12E0 DUP5 DUP3 DUP6 ADD PUSH2 0x12AA JUMP JUMPDEST SWAP2 POP POP SWAP3 SWAP2 POP POP JUMP JUMPDEST PUSH32 0x4E6F74206F776E65720000000000000000000000000000000000000000000000 PUSH0 DUP3 ADD MSTORE POP JUMP JUMPDEST PUSH0 PUSH2 0x131D PUSH1 0x9 DUP4 PUSH2 0x1054 JUMP JUMPDEST SWAP2 POP PUSH2 0x1328 DUP3 PUSH2 0x12E9 JUMP JUMPDEST PUSH1 0x20 DUP3 ADD SWAP1 POP SWAP2 SWAP1 POP JUMP JUMPDEST PUSH0 PUSH1 0x20 DUP3 ADD SWAP1 POP DUP2 DUP2 SUB PUSH0 DUP4 ADD MSTORE PUSH2 0x134A DUP2 PUSH2 0x1311 JUMP JUMPDEST SWAP1 POP SWAP2 SWAP1 POP JUMP JUMPDEST PUSH0 PUSH1 0x60 DUP3 ADD SWAP1 POP PUSH2 0x1364 PUSH0 DUP4 ADD DUP7 PUSH2 0x102C JUMP JUMPDEST PUSH2 0x1371 PUSH1 0x20 DUP4 ADD DUP6 PUSH2 0x102C JUMP JUMPDEST PUSH2 0x137E PUSH1 0x40 DUP4 ADD DUP5 PUSH2 0xEF8 JUMP JUMPDEST SWAP5 SWAP4 POP POP POP POP JUMP JUMPDEST PUSH32 0x46756E64207472616E73666572206661696C6564000000000000000000000000 PUSH0 DUP3 ADD MSTORE POP JUMP JUMPDEST PUSH0 PUSH2 0x13BA PUSH1 0x14 DUP4 PUSH2 0x1054 JUMP JUMPDEST SWAP2 POP PUSH2 0x13C5 DUP3 PUSH2 0x1386 JUMP JUMPDEST PUSH1 0x20 DUP3 ADD SWAP1 POP SWAP2 SWAP1 POP JUMP JUMPDEST PUSH0 PUSH1 0x20 DUP3 ADD SWAP1 POP DUP2 DUP2 SUB PUSH0 DUP4 ADD MSTORE PUSH2 0x13E7 DUP2 PUSH2 0x13AE JUMP JUMPDEST SWAP1 POP SWAP2 SWAP1 POP JUMP JUMPDEST PUSH32 0x43616E6E6F74207374616B652030000000000000000000000000000000000000 PUSH0 DUP3 ADD MSTORE POP JUMP JUMPDEST PUSH0 PUSH2 0x1422 PUSH1 0xE DUP4 PUSH2 0x1054 JUMP JUMPDEST SWAP2 POP PUSH2 0x142D DUP3 PUSH2 0x13EE JUMP JUMPDEST PUSH1 0x20 DUP3 ADD SWAP1 POP SWAP2 SWAP1 POP JUMP JUMPDEST PUSH0 PUSH1 0x20 DUP3 ADD SWAP1 POP DUP2 DUP2 SUB PUSH0 DUP4 ADD MSTORE PUSH2 0x144F DUP2 PUSH2 0x1416 JUMP JUMPDEST SWAP1 POP SWAP2 SWAP1 POP JUMP JUMPDEST PUSH0 PUSH2 0x1460 DUP3 PUSH2 0xEEF JUMP JUMPDEST SWAP2 POP PUSH2 0x146B DUP4 PUSH2 0xEEF JUMP JUMPDEST SWAP3 POP DUP3 DUP3 ADD SWAP1 POP DUP1 DUP3 GT ISZERO PUSH2 0x1483 JUMPI PUSH2 0x1482 PUSH2 0x1134 JUMP JUMPDEST JUMPDEST SWAP3 SWAP2 POP POP JUMP JUMPDEST PUSH32 0x4E6F2072657761726420746F20636C61696D0000000000000000000000000000 PUSH0 DUP3 ADD MSTORE POP JUMP JUMPDEST PUSH0 PUSH2 0x14BD PUSH1 0x12 DUP4 PUSH2 0x1054 JUMP JUMPDEST SWAP2 POP PUSH2 0x14C8 DUP3 PUSH2 0x1489 JUMP JUMPDEST PUSH1 0x20 DUP3 ADD SWAP1 POP SWAP2 SWAP1 POP JUMP JUMPDEST PUSH0 PUSH1 0x20 DUP3 ADD SWAP1 POP DUP2 DUP2 SUB PUSH0 DUP4 ADD MSTORE PUSH2 0x14EA DUP2 PUSH2 0x14B1 JUMP JUMPDEST SWAP1 POP SWAP2 SWAP1 POP JUMP JUMPDEST PUSH32 0x526577617264207472616E73666572206661696C656400000000000000000000 PUSH0 DUP3 ADD MSTORE POP JUMP JUMPDEST PUSH0 PUSH2 0x1525 PUSH1 0x16 DUP4 PUSH2 0x1054 JUMP JUMPDEST SWAP2 POP PUSH2 0x1530 DUP3 PUSH2 0x14F1 JUMP JUMPDEST PUSH1 0x20 DUP3 ADD SWAP1 POP SWAP2 SWAP1 POP JUMP JUMPDEST PUSH0 PUSH1 0x20 DUP3 ADD SWAP1 POP DUP2 DUP2 SUB PUSH0 DUP4 ADD MSTORE PUSH2 0x1552 DUP2 PUSH2 0x1519 JUMP JUMPDEST SWAP1 POP SWAP2 SWAP1 POP JUMP JUMPDEST PUSH32 0x4E6F7468696E67207374616B6564000000000000000000000000000000000000 PUSH0 DUP3 ADD MSTORE POP JUMP JUMPDEST PUSH0 PUSH2 0x158D PUSH1 0xE DUP4 PUSH2 0x1054 JUMP JUMPDEST SWAP2 POP PUSH2 0x1598 DUP3 PUSH2 0x1559 JUMP JUMPDEST PUSH1 0x20 DUP3 ADD SWAP1 POP SWAP2 SWAP1 POP JUMP JUMPDEST PUSH0 PUSH1 0x20 DUP3 ADD SWAP1 POP DUP2 DUP2 SUB PUSH0 DUP4 ADD MSTORE PUSH2 0x15BA DUP2 PUSH2 0x1581 JUMP JUMPDEST SWAP1 POP SWAP2 SWAP1 POP JUMP JUMPDEST PUSH0 PUSH2 0x15CB DUP3 PUSH2 0xEEF JUMP JUMPDEST SWAP2 POP PUSH2 0x15D6 DUP4 PUSH2 0xEEF JUMP JUMPDEST SWAP3 POP DUP3 DUP3 MUL PUSH2 0x15E4 DUP2 PUSH2 0xEEF JUMP JUMPDEST SWAP2 POP DUP3 DUP3 DIV DUP5 EQ DUP4 ISZERO OR PUSH2 0x15FB JUMPI PUSH2 0x15FA PUSH2 0x1134 JUMP JUMPDEST JUMPDEST POP SWAP3 SWAP2 POP POP JUMP JUMPDEST PUSH32 0x4E487B7100000000000000000000000000000000000000000000000000000000 PUSH0 MSTORE PUSH1 0x12 PUSH1 0x4 MSTORE PUSH1 0x24 PUSH0 REVERT JUMPDEST PUSH0 PUSH2 0x1639 DUP3 PUSH2 0xEEF JUMP JUMPDEST SWAP2 POP PUSH2 0x1644 DUP4 PUSH2 0xEEF JUMP JUMPDEST SWAP3 POP DUP3 PUSH2 0x1654 JUMPI PUSH2 0x1653 PUSH2 0x1602 JUMP JUMPDEST JUMPDEST DUP3 DUP3 DIV SWAP1 POP SWAP3 SWAP2 POP POP JUMP INVALID LOG2 PUSH5 0x6970667358 0x22 SLT KECCAK256 0x4C PUSH30 0x8823CE863D62B9178FDCCED05F3C88CA0EF536F6C6F16ABCD20CAA06405C PUSH5 0x736F6C6343 STOP ADDMOD 0x22 STOP CALLER "
				},
				"gasEstimates": {
					"creation": {
						"codeDepositCost": "1156200",
						"executionCost": "infinite",
						"totalCost": "infinite"
					},
					"external": {
						"REWARD_RATE_PER_SECOND()": "413",
						"claimReward()": "infinite",
						"contractBalance()": "infinite",
						"emergencyWithdraw()": "infinite",
						"fundRewards(uint256)": "infinite",
						"getStakeInfo(address)": "infinite",
						"owner()": "2618",
						"stake(uint256)": "infinite",
						"stakes(address)": "infinite",
						"stakingToken()": "infinite",
						"totalStaked()": "2492",
						"unstake(uint256)": "infinite"
					},
					"internal": {
						"_calcPending(address)": "infinite"
					}
				},
				"methodIdentifiers": {
					"REWARD_RATE_PER_SECOND()": "da534353",
					"claimReward()": "b88a802f",
					"contractBalance()": "8b7afe2e",
					"emergencyWithdraw()": "db2e21bc",
					"fundRewards(uint256)": "93707a19",
					"getStakeInfo(address)": "c3453153",
					"owner()": "8da5cb5b",
					"stake(uint256)": "a694fc3a",
					"stakes(address)": "16934fc4",
					"stakingToken()": "72f702f3",
					"totalStaked()": "817b1cd2",
					"unstake(uint256)": "2e17de78"
				}
			},
			"storageLayout": {
				"storage": [
					{
						"astId": 371,
						"contract": "StakingContract.sol:StakingContract",
						"label": "owner",
						"offset": 0,
						"slot": "0",
						"type": "t_address"
					},
					{
						"astId": 376,
						"contract": "StakingContract.sol:StakingContract",
						"label": "totalStaked",
						"offset": 0,
						"slot": "1",
						"type": "t_uint256"
					},
					{
						"astId": 390,
						"contract": "StakingContract.sol:StakingContract",
						"label": "stakes",
						"offset": 0,
						"slot": "2",
						"type": "t_mapping(t_address,t_struct(StakeInfo)385_storage)"
					}
				],
				"types": {
					"t_address": {
						"encoding": "inplace",
						"label": "address",
						"numberOfBytes": "20"
					},
					"t_mapping(t_address,t_struct(StakeInfo)385_storage)": {
						"encoding": "mapping",
						"key": "t_address",
						"label": "mapping(address => struct StakingContract.StakeInfo)",
						"numberOfBytes": "32",
						"value": "t_struct(StakeInfo)385_storage"
					},
					"t_struct(StakeInfo)385_storage": {
						"encoding": "inplace",
						"label": "struct StakingContract.StakeInfo",
						"members": [
							{
								"astId": 378,
								"contract": "StakingContract.sol:StakingContract",
								"label": "amount",
								"offset": 0,
								"slot": "0",
								"type": "t_uint256"
							},
							{
								"astId": 380,
								"contract": "StakingContract.sol:StakingContract",
								"label": "stakedAt",
								"offset": 0,
								"slot": "1",
								"type": "t_uint256"
							},
							{
								"astId": 382,
								"contract": "StakingContract.sol:StakingContract",
								"label": "rewardDebt",
								"offset": 0,
								"slot": "2",
								"type": "t_uint256"
							},
							{
								"astId": 384,
								"contract": "StakingContract.sol:StakingContract",
								"label": "pendingReward",
								"offset": 0,
								"slot": "3",
								"type": "t_uint256"
							}
						],
						"numberOfBytes": "128"
					},
					"t_uint256": {
						"encoding": "inplace",
						"label": "uint256",
						"numberOfBytes": "32"
					}
				}
			},
			"userdoc": {
				"kind": "user",
				"methods": {
					"contractBalance()": {
						"notice": "컨트랙트가 보유한 토큰 (보상 재원)"
					},
					"fundRewards(uint256)": {
						"notice": "컨트랙트에 보상용 토큰을 추가 deposit"
					},
					"getStakeInfo(address)": {
						"notice": "내 스테이킹 정보 한눈에 조회"
					},
					"stake(uint256)": {
						"notice": "사전에 approve(stakingContract, amount) 를 호출해야 함"
					}
				},
				"version": 1
			}
		}
	}
}